{
	"data": {
		"bytecode": {
			"linkReferences": {},
			"object": "60a060405273b83e47c2bc239b3bf370bc41e1459a34b41238d060015f6101000a81548173ffffffffffffffffffffffffffffffffffffffff021916908373ffffffffffffffffffffffffffffffffffffffff1602179055507f66756e2d657468657265756d2d7365706f6c69612d31000000000000000000005f1b600255620493e060035f6101000a81548163ffffffff021916908363ffffffff1602179055503480156100ac575f80fd5b506040516146fd3803806146fd83398181016040528101906100ce91906101d4565b60015f9054906101000a900473ffffffffffffffffffffffffffffffffffffffff168073ffffffffffffffffffffffffffffffffffffffff1660808173ffffffffffffffffffffffffffffffffffffffff168152505050335f806101000a81548173ffffffffffffffffffffffffffffffffffffffff021916908373ffffffffffffffffffffffffffffffffffffffff16021790555080600360046101000a81548167ffffffffffffffff021916908367ffffffffffffffff160217905550506101ff565b5f80fd5b5f67ffffffffffffffff82169050919050565b6101b381610197565b81146101bd575f80fd5b50565b5f815190506101ce816101aa565b92915050565b5f602082840312156101e9576101e8610193565b5b5f6101f6848285016101c0565b91505092915050565b6080516144df61021e5f395f8181610320015261202701526144df5ff3fe608060405260043610610090575f3560e01c80638da5cb5b116100585780638da5cb5b14610138578063a9059cbb14610162578063b58be5df1461017e578063bc6c50de146101c4578063bd2449b5146101e057610090565b806302b28c5a146100945780630ca76175146100b05780631befbf39146100d857806350b888461461010057806361d839bd1461011c575b5f80fd5b6100ae60048036038101906100a99190612e56565b6101fc565b005b3480156100bb575f80fd5b506100d660048036038101906100d19190612f9d565b61031e565b005b3480156100e3575f80fd5b506100fe60048036038101906100f99190612e56565b6103e0565b005b61011a60048036038101906101159190612e56565b6109c1565b005b61013660048036038101906101319190613058565b610a34565b005b348015610143575f80fd5b5061014c610c60565b6040516101599190613190565b60405180910390f35b61017c600480360381019061017791906131d3565b610c83565b005b348015610189575f80fd5b506101a4600480360381019061019f9190613211565b610d89565b6040516101bb9b9a999897969594939291906132c5565b60405180910390f35b6101de60048036038101906101d99190612e56565b611050565b005b6101fa60048036038101906101f59190612e56565b61127f565b005b5f6102078383611435565b90503373ffffffffffffffffffffffffffffffffffffffff16600682815481106102345761023361338a565b5b905f5260205f2090600b02016002015f9054906101000a900473ffffffffffffffffffffffffffffffffffffffff1673ffffffffffffffffffffffffffffffffffffffff1614610282575f80fd5b600681815481106102965761029561338a565b5b905f5260205f2090600b020160060154346102b191906133e4565b600682815481106102c5576102c461338a565b5b905f5260205f2090600b020160070154146102de575f80fd5b6001600682815481106102f4576102f361338a565b5b905f5260205f2090600b0201600a015f6101000a81548160ff021916908315150217905550505050565b7f000000000000000000000000000000000000000000000000000000000000000073ffffffffffffffffffffffffffffffffffffffff163373ffffffffffffffffffffffffffffffffffffffff16146103a3576040517fc6829f8300000000000000000000000000000000000000000000000000000000815260040160405180910390fd5b6103ae838383611503565b827f85e1543bf2f84fe80c6badbce3648c8539ad1df4d2b3d822938ca0538be727e660405160405180910390a2505050565b5f6103eb8383611435565b90505f73ffffffffffffffffffffffffffffffffffffffff16600682815481106104185761041761338a565b5b905f5260205f2090600b02016002015f9054906101000a900473ffffffffffffffffffffffffffffffffffffffff1673ffffffffffffffffffffffffffffffffffffffff1614801561048c5750426006828154811061047a5761047961338a565b5b905f5260205f2090600b020160080154105b156105e6575f80600683815481106104a7576104a661338a565b5b905f5260205f2090600b02016002015f9054906101000a900473ffffffffffffffffffffffffffffffffffffffff1673ffffffffffffffffffffffffffffffffffffffff1660068481548110610500576104ff61338a565b5b905f5260205f2090600b02016006015460405161051c90613444565b5f6040518083038185875af1925050503d805f8114610556576040519150601f19603f3d011682016040523d82523d5f602084013e61055b565b606091505b5091509150816105a0576040517f08c379a0000000000000000000000000000000000000000000000000000000008152600401610597906134a2565b60405180910390fd5b6105a983611932565b7fb749d4cbef5280ab440645a46bbada3f52c0d015210cfceabd4e5b4e49195f776040516105d690613530565b60405180910390a15050506109bd565b42600682815481106105fb576105fa61338a565b5b905f5260205f2090600b0201600901541080156106455750600681815481106106275761062661338a565b5b905f5260205f2090600b0201600a015f9054906101000a900460ff16155b156107b0575f6002600683815481106106615761066061338a565b5b905f5260205f2090600b02016006015461067b919061354e565b90505f80600684815481106106935761069261338a565b5b905f5260205f2090600b02016003015f9054906101000a900473ffffffffffffffffffffffffffffffffffffffff1673ffffffffffffffffffffffffffffffffffffffff16836040516106e590613444565b5f6040518083038185875af1925050503d805f811461071f576040519150601f19603f3d011682016040523d82523d5f602084013e610724565b606091505b509150915081610769576040517f08c379a0000000000000000000000000000000000000000000000000000000008152600401610760906134a2565b60405180910390fd5b61077284611932565b7fb749d4cbef5280ab440645a46bbada3f52c0d015210cfceabd4e5b4e49195f7760405161079f906135ff565b60405180910390a1505050506109bd565b600681815481106107c4576107c361338a565b5b905f5260205f2090600b0201600a015f9054906101000a900460ff16156109bb576107ed612b89565b5f6040518060600160405280603581526020016144756035913990508060405160200161081a91906136ed565b604051602081830303815290604052905080600684815481106108405761083f61338a565b5b905f5260205f2090600b02016004016040516020016108609291906137fd565b6040516020818303038152906040529050806040516020016108829190613846565b604051602081830303815290604052905080600684815481106108a8576108a761338a565b5b905f5260205f2090600b02016001016040516020016108c89291906137fd565b6040516020818303038152906040529050806040516020016108ea9190613891565b604051602081830303815290604052905080600684815481106109105761090f61338a565b5b905f5260205f2090600b02015f0160405160200161092f9291906137fd565b60405160208183030381529060405290508060405160200161095191906139e4565b60405160208183030381529060405290506109758183611c0e90919063ffffffff16565b6109b261098183611c1e565b600360049054906101000a900467ffffffffffffffff1660035f9054906101000a900463ffffffff16600254612023565b60048190555050505b505b5050565b5f6109cc8383611435565b905033600682815481106109e3576109e261338a565b5b905f5260205f2090600b02016002015f6101000a81548173ffffffffffffffffffffffffffffffffffffffff021916908373ffffffffffffffffffffffffffffffffffffffff160217905550505050565b610a3d84612102565b610a45575f80fd5b610a4e83612102565b610a56575f80fd5b610a5e612bf8565b86815f018190525085816020018190525033816060019073ffffffffffffffffffffffffffffffffffffffff16908173ffffffffffffffffffffffffffffffffffffffff1681525050848160800181905250838160a00181905250348160c0018181525050828160e00181815250505f81610140019015159081151581525050600542610aeb91906133e4565b816101200181815250504281610100018181525050600681908060018154018082558091505060019003905f5260205f2090600b02015f909190919091505f820151815f019081610b3c9190613b90565b506020820151816001019081610b529190613b90565b506040820151816002015f6101000a81548173ffffffffffffffffffffffffffffffffffffffff021916908373ffffffffffffffffffffffffffffffffffffffff1602179055506060820151816003015f6101000a81548173ffffffffffffffffffffffffffffffffffffffff021916908373ffffffffffffffffffffffffffffffffffffffff1602179055506080820151816004019081610bf49190613b90565b5060a0820151816005019081610c0a9190613b90565b5060c0820151816006015560e082015181600701556101008201518160080155610120820151816009015561014082015181600a015f6101000a81548160ff021916908315150217905550505050505050505050565b5f8054906101000a900473ffffffffffffffffffffffffffffffffffffffff1681565b5f8054906101000a900473ffffffffffffffffffffffffffffffffffffffff1673ffffffffffffffffffffffffffffffffffffffff163373ffffffffffffffffffffffffffffffffffffffff1614610cd9575f80fd5b5f808373ffffffffffffffffffffffffffffffffffffffff1683604051610cff90613444565b5f6040518083038185875af1925050503d805f8114610d39576040519150601f19603f3d011682016040523d82523d5f602084013e610d3e565b606091505b509150915081610d83576040517f08c379a0000000000000000000000000000000000000000000000000000000008152600401610d7a906134a2565b60405180910390fd5b50505050565b60068181548110610d98575f80fd5b905f5260205f2090600b02015f91509050805f018054610db79061373b565b80601f0160208091040260200160405190810160405280929190818152602001828054610de39061373b565b8015610e2e5780601f10610e0557610100808354040283529160200191610e2e565b820191905f5260205f20905b815481529060010190602001808311610e1157829003601f168201915b505050505090806001018054610e439061373b565b80601f0160208091040260200160405190810160405280929190818152602001828054610e6f9061373b565b8015610eba5780601f10610e9157610100808354040283529160200191610eba565b820191905f5260205f20905b815481529060010190602001808311610e9d57829003601f168201915b505050505090806002015f9054906101000a900473ffffffffffffffffffffffffffffffffffffffff1690806003015f9054906101000a900473ffffffffffffffffffffffffffffffffffffffff1690806004018054610f199061373b565b80601f0160208091040260200160405190810160405280929190818152602001828054610f459061373b565b8015610f905780601f10610f6757610100808354040283529160200191610f90565b820191905f5260205f20905b815481529060010190602001808311610f7357829003601f168201915b505050505090806005018054610fa59061373b565b80601f0160208091040260200160405190810160405280929190818152602001828054610fd19061373b565b801561101c5780601f10610ff35761010080835404028352916020019161101c565b820191905f5260205f20905b815481529060010190602001808311610fff57829003601f168201915b50505050509080600601549080600701549080600801549080600901549080600a015f9054906101000a900460ff1690508b565b5f61105b8383611435565b90503373ffffffffffffffffffffffffffffffffffffffff16600682815481106110885761108761338a565b5b905f5260205f2090600b02016003015f9054906101000a900473ffffffffffffffffffffffffffffffffffffffff1673ffffffffffffffffffffffffffffffffffffffff16146110d6575f80fd5b5f73ffffffffffffffffffffffffffffffffffffffff16600682815481106111015761110061338a565b5b905f5260205f2090600b02016002015f9054906101000a900473ffffffffffffffffffffffffffffffffffffffff1673ffffffffffffffffffffffffffffffffffffffff160361114f575f80fd5b5f6002600683815481106111665761116561338a565b5b905f5260205f2090600b020160060154611180919061354e565b90505f80600684815481106111985761119761338a565b5b905f5260205f2090600b02016002015f9054906101000a900473ffffffffffffffffffffffffffffffffffffffff1673ffffffffffffffffffffffffffffffffffffffff16836040516111ea90613444565b5f6040518083038185875af1925050503d805f8114611224576040519150601f19603f3d011682016040523d82523d5f602084013e611229565b606091505b50915091508161126e576040517f08c379a0000000000000000000000000000000000000000000000000000000008152600401611265906134a2565b60405180910390fd5b61127784611932565b505050505050565b5f61128a8383611435565b90503373ffffffffffffffffffffffffffffffffffffffff16600682815481106112b7576112b661338a565b5b905f5260205f2090600b02016002015f9054906101000a900473ffffffffffffffffffffffffffffffffffffffff1673ffffffffffffffffffffffffffffffffffffffff1614611305575f80fd5b5f60026006838154811061131c5761131b61338a565b5b905f5260205f2090600b020160060154611336919061354e565b90505f806006848154811061134e5761134d61338a565b5b905f5260205f2090600b02016003015f9054906101000a900473ffffffffffffffffffffffffffffffffffffffff1673ffffffffffffffffffffffffffffffffffffffff16836040516113a090613444565b5f6040518083038185875af1925050503d805f81146113da576040519150601f19603f3d011682016040523d82523d5f602084013e6113df565b606091505b509150915081611424576040517f08c379a000000000000000000000000000000000000000000000000000000000815260040161141b906134a2565b60405180910390fd5b61142d84611932565b505050505050565b5f805f90505f5b6006805490508110156114ee578480519060200120600682815481106114655761146461338a565b5b905f5260205f2090600b02015f016040516114809190613cf1565b60405180910390201480156114d257508380519060200120600682815481106114ac576114ab61338a565b5b905f5260205f2090600b02016001016040516114c89190613cf1565b6040518091039020145b156114e15780925050506114fd565b808060010191505061143c565b50806114f8575f80fd5b5f9150505b92915050565b8260045414611547576040517f08c379a000000000000000000000000000000000000000000000000000000000815260040161153e906134a2565b60405180910390fd5b5f829050426006600554815481106115625761156161338a565b5b905f5260205f2090600b0201600901541080156115c157506040518060400160405280600381526020017f3230340000000000000000000000000000000000000000000000000000000000815250805190602001208180519060200120145b15611756575f6006600554815481106115dd576115dc61338a565b5b905f5260205f2090600b0201600601546006600554815481106116035761160261338a565b5b905f5260205f2090600b02016007015461161d91906133e4565b90505f806006600554815481106116375761163661338a565b5b905f5260205f2090600b02016002015f9054906101000a900473ffffffffffffffffffffffffffffffffffffffff1673ffffffffffffffffffffffffffffffffffffffff168360405161168990613444565b5f6040518083038185875af1925050503d805f81146116c3576040519150601f19603f3d011682016040523d82523d5f602084013e6116c8565b606091505b50915091508161170d576040517f08c379a0000000000000000000000000000000000000000000000000000000008152600401611704906134a2565b60405180910390fd5b611718600554611932565b7fb749d4cbef5280ab440645a46bbada3f52c0d015210cfceabd4e5b4e49195f7760405161174590613dc3565b60405180910390a15050505061192d565b6040518060400160405280600381526020017f32303000000000000000000000000000000000000000000000000000000000008152508051906020012081805190602001200361192b575f6006600554815481106117b7576117b661338a565b5b905f5260205f2090600b0201600601546006600554815481106117dd576117dc61338a565b5b905f5260205f2090600b0201600701546117f791906133e4565b90505f806006600554815481106118115761181061338a565b5b905f5260205f2090600b02016003015f9054906101000a900473ffffffffffffffffffffffffffffffffffffffff1673ffffffffffffffffffffffffffffffffffffffff168360405161186390613444565b5f6040518083038185875af1925050503d805f811461189d576040519150601f19603f3d011682016040523d82523d5f602084013e6118a2565b606091505b5091509150816118e7576040517f08c379a00000000000000000000000000000000000000000000000000000000081526004016118de906134a2565b60405180910390fd5b7fb749d4cbef5280ab440645a46bbada3f52c0d015210cfceabd4e5b4e49195f7760405161191490613e51565b60405180910390a1611927600554611932565b5050505b505b505050565b6006805490508110611942575f80fd5b5f8190505b60016006805490506119599190613e6f565b811015611b2b57600660018261196f91906133e4565b815481106119805761197f61338a565b5b905f5260205f2090600b0201600682815481106119a05761199f61338a565b5b905f5260205f2090600b02015f8201815f0190816119be9190613eb7565b50600182018160010190816119d39190613eb7565b50600282015f9054906101000a900473ffffffffffffffffffffffffffffffffffffffff16816002015f6101000a81548173ffffffffffffffffffffffffffffffffffffffff021916908373ffffffffffffffffffffffffffffffffffffffff160217905550600382015f9054906101000a900473ffffffffffffffffffffffffffffffffffffffff16816003015f6101000a81548173ffffffffffffffffffffffffffffffffffffffff021916908373ffffffffffffffffffffffffffffffffffffffff16021790555060048201816004019081611ab29190613eb7565b5060058201816005019081611ac79190613eb7565b5060068201548160060155600782015481600701556008820154816008015560098201548160090155600a82015f9054906101000a900460ff1681600a015f6101000a81548160ff0219169083151502179055509050508080600101915050611947565b506006805480611b3e57611b3d613f9c565b5b600190038181905f5260205f2090600b02015f8082015f611b5f9190612c79565b600182015f611b6e9190612c79565b600282015f6101000a81549073ffffffffffffffffffffffffffffffffffffffff0219169055600382015f6101000a81549073ffffffffffffffffffffffffffffffffffffffff0219169055600482015f611bc99190612c79565b600582015f611bd89190612c79565b600682015f9055600782015f9055600882015f9055600982015f9055600a82015f6101000a81549060ff02191690555050905550565b611c1a825f808461236e565b5050565b60605f611c2c610100612414565b9050611c766040518060400160405280600c81526020017f636f64654c6f636174696f6e00000000000000000000000000000000000000008152508261243990919063ffffffff16565b611c9e835f01516002811115611c8f57611c8e613fc9565b5b8261246190919063ffffffff16565b611ce66040518060400160405280600881526020017f6c616e67756167650000000000000000000000000000000000000000000000008152508261243990919063ffffffff16565b611d0e83604001515f811115611cff57611cfe613fc9565b5b8261246190919063ffffffff16565b611d566040518060400160405280600681526020017f736f7572636500000000000000000000000000000000000000000000000000008152508261243990919063ffffffff16565b611d6d83606001518261243990919063ffffffff16565b5f8360a00151511115611e2157611dc26040518060400160405280600481526020017f61726773000000000000000000000000000000000000000000000000000000008152508261243990919063ffffffff16565b611dcb816124b0565b5f5b8360a0015151811015611e1657611e0b8460a001518281518110611df457611df361338a565b5b60200260200101518361243990919063ffffffff16565b806001019050611dcd565b50611e20816124d8565b5b5f8360800151511115611f60575f6002811115611e4157611e40613fc9565b5b83602001516002811115611e5857611e57613fc9565b5b03611e8f576040517fa80d31f700000000000000000000000000000000000000000000000000000000815260040160405180910390fd5b611ed76040518060400160405280600f81526020017f736563726574734c6f636174696f6e00000000000000000000000000000000008152508261243990919063ffffffff16565b611f0083602001516002811115611ef157611ef0613fc9565b5b8261246190919063ffffffff16565b611f486040518060400160405280600781526020017f73656372657473000000000000000000000000000000000000000000000000008152508261243990919063ffffffff16565b611f5f83608001518261250090919063ffffffff16565b5b5f8360c0015151111561201457611fb56040518060400160405280600981526020017f62797465734172677300000000000000000000000000000000000000000000008152508261243990919063ffffffff16565b611fbe816124b0565b5f5b8360c001515181101561200957611ffe8460c001518281518110611fe757611fe661338a565b5b60200260200101518361250090919063ffffffff16565b806001019050611fc0565b50612013816124d8565b5b805f01515f0151915050919050565b5f807f000000000000000000000000000000000000000000000000000000000000000073ffffffffffffffffffffffffffffffffffffffff1663461d27628688600188886040518663ffffffff1660e01b81526004016120879594939291906140b3565b6020604051808303815f875af11580156120a3573d5f803e3d5ffd5b505050506040513d601f19601f820116820180604052508101906120c7919061411f565b9050807f1131472297a800fee664d1d89cfa8f7676ff07189ecc53f80bbb5f4969099db860405160405180910390a280915050949350505050565b5f80829050600b815114612119575f915050612369565b5f5b600a8160ff16101561219d575f6121348260ff16612528565b90505f8182838485868788898a8b60405160200161215c9b9a9998979695949392919061414a565b6040516020818303038152906040529050808051906020012084805190602001200361218e575f945050505050612369565b5050808060010191505061211b565b505f80600a90505f5b60098160ff1610156122165781806121bd906141ee565b92506030858360ff16815181106121d7576121d661338a565b5b602001015160f81c60f81b60f81c6121ef9190614215565b6121f99190614249565b60ff168361220791906133e4565b925080806001019150506121a6565b505f600b8361222591906142b2565b9050600281106122415780600b61223c9190613e6f565b612243565b5f5b90508060308560098151811061225c5761225b61338a565b5b602001015160f81c60f81b60f81c6122749190614215565b60ff1614612288575f945050505050612369565b5f9250600b91505f5b600a8160ff1610156123015782806122a8906141ee565b93506030868360ff16815181106122c2576122c161338a565b5b602001015160f81c60f81b60f81c6122da9190614215565b6122e49190614249565b60ff16846122f291906133e4565b93508080600101915050612291565b50600b8361230f91906142b2565b90506002811061232b5780600b6123269190613e6f565b61232d565b5f5b905080603085600a815181106123465761234561338a565b5b602001015160f81c60f81b60f81c61235e9190614215565b60ff16149450505050505b919050565b5f8151036123a8576040517f22ce3edd00000000000000000000000000000000000000000000000000000000815260040160405180910390fd5b82845f019060028111156123bf576123be613fc9565b5b908160028111156123d3576123d2613fc9565b5b815250508184604001905f8111156123ee576123ed613fc9565b5b90815f81111561240157612400613fc9565b5b8152505080846060018190525050505050565b61241c612cb6565b612429815f0151836125f2565b505f816020018181525050919050565b6124468260038351612668565b61245c81835f015161280890919063ffffffff16565b505050565b61248260026005600660ff16901b17835f015161282490919063ffffffff16565b506124ac828260405160200161249891906142e2565b604051602081830303815290604052612500565b5050565b6124bb81600461288b565b6001816020018181516124ce91906133e4565b9150818152505050565b6124e381600761288b565b6001816020018181516124f69190613e6f565b9150818152505050565b61250d8260028351612668565b61252381835f015161280890919063ffffffff16565b505050565b60605f6001612536846128b0565b0190505f8167ffffffffffffffff81111561255457612553612d32565b5b6040519080825280601f01601f1916602001820160405280156125865781602001600182028036833780820191505090505b5090505f82602001820190505b6001156125e7578080600190039150507f3031323334353637383961626364656600000000000000000000000000000000600a86061a8153600a85816125dc576125db614285565b5b0494505f8503612593575b819350505050919050565b6125fa612cd5565b5f60208361260891906142b2565b146126345760208261261a91906142b2565b60206126269190613e6f565b8261263191906133e4565b91505b818360200181815250506040518084525f815282810160200181811015612659575f80fd5b80604052505082905092915050565b60178167ffffffffffffffff16116126a25761269c8160058460ff16901b60ff1617845f015161282490919063ffffffff16565b50612803565b60ff8167ffffffffffffffff16116126fe576126d4601860058460ff16901b17845f015161282490919063ffffffff16565b506126f88167ffffffffffffffff166001855f0151612a019092919063ffffffff16565b50612802565b61ffff8167ffffffffffffffff161161275b57612731601960058460ff16901b17845f015161282490919063ffffffff16565b506127558167ffffffffffffffff166002855f0151612a019092919063ffffffff16565b50612801565b63ffffffff8167ffffffffffffffff16116127ba57612790601a60058460ff16901b17845f015161282490919063ffffffff16565b506127b48167ffffffffffffffff166004855f0151612a019092919063ffffffff16565b50612800565b6127da601b60058460ff16901b17845f015161282490919063ffffffff16565b506127fe8167ffffffffffffffff166008855f0151612a019092919063ffffffff16565b505b5b5b5b505050565b612810612cd5565b61281c83838451612a8a565b905092915050565b61282c612cd5565b5f835f01515190505f60018261284291906133e4565b9050846020015182106128665761286585600283612860919061354e565b612b67565b5b8451602083820101858153815183111561287e578282525b5050849250505092915050565b6128ab601f60058360ff16901b17835f015161282490919063ffffffff16565b505050565b5f805f90507a184f03e93ff9f4daa797ed6e38ed64bf6a1f010000000000000000831061290c577a184f03e93ff9f4daa797ed6e38ed64bf6a1f010000000000000000838161290257612901614285565b5b0492506040810190505b6d04ee2d6d415b85acef81000000008310612949576d04ee2d6d415b85acef8100000000838161293f5761293e614285565b5b0492506020810190505b662386f26fc10000831061297857662386f26fc10000838161296e5761296d614285565b5b0492506010810190505b6305f5e10083106129a1576305f5e100838161299757612996614285565b5b0492506008810190505b61271083106129c65761271083816129bc576129bb614285565b5b0492506004810190505b606483106129e957606483816129df576129de614285565b5b0492506002810190505b600a83106129f8576001810190505b80915050919050565b612a09612cd5565b5f845f01515190505f8184612a1e91906133e4565b90508560200151811115612a4357612a4286600283612a3d919061354e565b612b67565b5b5f600185610100612a54919061442a565b612a5e9190613e6f565b905086518281018783198251161781528151841115612a7b578382525b50508693505050509392505050565b612a92612cd5565b8251821115612a9f575f80fd5b5f845f01515190505f8382612ab491906133e4565b90508560200151811115612ad957612ad886600283612ad3919061354e565b612b67565b5b5f8087518051856020830101935080851115612af3578482525b60208901925050505b60208610612b3a5780518252602082612b1591906133e4565b9150602081612b2491906133e4565b9050602086612b339190613e6f565b9550612afc565b5f6001876020036101000a0390508019825116818451168181178552505050879450505050509392505050565b5f825f01519050612b7883836125f2565b50612b838382612808565b50505050565b6040518060e001604052805f6002811115612ba757612ba6613fc9565b5b81526020015f6002811115612bbf57612bbe613fc9565b5b81526020015f80811115612bd657612bd5613fc9565b5b8152602001606081526020016060815260200160608152602001606081525090565b60405180610160016040528060608152602001606081526020015f73ffffffffffffffffffffffffffffffffffffffff1681526020015f73ffffffffffffffffffffffffffffffffffffffff16815260200160608152602001606081526020015f81526020015f81526020015f81526020015f81526020015f151581525090565b508054612c859061373b565b5f825580601f10612c965750612cb3565b601f0160209004905f5260205f2090810190612cb29190612cee565b5b50565b6040518060400160405280612cc9612cd5565b81526020015f81525090565b6040518060400160405280606081526020015f81525090565b5b80821115612d05575f815f905550600101612cef565b5090565b5f604051905090565b5f80fd5b5f80fd5b5f80fd5b5f80fd5b5f601f19601f8301169050919050565b7f4e487b71000000000000000000000000000000000000000000000000000000005f52604160045260245ffd5b612d6882612d22565b810181811067ffffffffffffffff82111715612d8757612d86612d32565b5b80604052505050565b5f612d99612d09565b9050612da58282612d5f565b919050565b5f67ffffffffffffffff821115612dc457612dc3612d32565b5b612dcd82612d22565b9050602081019050919050565b828183375f83830152505050565b5f612dfa612df584612daa565b612d90565b905082815260208101848484011115612e1657612e15612d1e565b5b612e21848285612dda565b509392505050565b5f82601f830112612e3d57612e3c612d1a565b5b8135612e4d848260208601612de8565b91505092915050565b5f8060408385031215612e6c57612e6b612d12565b5b5f83013567ffffffffffffffff811115612e8957612e88612d16565b5b612e9585828601612e29565b925050602083013567ffffffffffffffff811115612eb657612eb5612d16565b5b612ec285828601612e29565b9150509250929050565b5f819050919050565b612ede81612ecc565b8114612ee8575f80fd5b50565b5f81359050612ef981612ed5565b92915050565b5f67ffffffffffffffff821115612f1957612f18612d32565b5b612f2282612d22565b9050602081019050919050565b5f612f41612f3c84612eff565b612d90565b905082815260208101848484011115612f5d57612f5c612d1e565b5b612f68848285612dda565b509392505050565b5f82601f830112612f8457612f83612d1a565b5b8135612f94848260208601612f2f565b91505092915050565b5f805f60608486031215612fb457612fb3612d12565b5b5f612fc186828701612eeb565b935050602084013567ffffffffffffffff811115612fe257612fe1612d16565b5b612fee86828701612f70565b925050604084013567ffffffffffffffff81111561300f5761300e612d16565b5b61301b86828701612f70565b9150509250925092565b5f819050919050565b61303781613025565b8114613041575f80fd5b50565b5f813590506130528161302e565b92915050565b5f805f805f8060c0878903121561307257613071612d12565b5b5f87013567ffffffffffffffff81111561308f5761308e612d16565b5b61309b89828a01612e29565b965050602087013567ffffffffffffffff8111156130bc576130bb612d16565b5b6130c889828a01612e29565b955050604087013567ffffffffffffffff8111156130e9576130e8612d16565b5b6130f589828a01612e29565b945050606087013567ffffffffffffffff81111561311657613115612d16565b5b61312289828a01612e29565b935050608061313389828a01613044565b92505060a061314489828a01613044565b9150509295509295509295565b5f73ffffffffffffffffffffffffffffffffffffffff82169050919050565b5f61317a82613151565b9050919050565b61318a81613170565b82525050565b5f6020820190506131a35f830184613181565b92915050565b6131b281613170565b81146131bc575f80fd5b50565b5f813590506131cd816131a9565b92915050565b5f80604083850312156131e9576131e8612d12565b5b5f6131f6858286016131bf565b925050602061320785828601613044565b9150509250929050565b5f6020828403121561322657613225612d12565b5b5f61323384828501613044565b91505092915050565b5f81519050919050565b5f82825260208201905092915050565b8281835e5f83830152505050565b5f61326e8261323c565b6132788185613246565b9350613288818560208601613256565b61329181612d22565b840191505092915050565b6132a581613025565b82525050565b5f8115159050919050565b6132bf816132ab565b82525050565b5f610160820190508181035f8301526132de818e613264565b905081810360208301526132f2818d613264565b9050613301604083018c613181565b61330e606083018b613181565b8181036080830152613320818a613264565b905081810360a08301526133348189613264565b905061334360c083018861329c565b61335060e083018761329c565b61335e61010083018661329c565b61336c61012083018561329c565b61337a6101408301846132b6565b9c9b505050505050505050505050565b7f4e487b71000000000000000000000000000000000000000000000000000000005f52603260045260245ffd5b7f4e487b71000000000000000000000000000000000000000000000000000000005f52601160045260245ffd5b5f6133ee82613025565b91506133f983613025565b9250828201905080821115613411576134106133b7565b5b92915050565b5f81905092915050565b50565b5f61342f5f83613417565b915061343a82613421565b5f82019050919050565b5f61344e82613424565b9150819050919050565b7f4661696c656420746f2073656e642045746865720000000000000000000000005f82015250565b5f61348c601483613246565b915061349782613458565b602082019050919050565b5f6020820190508181035f8301526134b981613480565b9050919050565b7f436f6d707261646f72206e616f207061676f752061732061727261732c2076615f8201527f6c6f72207265656d626f6c7361646f20616f2076656e6465646f720000000000602082015250565b5f61351a603b83613246565b9150613525826134c0565b604082019050919050565b5f6020820190508181035f8301526135478161350e565b9050919050565b5f61355882613025565b915061356383613025565b925082820261357181613025565b91508282048414831517613588576135876133b7565b5b5092915050565b7f436f6d707261646f72206e616f207061676f752076616c6f7220646f206361725f8201527f726f2c20617272617320656e76696164617320616f2076656e6465646f720000602082015250565b5f6135e9603e83613246565b91506135f48261358f565b604082019050919050565b5f6020820190508181035f830152613616816135dd565b9050919050565b5f81905092915050565b5f6136318261323c565b61363b818561361d565b935061364b818560208601613256565b80840191505092915050565b7f75726c3a206068747470733a2f2f6170692e7269636172646f6775696d6172615f8201527f65732e6465762f76312f76656963756c6f732f70726f70726965746172696f2f60208201527f6370662f00000000000000000000000000000000000000000000000000000000604082015250565b5f6136d760448361361d565b91506136e282613657565b604482019050919050565b5f6136f88284613627565b9150613703826136cb565b915081905092915050565b7f4e487b71000000000000000000000000000000000000000000000000000000005f52602260045260245ffd5b5f600282049050600182168061375257607f821691505b6020821081036137655761376461370e565b5b50919050565b5f819050815f5260205f209050919050565b5f81546137898161373b565b613793818661361d565b9450600182165f81146137ad57600181146137c2576137f4565b60ff19831686528115158202860193506137f4565b6137cb8561376b565b5f5b838110156137ec578154818901526001820191506020810190506137cd565b838801955050505b50505092915050565b5f6138088285613627565b9150613814828461377d565b91508190509392505050565b7f2f706c6163612f00000000000000000000000000000000000000000000000000815250565b5f6138518284613627565b915061385c82613820565b60078201915081905092915050565b7f2f72656e6176616d2f0000000000000000000000000000000000000000000000815250565b5f61389c8284613627565b91506138a78261386b565b60098201915081905092915050565b7f607d293b69662028617069526573706f6e73652e6572726f7229207b726574755f8201527f726e2046756e6374696f6e732e656e636f6465537472696e672827353030272960208201527f3b7d636f6e7374207b2064617461207d203d20617069526573706f6e73653b6360408201527f6f6e73742076657269666963615472616e73666572656e636961203d2064617460608201527f612e72656e6176616d20213d3d206e756c6c203f202732303027203a2027323060808201527f34273b2072657475726e2046756e6374696f6e732e656e636f6465537472696e60a08201527f672876657269666963615472616e73666572656e636961293b0000000000000060c082015250565b5f6139ce60d98361361d565b91506139d9826138b6565b60d982019050919050565b5f6139ef8284613627565b91506139fa826139c2565b915081905092915050565b5f6020601f8301049050919050565b5f82821b905092915050565b5f60088302613a4f7fffffffffffffffffffffffffffffffffffffffffffffffffffffffffffffffff82613a14565b613a598683613a14565b95508019841693508086168417925050509392505050565b5f819050919050565b5f613a94613a8f613a8a84613025565b613a71565b613025565b9050919050565b5f819050919050565b613aad83613a7a565b613ac1613ab982613a9b565b848454613a20565b825550505050565b5f90565b613ad5613ac9565b613ae0818484613aa4565b505050565b5b81811015613b0357613af85f82613acd565b600181019050613ae6565b5050565b601f821115613b4857613b198161376b565b613b2284613a05565b81016020851015613b31578190505b613b45613b3d85613a05565b830182613ae5565b50505b505050565b5f82821c905092915050565b5f613b685f1984600802613b4d565b1980831691505092915050565b5f613b808383613b59565b9150826002028217905092915050565b613b998261323c565b67ffffffffffffffff811115613bb257613bb1612d32565b5b613bbc825461373b565b613bc7828285613b07565b5f60209050601f831160018114613bf8575f8415613be6578287015190505b613bf08582613b75565b865550613c57565b601f198416613c068661376b565b5f5b82811015613c2d57848901518255600182019150602085019450602081019050613c08565b86831015613c4a5784890151613c46601f891682613b59565b8355505b6001600288020188555050505b505050505050565b5f819050815f5260205f209050919050565b5f8154613c7d8161373b565b613c878186613417565b9450600182165f8114613ca15760018114613cb657613ce8565b60ff1983168652811515820286019350613ce8565b613cbf85613c5f565b5f5b83811015613ce057815481890152600182019150602081019050613cc1565b838801955050505b50505092915050565b5f613cfc8284613c71565b915081905092915050565b7f436f6d707261646f72207061676f75206f2076656e6465646f722c20706f72655f8201527f6d206f20636172726f206e616f20666f69207472616e7366657269646f2e205260208201527f65656d626f6c736f206520617272617320656e76696164617320616f20636f6d60408201527f707261646f720000000000000000000000000000000000000000000000000000606082015250565b5f613dad606683613246565b9150613db882613d07565b608082019050919050565b5f6020820190508181035f830152613dda81613da1565b9050919050565b7f436f6e747261746f2063756d707269646f2c2076616c6f7220656e766961646f5f8201527f20616f2076656e6465646f720000000000000000000000000000000000000000602082015250565b5f613e3b602c83613246565b9150613e4682613de1565b604082019050919050565b5f6020820190508181035f830152613e6881613e2f565b9050919050565b5f613e7982613025565b9150613e8483613025565b9250828203905081811115613e9c57613e9b6133b7565b5b92915050565b5f81549050613eb08161373b565b9050919050565b818103613ec5575050613f9a565b613ece82613ea2565b67ffffffffffffffff811115613ee757613ee6612d32565b5b613ef1825461373b565b613efc828285613b07565b5f601f831160018114613f29575f8415613f17578287015490505b613f218582613b75565b865550613f93565b601f198416613f378761376b565b9650613f428661376b565b5f5b82811015613f6957848901548255600182019150600185019450602081019050613f44565b86831015613f865784890154613f82601f891682613b59565b8355505b6001600288020188555050505b5050505050505b565b7f4e487b71000000000000000000000000000000000000000000000000000000005f52603160045260245ffd5b7f4e487b71000000000000000000000000000000000000000000000000000000005f52602160045260245ffd5b5f67ffffffffffffffff82169050919050565b61401281613ff6565b82525050565b5f81519050919050565b5f82825260208201905092915050565b5f61403c82614018565b6140468185614022565b9350614056818560208601613256565b61405f81612d22565b840191505092915050565b5f61ffff82169050919050565b6140808161406a565b82525050565b5f63ffffffff82169050919050565b61409e81614086565b82525050565b6140ad81612ecc565b82525050565b5f60a0820190506140c65f830188614009565b81810360208301526140d88187614032565b90506140e76040830186614077565b6140f46060830185614095565b61410160808301846140a4565b9695505050505050565b5f8151905061411981612ed5565b92915050565b5f6020828403121561413457614133612d12565b5b5f6141418482850161410b565b91505092915050565b5f614155828e613627565b9150614161828d613627565b915061416d828c613627565b9150614179828b613627565b9150614185828a613627565b91506141918289613627565b915061419d8288613627565b91506141a98287613627565b91506141b58286613627565b91506141c18285613627565b91506141cd8284613627565b91508190509c9b505050505050505050505050565b5f60ff82169050919050565b5f6141f8826141e2565b91505f820361420a576142096133b7565b5b600182039050919050565b5f61421f826141e2565b915061422a836141e2565b9250828203905060ff811115614243576142426133b7565b5b92915050565b5f614253826141e2565b915061425e836141e2565b925082820261426c816141e2565b915080821461427e5761427d6133b7565b5b5092915050565b7f4e487b71000000000000000000000000000000000000000000000000000000005f52601260045260245ffd5b5f6142bc82613025565b91506142c783613025565b9250826142d7576142d6614285565b5b828206905092915050565b5f6020820190506142f55f83018461329c565b92915050565b5f8160011c9050919050565b5f808291508390505b60018511156143505780860481111561432c5761432b6133b7565b5b600185161561433b5780820291505b8081029050614349856142fb565b9450614310565b94509492505050565b5f826143685760019050614423565b81614375575f9050614423565b816001811461438b5760028114614395576143c4565b6001915050614423565b60ff8411156143a7576143a66133b7565b5b8360020a9150848211156143be576143bd6133b7565b5b50614423565b5060208310610133831016604e8410600b84101617156143f95782820a9050838111156143f4576143f36133b7565b5b614423565b6144068484846001614307565b9250905081840481111561441d5761441c6133b7565b5b81810290505b9392505050565b5f61443482613025565b915061443f83613025565b925061446c7fffffffffffffffffffffffffffffffffffffffffffffffffffffffffffffffff8484614359565b90509291505056fe636f6e737420617069526573706f6e7365203d2061776169742046756e6374696f6e732e6d616b654874747052657175657374287ba2646970667358221220709308f9b1de2e11a0f755970b0b59f2753d9e92eb92574c37e5be3f404a9c2364736f6c634300081a0033",
			"opcodes": "PUSH1 0xA0 PUSH1 0x40 MSTORE PUSH20 0xB83E47C2BC239B3BF370BC41E1459A34B41238D0 PUSH1 0x1 PUSH0 PUSH2 0x100 EXP DUP2 SLOAD DUP2 PUSH20 0xFFFFFFFFFFFFFFFFFFFFFFFFFFFFFFFFFFFFFFFF MUL NOT AND SWAP1 DUP4 PUSH20 0xFFFFFFFFFFFFFFFFFFFFFFFFFFFFFFFFFFFFFFFF AND MUL OR SWAP1 SSTORE POP PUSH32 0x66756E2D657468657265756D2D7365706F6C69612D3100000000000000000000 PUSH0 SHL PUSH1 0x2 SSTORE PUSH3 0x493E0 PUSH1 0x3 PUSH0 PUSH2 0x100 EXP DUP2 SLOAD DUP2 PUSH4 0xFFFFFFFF MUL NOT AND SWAP1 DUP4 PUSH4 0xFFFFFFFF AND MUL OR SWAP1 SSTORE POP CALLVALUE DUP1 ISZERO PUSH2 0xAC JUMPI PUSH0 DUP1 REVERT JUMPDEST POP PUSH1 0x40 MLOAD PUSH2 0x46FD CODESIZE SUB DUP1 PUSH2 0x46FD DUP4 CODECOPY DUP2 DUP2 ADD PUSH1 0x40 MSTORE DUP2 ADD SWAP1 PUSH2 0xCE SWAP2 SWAP1 PUSH2 0x1D4 JUMP JUMPDEST PUSH1 0x1 PUSH0 SWAP1 SLOAD SWAP1 PUSH2 0x100 EXP SWAP1 DIV PUSH20 0xFFFFFFFFFFFFFFFFFFFFFFFFFFFFFFFFFFFFFFFF AND DUP1 PUSH20 0xFFFFFFFFFFFFFFFFFFFFFFFFFFFFFFFFFFFFFFFF AND PUSH1 0x80 DUP2 PUSH20 0xFFFFFFFFFFFFFFFFFFFFFFFFFFFFFFFFFFFFFFFF AND DUP2 MSTORE POP POP POP CALLER PUSH0 DUP1 PUSH2 0x100 EXP DUP2 SLOAD DUP2 PUSH20 0xFFFFFFFFFFFFFFFFFFFFFFFFFFFFFFFFFFFFFFFF MUL NOT AND SWAP1 DUP4 PUSH20 0xFFFFFFFFFFFFFFFFFFFFFFFFFFFFFFFFFFFFFFFF AND MUL OR SWAP1 SSTORE POP DUP1 PUSH1 0x3 PUSH1 0x4 PUSH2 0x100 EXP DUP2 SLOAD DUP2 PUSH8 0xFFFFFFFFFFFFFFFF MUL NOT AND SWAP1 DUP4 PUSH8 0xFFFFFFFFFFFFFFFF AND MUL OR SWAP1 SSTORE POP POP PUSH2 0x1FF JUMP JUMPDEST PUSH0 DUP1 REVERT JUMPDEST PUSH0 PUSH8 0xFFFFFFFFFFFFFFFF DUP3 AND SWAP1 POP SWAP2 SWAP1 POP JUMP JUMPDEST PUSH2 0x1B3 DUP2 PUSH2 0x197 JUMP JUMPDEST DUP2 EQ PUSH2 0x1BD JUMPI PUSH0 DUP1 REVERT JUMPDEST POP JUMP JUMPDEST PUSH0 DUP2 MLOAD SWAP1 POP PUSH2 0x1CE DUP2 PUSH2 0x1AA JUMP JUMPDEST SWAP3 SWAP2 POP POP JUMP JUMPDEST PUSH0 PUSH1 0x20 DUP3 DUP5 SUB SLT ISZERO PUSH2 0x1E9 JUMPI PUSH2 0x1E8 PUSH2 0x193 JUMP JUMPDEST JUMPDEST PUSH0 PUSH2 0x1F6 DUP5 DUP3 DUP6 ADD PUSH2 0x1C0 JUMP JUMPDEST SWAP2 POP POP SWAP3 SWAP2 POP POP JUMP JUMPDEST PUSH1 0x80 MLOAD PUSH2 0x44DF PUSH2 0x21E PUSH0 CODECOPY PUSH0 DUP2 DUP2 PUSH2 0x320 ADD MSTORE PUSH2 0x2027 ADD MSTORE PUSH2 0x44DF PUSH0 RETURN INVALID PUSH1 0x80 PUSH1 0x40 MSTORE PUSH1 0x4 CALLDATASIZE LT PUSH2 0x90 JUMPI PUSH0 CALLDATALOAD PUSH1 0xE0 SHR DUP1 PUSH4 0x8DA5CB5B GT PUSH2 0x58 JUMPI DUP1 PUSH4 0x8DA5CB5B EQ PUSH2 0x138 JUMPI DUP1 PUSH4 0xA9059CBB EQ PUSH2 0x162 JUMPI DUP1 PUSH4 0xB58BE5DF EQ PUSH2 0x17E JUMPI DUP1 PUSH4 0xBC6C50DE EQ PUSH2 0x1C4 JUMPI DUP1 PUSH4 0xBD2449B5 EQ PUSH2 0x1E0 JUMPI PUSH2 0x90 JUMP JUMPDEST DUP1 PUSH4 0x2B28C5A EQ PUSH2 0x94 JUMPI DUP1 PUSH4 0xCA76175 EQ PUSH2 0xB0 JUMPI DUP1 PUSH4 0x1BEFBF39 EQ PUSH2 0xD8 JUMPI DUP1 PUSH4 0x50B88846 EQ PUSH2 0x100 JUMPI DUP1 PUSH4 0x61D839BD EQ PUSH2 0x11C JUMPI JUMPDEST PUSH0 DUP1 REVERT JUMPDEST PUSH2 0xAE PUSH1 0x4 DUP1 CALLDATASIZE SUB DUP2 ADD SWAP1 PUSH2 0xA9 SWAP2 SWAP1 PUSH2 0x2E56 JUMP JUMPDEST PUSH2 0x1FC JUMP JUMPDEST STOP JUMPDEST CALLVALUE DUP1 ISZERO PUSH2 0xBB JUMPI PUSH0 DUP1 REVERT JUMPDEST POP PUSH2 0xD6 PUSH1 0x4 DUP1 CALLDATASIZE SUB DUP2 ADD SWAP1 PUSH2 0xD1 SWAP2 SWAP1 PUSH2 0x2F9D JUMP JUMPDEST PUSH2 0x31E JUMP JUMPDEST STOP JUMPDEST CALLVALUE DUP1 ISZERO PUSH2 0xE3 JUMPI PUSH0 DUP1 REVERT JUMPDEST POP PUSH2 0xFE PUSH1 0x4 DUP1 CALLDATASIZE SUB DUP2 ADD SWAP1 PUSH2 0xF9 SWAP2 SWAP1 PUSH2 0x2E56 JUMP JUMPDEST PUSH2 0x3E0 JUMP JUMPDEST STOP JUMPDEST PUSH2 0x11A PUSH1 0x4 DUP1 CALLDATASIZE SUB DUP2 ADD SWAP1 PUSH2 0x115 SWAP2 SWAP1 PUSH2 0x2E56 JUMP JUMPDEST PUSH2 0x9C1 JUMP JUMPDEST STOP JUMPDEST PUSH2 0x136 PUSH1 0x4 DUP1 CALLDATASIZE SUB DUP2 ADD SWAP1 PUSH2 0x131 SWAP2 SWAP1 PUSH2 0x3058 JUMP JUMPDEST PUSH2 0xA34 JUMP JUMPDEST STOP JUMPDEST CALLVALUE DUP1 ISZERO PUSH2 0x143 JUMPI PUSH0 DUP1 REVERT JUMPDEST POP PUSH2 0x14C PUSH2 0xC60 JUMP JUMPDEST PUSH1 0x40 MLOAD PUSH2 0x159 SWAP2 SWAP1 PUSH2 0x3190 JUMP JUMPDEST PUSH1 0x40 MLOAD DUP1 SWAP2 SUB SWAP1 RETURN JUMPDEST PUSH2 0x17C PUSH1 0x4 DUP1 CALLDATASIZE SUB DUP2 ADD SWAP1 PUSH2 0x177 SWAP2 SWAP1 PUSH2 0x31D3 JUMP JUMPDEST PUSH2 0xC83 JUMP JUMPDEST STOP JUMPDEST CALLVALUE DUP1 ISZERO PUSH2 0x189 JUMPI PUSH0 DUP1 REVERT JUMPDEST POP PUSH2 0x1A4 PUSH1 0x4 DUP1 CALLDATASIZE SUB DUP2 ADD SWAP1 PUSH2 0x19F SWAP2 SWAP1 PUSH2 0x3211 JUMP JUMPDEST PUSH2 0xD89 JUMP JUMPDEST PUSH1 0x40 MLOAD PUSH2 0x1BB SWAP12 SWAP11 SWAP10 SWAP9 SWAP8 SWAP7 SWAP6 SWAP5 SWAP4 SWAP3 SWAP2 SWAP1 PUSH2 0x32C5 JUMP JUMPDEST PUSH1 0x40 MLOAD DUP1 SWAP2 SUB SWAP1 RETURN JUMPDEST PUSH2 0x1DE PUSH1 0x4 DUP1 CALLDATASIZE SUB DUP2 ADD SWAP1 PUSH2 0x1D9 SWAP2 SWAP1 PUSH2 0x2E56 JUMP JUMPDEST PUSH2 0x1050 JUMP JUMPDEST STOP JUMPDEST PUSH2 0x1FA PUSH1 0x4 DUP1 CALLDATASIZE SUB DUP2 ADD SWAP1 PUSH2 0x1F5 SWAP2 SWAP1 PUSH2 0x2E56 JUMP JUMPDEST PUSH2 0x127F JUMP JUMPDEST STOP JUMPDEST PUSH0 PUSH2 0x207 DUP4 DUP4 PUSH2 0x1435 JUMP JUMPDEST SWAP1 POP CALLER PUSH20 0xFFFFFFFFFFFFFFFFFFFFFFFFFFFFFFFFFFFFFFFF AND PUSH1 0x6 DUP3 DUP2 SLOAD DUP2 LT PUSH2 0x234 JUMPI PUSH2 0x233 PUSH2 0x338A JUMP JUMPDEST JUMPDEST SWAP1 PUSH0 MSTORE PUSH1 0x20 PUSH0 KECCAK256 SWAP1 PUSH1 0xB MUL ADD PUSH1 0x2 ADD PUSH0 SWAP1 SLOAD SWAP1 PUSH2 0x100 EXP SWAP1 DIV PUSH20 0xFFFFFFFFFFFFFFFFFFFFFFFFFFFFFFFFFFFFFFFF AND PUSH20 0xFFFFFFFFFFFFFFFFFFFFFFFFFFFFFFFFFFFFFFFF AND EQ PUSH2 0x282 JUMPI PUSH0 DUP1 REVERT JUMPDEST PUSH1 0x6 DUP2 DUP2 SLOAD DUP2 LT PUSH2 0x296 JUMPI PUSH2 0x295 PUSH2 0x338A JUMP JUMPDEST JUMPDEST SWAP1 PUSH0 MSTORE PUSH1 0x20 PUSH0 KECCAK256 SWAP1 PUSH1 0xB MUL ADD PUSH1 0x6 ADD SLOAD CALLVALUE PUSH2 0x2B1 SWAP2 SWAP1 PUSH2 0x33E4 JUMP JUMPDEST PUSH1 0x6 DUP3 DUP2 SLOAD DUP2 LT PUSH2 0x2C5 JUMPI PUSH2 0x2C4 PUSH2 0x338A JUMP JUMPDEST JUMPDEST SWAP1 PUSH0 MSTORE PUSH1 0x20 PUSH0 KECCAK256 SWAP1 PUSH1 0xB MUL ADD PUSH1 0x7 ADD SLOAD EQ PUSH2 0x2DE JUMPI PUSH0 DUP1 REVERT JUMPDEST PUSH1 0x1 PUSH1 0x6 DUP3 DUP2 SLOAD DUP2 LT PUSH2 0x2F4 JUMPI PUSH2 0x2F3 PUSH2 0x338A JUMP JUMPDEST JUMPDEST SWAP1 PUSH0 MSTORE PUSH1 0x20 PUSH0 KECCAK256 SWAP1 PUSH1 0xB MUL ADD PUSH1 0xA ADD PUSH0 PUSH2 0x100 EXP DUP2 SLOAD DUP2 PUSH1 0xFF MUL NOT AND SWAP1 DUP4 ISZERO ISZERO MUL OR SWAP1 SSTORE POP POP POP POP JUMP JUMPDEST PUSH32 0x0 PUSH20 0xFFFFFFFFFFFFFFFFFFFFFFFFFFFFFFFFFFFFFFFF AND CALLER PUSH20 0xFFFFFFFFFFFFFFFFFFFFFFFFFFFFFFFFFFFFFFFF AND EQ PUSH2 0x3A3 JUMPI PUSH1 0x40 MLOAD PUSH32 0xC6829F8300000000000000000000000000000000000000000000000000000000 DUP2 MSTORE PUSH1 0x4 ADD PUSH1 0x40 MLOAD DUP1 SWAP2 SUB SWAP1 REVERT JUMPDEST PUSH2 0x3AE DUP4 DUP4 DUP4 PUSH2 0x1503 JUMP JUMPDEST DUP3 PUSH32 0x85E1543BF2F84FE80C6BADBCE3648C8539AD1DF4D2B3D822938CA0538BE727E6 PUSH1 0x40 MLOAD PUSH1 0x40 MLOAD DUP1 SWAP2 SUB SWAP1 LOG2 POP POP POP JUMP JUMPDEST PUSH0 PUSH2 0x3EB DUP4 DUP4 PUSH2 0x1435 JUMP JUMPDEST SWAP1 POP PUSH0 PUSH20 0xFFFFFFFFFFFFFFFFFFFFFFFFFFFFFFFFFFFFFFFF AND PUSH1 0x6 DUP3 DUP2 SLOAD DUP2 LT PUSH2 0x418 JUMPI PUSH2 0x417 PUSH2 0x338A JUMP JUMPDEST JUMPDEST SWAP1 PUSH0 MSTORE PUSH1 0x20 PUSH0 KECCAK256 SWAP1 PUSH1 0xB MUL ADD PUSH1 0x2 ADD PUSH0 SWAP1 SLOAD SWAP1 PUSH2 0x100 EXP SWAP1 DIV PUSH20 0xFFFFFFFFFFFFFFFFFFFFFFFFFFFFFFFFFFFFFFFF AND PUSH20 0xFFFFFFFFFFFFFFFFFFFFFFFFFFFFFFFFFFFFFFFF AND EQ DUP1 ISZERO PUSH2 0x48C JUMPI POP TIMESTAMP PUSH1 0x6 DUP3 DUP2 SLOAD DUP2 LT PUSH2 0x47A JUMPI PUSH2 0x479 PUSH2 0x338A JUMP JUMPDEST JUMPDEST SWAP1 PUSH0 MSTORE PUSH1 0x20 PUSH0 KECCAK256 SWAP1 PUSH1 0xB MUL ADD PUSH1 0x8 ADD SLOAD LT JUMPDEST ISZERO PUSH2 0x5E6 JUMPI PUSH0 DUP1 PUSH1 0x6 DUP4 DUP2 SLOAD DUP2 LT PUSH2 0x4A7 JUMPI PUSH2 0x4A6 PUSH2 0x338A JUMP JUMPDEST JUMPDEST SWAP1 PUSH0 MSTORE PUSH1 0x20 PUSH0 KECCAK256 SWAP1 PUSH1 0xB MUL ADD PUSH1 0x2 ADD PUSH0 SWAP1 SLOAD SWAP1 PUSH2 0x100 EXP SWAP1 DIV PUSH20 0xFFFFFFFFFFFFFFFFFFFFFFFFFFFFFFFFFFFFFFFF AND PUSH20 0xFFFFFFFFFFFFFFFFFFFFFFFFFFFFFFFFFFFFFFFF AND PUSH1 0x6 DUP5 DUP2 SLOAD DUP2 LT PUSH2 0x500 JUMPI PUSH2 0x4FF PUSH2 0x338A JUMP JUMPDEST JUMPDEST SWAP1 PUSH0 MSTORE PUSH1 0x20 PUSH0 KECCAK256 SWAP1 PUSH1 0xB MUL ADD PUSH1 0x6 ADD SLOAD PUSH1 0x40 MLOAD PUSH2 0x51C SWAP1 PUSH2 0x3444 JUMP JUMPDEST PUSH0 PUSH1 0x40 MLOAD DUP1 DUP4 SUB DUP2 DUP6 DUP8 GAS CALL SWAP3 POP POP POP RETURNDATASIZE DUP1 PUSH0 DUP2 EQ PUSH2 0x556 JUMPI PUSH1 0x40 MLOAD SWAP2 POP PUSH1 0x1F NOT PUSH1 0x3F RETURNDATASIZE ADD AND DUP3 ADD PUSH1 0x40 MSTORE RETURNDATASIZE DUP3 MSTORE RETURNDATASIZE PUSH0 PUSH1 0x20 DUP5 ADD RETURNDATACOPY PUSH2 0x55B JUMP JUMPDEST PUSH1 0x60 SWAP2 POP JUMPDEST POP SWAP2 POP SWAP2 POP DUP2 PUSH2 0x5A0 JUMPI PUSH1 0x40 MLOAD PUSH32 0x8C379A000000000000000000000000000000000000000000000000000000000 DUP2 MSTORE PUSH1 0x4 ADD PUSH2 0x597 SWAP1 PUSH2 0x34A2 JUMP JUMPDEST PUSH1 0x40 MLOAD DUP1 SWAP2 SUB SWAP1 REVERT JUMPDEST PUSH2 0x5A9 DUP4 PUSH2 0x1932 JUMP JUMPDEST PUSH32 0xB749D4CBEF5280AB440645A46BBADA3F52C0D015210CFCEABD4E5B4E49195F77 PUSH1 0x40 MLOAD PUSH2 0x5D6 SWAP1 PUSH2 0x3530 JUMP JUMPDEST PUSH1 0x40 MLOAD DUP1 SWAP2 SUB SWAP1 LOG1 POP POP POP PUSH2 0x9BD JUMP JUMPDEST TIMESTAMP PUSH1 0x6 DUP3 DUP2 SLOAD DUP2 LT PUSH2 0x5FB JUMPI PUSH2 0x5FA PUSH2 0x338A JUMP JUMPDEST JUMPDEST SWAP1 PUSH0 MSTORE PUSH1 0x20 PUSH0 KECCAK256 SWAP1 PUSH1 0xB MUL ADD PUSH1 0x9 ADD SLOAD LT DUP1 ISZERO PUSH2 0x645 JUMPI POP PUSH1 0x6 DUP2 DUP2 SLOAD DUP2 LT PUSH2 0x627 JUMPI PUSH2 0x626 PUSH2 0x338A JUMP JUMPDEST JUMPDEST SWAP1 PUSH0 MSTORE PUSH1 0x20 PUSH0 KECCAK256 SWAP1 PUSH1 0xB MUL ADD PUSH1 0xA ADD PUSH0 SWAP1 SLOAD SWAP1 PUSH2 0x100 EXP SWAP1 DIV PUSH1 0xFF AND ISZERO JUMPDEST ISZERO PUSH2 0x7B0 JUMPI PUSH0 PUSH1 0x2 PUSH1 0x6 DUP4 DUP2 SLOAD DUP2 LT PUSH2 0x661 JUMPI PUSH2 0x660 PUSH2 0x338A JUMP JUMPDEST JUMPDEST SWAP1 PUSH0 MSTORE PUSH1 0x20 PUSH0 KECCAK256 SWAP1 PUSH1 0xB MUL ADD PUSH1 0x6 ADD SLOAD PUSH2 0x67B SWAP2 SWAP1 PUSH2 0x354E JUMP JUMPDEST SWAP1 POP PUSH0 DUP1 PUSH1 0x6 DUP5 DUP2 SLOAD DUP2 LT PUSH2 0x693 JUMPI PUSH2 0x692 PUSH2 0x338A JUMP JUMPDEST JUMPDEST SWAP1 PUSH0 MSTORE PUSH1 0x20 PUSH0 KECCAK256 SWAP1 PUSH1 0xB MUL ADD PUSH1 0x3 ADD PUSH0 SWAP1 SLOAD SWAP1 PUSH2 0x100 EXP SWAP1 DIV PUSH20 0xFFFFFFFFFFFFFFFFFFFFFFFFFFFFFFFFFFFFFFFF AND PUSH20 0xFFFFFFFFFFFFFFFFFFFFFFFFFFFFFFFFFFFFFFFF AND DUP4 PUSH1 0x40 MLOAD PUSH2 0x6E5 SWAP1 PUSH2 0x3444 JUMP JUMPDEST PUSH0 PUSH1 0x40 MLOAD DUP1 DUP4 SUB DUP2 DUP6 DUP8 GAS CALL SWAP3 POP POP POP RETURNDATASIZE DUP1 PUSH0 DUP2 EQ PUSH2 0x71F JUMPI PUSH1 0x40 MLOAD SWAP2 POP PUSH1 0x1F NOT PUSH1 0x3F RETURNDATASIZE ADD AND DUP3 ADD PUSH1 0x40 MSTORE RETURNDATASIZE DUP3 MSTORE RETURNDATASIZE PUSH0 PUSH1 0x20 DUP5 ADD RETURNDATACOPY PUSH2 0x724 JUMP JUMPDEST PUSH1 0x60 SWAP2 POP JUMPDEST POP SWAP2 POP SWAP2 POP DUP2 PUSH2 0x769 JUMPI PUSH1 0x40 MLOAD PUSH32 0x8C379A000000000000000000000000000000000000000000000000000000000 DUP2 MSTORE PUSH1 0x4 ADD PUSH2 0x760 SWAP1 PUSH2 0x34A2 JUMP JUMPDEST PUSH1 0x40 MLOAD DUP1 SWAP2 SUB SWAP1 REVERT JUMPDEST PUSH2 0x772 DUP5 PUSH2 0x1932 JUMP JUMPDEST PUSH32 0xB749D4CBEF5280AB440645A46BBADA3F52C0D015210CFCEABD4E5B4E49195F77 PUSH1 0x40 MLOAD PUSH2 0x79F SWAP1 PUSH2 0x35FF JUMP JUMPDEST PUSH1 0x40 MLOAD DUP1 SWAP2 SUB SWAP1 LOG1 POP POP POP POP PUSH2 0x9BD JUMP JUMPDEST PUSH1 0x6 DUP2 DUP2 SLOAD DUP2 LT PUSH2 0x7C4 JUMPI PUSH2 0x7C3 PUSH2 0x338A JUMP JUMPDEST JUMPDEST SWAP1 PUSH0 MSTORE PUSH1 0x20 PUSH0 KECCAK256 SWAP1 PUSH1 0xB MUL ADD PUSH1 0xA ADD PUSH0 SWAP1 SLOAD SWAP1 PUSH2 0x100 EXP SWAP1 DIV PUSH1 0xFF AND ISZERO PUSH2 0x9BB JUMPI PUSH2 0x7ED PUSH2 0x2B89 JUMP JUMPDEST PUSH0 PUSH1 0x40 MLOAD DUP1 PUSH1 0x60 ADD PUSH1 0x40 MSTORE DUP1 PUSH1 0x35 DUP2 MSTORE PUSH1 0x20 ADD PUSH2 0x4475 PUSH1 0x35 SWAP2 CODECOPY SWAP1 POP DUP1 PUSH1 0x40 MLOAD PUSH1 0x20 ADD PUSH2 0x81A SWAP2 SWAP1 PUSH2 0x36ED JUMP JUMPDEST PUSH1 0x40 MLOAD PUSH1 0x20 DUP2 DUP4 SUB SUB DUP2 MSTORE SWAP1 PUSH1 0x40 MSTORE SWAP1 POP DUP1 PUSH1 0x6 DUP5 DUP2 SLOAD DUP2 LT PUSH2 0x840 JUMPI PUSH2 0x83F PUSH2 0x338A JUMP JUMPDEST JUMPDEST SWAP1 PUSH0 MSTORE PUSH1 0x20 PUSH0 KECCAK256 SWAP1 PUSH1 0xB MUL ADD PUSH1 0x4 ADD PUSH1 0x40 MLOAD PUSH1 0x20 ADD PUSH2 0x860 SWAP3 SWAP2 SWAP1 PUSH2 0x37FD JUMP JUMPDEST PUSH1 0x40 MLOAD PUSH1 0x20 DUP2 DUP4 SUB SUB DUP2 MSTORE SWAP1 PUSH1 0x40 MSTORE SWAP1 POP DUP1 PUSH1 0x40 MLOAD PUSH1 0x20 ADD PUSH2 0x882 SWAP2 SWAP1 PUSH2 0x3846 JUMP JUMPDEST PUSH1 0x40 MLOAD PUSH1 0x20 DUP2 DUP4 SUB SUB DUP2 MSTORE SWAP1 PUSH1 0x40 MSTORE SWAP1 POP DUP1 PUSH1 0x6 DUP5 DUP2 SLOAD DUP2 LT PUSH2 0x8A8 JUMPI PUSH2 0x8A7 PUSH2 0x338A JUMP JUMPDEST JUMPDEST SWAP1 PUSH0 MSTORE PUSH1 0x20 PUSH0 KECCAK256 SWAP1 PUSH1 0xB MUL ADD PUSH1 0x1 ADD PUSH1 0x40 MLOAD PUSH1 0x20 ADD PUSH2 0x8C8 SWAP3 SWAP2 SWAP1 PUSH2 0x37FD JUMP JUMPDEST PUSH1 0x40 MLOAD PUSH1 0x20 DUP2 DUP4 SUB SUB DUP2 MSTORE SWAP1 PUSH1 0x40 MSTORE SWAP1 POP DUP1 PUSH1 0x40 MLOAD PUSH1 0x20 ADD PUSH2 0x8EA SWAP2 SWAP1 PUSH2 0x3891 JUMP JUMPDEST PUSH1 0x40 MLOAD PUSH1 0x20 DUP2 DUP4 SUB SUB DUP2 MSTORE SWAP1 PUSH1 0x40 MSTORE SWAP1 POP DUP1 PUSH1 0x6 DUP5 DUP2 SLOAD DUP2 LT PUSH2 0x910 JUMPI PUSH2 0x90F PUSH2 0x338A JUMP JUMPDEST JUMPDEST SWAP1 PUSH0 MSTORE PUSH1 0x20 PUSH0 KECCAK256 SWAP1 PUSH1 0xB MUL ADD PUSH0 ADD PUSH1 0x40 MLOAD PUSH1 0x20 ADD PUSH2 0x92F SWAP3 SWAP2 SWAP1 PUSH2 0x37FD JUMP JUMPDEST PUSH1 0x40 MLOAD PUSH1 0x20 DUP2 DUP4 SUB SUB DUP2 MSTORE SWAP1 PUSH1 0x40 MSTORE SWAP1 POP DUP1 PUSH1 0x40 MLOAD PUSH1 0x20 ADD PUSH2 0x951 SWAP2 SWAP1 PUSH2 0x39E4 JUMP JUMPDEST PUSH1 0x40 MLOAD PUSH1 0x20 DUP2 DUP4 SUB SUB DUP2 MSTORE SWAP1 PUSH1 0x40 MSTORE SWAP1 POP PUSH2 0x975 DUP2 DUP4 PUSH2 0x1C0E SWAP1 SWAP2 SWAP1 PUSH4 0xFFFFFFFF AND JUMP JUMPDEST PUSH2 0x9B2 PUSH2 0x981 DUP4 PUSH2 0x1C1E JUMP JUMPDEST PUSH1 0x3 PUSH1 0x4 SWAP1 SLOAD SWAP1 PUSH2 0x100 EXP SWAP1 DIV PUSH8 0xFFFFFFFFFFFFFFFF AND PUSH1 0x3 PUSH0 SWAP1 SLOAD SWAP1 PUSH2 0x100 EXP SWAP1 DIV PUSH4 0xFFFFFFFF AND PUSH1 0x2 SLOAD PUSH2 0x2023 JUMP JUMPDEST PUSH1 0x4 DUP2 SWAP1 SSTORE POP POP POP JUMPDEST POP JUMPDEST POP POP JUMP JUMPDEST PUSH0 PUSH2 0x9CC DUP4 DUP4 PUSH2 0x1435 JUMP JUMPDEST SWAP1 POP CALLER PUSH1 0x6 DUP3 DUP2 SLOAD DUP2 LT PUSH2 0x9E3 JUMPI PUSH2 0x9E2 PUSH2 0x338A JUMP JUMPDEST JUMPDEST SWAP1 PUSH0 MSTORE PUSH1 0x20 PUSH0 KECCAK256 SWAP1 PUSH1 0xB MUL ADD PUSH1 0x2 ADD PUSH0 PUSH2 0x100 EXP DUP2 SLOAD DUP2 PUSH20 0xFFFFFFFFFFFFFFFFFFFFFFFFFFFFFFFFFFFFFFFF MUL NOT AND SWAP1 DUP4 PUSH20 0xFFFFFFFFFFFFFFFFFFFFFFFFFFFFFFFFFFFFFFFF AND MUL OR SWAP1 SSTORE POP POP POP POP JUMP JUMPDEST PUSH2 0xA3D DUP5 PUSH2 0x2102 JUMP JUMPDEST PUSH2 0xA45 JUMPI PUSH0 DUP1 REVERT JUMPDEST PUSH2 0xA4E DUP4 PUSH2 0x2102 JUMP JUMPDEST PUSH2 0xA56 JUMPI PUSH0 DUP1 REVERT JUMPDEST PUSH2 0xA5E PUSH2 0x2BF8 JUMP JUMPDEST DUP7 DUP2 PUSH0 ADD DUP2 SWAP1 MSTORE POP DUP6 DUP2 PUSH1 0x20 ADD DUP2 SWAP1 MSTORE POP CALLER DUP2 PUSH1 0x60 ADD SWAP1 PUSH20 0xFFFFFFFFFFFFFFFFFFFFFFFFFFFFFFFFFFFFFFFF AND SWAP1 DUP2 PUSH20 0xFFFFFFFFFFFFFFFFFFFFFFFFFFFFFFFFFFFFFFFF AND DUP2 MSTORE POP POP DUP5 DUP2 PUSH1 0x80 ADD DUP2 SWAP1 MSTORE POP DUP4 DUP2 PUSH1 0xA0 ADD DUP2 SWAP1 MSTORE POP CALLVALUE DUP2 PUSH1 0xC0 ADD DUP2 DUP2 MSTORE POP POP DUP3 DUP2 PUSH1 0xE0 ADD DUP2 DUP2 MSTORE POP POP PUSH0 DUP2 PUSH2 0x140 ADD SWAP1 ISZERO ISZERO SWAP1 DUP2 ISZERO ISZERO DUP2 MSTORE POP POP PUSH1 0x5 TIMESTAMP PUSH2 0xAEB SWAP2 SWAP1 PUSH2 0x33E4 JUMP JUMPDEST DUP2 PUSH2 0x120 ADD DUP2 DUP2 MSTORE POP POP TIMESTAMP DUP2 PUSH2 0x100 ADD DUP2 DUP2 MSTORE POP POP PUSH1 0x6 DUP2 SWAP1 DUP1 PUSH1 0x1 DUP2 SLOAD ADD DUP1 DUP3 SSTORE DUP1 SWAP2 POP POP PUSH1 0x1 SWAP1 SUB SWAP1 PUSH0 MSTORE PUSH1 0x20 PUSH0 KECCAK256 SWAP1 PUSH1 0xB MUL ADD PUSH0 SWAP1 SWAP2 SWAP1 SWAP2 SWAP1 SWAP2 POP PUSH0 DUP3 ADD MLOAD DUP2 PUSH0 ADD SWAP1 DUP2 PUSH2 0xB3C SWAP2 SWAP1 PUSH2 0x3B90 JUMP JUMPDEST POP PUSH1 0x20 DUP3 ADD MLOAD DUP2 PUSH1 0x1 ADD SWAP1 DUP2 PUSH2 0xB52 SWAP2 SWAP1 PUSH2 0x3B90 JUMP JUMPDEST POP PUSH1 0x40 DUP3 ADD MLOAD DUP2 PUSH1 0x2 ADD PUSH0 PUSH2 0x100 EXP DUP2 SLOAD DUP2 PUSH20 0xFFFFFFFFFFFFFFFFFFFFFFFFFFFFFFFFFFFFFFFF MUL NOT AND SWAP1 DUP4 PUSH20 0xFFFFFFFFFFFFFFFFFFFFFFFFFFFFFFFFFFFFFFFF AND MUL OR SWAP1 SSTORE POP PUSH1 0x60 DUP3 ADD MLOAD DUP2 PUSH1 0x3 ADD PUSH0 PUSH2 0x100 EXP DUP2 SLOAD DUP2 PUSH20 0xFFFFFFFFFFFFFFFFFFFFFFFFFFFFFFFFFFFFFFFF MUL NOT AND SWAP1 DUP4 PUSH20 0xFFFFFFFFFFFFFFFFFFFFFFFFFFFFFFFFFFFFFFFF AND MUL OR SWAP1 SSTORE POP PUSH1 0x80 DUP3 ADD MLOAD DUP2 PUSH1 0x4 ADD SWAP1 DUP2 PUSH2 0xBF4 SWAP2 SWAP1 PUSH2 0x3B90 JUMP JUMPDEST POP PUSH1 0xA0 DUP3 ADD MLOAD DUP2 PUSH1 0x5 ADD SWAP1 DUP2 PUSH2 0xC0A SWAP2 SWAP1 PUSH2 0x3B90 JUMP JUMPDEST POP PUSH1 0xC0 DUP3 ADD MLOAD DUP2 PUSH1 0x6 ADD SSTORE PUSH1 0xE0 DUP3 ADD MLOAD DUP2 PUSH1 0x7 ADD SSTORE PUSH2 0x100 DUP3 ADD MLOAD DUP2 PUSH1 0x8 ADD SSTORE PUSH2 0x120 DUP3 ADD MLOAD DUP2 PUSH1 0x9 ADD SSTORE PUSH2 0x140 DUP3 ADD MLOAD DUP2 PUSH1 0xA ADD PUSH0 PUSH2 0x100 EXP DUP2 SLOAD DUP2 PUSH1 0xFF MUL NOT AND SWAP1 DUP4 ISZERO ISZERO MUL OR SWAP1 SSTORE POP POP POP POP POP POP POP POP POP POP JUMP JUMPDEST PUSH0 DUP1 SLOAD SWAP1 PUSH2 0x100 EXP SWAP1 DIV PUSH20 0xFFFFFFFFFFFFFFFFFFFFFFFFFFFFFFFFFFFFFFFF AND DUP2 JUMP JUMPDEST PUSH0 DUP1 SLOAD SWAP1 PUSH2 0x100 EXP SWAP1 DIV PUSH20 0xFFFFFFFFFFFFFFFFFFFFFFFFFFFFFFFFFFFFFFFF AND PUSH20 0xFFFFFFFFFFFFFFFFFFFFFFFFFFFFFFFFFFFFFFFF AND CALLER PUSH20 0xFFFFFFFFFFFFFFFFFFFFFFFFFFFFFFFFFFFFFFFF AND EQ PUSH2 0xCD9 JUMPI PUSH0 DUP1 REVERT JUMPDEST PUSH0 DUP1 DUP4 PUSH20 0xFFFFFFFFFFFFFFFFFFFFFFFFFFFFFFFFFFFFFFFF AND DUP4 PUSH1 0x40 MLOAD PUSH2 0xCFF SWAP1 PUSH2 0x3444 JUMP JUMPDEST PUSH0 PUSH1 0x40 MLOAD DUP1 DUP4 SUB DUP2 DUP6 DUP8 GAS CALL SWAP3 POP POP POP RETURNDATASIZE DUP1 PUSH0 DUP2 EQ PUSH2 0xD39 JUMPI PUSH1 0x40 MLOAD SWAP2 POP PUSH1 0x1F NOT PUSH1 0x3F RETURNDATASIZE ADD AND DUP3 ADD PUSH1 0x40 MSTORE RETURNDATASIZE DUP3 MSTORE RETURNDATASIZE PUSH0 PUSH1 0x20 DUP5 ADD RETURNDATACOPY PUSH2 0xD3E JUMP JUMPDEST PUSH1 0x60 SWAP2 POP JUMPDEST POP SWAP2 POP SWAP2 POP DUP2 PUSH2 0xD83 JUMPI PUSH1 0x40 MLOAD PUSH32 0x8C379A000000000000000000000000000000000000000000000000000000000 DUP2 MSTORE PUSH1 0x4 ADD PUSH2 0xD7A SWAP1 PUSH2 0x34A2 JUMP JUMPDEST PUSH1 0x40 MLOAD DUP1 SWAP2 SUB SWAP1 REVERT JUMPDEST POP POP POP POP JUMP JUMPDEST PUSH1 0x6 DUP2 DUP2 SLOAD DUP2 LT PUSH2 0xD98 JUMPI PUSH0 DUP1 REVERT JUMPDEST SWAP1 PUSH0 MSTORE PUSH1 0x20 PUSH0 KECCAK256 SWAP1 PUSH1 0xB MUL ADD PUSH0 SWAP2 POP SWAP1 POP DUP1 PUSH0 ADD DUP1 SLOAD PUSH2 0xDB7 SWAP1 PUSH2 0x373B JUMP JUMPDEST DUP1 PUSH1 0x1F ADD PUSH1 0x20 DUP1 SWAP2 DIV MUL PUSH1 0x20 ADD PUSH1 0x40 MLOAD SWAP1 DUP2 ADD PUSH1 0x40 MSTORE DUP1 SWAP3 SWAP2 SWAP1 DUP2 DUP2 MSTORE PUSH1 0x20 ADD DUP3 DUP1 SLOAD PUSH2 0xDE3 SWAP1 PUSH2 0x373B JUMP JUMPDEST DUP1 ISZERO PUSH2 0xE2E JUMPI DUP1 PUSH1 0x1F LT PUSH2 0xE05 JUMPI PUSH2 0x100 DUP1 DUP4 SLOAD DIV MUL DUP4 MSTORE SWAP2 PUSH1 0x20 ADD SWAP2 PUSH2 0xE2E JUMP JUMPDEST DUP3 ADD SWAP2 SWAP1 PUSH0 MSTORE PUSH1 0x20 PUSH0 KECCAK256 SWAP1 JUMPDEST DUP2 SLOAD DUP2 MSTORE SWAP1 PUSH1 0x1 ADD SWAP1 PUSH1 0x20 ADD DUP1 DUP4 GT PUSH2 0xE11 JUMPI DUP3 SWAP1 SUB PUSH1 0x1F AND DUP3 ADD SWAP2 JUMPDEST POP POP POP POP POP SWAP1 DUP1 PUSH1 0x1 ADD DUP1 SLOAD PUSH2 0xE43 SWAP1 PUSH2 0x373B JUMP JUMPDEST DUP1 PUSH1 0x1F ADD PUSH1 0x20 DUP1 SWAP2 DIV MUL PUSH1 0x20 ADD PUSH1 0x40 MLOAD SWAP1 DUP2 ADD PUSH1 0x40 MSTORE DUP1 SWAP3 SWAP2 SWAP1 DUP2 DUP2 MSTORE PUSH1 0x20 ADD DUP3 DUP1 SLOAD PUSH2 0xE6F SWAP1 PUSH2 0x373B JUMP JUMPDEST DUP1 ISZERO PUSH2 0xEBA JUMPI DUP1 PUSH1 0x1F LT PUSH2 0xE91 JUMPI PUSH2 0x100 DUP1 DUP4 SLOAD DIV MUL DUP4 MSTORE SWAP2 PUSH1 0x20 ADD SWAP2 PUSH2 0xEBA JUMP JUMPDEST DUP3 ADD SWAP2 SWAP1 PUSH0 MSTORE PUSH1 0x20 PUSH0 KECCAK256 SWAP1 JUMPDEST DUP2 SLOAD DUP2 MSTORE SWAP1 PUSH1 0x1 ADD SWAP1 PUSH1 0x20 ADD DUP1 DUP4 GT PUSH2 0xE9D JUMPI DUP3 SWAP1 SUB PUSH1 0x1F AND DUP3 ADD SWAP2 JUMPDEST POP POP POP POP POP SWAP1 DUP1 PUSH1 0x2 ADD PUSH0 SWAP1 SLOAD SWAP1 PUSH2 0x100 EXP SWAP1 DIV PUSH20 0xFFFFFFFFFFFFFFFFFFFFFFFFFFFFFFFFFFFFFFFF AND SWAP1 DUP1 PUSH1 0x3 ADD PUSH0 SWAP1 SLOAD SWAP1 PUSH2 0x100 EXP SWAP1 DIV PUSH20 0xFFFFFFFFFFFFFFFFFFFFFFFFFFFFFFFFFFFFFFFF AND SWAP1 DUP1 PUSH1 0x4 ADD DUP1 SLOAD PUSH2 0xF19 SWAP1 PUSH2 0x373B JUMP JUMPDEST DUP1 PUSH1 0x1F ADD PUSH1 0x20 DUP1 SWAP2 DIV MUL PUSH1 0x20 ADD PUSH1 0x40 MLOAD SWAP1 DUP2 ADD PUSH1 0x40 MSTORE DUP1 SWAP3 SWAP2 SWAP1 DUP2 DUP2 MSTORE PUSH1 0x20 ADD DUP3 DUP1 SLOAD PUSH2 0xF45 SWAP1 PUSH2 0x373B JUMP JUMPDEST DUP1 ISZERO PUSH2 0xF90 JUMPI DUP1 PUSH1 0x1F LT PUSH2 0xF67 JUMPI PUSH2 0x100 DUP1 DUP4 SLOAD DIV MUL DUP4 MSTORE SWAP2 PUSH1 0x20 ADD SWAP2 PUSH2 0xF90 JUMP JUMPDEST DUP3 ADD SWAP2 SWAP1 PUSH0 MSTORE PUSH1 0x20 PUSH0 KECCAK256 SWAP1 JUMPDEST DUP2 SLOAD DUP2 MSTORE SWAP1 PUSH1 0x1 ADD SWAP1 PUSH1 0x20 ADD DUP1 DUP4 GT PUSH2 0xF73 JUMPI DUP3 SWAP1 SUB PUSH1 0x1F AND DUP3 ADD SWAP2 JUMPDEST POP POP POP POP POP SWAP1 DUP1 PUSH1 0x5 ADD DUP1 SLOAD PUSH2 0xFA5 SWAP1 PUSH2 0x373B JUMP JUMPDEST DUP1 PUSH1 0x1F ADD PUSH1 0x20 DUP1 SWAP2 DIV MUL PUSH1 0x20 ADD PUSH1 0x40 MLOAD SWAP1 DUP2 ADD PUSH1 0x40 MSTORE DUP1 SWAP3 SWAP2 SWAP1 DUP2 DUP2 MSTORE PUSH1 0x20 ADD DUP3 DUP1 SLOAD PUSH2 0xFD1 SWAP1 PUSH2 0x373B JUMP JUMPDEST DUP1 ISZERO PUSH2 0x101C JUMPI DUP1 PUSH1 0x1F LT PUSH2 0xFF3 JUMPI PUSH2 0x100 DUP1 DUP4 SLOAD DIV MUL DUP4 MSTORE SWAP2 PUSH1 0x20 ADD SWAP2 PUSH2 0x101C JUMP JUMPDEST DUP3 ADD SWAP2 SWAP1 PUSH0 MSTORE PUSH1 0x20 PUSH0 KECCAK256 SWAP1 JUMPDEST DUP2 SLOAD DUP2 MSTORE SWAP1 PUSH1 0x1 ADD SWAP1 PUSH1 0x20 ADD DUP1 DUP4 GT PUSH2 0xFFF JUMPI DUP3 SWAP1 SUB PUSH1 0x1F AND DUP3 ADD SWAP2 JUMPDEST POP POP POP POP POP SWAP1 DUP1 PUSH1 0x6 ADD SLOAD SWAP1 DUP1 PUSH1 0x7 ADD SLOAD SWAP1 DUP1 PUSH1 0x8 ADD SLOAD SWAP1 DUP1 PUSH1 0x9 ADD SLOAD SWAP1 DUP1 PUSH1 0xA ADD PUSH0 SWAP1 SLOAD SWAP1 PUSH2 0x100 EXP SWAP1 DIV PUSH1 0xFF AND SWAP1 POP DUP12 JUMP JUMPDEST PUSH0 PUSH2 0x105B DUP4 DUP4 PUSH2 0x1435 JUMP JUMPDEST SWAP1 POP CALLER PUSH20 0xFFFFFFFFFFFFFFFFFFFFFFFFFFFFFFFFFFFFFFFF AND PUSH1 0x6 DUP3 DUP2 SLOAD DUP2 LT PUSH2 0x1088 JUMPI PUSH2 0x1087 PUSH2 0x338A JUMP JUMPDEST JUMPDEST SWAP1 PUSH0 MSTORE PUSH1 0x20 PUSH0 KECCAK256 SWAP1 PUSH1 0xB MUL ADD PUSH1 0x3 ADD PUSH0 SWAP1 SLOAD SWAP1 PUSH2 0x100 EXP SWAP1 DIV PUSH20 0xFFFFFFFFFFFFFFFFFFFFFFFFFFFFFFFFFFFFFFFF AND PUSH20 0xFFFFFFFFFFFFFFFFFFFFFFFFFFFFFFFFFFFFFFFF AND EQ PUSH2 0x10D6 JUMPI PUSH0 DUP1 REVERT JUMPDEST PUSH0 PUSH20 0xFFFFFFFFFFFFFFFFFFFFFFFFFFFFFFFFFFFFFFFF AND PUSH1 0x6 DUP3 DUP2 SLOAD DUP2 LT PUSH2 0x1101 JUMPI PUSH2 0x1100 PUSH2 0x338A JUMP JUMPDEST JUMPDEST SWAP1 PUSH0 MSTORE PUSH1 0x20 PUSH0 KECCAK256 SWAP1 PUSH1 0xB MUL ADD PUSH1 0x2 ADD PUSH0 SWAP1 SLOAD SWAP1 PUSH2 0x100 EXP SWAP1 DIV PUSH20 0xFFFFFFFFFFFFFFFFFFFFFFFFFFFFFFFFFFFFFFFF AND PUSH20 0xFFFFFFFFFFFFFFFFFFFFFFFFFFFFFFFFFFFFFFFF AND SUB PUSH2 0x114F JUMPI PUSH0 DUP1 REVERT JUMPDEST PUSH0 PUSH1 0x2 PUSH1 0x6 DUP4 DUP2 SLOAD DUP2 LT PUSH2 0x1166 JUMPI PUSH2 0x1165 PUSH2 0x338A JUMP JUMPDEST JUMPDEST SWAP1 PUSH0 MSTORE PUSH1 0x20 PUSH0 KECCAK256 SWAP1 PUSH1 0xB MUL ADD PUSH1 0x6 ADD SLOAD PUSH2 0x1180 SWAP2 SWAP1 PUSH2 0x354E JUMP JUMPDEST SWAP1 POP PUSH0 DUP1 PUSH1 0x6 DUP5 DUP2 SLOAD DUP2 LT PUSH2 0x1198 JUMPI PUSH2 0x1197 PUSH2 0x338A JUMP JUMPDEST JUMPDEST SWAP1 PUSH0 MSTORE PUSH1 0x20 PUSH0 KECCAK256 SWAP1 PUSH1 0xB MUL ADD PUSH1 0x2 ADD PUSH0 SWAP1 SLOAD SWAP1 PUSH2 0x100 EXP SWAP1 DIV PUSH20 0xFFFFFFFFFFFFFFFFFFFFFFFFFFFFFFFFFFFFFFFF AND PUSH20 0xFFFFFFFFFFFFFFFFFFFFFFFFFFFFFFFFFFFFFFFF AND DUP4 PUSH1 0x40 MLOAD PUSH2 0x11EA SWAP1 PUSH2 0x3444 JUMP JUMPDEST PUSH0 PUSH1 0x40 MLOAD DUP1 DUP4 SUB DUP2 DUP6 DUP8 GAS CALL SWAP3 POP POP POP RETURNDATASIZE DUP1 PUSH0 DUP2 EQ PUSH2 0x1224 JUMPI PUSH1 0x40 MLOAD SWAP2 POP PUSH1 0x1F NOT PUSH1 0x3F RETURNDATASIZE ADD AND DUP3 ADD PUSH1 0x40 MSTORE RETURNDATASIZE DUP3 MSTORE RETURNDATASIZE PUSH0 PUSH1 0x20 DUP5 ADD RETURNDATACOPY PUSH2 0x1229 JUMP JUMPDEST PUSH1 0x60 SWAP2 POP JUMPDEST POP SWAP2 POP SWAP2 POP DUP2 PUSH2 0x126E JUMPI PUSH1 0x40 MLOAD PUSH32 0x8C379A000000000000000000000000000000000000000000000000000000000 DUP2 MSTORE PUSH1 0x4 ADD PUSH2 0x1265 SWAP1 PUSH2 0x34A2 JUMP JUMPDEST PUSH1 0x40 MLOAD DUP1 SWAP2 SUB SWAP1 REVERT JUMPDEST PUSH2 0x1277 DUP5 PUSH2 0x1932 JUMP JUMPDEST POP POP POP POP POP POP JUMP JUMPDEST PUSH0 PUSH2 0x128A DUP4 DUP4 PUSH2 0x1435 JUMP JUMPDEST SWAP1 POP CALLER PUSH20 0xFFFFFFFFFFFFFFFFFFFFFFFFFFFFFFFFFFFFFFFF AND PUSH1 0x6 DUP3 DUP2 SLOAD DUP2 LT PUSH2 0x12B7 JUMPI PUSH2 0x12B6 PUSH2 0x338A JUMP JUMPDEST JUMPDEST SWAP1 PUSH0 MSTORE PUSH1 0x20 PUSH0 KECCAK256 SWAP1 PUSH1 0xB MUL ADD PUSH1 0x2 ADD PUSH0 SWAP1 SLOAD SWAP1 PUSH2 0x100 EXP SWAP1 DIV PUSH20 0xFFFFFFFFFFFFFFFFFFFFFFFFFFFFFFFFFFFFFFFF AND PUSH20 0xFFFFFFFFFFFFFFFFFFFFFFFFFFFFFFFFFFFFFFFF AND EQ PUSH2 0x1305 JUMPI PUSH0 DUP1 REVERT JUMPDEST PUSH0 PUSH1 0x2 PUSH1 0x6 DUP4 DUP2 SLOAD DUP2 LT PUSH2 0x131C JUMPI PUSH2 0x131B PUSH2 0x338A JUMP JUMPDEST JUMPDEST SWAP1 PUSH0 MSTORE PUSH1 0x20 PUSH0 KECCAK256 SWAP1 PUSH1 0xB MUL ADD PUSH1 0x6 ADD SLOAD PUSH2 0x1336 SWAP2 SWAP1 PUSH2 0x354E JUMP JUMPDEST SWAP1 POP PUSH0 DUP1 PUSH1 0x6 DUP5 DUP2 SLOAD DUP2 LT PUSH2 0x134E JUMPI PUSH2 0x134D PUSH2 0x338A JUMP JUMPDEST JUMPDEST SWAP1 PUSH0 MSTORE PUSH1 0x20 PUSH0 KECCAK256 SWAP1 PUSH1 0xB MUL ADD PUSH1 0x3 ADD PUSH0 SWAP1 SLOAD SWAP1 PUSH2 0x100 EXP SWAP1 DIV PUSH20 0xFFFFFFFFFFFFFFFFFFFFFFFFFFFFFFFFFFFFFFFF AND PUSH20 0xFFFFFFFFFFFFFFFFFFFFFFFFFFFFFFFFFFFFFFFF AND DUP4 PUSH1 0x40 MLOAD PUSH2 0x13A0 SWAP1 PUSH2 0x3444 JUMP JUMPDEST PUSH0 PUSH1 0x40 MLOAD DUP1 DUP4 SUB DUP2 DUP6 DUP8 GAS CALL SWAP3 POP POP POP RETURNDATASIZE DUP1 PUSH0 DUP2 EQ PUSH2 0x13DA JUMPI PUSH1 0x40 MLOAD SWAP2 POP PUSH1 0x1F NOT PUSH1 0x3F RETURNDATASIZE ADD AND DUP3 ADD PUSH1 0x40 MSTORE RETURNDATASIZE DUP3 MSTORE RETURNDATASIZE PUSH0 PUSH1 0x20 DUP5 ADD RETURNDATACOPY PUSH2 0x13DF JUMP JUMPDEST PUSH1 0x60 SWAP2 POP JUMPDEST POP SWAP2 POP SWAP2 POP DUP2 PUSH2 0x1424 JUMPI PUSH1 0x40 MLOAD PUSH32 0x8C379A000000000000000000000000000000000000000000000000000000000 DUP2 MSTORE PUSH1 0x4 ADD PUSH2 0x141B SWAP1 PUSH2 0x34A2 JUMP JUMPDEST PUSH1 0x40 MLOAD DUP1 SWAP2 SUB SWAP1 REVERT JUMPDEST PUSH2 0x142D DUP5 PUSH2 0x1932 JUMP JUMPDEST POP POP POP POP POP POP JUMP JUMPDEST PUSH0 DUP1 PUSH0 SWAP1 POP PUSH0 JUMPDEST PUSH1 0x6 DUP1 SLOAD SWAP1 POP DUP2 LT ISZERO PUSH2 0x14EE JUMPI DUP5 DUP1 MLOAD SWAP1 PUSH1 0x20 ADD KECCAK256 PUSH1 0x6 DUP3 DUP2 SLOAD DUP2 LT PUSH2 0x1465 JUMPI PUSH2 0x1464 PUSH2 0x338A JUMP JUMPDEST JUMPDEST SWAP1 PUSH0 MSTORE PUSH1 0x20 PUSH0 KECCAK256 SWAP1 PUSH1 0xB MUL ADD PUSH0 ADD PUSH1 0x40 MLOAD PUSH2 0x1480 SWAP2 SWAP1 PUSH2 0x3CF1 JUMP JUMPDEST PUSH1 0x40 MLOAD DUP1 SWAP2 SUB SWAP1 KECCAK256 EQ DUP1 ISZERO PUSH2 0x14D2 JUMPI POP DUP4 DUP1 MLOAD SWAP1 PUSH1 0x20 ADD KECCAK256 PUSH1 0x6 DUP3 DUP2 SLOAD DUP2 LT PUSH2 0x14AC JUMPI PUSH2 0x14AB PUSH2 0x338A JUMP JUMPDEST JUMPDEST SWAP1 PUSH0 MSTORE PUSH1 0x20 PUSH0 KECCAK256 SWAP1 PUSH1 0xB MUL ADD PUSH1 0x1 ADD PUSH1 0x40 MLOAD PUSH2 0x14C8 SWAP2 SWAP1 PUSH2 0x3CF1 JUMP JUMPDEST PUSH1 0x40 MLOAD DUP1 SWAP2 SUB SWAP1 KECCAK256 EQ JUMPDEST ISZERO PUSH2 0x14E1 JUMPI DUP1 SWAP3 POP POP POP PUSH2 0x14FD JUMP JUMPDEST DUP1 DUP1 PUSH1 0x1 ADD SWAP2 POP POP PUSH2 0x143C JUMP JUMPDEST POP DUP1 PUSH2 0x14F8 JUMPI PUSH0 DUP1 REVERT JUMPDEST PUSH0 SWAP2 POP POP JUMPDEST SWAP3 SWAP2 POP POP JUMP JUMPDEST DUP3 PUSH1 0x4 SLOAD EQ PUSH2 0x1547 JUMPI PUSH1 0x40 MLOAD PUSH32 0x8C379A000000000000000000000000000000000000000000000000000000000 DUP2 MSTORE PUSH1 0x4 ADD PUSH2 0x153E SWAP1 PUSH2 0x34A2 JUMP JUMPDEST PUSH1 0x40 MLOAD DUP1 SWAP2 SUB SWAP1 REVERT JUMPDEST PUSH0 DUP3 SWAP1 POP TIMESTAMP PUSH1 0x6 PUSH1 0x5 SLOAD DUP2 SLOAD DUP2 LT PUSH2 0x1562 JUMPI PUSH2 0x1561 PUSH2 0x338A JUMP JUMPDEST JUMPDEST SWAP1 PUSH0 MSTORE PUSH1 0x20 PUSH0 KECCAK256 SWAP1 PUSH1 0xB MUL ADD PUSH1 0x9 ADD SLOAD LT DUP1 ISZERO PUSH2 0x15C1 JUMPI POP PUSH1 0x40 MLOAD DUP1 PUSH1 0x40 ADD PUSH1 0x40 MSTORE DUP1 PUSH1 0x3 DUP2 MSTORE PUSH1 0x20 ADD PUSH32 0x3230340000000000000000000000000000000000000000000000000000000000 DUP2 MSTORE POP DUP1 MLOAD SWAP1 PUSH1 0x20 ADD KECCAK256 DUP2 DUP1 MLOAD SWAP1 PUSH1 0x20 ADD KECCAK256 EQ JUMPDEST ISZERO PUSH2 0x1756 JUMPI PUSH0 PUSH1 0x6 PUSH1 0x5 SLOAD DUP2 SLOAD DUP2 LT PUSH2 0x15DD JUMPI PUSH2 0x15DC PUSH2 0x338A JUMP JUMPDEST JUMPDEST SWAP1 PUSH0 MSTORE PUSH1 0x20 PUSH0 KECCAK256 SWAP1 PUSH1 0xB MUL ADD PUSH1 0x6 ADD SLOAD PUSH1 0x6 PUSH1 0x5 SLOAD DUP2 SLOAD DUP2 LT PUSH2 0x1603 JUMPI PUSH2 0x1602 PUSH2 0x338A JUMP JUMPDEST JUMPDEST SWAP1 PUSH0 MSTORE PUSH1 0x20 PUSH0 KECCAK256 SWAP1 PUSH1 0xB MUL ADD PUSH1 0x7 ADD SLOAD PUSH2 0x161D SWAP2 SWAP1 PUSH2 0x33E4 JUMP JUMPDEST SWAP1 POP PUSH0 DUP1 PUSH1 0x6 PUSH1 0x5 SLOAD DUP2 SLOAD DUP2 LT PUSH2 0x1637 JUMPI PUSH2 0x1636 PUSH2 0x338A JUMP JUMPDEST JUMPDEST SWAP1 PUSH0 MSTORE PUSH1 0x20 PUSH0 KECCAK256 SWAP1 PUSH1 0xB MUL ADD PUSH1 0x2 ADD PUSH0 SWAP1 SLOAD SWAP1 PUSH2 0x100 EXP SWAP1 DIV PUSH20 0xFFFFFFFFFFFFFFFFFFFFFFFFFFFFFFFFFFFFFFFF AND PUSH20 0xFFFFFFFFFFFFFFFFFFFFFFFFFFFFFFFFFFFFFFFF AND DUP4 PUSH1 0x40 MLOAD PUSH2 0x1689 SWAP1 PUSH2 0x3444 JUMP JUMPDEST PUSH0 PUSH1 0x40 MLOAD DUP1 DUP4 SUB DUP2 DUP6 DUP8 GAS CALL SWAP3 POP POP POP RETURNDATASIZE DUP1 PUSH0 DUP2 EQ PUSH2 0x16C3 JUMPI PUSH1 0x40 MLOAD SWAP2 POP PUSH1 0x1F NOT PUSH1 0x3F RETURNDATASIZE ADD AND DUP3 ADD PUSH1 0x40 MSTORE RETURNDATASIZE DUP3 MSTORE RETURNDATASIZE PUSH0 PUSH1 0x20 DUP5 ADD RETURNDATACOPY PUSH2 0x16C8 JUMP JUMPDEST PUSH1 0x60 SWAP2 POP JUMPDEST POP SWAP2 POP SWAP2 POP DUP2 PUSH2 0x170D JUMPI PUSH1 0x40 MLOAD PUSH32 0x8C379A000000000000000000000000000000000000000000000000000000000 DUP2 MSTORE PUSH1 0x4 ADD PUSH2 0x1704 SWAP1 PUSH2 0x34A2 JUMP JUMPDEST PUSH1 0x40 MLOAD DUP1 SWAP2 SUB SWAP1 REVERT JUMPDEST PUSH2 0x1718 PUSH1 0x5 SLOAD PUSH2 0x1932 JUMP JUMPDEST PUSH32 0xB749D4CBEF5280AB440645A46BBADA3F52C0D015210CFCEABD4E5B4E49195F77 PUSH1 0x40 MLOAD PUSH2 0x1745 SWAP1 PUSH2 0x3DC3 JUMP JUMPDEST PUSH1 0x40 MLOAD DUP1 SWAP2 SUB SWAP1 LOG1 POP POP POP POP PUSH2 0x192D JUMP JUMPDEST PUSH1 0x40 MLOAD DUP1 PUSH1 0x40 ADD PUSH1 0x40 MSTORE DUP1 PUSH1 0x3 DUP2 MSTORE PUSH1 0x20 ADD PUSH32 0x3230300000000000000000000000000000000000000000000000000000000000 DUP2 MSTORE POP DUP1 MLOAD SWAP1 PUSH1 0x20 ADD KECCAK256 DUP2 DUP1 MLOAD SWAP1 PUSH1 0x20 ADD KECCAK256 SUB PUSH2 0x192B JUMPI PUSH0 PUSH1 0x6 PUSH1 0x5 SLOAD DUP2 SLOAD DUP2 LT PUSH2 0x17B7 JUMPI PUSH2 0x17B6 PUSH2 0x338A JUMP JUMPDEST JUMPDEST SWAP1 PUSH0 MSTORE PUSH1 0x20 PUSH0 KECCAK256 SWAP1 PUSH1 0xB MUL ADD PUSH1 0x6 ADD SLOAD PUSH1 0x6 PUSH1 0x5 SLOAD DUP2 SLOAD DUP2 LT PUSH2 0x17DD JUMPI PUSH2 0x17DC PUSH2 0x338A JUMP JUMPDEST JUMPDEST SWAP1 PUSH0 MSTORE PUSH1 0x20 PUSH0 KECCAK256 SWAP1 PUSH1 0xB MUL ADD PUSH1 0x7 ADD SLOAD PUSH2 0x17F7 SWAP2 SWAP1 PUSH2 0x33E4 JUMP JUMPDEST SWAP1 POP PUSH0 DUP1 PUSH1 0x6 PUSH1 0x5 SLOAD DUP2 SLOAD DUP2 LT PUSH2 0x1811 JUMPI PUSH2 0x1810 PUSH2 0x338A JUMP JUMPDEST JUMPDEST SWAP1 PUSH0 MSTORE PUSH1 0x20 PUSH0 KECCAK256 SWAP1 PUSH1 0xB MUL ADD PUSH1 0x3 ADD PUSH0 SWAP1 SLOAD SWAP1 PUSH2 0x100 EXP SWAP1 DIV PUSH20 0xFFFFFFFFFFFFFFFFFFFFFFFFFFFFFFFFFFFFFFFF AND PUSH20 0xFFFFFFFFFFFFFFFFFFFFFFFFFFFFFFFFFFFFFFFF AND DUP4 PUSH1 0x40 MLOAD PUSH2 0x1863 SWAP1 PUSH2 0x3444 JUMP JUMPDEST PUSH0 PUSH1 0x40 MLOAD DUP1 DUP4 SUB DUP2 DUP6 DUP8 GAS CALL SWAP3 POP POP POP RETURNDATASIZE DUP1 PUSH0 DUP2 EQ PUSH2 0x189D JUMPI PUSH1 0x40 MLOAD SWAP2 POP PUSH1 0x1F NOT PUSH1 0x3F RETURNDATASIZE ADD AND DUP3 ADD PUSH1 0x40 MSTORE RETURNDATASIZE DUP3 MSTORE RETURNDATASIZE PUSH0 PUSH1 0x20 DUP5 ADD RETURNDATACOPY PUSH2 0x18A2 JUMP JUMPDEST PUSH1 0x60 SWAP2 POP JUMPDEST POP SWAP2 POP SWAP2 POP DUP2 PUSH2 0x18E7 JUMPI PUSH1 0x40 MLOAD PUSH32 0x8C379A000000000000000000000000000000000000000000000000000000000 DUP2 MSTORE PUSH1 0x4 ADD PUSH2 0x18DE SWAP1 PUSH2 0x34A2 JUMP JUMPDEST PUSH1 0x40 MLOAD DUP1 SWAP2 SUB SWAP1 REVERT JUMPDEST PUSH32 0xB749D4CBEF5280AB440645A46BBADA3F52C0D015210CFCEABD4E5B4E49195F77 PUSH1 0x40 MLOAD PUSH2 0x1914 SWAP1 PUSH2 0x3E51 JUMP JUMPDEST PUSH1 0x40 MLOAD DUP1 SWAP2 SUB SWAP1 LOG1 PUSH2 0x1927 PUSH1 0x5 SLOAD PUSH2 0x1932 JUMP JUMPDEST POP POP POP JUMPDEST POP JUMPDEST POP POP POP JUMP JUMPDEST PUSH1 0x6 DUP1 SLOAD SWAP1 POP DUP2 LT PUSH2 0x1942 JUMPI PUSH0 DUP1 REVERT JUMPDEST PUSH0 DUP2 SWAP1 POP JUMPDEST PUSH1 0x1 PUSH1 0x6 DUP1 SLOAD SWAP1 POP PUSH2 0x1959 SWAP2 SWAP1 PUSH2 0x3E6F JUMP JUMPDEST DUP2 LT ISZERO PUSH2 0x1B2B JUMPI PUSH1 0x6 PUSH1 0x1 DUP3 PUSH2 0x196F SWAP2 SWAP1 PUSH2 0x33E4 JUMP JUMPDEST DUP2 SLOAD DUP2 LT PUSH2 0x1980 JUMPI PUSH2 0x197F PUSH2 0x338A JUMP JUMPDEST JUMPDEST SWAP1 PUSH0 MSTORE PUSH1 0x20 PUSH0 KECCAK256 SWAP1 PUSH1 0xB MUL ADD PUSH1 0x6 DUP3 DUP2 SLOAD DUP2 LT PUSH2 0x19A0 JUMPI PUSH2 0x199F PUSH2 0x338A JUMP JUMPDEST JUMPDEST SWAP1 PUSH0 MSTORE PUSH1 0x20 PUSH0 KECCAK256 SWAP1 PUSH1 0xB MUL ADD PUSH0 DUP3 ADD DUP2 PUSH0 ADD SWAP1 DUP2 PUSH2 0x19BE SWAP2 SWAP1 PUSH2 0x3EB7 JUMP JUMPDEST POP PUSH1 0x1 DUP3 ADD DUP2 PUSH1 0x1 ADD SWAP1 DUP2 PUSH2 0x19D3 SWAP2 SWAP1 PUSH2 0x3EB7 JUMP JUMPDEST POP PUSH1 0x2 DUP3 ADD PUSH0 SWAP1 SLOAD SWAP1 PUSH2 0x100 EXP SWAP1 DIV PUSH20 0xFFFFFFFFFFFFFFFFFFFFFFFFFFFFFFFFFFFFFFFF AND DUP2 PUSH1 0x2 ADD PUSH0 PUSH2 0x100 EXP DUP2 SLOAD DUP2 PUSH20 0xFFFFFFFFFFFFFFFFFFFFFFFFFFFFFFFFFFFFFFFF MUL NOT AND SWAP1 DUP4 PUSH20 0xFFFFFFFFFFFFFFFFFFFFFFFFFFFFFFFFFFFFFFFF AND MUL OR SWAP1 SSTORE POP PUSH1 0x3 DUP3 ADD PUSH0 SWAP1 SLOAD SWAP1 PUSH2 0x100 EXP SWAP1 DIV PUSH20 0xFFFFFFFFFFFFFFFFFFFFFFFFFFFFFFFFFFFFFFFF AND DUP2 PUSH1 0x3 ADD PUSH0 PUSH2 0x100 EXP DUP2 SLOAD DUP2 PUSH20 0xFFFFFFFFFFFFFFFFFFFFFFFFFFFFFFFFFFFFFFFF MUL NOT AND SWAP1 DUP4 PUSH20 0xFFFFFFFFFFFFFFFFFFFFFFFFFFFFFFFFFFFFFFFF AND MUL OR SWAP1 SSTORE POP PUSH1 0x4 DUP3 ADD DUP2 PUSH1 0x4 ADD SWAP1 DUP2 PUSH2 0x1AB2 SWAP2 SWAP1 PUSH2 0x3EB7 JUMP JUMPDEST POP PUSH1 0x5 DUP3 ADD DUP2 PUSH1 0x5 ADD SWAP1 DUP2 PUSH2 0x1AC7 SWAP2 SWAP1 PUSH2 0x3EB7 JUMP JUMPDEST POP PUSH1 0x6 DUP3 ADD SLOAD DUP2 PUSH1 0x6 ADD SSTORE PUSH1 0x7 DUP3 ADD SLOAD DUP2 PUSH1 0x7 ADD SSTORE PUSH1 0x8 DUP3 ADD SLOAD DUP2 PUSH1 0x8 ADD SSTORE PUSH1 0x9 DUP3 ADD SLOAD DUP2 PUSH1 0x9 ADD SSTORE PUSH1 0xA DUP3 ADD PUSH0 SWAP1 SLOAD SWAP1 PUSH2 0x100 EXP SWAP1 DIV PUSH1 0xFF AND DUP2 PUSH1 0xA ADD PUSH0 PUSH2 0x100 EXP DUP2 SLOAD DUP2 PUSH1 0xFF MUL NOT AND SWAP1 DUP4 ISZERO ISZERO MUL OR SWAP1 SSTORE POP SWAP1 POP POP DUP1 DUP1 PUSH1 0x1 ADD SWAP2 POP POP PUSH2 0x1947 JUMP JUMPDEST POP PUSH1 0x6 DUP1 SLOAD DUP1 PUSH2 0x1B3E JUMPI PUSH2 0x1B3D PUSH2 0x3F9C JUMP JUMPDEST JUMPDEST PUSH1 0x1 SWAP1 SUB DUP2 DUP2 SWAP1 PUSH0 MSTORE PUSH1 0x20 PUSH0 KECCAK256 SWAP1 PUSH1 0xB MUL ADD PUSH0 DUP1 DUP3 ADD PUSH0 PUSH2 0x1B5F SWAP2 SWAP1 PUSH2 0x2C79 JUMP JUMPDEST PUSH1 0x1 DUP3 ADD PUSH0 PUSH2 0x1B6E SWAP2 SWAP1 PUSH2 0x2C79 JUMP JUMPDEST PUSH1 0x2 DUP3 ADD PUSH0 PUSH2 0x100 EXP DUP2 SLOAD SWAP1 PUSH20 0xFFFFFFFFFFFFFFFFFFFFFFFFFFFFFFFFFFFFFFFF MUL NOT AND SWAP1 SSTORE PUSH1 0x3 DUP3 ADD PUSH0 PUSH2 0x100 EXP DUP2 SLOAD SWAP1 PUSH20 0xFFFFFFFFFFFFFFFFFFFFFFFFFFFFFFFFFFFFFFFF MUL NOT AND SWAP1 SSTORE PUSH1 0x4 DUP3 ADD PUSH0 PUSH2 0x1BC9 SWAP2 SWAP1 PUSH2 0x2C79 JUMP JUMPDEST PUSH1 0x5 DUP3 ADD PUSH0 PUSH2 0x1BD8 SWAP2 SWAP1 PUSH2 0x2C79 JUMP JUMPDEST PUSH1 0x6 DUP3 ADD PUSH0 SWAP1 SSTORE PUSH1 0x7 DUP3 ADD PUSH0 SWAP1 SSTORE PUSH1 0x8 DUP3 ADD PUSH0 SWAP1 SSTORE PUSH1 0x9 DUP3 ADD PUSH0 SWAP1 SSTORE PUSH1 0xA DUP3 ADD PUSH0 PUSH2 0x100 EXP DUP2 SLOAD SWAP1 PUSH1 0xFF MUL NOT AND SWAP1 SSTORE POP POP SWAP1 SSTORE POP JUMP JUMPDEST PUSH2 0x1C1A DUP3 PUSH0 DUP1 DUP5 PUSH2 0x236E JUMP JUMPDEST POP POP JUMP JUMPDEST PUSH1 0x60 PUSH0 PUSH2 0x1C2C PUSH2 0x100 PUSH2 0x2414 JUMP JUMPDEST SWAP1 POP PUSH2 0x1C76 PUSH1 0x40 MLOAD DUP1 PUSH1 0x40 ADD PUSH1 0x40 MSTORE DUP1 PUSH1 0xC DUP2 MSTORE PUSH1 0x20 ADD PUSH32 0x636F64654C6F636174696F6E0000000000000000000000000000000000000000 DUP2 MSTORE POP DUP3 PUSH2 0x2439 SWAP1 SWAP2 SWAP1 PUSH4 0xFFFFFFFF AND JUMP JUMPDEST PUSH2 0x1C9E DUP4 PUSH0 ADD MLOAD PUSH1 0x2 DUP2 GT ISZERO PUSH2 0x1C8F JUMPI PUSH2 0x1C8E PUSH2 0x3FC9 JUMP JUMPDEST JUMPDEST DUP3 PUSH2 0x2461 SWAP1 SWAP2 SWAP1 PUSH4 0xFFFFFFFF AND JUMP JUMPDEST PUSH2 0x1CE6 PUSH1 0x40 MLOAD DUP1 PUSH1 0x40 ADD PUSH1 0x40 MSTORE DUP1 PUSH1 0x8 DUP2 MSTORE PUSH1 0x20 ADD PUSH32 0x6C616E6775616765000000000000000000000000000000000000000000000000 DUP2 MSTORE POP DUP3 PUSH2 0x2439 SWAP1 SWAP2 SWAP1 PUSH4 0xFFFFFFFF AND JUMP JUMPDEST PUSH2 0x1D0E DUP4 PUSH1 0x40 ADD MLOAD PUSH0 DUP2 GT ISZERO PUSH2 0x1CFF JUMPI PUSH2 0x1CFE PUSH2 0x3FC9 JUMP JUMPDEST JUMPDEST DUP3 PUSH2 0x2461 SWAP1 SWAP2 SWAP1 PUSH4 0xFFFFFFFF AND JUMP JUMPDEST PUSH2 0x1D56 PUSH1 0x40 MLOAD DUP1 PUSH1 0x40 ADD PUSH1 0x40 MSTORE DUP1 PUSH1 0x6 DUP2 MSTORE PUSH1 0x20 ADD PUSH32 0x736F757263650000000000000000000000000000000000000000000000000000 DUP2 MSTORE POP DUP3 PUSH2 0x2439 SWAP1 SWAP2 SWAP1 PUSH4 0xFFFFFFFF AND JUMP JUMPDEST PUSH2 0x1D6D DUP4 PUSH1 0x60 ADD MLOAD DUP3 PUSH2 0x2439 SWAP1 SWAP2 SWAP1 PUSH4 0xFFFFFFFF AND JUMP JUMPDEST PUSH0 DUP4 PUSH1 0xA0 ADD MLOAD MLOAD GT ISZERO PUSH2 0x1E21 JUMPI PUSH2 0x1DC2 PUSH1 0x40 MLOAD DUP1 PUSH1 0x40 ADD PUSH1 0x40 MSTORE DUP1 PUSH1 0x4 DUP2 MSTORE PUSH1 0x20 ADD PUSH32 0x6172677300000000000000000000000000000000000000000000000000000000 DUP2 MSTORE POP DUP3 PUSH2 0x2439 SWAP1 SWAP2 SWAP1 PUSH4 0xFFFFFFFF AND JUMP JUMPDEST PUSH2 0x1DCB DUP2 PUSH2 0x24B0 JUMP JUMPDEST PUSH0 JUMPDEST DUP4 PUSH1 0xA0 ADD MLOAD MLOAD DUP2 LT ISZERO PUSH2 0x1E16 JUMPI PUSH2 0x1E0B DUP5 PUSH1 0xA0 ADD MLOAD DUP3 DUP2 MLOAD DUP2 LT PUSH2 0x1DF4 JUMPI PUSH2 0x1DF3 PUSH2 0x338A JUMP JUMPDEST JUMPDEST PUSH1 0x20 MUL PUSH1 0x20 ADD ADD MLOAD DUP4 PUSH2 0x2439 SWAP1 SWAP2 SWAP1 PUSH4 0xFFFFFFFF AND JUMP JUMPDEST DUP1 PUSH1 0x1 ADD SWAP1 POP PUSH2 0x1DCD JUMP JUMPDEST POP PUSH2 0x1E20 DUP2 PUSH2 0x24D8 JUMP JUMPDEST JUMPDEST PUSH0 DUP4 PUSH1 0x80 ADD MLOAD MLOAD GT ISZERO PUSH2 0x1F60 JUMPI PUSH0 PUSH1 0x2 DUP2 GT ISZERO PUSH2 0x1E41 JUMPI PUSH2 0x1E40 PUSH2 0x3FC9 JUMP JUMPDEST JUMPDEST DUP4 PUSH1 0x20 ADD MLOAD PUSH1 0x2 DUP2 GT ISZERO PUSH2 0x1E58 JUMPI PUSH2 0x1E57 PUSH2 0x3FC9 JUMP JUMPDEST JUMPDEST SUB PUSH2 0x1E8F JUMPI PUSH1 0x40 MLOAD PUSH32 0xA80D31F700000000000000000000000000000000000000000000000000000000 DUP2 MSTORE PUSH1 0x4 ADD PUSH1 0x40 MLOAD DUP1 SWAP2 SUB SWAP1 REVERT JUMPDEST PUSH2 0x1ED7 PUSH1 0x40 MLOAD DUP1 PUSH1 0x40 ADD PUSH1 0x40 MSTORE DUP1 PUSH1 0xF DUP2 MSTORE PUSH1 0x20 ADD PUSH32 0x736563726574734C6F636174696F6E0000000000000000000000000000000000 DUP2 MSTORE POP DUP3 PUSH2 0x2439 SWAP1 SWAP2 SWAP1 PUSH4 0xFFFFFFFF AND JUMP JUMPDEST PUSH2 0x1F00 DUP4 PUSH1 0x20 ADD MLOAD PUSH1 0x2 DUP2 GT ISZERO PUSH2 0x1EF1 JUMPI PUSH2 0x1EF0 PUSH2 0x3FC9 JUMP JUMPDEST JUMPDEST DUP3 PUSH2 0x2461 SWAP1 SWAP2 SWAP1 PUSH4 0xFFFFFFFF AND JUMP JUMPDEST PUSH2 0x1F48 PUSH1 0x40 MLOAD DUP1 PUSH1 0x40 ADD PUSH1 0x40 MSTORE DUP1 PUSH1 0x7 DUP2 MSTORE PUSH1 0x20 ADD PUSH32 0x7365637265747300000000000000000000000000000000000000000000000000 DUP2 MSTORE POP DUP3 PUSH2 0x2439 SWAP1 SWAP2 SWAP1 PUSH4 0xFFFFFFFF AND JUMP JUMPDEST PUSH2 0x1F5F DUP4 PUSH1 0x80 ADD MLOAD DUP3 PUSH2 0x2500 SWAP1 SWAP2 SWAP1 PUSH4 0xFFFFFFFF AND JUMP JUMPDEST JUMPDEST PUSH0 DUP4 PUSH1 0xC0 ADD MLOAD MLOAD GT ISZERO PUSH2 0x2014 JUMPI PUSH2 0x1FB5 PUSH1 0x40 MLOAD DUP1 PUSH1 0x40 ADD PUSH1 0x40 MSTORE DUP1 PUSH1 0x9 DUP2 MSTORE PUSH1 0x20 ADD PUSH32 0x6279746573417267730000000000000000000000000000000000000000000000 DUP2 MSTORE POP DUP3 PUSH2 0x2439 SWAP1 SWAP2 SWAP1 PUSH4 0xFFFFFFFF AND JUMP JUMPDEST PUSH2 0x1FBE DUP2 PUSH2 0x24B0 JUMP JUMPDEST PUSH0 JUMPDEST DUP4 PUSH1 0xC0 ADD MLOAD MLOAD DUP2 LT ISZERO PUSH2 0x2009 JUMPI PUSH2 0x1FFE DUP5 PUSH1 0xC0 ADD MLOAD DUP3 DUP2 MLOAD DUP2 LT PUSH2 0x1FE7 JUMPI PUSH2 0x1FE6 PUSH2 0x338A JUMP JUMPDEST JUMPDEST PUSH1 0x20 MUL PUSH1 0x20 ADD ADD MLOAD DUP4 PUSH2 0x2500 SWAP1 SWAP2 SWAP1 PUSH4 0xFFFFFFFF AND JUMP JUMPDEST DUP1 PUSH1 0x1 ADD SWAP1 POP PUSH2 0x1FC0 JUMP JUMPDEST POP PUSH2 0x2013 DUP2 PUSH2 0x24D8 JUMP JUMPDEST JUMPDEST DUP1 PUSH0 ADD MLOAD PUSH0 ADD MLOAD SWAP2 POP POP SWAP2 SWAP1 POP JUMP JUMPDEST PUSH0 DUP1 PUSH32 0x0 PUSH20 0xFFFFFFFFFFFFFFFFFFFFFFFFFFFFFFFFFFFFFFFF AND PUSH4 0x461D2762 DUP7 DUP9 PUSH1 0x1 DUP9 DUP9 PUSH1 0x40 MLOAD DUP7 PUSH4 0xFFFFFFFF AND PUSH1 0xE0 SHL DUP2 MSTORE PUSH1 0x4 ADD PUSH2 0x2087 SWAP6 SWAP5 SWAP4 SWAP3 SWAP2 SWAP1 PUSH2 0x40B3 JUMP JUMPDEST PUSH1 0x20 PUSH1 0x40 MLOAD DUP1 DUP4 SUB DUP2 PUSH0 DUP8 GAS CALL ISZERO DUP1 ISZERO PUSH2 0x20A3 JUMPI RETURNDATASIZE PUSH0 DUP1 RETURNDATACOPY RETURNDATASIZE PUSH0 REVERT JUMPDEST POP POP POP POP PUSH1 0x40 MLOAD RETURNDATASIZE PUSH1 0x1F NOT PUSH1 0x1F DUP3 ADD AND DUP3 ADD DUP1 PUSH1 0x40 MSTORE POP DUP2 ADD SWAP1 PUSH2 0x20C7 SWAP2 SWAP1 PUSH2 0x411F JUMP JUMPDEST SWAP1 POP DUP1 PUSH32 0x1131472297A800FEE664D1D89CFA8F7676FF07189ECC53F80BBB5F4969099DB8 PUSH1 0x40 MLOAD PUSH1 0x40 MLOAD DUP1 SWAP2 SUB SWAP1 LOG2 DUP1 SWAP2 POP POP SWAP5 SWAP4 POP POP POP POP JUMP JUMPDEST PUSH0 DUP1 DUP3 SWAP1 POP PUSH1 0xB DUP2 MLOAD EQ PUSH2 0x2119 JUMPI PUSH0 SWAP2 POP POP PUSH2 0x2369 JUMP JUMPDEST PUSH0 JUMPDEST PUSH1 0xA DUP2 PUSH1 0xFF AND LT ISZERO PUSH2 0x219D JUMPI PUSH0 PUSH2 0x2134 DUP3 PUSH1 0xFF AND PUSH2 0x2528 JUMP JUMPDEST SWAP1 POP PUSH0 DUP2 DUP3 DUP4 DUP5 DUP6 DUP7 DUP8 DUP9 DUP10 DUP11 DUP12 PUSH1 0x40 MLOAD PUSH1 0x20 ADD PUSH2 0x215C SWAP12 SWAP11 SWAP10 SWAP9 SWAP8 SWAP7 SWAP6 SWAP5 SWAP4 SWAP3 SWAP2 SWAP1 PUSH2 0x414A JUMP JUMPDEST PUSH1 0x40 MLOAD PUSH1 0x20 DUP2 DUP4 SUB SUB DUP2 MSTORE SWAP1 PUSH1 0x40 MSTORE SWAP1 POP DUP1 DUP1 MLOAD SWAP1 PUSH1 0x20 ADD KECCAK256 DUP5 DUP1 MLOAD SWAP1 PUSH1 0x20 ADD KECCAK256 SUB PUSH2 0x218E JUMPI PUSH0 SWAP5 POP POP POP POP POP PUSH2 0x2369 JUMP JUMPDEST POP POP DUP1 DUP1 PUSH1 0x1 ADD SWAP2 POP POP PUSH2 0x211B JUMP JUMPDEST POP PUSH0 DUP1 PUSH1 0xA SWAP1 POP PUSH0 JUMPDEST PUSH1 0x9 DUP2 PUSH1 0xFF AND LT ISZERO PUSH2 0x2216 JUMPI DUP2 DUP1 PUSH2 0x21BD SWAP1 PUSH2 0x41EE JUMP JUMPDEST SWAP3 POP PUSH1 0x30 DUP6 DUP4 PUSH1 0xFF AND DUP2 MLOAD DUP2 LT PUSH2 0x21D7 JUMPI PUSH2 0x21D6 PUSH2 0x338A JUMP JUMPDEST JUMPDEST PUSH1 0x20 ADD ADD MLOAD PUSH1 0xF8 SHR PUSH1 0xF8 SHL PUSH1 0xF8 SHR PUSH2 0x21EF SWAP2 SWAP1 PUSH2 0x4215 JUMP JUMPDEST PUSH2 0x21F9 SWAP2 SWAP1 PUSH2 0x4249 JUMP JUMPDEST PUSH1 0xFF AND DUP4 PUSH2 0x2207 SWAP2 SWAP1 PUSH2 0x33E4 JUMP JUMPDEST SWAP3 POP DUP1 DUP1 PUSH1 0x1 ADD SWAP2 POP POP PUSH2 0x21A6 JUMP JUMPDEST POP PUSH0 PUSH1 0xB DUP4 PUSH2 0x2225 SWAP2 SWAP1 PUSH2 0x42B2 JUMP JUMPDEST SWAP1 POP PUSH1 0x2 DUP2 LT PUSH2 0x2241 JUMPI DUP1 PUSH1 0xB PUSH2 0x223C SWAP2 SWAP1 PUSH2 0x3E6F JUMP JUMPDEST PUSH2 0x2243 JUMP JUMPDEST PUSH0 JUMPDEST SWAP1 POP DUP1 PUSH1 0x30 DUP6 PUSH1 0x9 DUP2 MLOAD DUP2 LT PUSH2 0x225C JUMPI PUSH2 0x225B PUSH2 0x338A JUMP JUMPDEST JUMPDEST PUSH1 0x20 ADD ADD MLOAD PUSH1 0xF8 SHR PUSH1 0xF8 SHL PUSH1 0xF8 SHR PUSH2 0x2274 SWAP2 SWAP1 PUSH2 0x4215 JUMP JUMPDEST PUSH1 0xFF AND EQ PUSH2 0x2288 JUMPI PUSH0 SWAP5 POP POP POP POP POP PUSH2 0x2369 JUMP JUMPDEST PUSH0 SWAP3 POP PUSH1 0xB SWAP2 POP PUSH0 JUMPDEST PUSH1 0xA DUP2 PUSH1 0xFF AND LT ISZERO PUSH2 0x2301 JUMPI DUP3 DUP1 PUSH2 0x22A8 SWAP1 PUSH2 0x41EE JUMP JUMPDEST SWAP4 POP PUSH1 0x30 DUP7 DUP4 PUSH1 0xFF AND DUP2 MLOAD DUP2 LT PUSH2 0x22C2 JUMPI PUSH2 0x22C1 PUSH2 0x338A JUMP JUMPDEST JUMPDEST PUSH1 0x20 ADD ADD MLOAD PUSH1 0xF8 SHR PUSH1 0xF8 SHL PUSH1 0xF8 SHR PUSH2 0x22DA SWAP2 SWAP1 PUSH2 0x4215 JUMP JUMPDEST PUSH2 0x22E4 SWAP2 SWAP1 PUSH2 0x4249 JUMP JUMPDEST PUSH1 0xFF AND DUP5 PUSH2 0x22F2 SWAP2 SWAP1 PUSH2 0x33E4 JUMP JUMPDEST SWAP4 POP DUP1 DUP1 PUSH1 0x1 ADD SWAP2 POP POP PUSH2 0x2291 JUMP JUMPDEST POP PUSH1 0xB DUP4 PUSH2 0x230F SWAP2 SWAP1 PUSH2 0x42B2 JUMP JUMPDEST SWAP1 POP PUSH1 0x2 DUP2 LT PUSH2 0x232B JUMPI DUP1 PUSH1 0xB PUSH2 0x2326 SWAP2 SWAP1 PUSH2 0x3E6F JUMP JUMPDEST PUSH2 0x232D JUMP JUMPDEST PUSH0 JUMPDEST SWAP1 POP DUP1 PUSH1 0x30 DUP6 PUSH1 0xA DUP2 MLOAD DUP2 LT PUSH2 0x2346 JUMPI PUSH2 0x2345 PUSH2 0x338A JUMP JUMPDEST JUMPDEST PUSH1 0x20 ADD ADD MLOAD PUSH1 0xF8 SHR PUSH1 0xF8 SHL PUSH1 0xF8 SHR PUSH2 0x235E SWAP2 SWAP1 PUSH2 0x4215 JUMP JUMPDEST PUSH1 0xFF AND EQ SWAP5 POP POP POP POP POP JUMPDEST SWAP2 SWAP1 POP JUMP JUMPDEST PUSH0 DUP2 MLOAD SUB PUSH2 0x23A8 JUMPI PUSH1 0x40 MLOAD PUSH32 0x22CE3EDD00000000000000000000000000000000000000000000000000000000 DUP2 MSTORE PUSH1 0x4 ADD PUSH1 0x40 MLOAD DUP1 SWAP2 SUB SWAP1 REVERT JUMPDEST DUP3 DUP5 PUSH0 ADD SWAP1 PUSH1 0x2 DUP2 GT ISZERO PUSH2 0x23BF JUMPI PUSH2 0x23BE PUSH2 0x3FC9 JUMP JUMPDEST JUMPDEST SWAP1 DUP2 PUSH1 0x2 DUP2 GT ISZERO PUSH2 0x23D3 JUMPI PUSH2 0x23D2 PUSH2 0x3FC9 JUMP JUMPDEST JUMPDEST DUP2 MSTORE POP POP DUP2 DUP5 PUSH1 0x40 ADD SWAP1 PUSH0 DUP2 GT ISZERO PUSH2 0x23EE JUMPI PUSH2 0x23ED PUSH2 0x3FC9 JUMP JUMPDEST JUMPDEST SWAP1 DUP2 PUSH0 DUP2 GT ISZERO PUSH2 0x2401 JUMPI PUSH2 0x2400 PUSH2 0x3FC9 JUMP JUMPDEST JUMPDEST DUP2 MSTORE POP POP DUP1 DUP5 PUSH1 0x60 ADD DUP2 SWAP1 MSTORE POP POP POP POP POP JUMP JUMPDEST PUSH2 0x241C PUSH2 0x2CB6 JUMP JUMPDEST PUSH2 0x2429 DUP2 PUSH0 ADD MLOAD DUP4 PUSH2 0x25F2 JUMP JUMPDEST POP PUSH0 DUP2 PUSH1 0x20 ADD DUP2 DUP2 MSTORE POP POP SWAP2 SWAP1 POP JUMP JUMPDEST PUSH2 0x2446 DUP3 PUSH1 0x3 DUP4 MLOAD PUSH2 0x2668 JUMP JUMPDEST PUSH2 0x245C DUP2 DUP4 PUSH0 ADD MLOAD PUSH2 0x2808 SWAP1 SWAP2 SWAP1 PUSH4 0xFFFFFFFF AND JUMP JUMPDEST POP POP POP JUMP JUMPDEST PUSH2 0x2482 PUSH1 0x2 PUSH1 0x5 PUSH1 0x6 PUSH1 0xFF AND SWAP1 SHL OR DUP4 PUSH0 ADD MLOAD PUSH2 0x2824 SWAP1 SWAP2 SWAP1 PUSH4 0xFFFFFFFF AND JUMP JUMPDEST POP PUSH2 0x24AC DUP3 DUP3 PUSH1 0x40 MLOAD PUSH1 0x20 ADD PUSH2 0x2498 SWAP2 SWAP1 PUSH2 0x42E2 JUMP JUMPDEST PUSH1 0x40 MLOAD PUSH1 0x20 DUP2 DUP4 SUB SUB DUP2 MSTORE SWAP1 PUSH1 0x40 MSTORE PUSH2 0x2500 JUMP JUMPDEST POP POP JUMP JUMPDEST PUSH2 0x24BB DUP2 PUSH1 0x4 PUSH2 0x288B JUMP JUMPDEST PUSH1 0x1 DUP2 PUSH1 0x20 ADD DUP2 DUP2 MLOAD PUSH2 0x24CE SWAP2 SWAP1 PUSH2 0x33E4 JUMP JUMPDEST SWAP2 POP DUP2 DUP2 MSTORE POP POP POP JUMP JUMPDEST PUSH2 0x24E3 DUP2 PUSH1 0x7 PUSH2 0x288B JUMP JUMPDEST PUSH1 0x1 DUP2 PUSH1 0x20 ADD DUP2 DUP2 MLOAD PUSH2 0x24F6 SWAP2 SWAP1 PUSH2 0x3E6F JUMP JUMPDEST SWAP2 POP DUP2 DUP2 MSTORE POP POP POP JUMP JUMPDEST PUSH2 0x250D DUP3 PUSH1 0x2 DUP4 MLOAD PUSH2 0x2668 JUMP JUMPDEST PUSH2 0x2523 DUP2 DUP4 PUSH0 ADD MLOAD PUSH2 0x2808 SWAP1 SWAP2 SWAP1 PUSH4 0xFFFFFFFF AND JUMP JUMPDEST POP POP POP JUMP JUMPDEST PUSH1 0x60 PUSH0 PUSH1 0x1 PUSH2 0x2536 DUP5 PUSH2 0x28B0 JUMP JUMPDEST ADD SWAP1 POP PUSH0 DUP2 PUSH8 0xFFFFFFFFFFFFFFFF DUP2 GT ISZERO PUSH2 0x2554 JUMPI PUSH2 0x2553 PUSH2 0x2D32 JUMP JUMPDEST JUMPDEST PUSH1 0x40 MLOAD SWAP1 DUP1 DUP3 MSTORE DUP1 PUSH1 0x1F ADD PUSH1 0x1F NOT AND PUSH1 0x20 ADD DUP3 ADD PUSH1 0x40 MSTORE DUP1 ISZERO PUSH2 0x2586 JUMPI DUP2 PUSH1 0x20 ADD PUSH1 0x1 DUP3 MUL DUP1 CALLDATASIZE DUP4 CALLDATACOPY DUP1 DUP3 ADD SWAP2 POP POP SWAP1 POP JUMPDEST POP SWAP1 POP PUSH0 DUP3 PUSH1 0x20 ADD DUP3 ADD SWAP1 POP JUMPDEST PUSH1 0x1 ISZERO PUSH2 0x25E7 JUMPI DUP1 DUP1 PUSH1 0x1 SWAP1 SUB SWAP2 POP POP PUSH32 0x3031323334353637383961626364656600000000000000000000000000000000 PUSH1 0xA DUP7 MOD BYTE DUP2 MSTORE8 PUSH1 0xA DUP6 DUP2 PUSH2 0x25DC JUMPI PUSH2 0x25DB PUSH2 0x4285 JUMP JUMPDEST JUMPDEST DIV SWAP5 POP PUSH0 DUP6 SUB PUSH2 0x2593 JUMPI JUMPDEST DUP2 SWAP4 POP POP POP POP SWAP2 SWAP1 POP JUMP JUMPDEST PUSH2 0x25FA PUSH2 0x2CD5 JUMP JUMPDEST PUSH0 PUSH1 0x20 DUP4 PUSH2 0x2608 SWAP2 SWAP1 PUSH2 0x42B2 JUMP JUMPDEST EQ PUSH2 0x2634 JUMPI PUSH1 0x20 DUP3 PUSH2 0x261A SWAP2 SWAP1 PUSH2 0x42B2 JUMP JUMPDEST PUSH1 0x20 PUSH2 0x2626 SWAP2 SWAP1 PUSH2 0x3E6F JUMP JUMPDEST DUP3 PUSH2 0x2631 SWAP2 SWAP1 PUSH2 0x33E4 JUMP JUMPDEST SWAP2 POP JUMPDEST DUP2 DUP4 PUSH1 0x20 ADD DUP2 DUP2 MSTORE POP POP PUSH1 0x40 MLOAD DUP1 DUP5 MSTORE PUSH0 DUP2 MSTORE DUP3 DUP2 ADD PUSH1 0x20 ADD DUP2 DUP2 LT ISZERO PUSH2 0x2659 JUMPI PUSH0 DUP1 REVERT JUMPDEST DUP1 PUSH1 0x40 MSTORE POP POP DUP3 SWAP1 POP SWAP3 SWAP2 POP POP JUMP JUMPDEST PUSH1 0x17 DUP2 PUSH8 0xFFFFFFFFFFFFFFFF AND GT PUSH2 0x26A2 JUMPI PUSH2 0x269C DUP2 PUSH1 0x5 DUP5 PUSH1 0xFF AND SWAP1 SHL PUSH1 0xFF AND OR DUP5 PUSH0 ADD MLOAD PUSH2 0x2824 SWAP1 SWAP2 SWAP1 PUSH4 0xFFFFFFFF AND JUMP JUMPDEST POP PUSH2 0x2803 JUMP JUMPDEST PUSH1 0xFF DUP2 PUSH8 0xFFFFFFFFFFFFFFFF AND GT PUSH2 0x26FE JUMPI PUSH2 0x26D4 PUSH1 0x18 PUSH1 0x5 DUP5 PUSH1 0xFF AND SWAP1 SHL OR DUP5 PUSH0 ADD MLOAD PUSH2 0x2824 SWAP1 SWAP2 SWAP1 PUSH4 0xFFFFFFFF AND JUMP JUMPDEST POP PUSH2 0x26F8 DUP2 PUSH8 0xFFFFFFFFFFFFFFFF AND PUSH1 0x1 DUP6 PUSH0 ADD MLOAD PUSH2 0x2A01 SWAP1 SWAP3 SWAP2 SWAP1 PUSH4 0xFFFFFFFF AND JUMP JUMPDEST POP PUSH2 0x2802 JUMP JUMPDEST PUSH2 0xFFFF DUP2 PUSH8 0xFFFFFFFFFFFFFFFF AND GT PUSH2 0x275B JUMPI PUSH2 0x2731 PUSH1 0x19 PUSH1 0x5 DUP5 PUSH1 0xFF AND SWAP1 SHL OR DUP5 PUSH0 ADD MLOAD PUSH2 0x2824 SWAP1 SWAP2 SWAP1 PUSH4 0xFFFFFFFF AND JUMP JUMPDEST POP PUSH2 0x2755 DUP2 PUSH8 0xFFFFFFFFFFFFFFFF AND PUSH1 0x2 DUP6 PUSH0 ADD MLOAD PUSH2 0x2A01 SWAP1 SWAP3 SWAP2 SWAP1 PUSH4 0xFFFFFFFF AND JUMP JUMPDEST POP PUSH2 0x2801 JUMP JUMPDEST PUSH4 0xFFFFFFFF DUP2 PUSH8 0xFFFFFFFFFFFFFFFF AND GT PUSH2 0x27BA JUMPI PUSH2 0x2790 PUSH1 0x1A PUSH1 0x5 DUP5 PUSH1 0xFF AND SWAP1 SHL OR DUP5 PUSH0 ADD MLOAD PUSH2 0x2824 SWAP1 SWAP2 SWAP1 PUSH4 0xFFFFFFFF AND JUMP JUMPDEST POP PUSH2 0x27B4 DUP2 PUSH8 0xFFFFFFFFFFFFFFFF AND PUSH1 0x4 DUP6 PUSH0 ADD MLOAD PUSH2 0x2A01 SWAP1 SWAP3 SWAP2 SWAP1 PUSH4 0xFFFFFFFF AND JUMP JUMPDEST POP PUSH2 0x2800 JUMP JUMPDEST PUSH2 0x27DA PUSH1 0x1B PUSH1 0x5 DUP5 PUSH1 0xFF AND SWAP1 SHL OR DUP5 PUSH0 ADD MLOAD PUSH2 0x2824 SWAP1 SWAP2 SWAP1 PUSH4 0xFFFFFFFF AND JUMP JUMPDEST POP PUSH2 0x27FE DUP2 PUSH8 0xFFFFFFFFFFFFFFFF AND PUSH1 0x8 DUP6 PUSH0 ADD MLOAD PUSH2 0x2A01 SWAP1 SWAP3 SWAP2 SWAP1 PUSH4 0xFFFFFFFF AND JUMP JUMPDEST POP JUMPDEST JUMPDEST JUMPDEST JUMPDEST POP POP POP JUMP JUMPDEST PUSH2 0x2810 PUSH2 0x2CD5 JUMP JUMPDEST PUSH2 0x281C DUP4 DUP4 DUP5 MLOAD PUSH2 0x2A8A JUMP JUMPDEST SWAP1 POP SWAP3 SWAP2 POP POP JUMP JUMPDEST PUSH2 0x282C PUSH2 0x2CD5 JUMP JUMPDEST PUSH0 DUP4 PUSH0 ADD MLOAD MLOAD SWAP1 POP PUSH0 PUSH1 0x1 DUP3 PUSH2 0x2842 SWAP2 SWAP1 PUSH2 0x33E4 JUMP JUMPDEST SWAP1 POP DUP5 PUSH1 0x20 ADD MLOAD DUP3 LT PUSH2 0x2866 JUMPI PUSH2 0x2865 DUP6 PUSH1 0x2 DUP4 PUSH2 0x2860 SWAP2 SWAP1 PUSH2 0x354E JUMP JUMPDEST PUSH2 0x2B67 JUMP JUMPDEST JUMPDEST DUP5 MLOAD PUSH1 0x20 DUP4 DUP3 ADD ADD DUP6 DUP2 MSTORE8 DUP2 MLOAD DUP4 GT ISZERO PUSH2 0x287E JUMPI DUP3 DUP3 MSTORE JUMPDEST POP POP DUP5 SWAP3 POP POP POP SWAP3 SWAP2 POP POP JUMP JUMPDEST PUSH2 0x28AB PUSH1 0x1F PUSH1 0x5 DUP4 PUSH1 0xFF AND SWAP1 SHL OR DUP4 PUSH0 ADD MLOAD PUSH2 0x2824 SWAP1 SWAP2 SWAP1 PUSH4 0xFFFFFFFF AND JUMP JUMPDEST POP POP POP JUMP JUMPDEST PUSH0 DUP1 PUSH0 SWAP1 POP PUSH27 0x184F03E93FF9F4DAA797ED6E38ED64BF6A1F010000000000000000 DUP4 LT PUSH2 0x290C JUMPI PUSH27 0x184F03E93FF9F4DAA797ED6E38ED64BF6A1F010000000000000000 DUP4 DUP2 PUSH2 0x2902 JUMPI PUSH2 0x2901 PUSH2 0x4285 JUMP JUMPDEST JUMPDEST DIV SWAP3 POP PUSH1 0x40 DUP2 ADD SWAP1 POP JUMPDEST PUSH14 0x4EE2D6D415B85ACEF8100000000 DUP4 LT PUSH2 0x2949 JUMPI PUSH14 0x4EE2D6D415B85ACEF8100000000 DUP4 DUP2 PUSH2 0x293F JUMPI PUSH2 0x293E PUSH2 0x4285 JUMP JUMPDEST JUMPDEST DIV SWAP3 POP PUSH1 0x20 DUP2 ADD SWAP1 POP JUMPDEST PUSH7 0x2386F26FC10000 DUP4 LT PUSH2 0x2978 JUMPI PUSH7 0x2386F26FC10000 DUP4 DUP2 PUSH2 0x296E JUMPI PUSH2 0x296D PUSH2 0x4285 JUMP JUMPDEST JUMPDEST DIV SWAP3 POP PUSH1 0x10 DUP2 ADD SWAP1 POP JUMPDEST PUSH4 0x5F5E100 DUP4 LT PUSH2 0x29A1 JUMPI PUSH4 0x5F5E100 DUP4 DUP2 PUSH2 0x2997 JUMPI PUSH2 0x2996 PUSH2 0x4285 JUMP JUMPDEST JUMPDEST DIV SWAP3 POP PUSH1 0x8 DUP2 ADD SWAP1 POP JUMPDEST PUSH2 0x2710 DUP4 LT PUSH2 0x29C6 JUMPI PUSH2 0x2710 DUP4 DUP2 PUSH2 0x29BC JUMPI PUSH2 0x29BB PUSH2 0x4285 JUMP JUMPDEST JUMPDEST DIV SWAP3 POP PUSH1 0x4 DUP2 ADD SWAP1 POP JUMPDEST PUSH1 0x64 DUP4 LT PUSH2 0x29E9 JUMPI PUSH1 0x64 DUP4 DUP2 PUSH2 0x29DF JUMPI PUSH2 0x29DE PUSH2 0x4285 JUMP JUMPDEST JUMPDEST DIV SWAP3 POP PUSH1 0x2 DUP2 ADD SWAP1 POP JUMPDEST PUSH1 0xA DUP4 LT PUSH2 0x29F8 JUMPI PUSH1 0x1 DUP2 ADD SWAP1 POP JUMPDEST DUP1 SWAP2 POP POP SWAP2 SWAP1 POP JUMP JUMPDEST PUSH2 0x2A09 PUSH2 0x2CD5 JUMP JUMPDEST PUSH0 DUP5 PUSH0 ADD MLOAD MLOAD SWAP1 POP PUSH0 DUP2 DUP5 PUSH2 0x2A1E SWAP2 SWAP1 PUSH2 0x33E4 JUMP JUMPDEST SWAP1 POP DUP6 PUSH1 0x20 ADD MLOAD DUP2 GT ISZERO PUSH2 0x2A43 JUMPI PUSH2 0x2A42 DUP7 PUSH1 0x2 DUP4 PUSH2 0x2A3D SWAP2 SWAP1 PUSH2 0x354E JUMP JUMPDEST PUSH2 0x2B67 JUMP JUMPDEST JUMPDEST PUSH0 PUSH1 0x1 DUP6 PUSH2 0x100 PUSH2 0x2A54 SWAP2 SWAP1 PUSH2 0x442A JUMP JUMPDEST PUSH2 0x2A5E SWAP2 SWAP1 PUSH2 0x3E6F JUMP JUMPDEST SWAP1 POP DUP7 MLOAD DUP3 DUP2 ADD DUP8 DUP4 NOT DUP3 MLOAD AND OR DUP2 MSTORE DUP2 MLOAD DUP5 GT ISZERO PUSH2 0x2A7B JUMPI DUP4 DUP3 MSTORE JUMPDEST POP POP DUP7 SWAP4 POP POP POP POP SWAP4 SWAP3 POP POP POP JUMP JUMPDEST PUSH2 0x2A92 PUSH2 0x2CD5 JUMP JUMPDEST DUP3 MLOAD DUP3 GT ISZERO PUSH2 0x2A9F JUMPI PUSH0 DUP1 REVERT JUMPDEST PUSH0 DUP5 PUSH0 ADD MLOAD MLOAD SWAP1 POP PUSH0 DUP4 DUP3 PUSH2 0x2AB4 SWAP2 SWAP1 PUSH2 0x33E4 JUMP JUMPDEST SWAP1 POP DUP6 PUSH1 0x20 ADD MLOAD DUP2 GT ISZERO PUSH2 0x2AD9 JUMPI PUSH2 0x2AD8 DUP7 PUSH1 0x2 DUP4 PUSH2 0x2AD3 SWAP2 SWAP1 PUSH2 0x354E JUMP JUMPDEST PUSH2 0x2B67 JUMP JUMPDEST JUMPDEST PUSH0 DUP1 DUP8 MLOAD DUP1 MLOAD DUP6 PUSH1 0x20 DUP4 ADD ADD SWAP4 POP DUP1 DUP6 GT ISZERO PUSH2 0x2AF3 JUMPI DUP5 DUP3 MSTORE JUMPDEST PUSH1 0x20 DUP10 ADD SWAP3 POP POP POP JUMPDEST PUSH1 0x20 DUP7 LT PUSH2 0x2B3A JUMPI DUP1 MLOAD DUP3 MSTORE PUSH1 0x20 DUP3 PUSH2 0x2B15 SWAP2 SWAP1 PUSH2 0x33E4 JUMP JUMPDEST SWAP2 POP PUSH1 0x20 DUP2 PUSH2 0x2B24 SWAP2 SWAP1 PUSH2 0x33E4 JUMP JUMPDEST SWAP1 POP PUSH1 0x20 DUP7 PUSH2 0x2B33 SWAP2 SWAP1 PUSH2 0x3E6F JUMP JUMPDEST SWAP6 POP PUSH2 0x2AFC JUMP JUMPDEST PUSH0 PUSH1 0x1 DUP8 PUSH1 0x20 SUB PUSH2 0x100 EXP SUB SWAP1 POP DUP1 NOT DUP3 MLOAD AND DUP2 DUP5 MLOAD AND DUP2 DUP2 OR DUP6 MSTORE POP POP POP DUP8 SWAP5 POP POP POP POP POP SWAP4 SWAP3 POP POP POP JUMP JUMPDEST PUSH0 DUP3 PUSH0 ADD MLOAD SWAP1 POP PUSH2 0x2B78 DUP4 DUP4 PUSH2 0x25F2 JUMP JUMPDEST POP PUSH2 0x2B83 DUP4 DUP3 PUSH2 0x2808 JUMP JUMPDEST POP POP POP POP JUMP JUMPDEST PUSH1 0x40 MLOAD DUP1 PUSH1 0xE0 ADD PUSH1 0x40 MSTORE DUP1 PUSH0 PUSH1 0x2 DUP2 GT ISZERO PUSH2 0x2BA7 JUMPI PUSH2 0x2BA6 PUSH2 0x3FC9 JUMP JUMPDEST JUMPDEST DUP2 MSTORE PUSH1 0x20 ADD PUSH0 PUSH1 0x2 DUP2 GT ISZERO PUSH2 0x2BBF JUMPI PUSH2 0x2BBE PUSH2 0x3FC9 JUMP JUMPDEST JUMPDEST DUP2 MSTORE PUSH1 0x20 ADD PUSH0 DUP1 DUP2 GT ISZERO PUSH2 0x2BD6 JUMPI PUSH2 0x2BD5 PUSH2 0x3FC9 JUMP JUMPDEST JUMPDEST DUP2 MSTORE PUSH1 0x20 ADD PUSH1 0x60 DUP2 MSTORE PUSH1 0x20 ADD PUSH1 0x60 DUP2 MSTORE PUSH1 0x20 ADD PUSH1 0x60 DUP2 MSTORE PUSH1 0x20 ADD PUSH1 0x60 DUP2 MSTORE POP SWAP1 JUMP JUMPDEST PUSH1 0x40 MLOAD DUP1 PUSH2 0x160 ADD PUSH1 0x40 MSTORE DUP1 PUSH1 0x60 DUP2 MSTORE PUSH1 0x20 ADD PUSH1 0x60 DUP2 MSTORE PUSH1 0x20 ADD PUSH0 PUSH20 0xFFFFFFFFFFFFFFFFFFFFFFFFFFFFFFFFFFFFFFFF AND DUP2 MSTORE PUSH1 0x20 ADD PUSH0 PUSH20 0xFFFFFFFFFFFFFFFFFFFFFFFFFFFFFFFFFFFFFFFF AND DUP2 MSTORE PUSH1 0x20 ADD PUSH1 0x60 DUP2 MSTORE PUSH1 0x20 ADD PUSH1 0x60 DUP2 MSTORE PUSH1 0x20 ADD PUSH0 DUP2 MSTORE PUSH1 0x20 ADD PUSH0 DUP2 MSTORE PUSH1 0x20 ADD PUSH0 DUP2 MSTORE PUSH1 0x20 ADD PUSH0 DUP2 MSTORE PUSH1 0x20 ADD PUSH0 ISZERO ISZERO DUP2 MSTORE POP SWAP1 JUMP JUMPDEST POP DUP1 SLOAD PUSH2 0x2C85 SWAP1 PUSH2 0x373B JUMP JUMPDEST PUSH0 DUP3 SSTORE DUP1 PUSH1 0x1F LT PUSH2 0x2C96 JUMPI POP PUSH2 0x2CB3 JUMP JUMPDEST PUSH1 0x1F ADD PUSH1 0x20 SWAP1 DIV SWAP1 PUSH0 MSTORE PUSH1 0x20 PUSH0 KECCAK256 SWAP1 DUP2 ADD SWAP1 PUSH2 0x2CB2 SWAP2 SWAP1 PUSH2 0x2CEE JUMP JUMPDEST JUMPDEST POP JUMP JUMPDEST PUSH1 0x40 MLOAD DUP1 PUSH1 0x40 ADD PUSH1 0x40 MSTORE DUP1 PUSH2 0x2CC9 PUSH2 0x2CD5 JUMP JUMPDEST DUP2 MSTORE PUSH1 0x20 ADD PUSH0 DUP2 MSTORE POP SWAP1 JUMP JUMPDEST PUSH1 0x40 MLOAD DUP1 PUSH1 0x40 ADD PUSH1 0x40 MSTORE DUP1 PUSH1 0x60 DUP2 MSTORE PUSH1 0x20 ADD PUSH0 DUP2 MSTORE POP SWAP1 JUMP JUMPDEST JUMPDEST DUP1 DUP3 GT ISZERO PUSH2 0x2D05 JUMPI PUSH0 DUP2 PUSH0 SWAP1 SSTORE POP PUSH1 0x1 ADD PUSH2 0x2CEF JUMP JUMPDEST POP SWAP1 JUMP JUMPDEST PUSH0 PUSH1 0x40 MLOAD SWAP1 POP SWAP1 JUMP JUMPDEST PUSH0 DUP1 REVERT JUMPDEST PUSH0 DUP1 REVERT JUMPDEST PUSH0 DUP1 REVERT JUMPDEST PUSH0 DUP1 REVERT JUMPDEST PUSH0 PUSH1 0x1F NOT PUSH1 0x1F DUP4 ADD AND SWAP1 POP SWAP2 SWAP1 POP JUMP JUMPDEST PUSH32 0x4E487B7100000000000000000000000000000000000000000000000000000000 PUSH0 MSTORE PUSH1 0x41 PUSH1 0x4 MSTORE PUSH1 0x24 PUSH0 REVERT JUMPDEST PUSH2 0x2D68 DUP3 PUSH2 0x2D22 JUMP JUMPDEST DUP2 ADD DUP2 DUP2 LT PUSH8 0xFFFFFFFFFFFFFFFF DUP3 GT OR ISZERO PUSH2 0x2D87 JUMPI PUSH2 0x2D86 PUSH2 0x2D32 JUMP JUMPDEST JUMPDEST DUP1 PUSH1 0x40 MSTORE POP POP POP JUMP JUMPDEST PUSH0 PUSH2 0x2D99 PUSH2 0x2D09 JUMP JUMPDEST SWAP1 POP PUSH2 0x2DA5 DUP3 DUP3 PUSH2 0x2D5F JUMP JUMPDEST SWAP2 SWAP1 POP JUMP JUMPDEST PUSH0 PUSH8 0xFFFFFFFFFFFFFFFF DUP3 GT ISZERO PUSH2 0x2DC4 JUMPI PUSH2 0x2DC3 PUSH2 0x2D32 JUMP JUMPDEST JUMPDEST PUSH2 0x2DCD DUP3 PUSH2 0x2D22 JUMP JUMPDEST SWAP1 POP PUSH1 0x20 DUP2 ADD SWAP1 POP SWAP2 SWAP1 POP JUMP JUMPDEST DUP3 DUP2 DUP4 CALLDATACOPY PUSH0 DUP4 DUP4 ADD MSTORE POP POP POP JUMP JUMPDEST PUSH0 PUSH2 0x2DFA PUSH2 0x2DF5 DUP5 PUSH2 0x2DAA JUMP JUMPDEST PUSH2 0x2D90 JUMP JUMPDEST SWAP1 POP DUP3 DUP2 MSTORE PUSH1 0x20 DUP2 ADD DUP5 DUP5 DUP5 ADD GT ISZERO PUSH2 0x2E16 JUMPI PUSH2 0x2E15 PUSH2 0x2D1E JUMP JUMPDEST JUMPDEST PUSH2 0x2E21 DUP5 DUP3 DUP6 PUSH2 0x2DDA JUMP JUMPDEST POP SWAP4 SWAP3 POP POP POP JUMP JUMPDEST PUSH0 DUP3 PUSH1 0x1F DUP4 ADD SLT PUSH2 0x2E3D JUMPI PUSH2 0x2E3C PUSH2 0x2D1A JUMP JUMPDEST JUMPDEST DUP2 CALLDATALOAD PUSH2 0x2E4D DUP5 DUP3 PUSH1 0x20 DUP7 ADD PUSH2 0x2DE8 JUMP JUMPDEST SWAP2 POP POP SWAP3 SWAP2 POP POP JUMP JUMPDEST PUSH0 DUP1 PUSH1 0x40 DUP4 DUP6 SUB SLT ISZERO PUSH2 0x2E6C JUMPI PUSH2 0x2E6B PUSH2 0x2D12 JUMP JUMPDEST JUMPDEST PUSH0 DUP4 ADD CALLDATALOAD PUSH8 0xFFFFFFFFFFFFFFFF DUP2 GT ISZERO PUSH2 0x2E89 JUMPI PUSH2 0x2E88 PUSH2 0x2D16 JUMP JUMPDEST JUMPDEST PUSH2 0x2E95 DUP6 DUP3 DUP7 ADD PUSH2 0x2E29 JUMP JUMPDEST SWAP3 POP POP PUSH1 0x20 DUP4 ADD CALLDATALOAD PUSH8 0xFFFFFFFFFFFFFFFF DUP2 GT ISZERO PUSH2 0x2EB6 JUMPI PUSH2 0x2EB5 PUSH2 0x2D16 JUMP JUMPDEST JUMPDEST PUSH2 0x2EC2 DUP6 DUP3 DUP7 ADD PUSH2 0x2E29 JUMP JUMPDEST SWAP2 POP POP SWAP3 POP SWAP3 SWAP1 POP JUMP JUMPDEST PUSH0 DUP2 SWAP1 POP SWAP2 SWAP1 POP JUMP JUMPDEST PUSH2 0x2EDE DUP2 PUSH2 0x2ECC JUMP JUMPDEST DUP2 EQ PUSH2 0x2EE8 JUMPI PUSH0 DUP1 REVERT JUMPDEST POP JUMP JUMPDEST PUSH0 DUP2 CALLDATALOAD SWAP1 POP PUSH2 0x2EF9 DUP2 PUSH2 0x2ED5 JUMP JUMPDEST SWAP3 SWAP2 POP POP JUMP JUMPDEST PUSH0 PUSH8 0xFFFFFFFFFFFFFFFF DUP3 GT ISZERO PUSH2 0x2F19 JUMPI PUSH2 0x2F18 PUSH2 0x2D32 JUMP JUMPDEST JUMPDEST PUSH2 0x2F22 DUP3 PUSH2 0x2D22 JUMP JUMPDEST SWAP1 POP PUSH1 0x20 DUP2 ADD SWAP1 POP SWAP2 SWAP1 POP JUMP JUMPDEST PUSH0 PUSH2 0x2F41 PUSH2 0x2F3C DUP5 PUSH2 0x2EFF JUMP JUMPDEST PUSH2 0x2D90 JUMP JUMPDEST SWAP1 POP DUP3 DUP2 MSTORE PUSH1 0x20 DUP2 ADD DUP5 DUP5 DUP5 ADD GT ISZERO PUSH2 0x2F5D JUMPI PUSH2 0x2F5C PUSH2 0x2D1E JUMP JUMPDEST JUMPDEST PUSH2 0x2F68 DUP5 DUP3 DUP6 PUSH2 0x2DDA JUMP JUMPDEST POP SWAP4 SWAP3 POP POP POP JUMP JUMPDEST PUSH0 DUP3 PUSH1 0x1F DUP4 ADD SLT PUSH2 0x2F84 JUMPI PUSH2 0x2F83 PUSH2 0x2D1A JUMP JUMPDEST JUMPDEST DUP2 CALLDATALOAD PUSH2 0x2F94 DUP5 DUP3 PUSH1 0x20 DUP7 ADD PUSH2 0x2F2F JUMP JUMPDEST SWAP2 POP POP SWAP3 SWAP2 POP POP JUMP JUMPDEST PUSH0 DUP1 PUSH0 PUSH1 0x60 DUP5 DUP7 SUB SLT ISZERO PUSH2 0x2FB4 JUMPI PUSH2 0x2FB3 PUSH2 0x2D12 JUMP JUMPDEST JUMPDEST PUSH0 PUSH2 0x2FC1 DUP7 DUP3 DUP8 ADD PUSH2 0x2EEB JUMP JUMPDEST SWAP4 POP POP PUSH1 0x20 DUP5 ADD CALLDATALOAD PUSH8 0xFFFFFFFFFFFFFFFF DUP2 GT ISZERO PUSH2 0x2FE2 JUMPI PUSH2 0x2FE1 PUSH2 0x2D16 JUMP JUMPDEST JUMPDEST PUSH2 0x2FEE DUP7 DUP3 DUP8 ADD PUSH2 0x2F70 JUMP JUMPDEST SWAP3 POP POP PUSH1 0x40 DUP5 ADD CALLDATALOAD PUSH8 0xFFFFFFFFFFFFFFFF DUP2 GT ISZERO PUSH2 0x300F JUMPI PUSH2 0x300E PUSH2 0x2D16 JUMP JUMPDEST JUMPDEST PUSH2 0x301B DUP7 DUP3 DUP8 ADD PUSH2 0x2F70 JUMP JUMPDEST SWAP2 POP POP SWAP3 POP SWAP3 POP SWAP3 JUMP JUMPDEST PUSH0 DUP2 SWAP1 POP SWAP2 SWAP1 POP JUMP JUMPDEST PUSH2 0x3037 DUP2 PUSH2 0x3025 JUMP JUMPDEST DUP2 EQ PUSH2 0x3041 JUMPI PUSH0 DUP1 REVERT JUMPDEST POP JUMP JUMPDEST PUSH0 DUP2 CALLDATALOAD SWAP1 POP PUSH2 0x3052 DUP2 PUSH2 0x302E JUMP JUMPDEST SWAP3 SWAP2 POP POP JUMP JUMPDEST PUSH0 DUP1 PUSH0 DUP1 PUSH0 DUP1 PUSH1 0xC0 DUP8 DUP10 SUB SLT ISZERO PUSH2 0x3072 JUMPI PUSH2 0x3071 PUSH2 0x2D12 JUMP JUMPDEST JUMPDEST PUSH0 DUP8 ADD CALLDATALOAD PUSH8 0xFFFFFFFFFFFFFFFF DUP2 GT ISZERO PUSH2 0x308F JUMPI PUSH2 0x308E PUSH2 0x2D16 JUMP JUMPDEST JUMPDEST PUSH2 0x309B DUP10 DUP3 DUP11 ADD PUSH2 0x2E29 JUMP JUMPDEST SWAP7 POP POP PUSH1 0x20 DUP8 ADD CALLDATALOAD PUSH8 0xFFFFFFFFFFFFFFFF DUP2 GT ISZERO PUSH2 0x30BC JUMPI PUSH2 0x30BB PUSH2 0x2D16 JUMP JUMPDEST JUMPDEST PUSH2 0x30C8 DUP10 DUP3 DUP11 ADD PUSH2 0x2E29 JUMP JUMPDEST SWAP6 POP POP PUSH1 0x40 DUP8 ADD CALLDATALOAD PUSH8 0xFFFFFFFFFFFFFFFF DUP2 GT ISZERO PUSH2 0x30E9 JUMPI PUSH2 0x30E8 PUSH2 0x2D16 JUMP JUMPDEST JUMPDEST PUSH2 0x30F5 DUP10 DUP3 DUP11 ADD PUSH2 0x2E29 JUMP JUMPDEST SWAP5 POP POP PUSH1 0x60 DUP8 ADD CALLDATALOAD PUSH8 0xFFFFFFFFFFFFFFFF DUP2 GT ISZERO PUSH2 0x3116 JUMPI PUSH2 0x3115 PUSH2 0x2D16 JUMP JUMPDEST JUMPDEST PUSH2 0x3122 DUP10 DUP3 DUP11 ADD PUSH2 0x2E29 JUMP JUMPDEST SWAP4 POP POP PUSH1 0x80 PUSH2 0x3133 DUP10 DUP3 DUP11 ADD PUSH2 0x3044 JUMP JUMPDEST SWAP3 POP POP PUSH1 0xA0 PUSH2 0x3144 DUP10 DUP3 DUP11 ADD PUSH2 0x3044 JUMP JUMPDEST SWAP2 POP POP SWAP3 SWAP6 POP SWAP3 SWAP6 POP SWAP3 SWAP6 JUMP JUMPDEST PUSH0 PUSH20 0xFFFFFFFFFFFFFFFFFFFFFFFFFFFFFFFFFFFFFFFF DUP3 AND SWAP1 POP SWAP2 SWAP1 POP JUMP JUMPDEST PUSH0 PUSH2 0x317A DUP3 PUSH2 0x3151 JUMP JUMPDEST SWAP1 POP SWAP2 SWAP1 POP JUMP JUMPDEST PUSH2 0x318A DUP2 PUSH2 0x3170 JUMP JUMPDEST DUP3 MSTORE POP POP JUMP JUMPDEST PUSH0 PUSH1 0x20 DUP3 ADD SWAP1 POP PUSH2 0x31A3 PUSH0 DUP4 ADD DUP5 PUSH2 0x3181 JUMP JUMPDEST SWAP3 SWAP2 POP POP JUMP JUMPDEST PUSH2 0x31B2 DUP2 PUSH2 0x3170 JUMP JUMPDEST DUP2 EQ PUSH2 0x31BC JUMPI PUSH0 DUP1 REVERT JUMPDEST POP JUMP JUMPDEST PUSH0 DUP2 CALLDATALOAD SWAP1 POP PUSH2 0x31CD DUP2 PUSH2 0x31A9 JUMP JUMPDEST SWAP3 SWAP2 POP POP JUMP JUMPDEST PUSH0 DUP1 PUSH1 0x40 DUP4 DUP6 SUB SLT ISZERO PUSH2 0x31E9 JUMPI PUSH2 0x31E8 PUSH2 0x2D12 JUMP JUMPDEST JUMPDEST PUSH0 PUSH2 0x31F6 DUP6 DUP3 DUP7 ADD PUSH2 0x31BF JUMP JUMPDEST SWAP3 POP POP PUSH1 0x20 PUSH2 0x3207 DUP6 DUP3 DUP7 ADD PUSH2 0x3044 JUMP JUMPDEST SWAP2 POP POP SWAP3 POP SWAP3 SWAP1 POP JUMP JUMPDEST PUSH0 PUSH1 0x20 DUP3 DUP5 SUB SLT ISZERO PUSH2 0x3226 JUMPI PUSH2 0x3225 PUSH2 0x2D12 JUMP JUMPDEST JUMPDEST PUSH0 PUSH2 0x3233 DUP5 DUP3 DUP6 ADD PUSH2 0x3044 JUMP JUMPDEST SWAP2 POP POP SWAP3 SWAP2 POP POP JUMP JUMPDEST PUSH0 DUP2 MLOAD SWAP1 POP SWAP2 SWAP1 POP JUMP JUMPDEST PUSH0 DUP3 DUP3 MSTORE PUSH1 0x20 DUP3 ADD SWAP1 POP SWAP3 SWAP2 POP POP JUMP JUMPDEST DUP3 DUP2 DUP4 MCOPY PUSH0 DUP4 DUP4 ADD MSTORE POP POP POP JUMP JUMPDEST PUSH0 PUSH2 0x326E DUP3 PUSH2 0x323C JUMP JUMPDEST PUSH2 0x3278 DUP2 DUP6 PUSH2 0x3246 JUMP JUMPDEST SWAP4 POP PUSH2 0x3288 DUP2 DUP6 PUSH1 0x20 DUP7 ADD PUSH2 0x3256 JUMP JUMPDEST PUSH2 0x3291 DUP2 PUSH2 0x2D22 JUMP JUMPDEST DUP5 ADD SWAP2 POP POP SWAP3 SWAP2 POP POP JUMP JUMPDEST PUSH2 0x32A5 DUP2 PUSH2 0x3025 JUMP JUMPDEST DUP3 MSTORE POP POP JUMP JUMPDEST PUSH0 DUP2 ISZERO ISZERO SWAP1 POP SWAP2 SWAP1 POP JUMP JUMPDEST PUSH2 0x32BF DUP2 PUSH2 0x32AB JUMP JUMPDEST DUP3 MSTORE POP POP JUMP JUMPDEST PUSH0 PUSH2 0x160 DUP3 ADD SWAP1 POP DUP2 DUP2 SUB PUSH0 DUP4 ADD MSTORE PUSH2 0x32DE DUP2 DUP15 PUSH2 0x3264 JUMP JUMPDEST SWAP1 POP DUP2 DUP2 SUB PUSH1 0x20 DUP4 ADD MSTORE PUSH2 0x32F2 DUP2 DUP14 PUSH2 0x3264 JUMP JUMPDEST SWAP1 POP PUSH2 0x3301 PUSH1 0x40 DUP4 ADD DUP13 PUSH2 0x3181 JUMP JUMPDEST PUSH2 0x330E PUSH1 0x60 DUP4 ADD DUP12 PUSH2 0x3181 JUMP JUMPDEST DUP2 DUP2 SUB PUSH1 0x80 DUP4 ADD MSTORE PUSH2 0x3320 DUP2 DUP11 PUSH2 0x3264 JUMP JUMPDEST SWAP1 POP DUP2 DUP2 SUB PUSH1 0xA0 DUP4 ADD MSTORE PUSH2 0x3334 DUP2 DUP10 PUSH2 0x3264 JUMP JUMPDEST SWAP1 POP PUSH2 0x3343 PUSH1 0xC0 DUP4 ADD DUP9 PUSH2 0x329C JUMP JUMPDEST PUSH2 0x3350 PUSH1 0xE0 DUP4 ADD DUP8 PUSH2 0x329C JUMP JUMPDEST PUSH2 0x335E PUSH2 0x100 DUP4 ADD DUP7 PUSH2 0x329C JUMP JUMPDEST PUSH2 0x336C PUSH2 0x120 DUP4 ADD DUP6 PUSH2 0x329C JUMP JUMPDEST PUSH2 0x337A PUSH2 0x140 DUP4 ADD DUP5 PUSH2 0x32B6 JUMP JUMPDEST SWAP13 SWAP12 POP POP POP POP POP POP POP POP POP POP POP POP JUMP JUMPDEST PUSH32 0x4E487B7100000000000000000000000000000000000000000000000000000000 PUSH0 MSTORE PUSH1 0x32 PUSH1 0x4 MSTORE PUSH1 0x24 PUSH0 REVERT JUMPDEST PUSH32 0x4E487B7100000000000000000000000000000000000000000000000000000000 PUSH0 MSTORE PUSH1 0x11 PUSH1 0x4 MSTORE PUSH1 0x24 PUSH0 REVERT JUMPDEST PUSH0 PUSH2 0x33EE DUP3 PUSH2 0x3025 JUMP JUMPDEST SWAP2 POP PUSH2 0x33F9 DUP4 PUSH2 0x3025 JUMP JUMPDEST SWAP3 POP DUP3 DUP3 ADD SWAP1 POP DUP1 DUP3 GT ISZERO PUSH2 0x3411 JUMPI PUSH2 0x3410 PUSH2 0x33B7 JUMP JUMPDEST JUMPDEST SWAP3 SWAP2 POP POP JUMP JUMPDEST PUSH0 DUP2 SWAP1 POP SWAP3 SWAP2 POP POP JUMP JUMPDEST POP JUMP JUMPDEST PUSH0 PUSH2 0x342F PUSH0 DUP4 PUSH2 0x3417 JUMP JUMPDEST SWAP2 POP PUSH2 0x343A DUP3 PUSH2 0x3421 JUMP JUMPDEST PUSH0 DUP3 ADD SWAP1 POP SWAP2 SWAP1 POP JUMP JUMPDEST PUSH0 PUSH2 0x344E DUP3 PUSH2 0x3424 JUMP JUMPDEST SWAP2 POP DUP2 SWAP1 POP SWAP2 SWAP1 POP JUMP JUMPDEST PUSH32 0x4661696C656420746F2073656E64204574686572000000000000000000000000 PUSH0 DUP3 ADD MSTORE POP JUMP JUMPDEST PUSH0 PUSH2 0x348C PUSH1 0x14 DUP4 PUSH2 0x3246 JUMP JUMPDEST SWAP2 POP PUSH2 0x3497 DUP3 PUSH2 0x3458 JUMP JUMPDEST PUSH1 0x20 DUP3 ADD SWAP1 POP SWAP2 SWAP1 POP JUMP JUMPDEST PUSH0 PUSH1 0x20 DUP3 ADD SWAP1 POP DUP2 DUP2 SUB PUSH0 DUP4 ADD MSTORE PUSH2 0x34B9 DUP2 PUSH2 0x3480 JUMP JUMPDEST SWAP1 POP SWAP2 SWAP1 POP JUMP JUMPDEST PUSH32 0x436F6D707261646F72206E616F207061676F752061732061727261732C207661 PUSH0 DUP3 ADD MSTORE PUSH32 0x6C6F72207265656D626F6C7361646F20616F2076656E6465646F720000000000 PUSH1 0x20 DUP3 ADD MSTORE POP JUMP JUMPDEST PUSH0 PUSH2 0x351A PUSH1 0x3B DUP4 PUSH2 0x3246 JUMP JUMPDEST SWAP2 POP PUSH2 0x3525 DUP3 PUSH2 0x34C0 JUMP JUMPDEST PUSH1 0x40 DUP3 ADD SWAP1 POP SWAP2 SWAP1 POP JUMP JUMPDEST PUSH0 PUSH1 0x20 DUP3 ADD SWAP1 POP DUP2 DUP2 SUB PUSH0 DUP4 ADD MSTORE PUSH2 0x3547 DUP2 PUSH2 0x350E JUMP JUMPDEST SWAP1 POP SWAP2 SWAP1 POP JUMP JUMPDEST PUSH0 PUSH2 0x3558 DUP3 PUSH2 0x3025 JUMP JUMPDEST SWAP2 POP PUSH2 0x3563 DUP4 PUSH2 0x3025 JUMP JUMPDEST SWAP3 POP DUP3 DUP3 MUL PUSH2 0x3571 DUP2 PUSH2 0x3025 JUMP JUMPDEST SWAP2 POP DUP3 DUP3 DIV DUP5 EQ DUP4 ISZERO OR PUSH2 0x3588 JUMPI PUSH2 0x3587 PUSH2 0x33B7 JUMP JUMPDEST JUMPDEST POP SWAP3 SWAP2 POP POP JUMP JUMPDEST PUSH32 0x436F6D707261646F72206E616F207061676F752076616C6F7220646F20636172 PUSH0 DUP3 ADD MSTORE PUSH32 0x726F2C20617272617320656E76696164617320616F2076656E6465646F720000 PUSH1 0x20 DUP3 ADD MSTORE POP JUMP JUMPDEST PUSH0 PUSH2 0x35E9 PUSH1 0x3E DUP4 PUSH2 0x3246 JUMP JUMPDEST SWAP2 POP PUSH2 0x35F4 DUP3 PUSH2 0x358F JUMP JUMPDEST PUSH1 0x40 DUP3 ADD SWAP1 POP SWAP2 SWAP1 POP JUMP JUMPDEST PUSH0 PUSH1 0x20 DUP3 ADD SWAP1 POP DUP2 DUP2 SUB PUSH0 DUP4 ADD MSTORE PUSH2 0x3616 DUP2 PUSH2 0x35DD JUMP JUMPDEST SWAP1 POP SWAP2 SWAP1 POP JUMP JUMPDEST PUSH0 DUP2 SWAP1 POP SWAP3 SWAP2 POP POP JUMP JUMPDEST PUSH0 PUSH2 0x3631 DUP3 PUSH2 0x323C JUMP JUMPDEST PUSH2 0x363B DUP2 DUP6 PUSH2 0x361D JUMP JUMPDEST SWAP4 POP PUSH2 0x364B DUP2 DUP6 PUSH1 0x20 DUP7 ADD PUSH2 0x3256 JUMP JUMPDEST DUP1 DUP5 ADD SWAP2 POP POP SWAP3 SWAP2 POP POP JUMP JUMPDEST PUSH32 0x75726C3A206068747470733A2F2F6170692E7269636172646F6775696D617261 PUSH0 DUP3 ADD MSTORE PUSH32 0x65732E6465762F76312F76656963756C6F732F70726F70726965746172696F2F PUSH1 0x20 DUP3 ADD MSTORE PUSH32 0x6370662F00000000000000000000000000000000000000000000000000000000 PUSH1 0x40 DUP3 ADD MSTORE POP JUMP JUMPDEST PUSH0 PUSH2 0x36D7 PUSH1 0x44 DUP4 PUSH2 0x361D JUMP JUMPDEST SWAP2 POP PUSH2 0x36E2 DUP3 PUSH2 0x3657 JUMP JUMPDEST PUSH1 0x44 DUP3 ADD SWAP1 POP SWAP2 SWAP1 POP JUMP JUMPDEST PUSH0 PUSH2 0x36F8 DUP3 DUP5 PUSH2 0x3627 JUMP JUMPDEST SWAP2 POP PUSH2 0x3703 DUP3 PUSH2 0x36CB JUMP JUMPDEST SWAP2 POP DUP2 SWAP1 POP SWAP3 SWAP2 POP POP JUMP JUMPDEST PUSH32 0x4E487B7100000000000000000000000000000000000000000000000000000000 PUSH0 MSTORE PUSH1 0x22 PUSH1 0x4 MSTORE PUSH1 0x24 PUSH0 REVERT JUMPDEST PUSH0 PUSH1 0x2 DUP3 DIV SWAP1 POP PUSH1 0x1 DUP3 AND DUP1 PUSH2 0x3752 JUMPI PUSH1 0x7F DUP3 AND SWAP2 POP JUMPDEST PUSH1 0x20 DUP3 LT DUP2 SUB PUSH2 0x3765 JUMPI PUSH2 0x3764 PUSH2 0x370E JUMP JUMPDEST JUMPDEST POP SWAP2 SWAP1 POP JUMP JUMPDEST PUSH0 DUP2 SWAP1 POP DUP2 PUSH0 MSTORE PUSH1 0x20 PUSH0 KECCAK256 SWAP1 POP SWAP2 SWAP1 POP JUMP JUMPDEST PUSH0 DUP2 SLOAD PUSH2 0x3789 DUP2 PUSH2 0x373B JUMP JUMPDEST PUSH2 0x3793 DUP2 DUP7 PUSH2 0x361D JUMP JUMPDEST SWAP5 POP PUSH1 0x1 DUP3 AND PUSH0 DUP2 EQ PUSH2 0x37AD JUMPI PUSH1 0x1 DUP2 EQ PUSH2 0x37C2 JUMPI PUSH2 0x37F4 JUMP JUMPDEST PUSH1 0xFF NOT DUP4 AND DUP7 MSTORE DUP2 ISZERO ISZERO DUP3 MUL DUP7 ADD SWAP4 POP PUSH2 0x37F4 JUMP JUMPDEST PUSH2 0x37CB DUP6 PUSH2 0x376B JUMP JUMPDEST PUSH0 JUMPDEST DUP4 DUP2 LT ISZERO PUSH2 0x37EC JUMPI DUP2 SLOAD DUP2 DUP10 ADD MSTORE PUSH1 0x1 DUP3 ADD SWAP2 POP PUSH1 0x20 DUP2 ADD SWAP1 POP PUSH2 0x37CD JUMP JUMPDEST DUP4 DUP9 ADD SWAP6 POP POP POP JUMPDEST POP POP POP SWAP3 SWAP2 POP POP JUMP JUMPDEST PUSH0 PUSH2 0x3808 DUP3 DUP6 PUSH2 0x3627 JUMP JUMPDEST SWAP2 POP PUSH2 0x3814 DUP3 DUP5 PUSH2 0x377D JUMP JUMPDEST SWAP2 POP DUP2 SWAP1 POP SWAP4 SWAP3 POP POP POP JUMP JUMPDEST PUSH32 0x2F706C6163612F00000000000000000000000000000000000000000000000000 DUP2 MSTORE POP JUMP JUMPDEST PUSH0 PUSH2 0x3851 DUP3 DUP5 PUSH2 0x3627 JUMP JUMPDEST SWAP2 POP PUSH2 0x385C DUP3 PUSH2 0x3820 JUMP JUMPDEST PUSH1 0x7 DUP3 ADD SWAP2 POP DUP2 SWAP1 POP SWAP3 SWAP2 POP POP JUMP JUMPDEST PUSH32 0x2F72656E6176616D2F0000000000000000000000000000000000000000000000 DUP2 MSTORE POP JUMP JUMPDEST PUSH0 PUSH2 0x389C DUP3 DUP5 PUSH2 0x3627 JUMP JUMPDEST SWAP2 POP PUSH2 0x38A7 DUP3 PUSH2 0x386B JUMP JUMPDEST PUSH1 0x9 DUP3 ADD SWAP2 POP DUP2 SWAP1 POP SWAP3 SWAP2 POP POP JUMP JUMPDEST PUSH32 0x607D293B69662028617069526573706F6E73652E6572726F7229207B72657475 PUSH0 DUP3 ADD MSTORE PUSH32 0x726E2046756E6374696F6E732E656E636F6465537472696E6728273530302729 PUSH1 0x20 DUP3 ADD MSTORE PUSH32 0x3B7D636F6E7374207B2064617461207D203D20617069526573706F6E73653B63 PUSH1 0x40 DUP3 ADD MSTORE PUSH32 0x6F6E73742076657269666963615472616E73666572656E636961203D20646174 PUSH1 0x60 DUP3 ADD MSTORE PUSH32 0x612E72656E6176616D20213D3D206E756C6C203F202732303027203A20273230 PUSH1 0x80 DUP3 ADD MSTORE PUSH32 0x34273B2072657475726E2046756E6374696F6E732E656E636F6465537472696E PUSH1 0xA0 DUP3 ADD MSTORE PUSH32 0x672876657269666963615472616E73666572656E636961293B00000000000000 PUSH1 0xC0 DUP3 ADD MSTORE POP JUMP JUMPDEST PUSH0 PUSH2 0x39CE PUSH1 0xD9 DUP4 PUSH2 0x361D JUMP JUMPDEST SWAP2 POP PUSH2 0x39D9 DUP3 PUSH2 0x38B6 JUMP JUMPDEST PUSH1 0xD9 DUP3 ADD SWAP1 POP SWAP2 SWAP1 POP JUMP JUMPDEST PUSH0 PUSH2 0x39EF DUP3 DUP5 PUSH2 0x3627 JUMP JUMPDEST SWAP2 POP PUSH2 0x39FA DUP3 PUSH2 0x39C2 JUMP JUMPDEST SWAP2 POP DUP2 SWAP1 POP SWAP3 SWAP2 POP POP JUMP JUMPDEST PUSH0 PUSH1 0x20 PUSH1 0x1F DUP4 ADD DIV SWAP1 POP SWAP2 SWAP1 POP JUMP JUMPDEST PUSH0 DUP3 DUP3 SHL SWAP1 POP SWAP3 SWAP2 POP POP JUMP JUMPDEST PUSH0 PUSH1 0x8 DUP4 MUL PUSH2 0x3A4F PUSH32 0xFFFFFFFFFFFFFFFFFFFFFFFFFFFFFFFFFFFFFFFFFFFFFFFFFFFFFFFFFFFFFFFF DUP3 PUSH2 0x3A14 JUMP JUMPDEST PUSH2 0x3A59 DUP7 DUP4 PUSH2 0x3A14 JUMP JUMPDEST SWAP6 POP DUP1 NOT DUP5 AND SWAP4 POP DUP1 DUP7 AND DUP5 OR SWAP3 POP POP POP SWAP4 SWAP3 POP POP POP JUMP JUMPDEST PUSH0 DUP2 SWAP1 POP SWAP2 SWAP1 POP JUMP JUMPDEST PUSH0 PUSH2 0x3A94 PUSH2 0x3A8F PUSH2 0x3A8A DUP5 PUSH2 0x3025 JUMP JUMPDEST PUSH2 0x3A71 JUMP JUMPDEST PUSH2 0x3025 JUMP JUMPDEST SWAP1 POP SWAP2 SWAP1 POP JUMP JUMPDEST PUSH0 DUP2 SWAP1 POP SWAP2 SWAP1 POP JUMP JUMPDEST PUSH2 0x3AAD DUP4 PUSH2 0x3A7A JUMP JUMPDEST PUSH2 0x3AC1 PUSH2 0x3AB9 DUP3 PUSH2 0x3A9B JUMP JUMPDEST DUP5 DUP5 SLOAD PUSH2 0x3A20 JUMP JUMPDEST DUP3 SSTORE POP POP POP POP JUMP JUMPDEST PUSH0 SWAP1 JUMP JUMPDEST PUSH2 0x3AD5 PUSH2 0x3AC9 JUMP JUMPDEST PUSH2 0x3AE0 DUP2 DUP5 DUP5 PUSH2 0x3AA4 JUMP JUMPDEST POP POP POP JUMP JUMPDEST JUMPDEST DUP2 DUP2 LT ISZERO PUSH2 0x3B03 JUMPI PUSH2 0x3AF8 PUSH0 DUP3 PUSH2 0x3ACD JUMP JUMPDEST PUSH1 0x1 DUP2 ADD SWAP1 POP PUSH2 0x3AE6 JUMP JUMPDEST POP POP JUMP JUMPDEST PUSH1 0x1F DUP3 GT ISZERO PUSH2 0x3B48 JUMPI PUSH2 0x3B19 DUP2 PUSH2 0x376B JUMP JUMPDEST PUSH2 0x3B22 DUP5 PUSH2 0x3A05 JUMP JUMPDEST DUP2 ADD PUSH1 0x20 DUP6 LT ISZERO PUSH2 0x3B31 JUMPI DUP2 SWAP1 POP JUMPDEST PUSH2 0x3B45 PUSH2 0x3B3D DUP6 PUSH2 0x3A05 JUMP JUMPDEST DUP4 ADD DUP3 PUSH2 0x3AE5 JUMP JUMPDEST POP POP JUMPDEST POP POP POP JUMP JUMPDEST PUSH0 DUP3 DUP3 SHR SWAP1 POP SWAP3 SWAP2 POP POP JUMP JUMPDEST PUSH0 PUSH2 0x3B68 PUSH0 NOT DUP5 PUSH1 0x8 MUL PUSH2 0x3B4D JUMP JUMPDEST NOT DUP1 DUP4 AND SWAP2 POP POP SWAP3 SWAP2 POP POP JUMP JUMPDEST PUSH0 PUSH2 0x3B80 DUP4 DUP4 PUSH2 0x3B59 JUMP JUMPDEST SWAP2 POP DUP3 PUSH1 0x2 MUL DUP3 OR SWAP1 POP SWAP3 SWAP2 POP POP JUMP JUMPDEST PUSH2 0x3B99 DUP3 PUSH2 0x323C JUMP JUMPDEST PUSH8 0xFFFFFFFFFFFFFFFF DUP2 GT ISZERO PUSH2 0x3BB2 JUMPI PUSH2 0x3BB1 PUSH2 0x2D32 JUMP JUMPDEST JUMPDEST PUSH2 0x3BBC DUP3 SLOAD PUSH2 0x373B JUMP JUMPDEST PUSH2 0x3BC7 DUP3 DUP3 DUP6 PUSH2 0x3B07 JUMP JUMPDEST PUSH0 PUSH1 0x20 SWAP1 POP PUSH1 0x1F DUP4 GT PUSH1 0x1 DUP2 EQ PUSH2 0x3BF8 JUMPI PUSH0 DUP5 ISZERO PUSH2 0x3BE6 JUMPI DUP3 DUP8 ADD MLOAD SWAP1 POP JUMPDEST PUSH2 0x3BF0 DUP6 DUP3 PUSH2 0x3B75 JUMP JUMPDEST DUP7 SSTORE POP PUSH2 0x3C57 JUMP JUMPDEST PUSH1 0x1F NOT DUP5 AND PUSH2 0x3C06 DUP7 PUSH2 0x376B JUMP JUMPDEST PUSH0 JUMPDEST DUP3 DUP2 LT ISZERO PUSH2 0x3C2D JUMPI DUP5 DUP10 ADD MLOAD DUP3 SSTORE PUSH1 0x1 DUP3 ADD SWAP2 POP PUSH1 0x20 DUP6 ADD SWAP5 POP PUSH1 0x20 DUP2 ADD SWAP1 POP PUSH2 0x3C08 JUMP JUMPDEST DUP7 DUP4 LT ISZERO PUSH2 0x3C4A JUMPI DUP5 DUP10 ADD MLOAD PUSH2 0x3C46 PUSH1 0x1F DUP10 AND DUP3 PUSH2 0x3B59 JUMP JUMPDEST DUP4 SSTORE POP JUMPDEST PUSH1 0x1 PUSH1 0x2 DUP9 MUL ADD DUP9 SSTORE POP POP POP JUMPDEST POP POP POP POP POP POP JUMP JUMPDEST PUSH0 DUP2 SWAP1 POP DUP2 PUSH0 MSTORE PUSH1 0x20 PUSH0 KECCAK256 SWAP1 POP SWAP2 SWAP1 POP JUMP JUMPDEST PUSH0 DUP2 SLOAD PUSH2 0x3C7D DUP2 PUSH2 0x373B JUMP JUMPDEST PUSH2 0x3C87 DUP2 DUP7 PUSH2 0x3417 JUMP JUMPDEST SWAP5 POP PUSH1 0x1 DUP3 AND PUSH0 DUP2 EQ PUSH2 0x3CA1 JUMPI PUSH1 0x1 DUP2 EQ PUSH2 0x3CB6 JUMPI PUSH2 0x3CE8 JUMP JUMPDEST PUSH1 0xFF NOT DUP4 AND DUP7 MSTORE DUP2 ISZERO ISZERO DUP3 MUL DUP7 ADD SWAP4 POP PUSH2 0x3CE8 JUMP JUMPDEST PUSH2 0x3CBF DUP6 PUSH2 0x3C5F JUMP JUMPDEST PUSH0 JUMPDEST DUP4 DUP2 LT ISZERO PUSH2 0x3CE0 JUMPI DUP2 SLOAD DUP2 DUP10 ADD MSTORE PUSH1 0x1 DUP3 ADD SWAP2 POP PUSH1 0x20 DUP2 ADD SWAP1 POP PUSH2 0x3CC1 JUMP JUMPDEST DUP4 DUP9 ADD SWAP6 POP POP POP JUMPDEST POP POP POP SWAP3 SWAP2 POP POP JUMP JUMPDEST PUSH0 PUSH2 0x3CFC DUP3 DUP5 PUSH2 0x3C71 JUMP JUMPDEST SWAP2 POP DUP2 SWAP1 POP SWAP3 SWAP2 POP POP JUMP JUMPDEST PUSH32 0x436F6D707261646F72207061676F75206F2076656E6465646F722C20706F7265 PUSH0 DUP3 ADD MSTORE PUSH32 0x6D206F20636172726F206E616F20666F69207472616E7366657269646F2E2052 PUSH1 0x20 DUP3 ADD MSTORE PUSH32 0x65656D626F6C736F206520617272617320656E76696164617320616F20636F6D PUSH1 0x40 DUP3 ADD MSTORE PUSH32 0x707261646F720000000000000000000000000000000000000000000000000000 PUSH1 0x60 DUP3 ADD MSTORE POP JUMP JUMPDEST PUSH0 PUSH2 0x3DAD PUSH1 0x66 DUP4 PUSH2 0x3246 JUMP JUMPDEST SWAP2 POP PUSH2 0x3DB8 DUP3 PUSH2 0x3D07 JUMP JUMPDEST PUSH1 0x80 DUP3 ADD SWAP1 POP SWAP2 SWAP1 POP JUMP JUMPDEST PUSH0 PUSH1 0x20 DUP3 ADD SWAP1 POP DUP2 DUP2 SUB PUSH0 DUP4 ADD MSTORE PUSH2 0x3DDA DUP2 PUSH2 0x3DA1 JUMP JUMPDEST SWAP1 POP SWAP2 SWAP1 POP JUMP JUMPDEST PUSH32 0x436F6E747261746F2063756D707269646F2C2076616C6F7220656E766961646F PUSH0 DUP3 ADD MSTORE PUSH32 0x20616F2076656E6465646F720000000000000000000000000000000000000000 PUSH1 0x20 DUP3 ADD MSTORE POP JUMP JUMPDEST PUSH0 PUSH2 0x3E3B PUSH1 0x2C DUP4 PUSH2 0x3246 JUMP JUMPDEST SWAP2 POP PUSH2 0x3E46 DUP3 PUSH2 0x3DE1 JUMP JUMPDEST PUSH1 0x40 DUP3 ADD SWAP1 POP SWAP2 SWAP1 POP JUMP JUMPDEST PUSH0 PUSH1 0x20 DUP3 ADD SWAP1 POP DUP2 DUP2 SUB PUSH0 DUP4 ADD MSTORE PUSH2 0x3E68 DUP2 PUSH2 0x3E2F JUMP JUMPDEST SWAP1 POP SWAP2 SWAP1 POP JUMP JUMPDEST PUSH0 PUSH2 0x3E79 DUP3 PUSH2 0x3025 JUMP JUMPDEST SWAP2 POP PUSH2 0x3E84 DUP4 PUSH2 0x3025 JUMP JUMPDEST SWAP3 POP DUP3 DUP3 SUB SWAP1 POP DUP2 DUP2 GT ISZERO PUSH2 0x3E9C JUMPI PUSH2 0x3E9B PUSH2 0x33B7 JUMP JUMPDEST JUMPDEST SWAP3 SWAP2 POP POP JUMP JUMPDEST PUSH0 DUP2 SLOAD SWAP1 POP PUSH2 0x3EB0 DUP2 PUSH2 0x373B JUMP JUMPDEST SWAP1 POP SWAP2 SWAP1 POP JUMP JUMPDEST DUP2 DUP2 SUB PUSH2 0x3EC5 JUMPI POP POP PUSH2 0x3F9A JUMP JUMPDEST PUSH2 0x3ECE DUP3 PUSH2 0x3EA2 JUMP JUMPDEST PUSH8 0xFFFFFFFFFFFFFFFF DUP2 GT ISZERO PUSH2 0x3EE7 JUMPI PUSH2 0x3EE6 PUSH2 0x2D32 JUMP JUMPDEST JUMPDEST PUSH2 0x3EF1 DUP3 SLOAD PUSH2 0x373B JUMP JUMPDEST PUSH2 0x3EFC DUP3 DUP3 DUP6 PUSH2 0x3B07 JUMP JUMPDEST PUSH0 PUSH1 0x1F DUP4 GT PUSH1 0x1 DUP2 EQ PUSH2 0x3F29 JUMPI PUSH0 DUP5 ISZERO PUSH2 0x3F17 JUMPI DUP3 DUP8 ADD SLOAD SWAP1 POP JUMPDEST PUSH2 0x3F21 DUP6 DUP3 PUSH2 0x3B75 JUMP JUMPDEST DUP7 SSTORE POP PUSH2 0x3F93 JUMP JUMPDEST PUSH1 0x1F NOT DUP5 AND PUSH2 0x3F37 DUP8 PUSH2 0x376B JUMP JUMPDEST SWAP7 POP PUSH2 0x3F42 DUP7 PUSH2 0x376B JUMP JUMPDEST PUSH0 JUMPDEST DUP3 DUP2 LT ISZERO PUSH2 0x3F69 JUMPI DUP5 DUP10 ADD SLOAD DUP3 SSTORE PUSH1 0x1 DUP3 ADD SWAP2 POP PUSH1 0x1 DUP6 ADD SWAP5 POP PUSH1 0x20 DUP2 ADD SWAP1 POP PUSH2 0x3F44 JUMP JUMPDEST DUP7 DUP4 LT ISZERO PUSH2 0x3F86 JUMPI DUP5 DUP10 ADD SLOAD PUSH2 0x3F82 PUSH1 0x1F DUP10 AND DUP3 PUSH2 0x3B59 JUMP JUMPDEST DUP4 SSTORE POP JUMPDEST PUSH1 0x1 PUSH1 0x2 DUP9 MUL ADD DUP9 SSTORE POP POP POP JUMPDEST POP POP POP POP POP POP JUMPDEST JUMP JUMPDEST PUSH32 0x4E487B7100000000000000000000000000000000000000000000000000000000 PUSH0 MSTORE PUSH1 0x31 PUSH1 0x4 MSTORE PUSH1 0x24 PUSH0 REVERT JUMPDEST PUSH32 0x4E487B7100000000000000000000000000000000000000000000000000000000 PUSH0 MSTORE PUSH1 0x21 PUSH1 0x4 MSTORE PUSH1 0x24 PUSH0 REVERT JUMPDEST PUSH0 PUSH8 0xFFFFFFFFFFFFFFFF DUP3 AND SWAP1 POP SWAP2 SWAP1 POP JUMP JUMPDEST PUSH2 0x4012 DUP2 PUSH2 0x3FF6 JUMP JUMPDEST DUP3 MSTORE POP POP JUMP JUMPDEST PUSH0 DUP2 MLOAD SWAP1 POP SWAP2 SWAP1 POP JUMP JUMPDEST PUSH0 DUP3 DUP3 MSTORE PUSH1 0x20 DUP3 ADD SWAP1 POP SWAP3 SWAP2 POP POP JUMP JUMPDEST PUSH0 PUSH2 0x403C DUP3 PUSH2 0x4018 JUMP JUMPDEST PUSH2 0x4046 DUP2 DUP6 PUSH2 0x4022 JUMP JUMPDEST SWAP4 POP PUSH2 0x4056 DUP2 DUP6 PUSH1 0x20 DUP7 ADD PUSH2 0x3256 JUMP JUMPDEST PUSH2 0x405F DUP2 PUSH2 0x2D22 JUMP JUMPDEST DUP5 ADD SWAP2 POP POP SWAP3 SWAP2 POP POP JUMP JUMPDEST PUSH0 PUSH2 0xFFFF DUP3 AND SWAP1 POP SWAP2 SWAP1 POP JUMP JUMPDEST PUSH2 0x4080 DUP2 PUSH2 0x406A JUMP JUMPDEST DUP3 MSTORE POP POP JUMP JUMPDEST PUSH0 PUSH4 0xFFFFFFFF DUP3 AND SWAP1 POP SWAP2 SWAP1 POP JUMP JUMPDEST PUSH2 0x409E DUP2 PUSH2 0x4086 JUMP JUMPDEST DUP3 MSTORE POP POP JUMP JUMPDEST PUSH2 0x40AD DUP2 PUSH2 0x2ECC JUMP JUMPDEST DUP3 MSTORE POP POP JUMP JUMPDEST PUSH0 PUSH1 0xA0 DUP3 ADD SWAP1 POP PUSH2 0x40C6 PUSH0 DUP4 ADD DUP9 PUSH2 0x4009 JUMP JUMPDEST DUP2 DUP2 SUB PUSH1 0x20 DUP4 ADD MSTORE PUSH2 0x40D8 DUP2 DUP8 PUSH2 0x4032 JUMP JUMPDEST SWAP1 POP PUSH2 0x40E7 PUSH1 0x40 DUP4 ADD DUP7 PUSH2 0x4077 JUMP JUMPDEST PUSH2 0x40F4 PUSH1 0x60 DUP4 ADD DUP6 PUSH2 0x4095 JUMP JUMPDEST PUSH2 0x4101 PUSH1 0x80 DUP4 ADD DUP5 PUSH2 0x40A4 JUMP JUMPDEST SWAP7 SWAP6 POP POP POP POP POP POP JUMP JUMPDEST PUSH0 DUP2 MLOAD SWAP1 POP PUSH2 0x4119 DUP2 PUSH2 0x2ED5 JUMP JUMPDEST SWAP3 SWAP2 POP POP JUMP JUMPDEST PUSH0 PUSH1 0x20 DUP3 DUP5 SUB SLT ISZERO PUSH2 0x4134 JUMPI PUSH2 0x4133 PUSH2 0x2D12 JUMP JUMPDEST JUMPDEST PUSH0 PUSH2 0x4141 DUP5 DUP3 DUP6 ADD PUSH2 0x410B JUMP JUMPDEST SWAP2 POP POP SWAP3 SWAP2 POP POP JUMP JUMPDEST PUSH0 PUSH2 0x4155 DUP3 DUP15 PUSH2 0x3627 JUMP JUMPDEST SWAP2 POP PUSH2 0x4161 DUP3 DUP14 PUSH2 0x3627 JUMP JUMPDEST SWAP2 POP PUSH2 0x416D DUP3 DUP13 PUSH2 0x3627 JUMP JUMPDEST SWAP2 POP PUSH2 0x4179 DUP3 DUP12 PUSH2 0x3627 JUMP JUMPDEST SWAP2 POP PUSH2 0x4185 DUP3 DUP11 PUSH2 0x3627 JUMP JUMPDEST SWAP2 POP PUSH2 0x4191 DUP3 DUP10 PUSH2 0x3627 JUMP JUMPDEST SWAP2 POP PUSH2 0x419D DUP3 DUP9 PUSH2 0x3627 JUMP JUMPDEST SWAP2 POP PUSH2 0x41A9 DUP3 DUP8 PUSH2 0x3627 JUMP JUMPDEST SWAP2 POP PUSH2 0x41B5 DUP3 DUP7 PUSH2 0x3627 JUMP JUMPDEST SWAP2 POP PUSH2 0x41C1 DUP3 DUP6 PUSH2 0x3627 JUMP JUMPDEST SWAP2 POP PUSH2 0x41CD DUP3 DUP5 PUSH2 0x3627 JUMP JUMPDEST SWAP2 POP DUP2 SWAP1 POP SWAP13 SWAP12 POP POP POP POP POP POP POP POP POP POP POP POP JUMP JUMPDEST PUSH0 PUSH1 0xFF DUP3 AND SWAP1 POP SWAP2 SWAP1 POP JUMP JUMPDEST PUSH0 PUSH2 0x41F8 DUP3 PUSH2 0x41E2 JUMP JUMPDEST SWAP2 POP PUSH0 DUP3 SUB PUSH2 0x420A JUMPI PUSH2 0x4209 PUSH2 0x33B7 JUMP JUMPDEST JUMPDEST PUSH1 0x1 DUP3 SUB SWAP1 POP SWAP2 SWAP1 POP JUMP JUMPDEST PUSH0 PUSH2 0x421F DUP3 PUSH2 0x41E2 JUMP JUMPDEST SWAP2 POP PUSH2 0x422A DUP4 PUSH2 0x41E2 JUMP JUMPDEST SWAP3 POP DUP3 DUP3 SUB SWAP1 POP PUSH1 0xFF DUP2 GT ISZERO PUSH2 0x4243 JUMPI PUSH2 0x4242 PUSH2 0x33B7 JUMP JUMPDEST JUMPDEST SWAP3 SWAP2 POP POP JUMP JUMPDEST PUSH0 PUSH2 0x4253 DUP3 PUSH2 0x41E2 JUMP JUMPDEST SWAP2 POP PUSH2 0x425E DUP4 PUSH2 0x41E2 JUMP JUMPDEST SWAP3 POP DUP3 DUP3 MUL PUSH2 0x426C DUP2 PUSH2 0x41E2 JUMP JUMPDEST SWAP2 POP DUP1 DUP3 EQ PUSH2 0x427E JUMPI PUSH2 0x427D PUSH2 0x33B7 JUMP JUMPDEST JUMPDEST POP SWAP3 SWAP2 POP POP JUMP JUMPDEST PUSH32 0x4E487B7100000000000000000000000000000000000000000000000000000000 PUSH0 MSTORE PUSH1 0x12 PUSH1 0x4 MSTORE PUSH1 0x24 PUSH0 REVERT JUMPDEST PUSH0 PUSH2 0x42BC DUP3 PUSH2 0x3025 JUMP JUMPDEST SWAP2 POP PUSH2 0x42C7 DUP4 PUSH2 0x3025 JUMP JUMPDEST SWAP3 POP DUP3 PUSH2 0x42D7 JUMPI PUSH2 0x42D6 PUSH2 0x4285 JUMP JUMPDEST JUMPDEST DUP3 DUP3 MOD SWAP1 POP SWAP3 SWAP2 POP POP JUMP JUMPDEST PUSH0 PUSH1 0x20 DUP3 ADD SWAP1 POP PUSH2 0x42F5 PUSH0 DUP4 ADD DUP5 PUSH2 0x329C JUMP JUMPDEST SWAP3 SWAP2 POP POP JUMP JUMPDEST PUSH0 DUP2 PUSH1 0x1 SHR SWAP1 POP SWAP2 SWAP1 POP JUMP JUMPDEST PUSH0 DUP1 DUP3 SWAP2 POP DUP4 SWAP1 POP JUMPDEST PUSH1 0x1 DUP6 GT ISZERO PUSH2 0x4350 JUMPI DUP1 DUP7 DIV DUP2 GT ISZERO PUSH2 0x432C JUMPI PUSH2 0x432B PUSH2 0x33B7 JUMP JUMPDEST JUMPDEST PUSH1 0x1 DUP6 AND ISZERO PUSH2 0x433B JUMPI DUP1 DUP3 MUL SWAP2 POP JUMPDEST DUP1 DUP2 MUL SWAP1 POP PUSH2 0x4349 DUP6 PUSH2 0x42FB JUMP JUMPDEST SWAP5 POP PUSH2 0x4310 JUMP JUMPDEST SWAP5 POP SWAP5 SWAP3 POP POP POP JUMP JUMPDEST PUSH0 DUP3 PUSH2 0x4368 JUMPI PUSH1 0x1 SWAP1 POP PUSH2 0x4423 JUMP JUMPDEST DUP2 PUSH2 0x4375 JUMPI PUSH0 SWAP1 POP PUSH2 0x4423 JUMP JUMPDEST DUP2 PUSH1 0x1 DUP2 EQ PUSH2 0x438B JUMPI PUSH1 0x2 DUP2 EQ PUSH2 0x4395 JUMPI PUSH2 0x43C4 JUMP JUMPDEST PUSH1 0x1 SWAP2 POP POP PUSH2 0x4423 JUMP JUMPDEST PUSH1 0xFF DUP5 GT ISZERO PUSH2 0x43A7 JUMPI PUSH2 0x43A6 PUSH2 0x33B7 JUMP JUMPDEST JUMPDEST DUP4 PUSH1 0x2 EXP SWAP2 POP DUP5 DUP3 GT ISZERO PUSH2 0x43BE JUMPI PUSH2 0x43BD PUSH2 0x33B7 JUMP JUMPDEST JUMPDEST POP PUSH2 0x4423 JUMP JUMPDEST POP PUSH1 0x20 DUP4 LT PUSH2 0x133 DUP4 LT AND PUSH1 0x4E DUP5 LT PUSH1 0xB DUP5 LT AND OR ISZERO PUSH2 0x43F9 JUMPI DUP3 DUP3 EXP SWAP1 POP DUP4 DUP2 GT ISZERO PUSH2 0x43F4 JUMPI PUSH2 0x43F3 PUSH2 0x33B7 JUMP JUMPDEST JUMPDEST PUSH2 0x4423 JUMP JUMPDEST PUSH2 0x4406 DUP5 DUP5 DUP5 PUSH1 0x1 PUSH2 0x4307 JUMP JUMPDEST SWAP3 POP SWAP1 POP DUP2 DUP5 DIV DUP2 GT ISZERO PUSH2 0x441D JUMPI PUSH2 0x441C PUSH2 0x33B7 JUMP JUMPDEST JUMPDEST DUP2 DUP2 MUL SWAP1 POP JUMPDEST SWAP4 SWAP3 POP POP POP JUMP JUMPDEST PUSH0 PUSH2 0x4434 DUP3 PUSH2 0x3025 JUMP JUMPDEST SWAP2 POP PUSH2 0x443F DUP4 PUSH2 0x3025 JUMP JUMPDEST SWAP3 POP PUSH2 0x446C PUSH32 0xFFFFFFFFFFFFFFFFFFFFFFFFFFFFFFFFFFFFFFFFFFFFFFFFFFFFFFFFFFFFFFFF DUP5 DUP5 PUSH2 0x4359 JUMP JUMPDEST SWAP1 POP SWAP3 SWAP2 POP POP JUMP INVALID PUSH4 0x6F6E7374 KECCAK256 PUSH2 0x7069 MSTORE PUSH6 0x73706F6E7365 KECCAK256 RETURNDATASIZE KECCAK256 PUSH2 0x7761 PUSH10 0x742046756E6374696F6E PUSH20 0x2E6D616B654874747052657175657374287BA264 PUSH10 0x70667358221220709308 0xF9 0xB1 0xDE 0x2E GT LOG0 0xF7 SSTORE SWAP8 SIGNEXTEND SIGNEXTEND MSIZE CALLCODE PUSH22 0x3D9E92EB92574C37E5BE3F404A9C2364736F6C634300 ADDMOD BYTE STOP CALLER "
		},
		"gasEstimates": {
			"creation": {
				"codeDepositCost": "3526200",
				"executionCost": "infinite",
				"totalCost": "infinite"
			},
			"external": {
				"cancelaContratoComprador(string,string)": "infinite",
				"cancelaContratoVendedor(string,string)": "infinite",
				"contratosArras(uint256)": "infinite",
				"enviarArrasComprador(string,string)": "infinite",
				"handleOracleFulfillment(bytes32,bytes,bytes)": "infinite",
				"iniciarCompra(string,string,string,string,uint256,uint256)": "infinite",
				"owner()": "2505",
				"pagarValorTotalComprador(string,string)": "infinite",
				"transfer(address,uint256)": "infinite",
				"verificaContrato(string,string)": "infinite"
			},
			"internal": {
				"encontraContrato(string memory,string memory)": "infinite",
				"fulfillRequest(bytes32,bytes memory,bytes memory)": "infinite",
				"removeContrato(uint256)": "infinite",
				"validaCpf(string memory)": "infinite"
			}
		},
		"methodIdentifiers": {
			"cancelaContratoComprador(string,string)": "bd2449b5",
			"cancelaContratoVendedor(string,string)": "bc6c50de",
			"contratosArras(uint256)": "b58be5df",
			"enviarArrasComprador(string,string)": "50b88846",
			"handleOracleFulfillment(bytes32,bytes,bytes)": "0ca76175",
			"iniciarCompra(string,string,string,string,uint256,uint256)": "61d839bd",
			"owner()": "8da5cb5b",
			"pagarValorTotalComprador(string,string)": "02b28c5a",
			"transfer(address,uint256)": "a9059cbb",
			"verificaContrato(string,string)": "1befbf39"
		}
	},
	"abi": [
		{
			"inputs": [
				{
					"internalType": "uint64",
					"name": "_subscriptionId",
					"type": "uint64"
				}
			],
			"stateMutability": "nonpayable",
			"type": "constructor"
		},
		{
			"inputs": [],
			"name": "EmptySource",
			"type": "error"
		},
		{
			"inputs": [],
			"name": "NoInlineSecrets",
			"type": "error"
		},
		{
			"inputs": [],
			"name": "OnlyRouterCanFulfill",
			"type": "error"
		},
		{
			"anonymous": false,
			"inputs": [
				{
					"indexed": true,
					"internalType": "bytes32",
					"name": "id",
					"type": "bytes32"
				}
			],
			"name": "RequestFulfilled",
			"type": "event"
		},
		{
			"anonymous": false,
			"inputs": [
				{
					"indexed": true,
					"internalType": "bytes32",
					"name": "id",
					"type": "bytes32"
				}
			],
			"name": "RequestSent",
			"type": "event"
		},
		{
			"anonymous": false,
			"inputs": [
				{
					"indexed": false,
					"internalType": "string",
					"name": "log",
					"type": "string"
				}
			],
			"name": "Response",
			"type": "event"
		},
		{
			"inputs": [
				{
					"internalType": "string",
					"name": "_renavam",
					"type": "string"
				},
				{
					"internalType": "string",
					"name": "_placa",
					"type": "string"
				}
			],
			"name": "cancelaContratoComprador",
			"outputs": [],
			"stateMutability": "payable",
			"type": "function"
		},
		{
			"inputs": [
				{
					"internalType": "string",
					"name": "_renavam",
					"type": "string"
				},
				{
					"internalType": "string",
					"name": "_placa",
					"type": "string"
				}
			],
			"name": "cancelaContratoVendedor",
			"outputs": [],
			"stateMutability": "payable",
			"type": "function"
		},
		{
			"inputs": [
				{
					"internalType": "uint256",
					"name": "",
					"type": "uint256"
				}
			],
			"name": "contratosArras",
			"outputs": [
				{
					"internalType": "string",
					"name": "renavam",
					"type": "string"
				},
				{
					"internalType": "string",
					"name": "placa",
					"type": "string"
				},
				{
					"internalType": "address",
					"name": "carteiraComprador",
					"type": "address"
				},
				{
					"internalType": "address",
					"name": "carteiraVendedor",
					"type": "address"
				},
				{
					"internalType": "string",
					"name": "cpfComprador",
					"type": "string"
				},
				{
					"internalType": "string",
					"name": "cpfVendedor",
					"type": "string"
				},
				{
					"internalType": "uint256",
					"name": "valorArras",
					"type": "uint256"
				},
				{
					"internalType": "uint256",
					"name": "valorTotal",
					"type": "uint256"
				},
				{
					"internalType": "uint256",
					"name": "dataInicial",
					"type": "uint256"
				},
				{
					"internalType": "uint256",
					"name": "prazoDias",
					"type": "uint256"
				},
				{
					"internalType": "bool",
					"name": "pago",
					"type": "bool"
				}
			],
			"stateMutability": "view",
			"type": "function"
		},
		{
			"inputs": [
				{
					"internalType": "string",
					"name": "_renavam",
					"type": "string"
				},
				{
					"internalType": "string",
					"name": "_placa",
					"type": "string"
				}
			],
			"name": "enviarArrasComprador",
			"outputs": [],
			"stateMutability": "payable",
			"type": "function"
		},
		{
			"inputs": [
				{
					"internalType": "bytes32",
					"name": "requestId",
					"type": "bytes32"
				},
				{
					"internalType": "bytes",
					"name": "response",
					"type": "bytes"
				},
				{
					"internalType": "bytes",
					"name": "err",
					"type": "bytes"
				}
			],
			"name": "handleOracleFulfillment",
			"outputs": [],
			"stateMutability": "nonpayable",
			"type": "function"
		},
		{
			"inputs": [
				{
					"internalType": "string",
					"name": "_renavam",
					"type": "string"
				},
				{
					"internalType": "string",
					"name": "_placa",
					"type": "string"
				},
				{
					"internalType": "string",
					"name": "_cpfComprador",
					"type": "string"
				},
				{
					"internalType": "string",
					"name": "_cpfVendedor",
					"type": "string"
				},
				{
					"internalType": "uint256",
					"name": "_valorTotal",
					"type": "uint256"
				},
				{
					"internalType": "uint256",
					"name": "_prazoDias",
					"type": "uint256"
				}
			],
			"name": "iniciarCompra",
			"outputs": [],
			"stateMutability": "payable",
			"type": "function"
		},
		{
			"inputs": [],
			"name": "owner",
			"outputs": [
				{
					"internalType": "address",
					"name": "",
					"type": "address"
				}
			],
			"stateMutability": "view",
			"type": "function"
		},
		{
			"inputs": [
				{
					"internalType": "string",
					"name": "_renavam",
					"type": "string"
				},
				{
					"internalType": "string",
					"name": "_placa",
					"type": "string"
				}
			],
			"name": "pagarValorTotalComprador",
			"outputs": [],
			"stateMutability": "payable",
			"type": "function"
		},
		{
			"inputs": [
				{
					"internalType": "address",
					"name": "_to",
					"type": "address"
				},
				{
					"internalType": "uint256",
					"name": "amount",
					"type": "uint256"
				}
			],
			"name": "transfer",
			"outputs": [],
			"stateMutability": "payable",
			"type": "function"
		},
		{
			"inputs": [
				{
					"internalType": "string",
					"name": "_renavam",
					"type": "string"
				},
				{
					"internalType": "string",
					"name": "_placa",
					"type": "string"
				}
			],
			"name": "verificaContrato",
			"outputs": [],
			"stateMutability": "nonpayable",
			"type": "function"
		}
	]
}