{
	"data": {
		"bytecode": {
			"linkReferences": {},
			"object": "60a060405273b83e47c2bc239b3bf370bc41e1459a34b41238d060015f6101000a81548173ffffffffffffffffffffffffffffffffffffffff021916908373ffffffffffffffffffffffffffffffffffffffff1602179055507f66756e2d657468657265756d2d7365706f6c69612d31000000000000000000005f1b600255620493e060035f6101000a81548163ffffffff021916908363ffffffff1602179055503480156100ac575f80fd5b5060015f9054906101000a900473ffffffffffffffffffffffffffffffffffffffff168073ffffffffffffffffffffffffffffffffffffffff1660808173ffffffffffffffffffffffffffffffffffffffff168152505050335f806101000a81548173ffffffffffffffffffffffffffffffffffffffff021916908373ffffffffffffffffffffffffffffffffffffffff1602179055506080516124f561015b5f395f6101d701526124f55ff3fe608060405260043610610085575f3560e01c80638da5cb5b116100585780638da5cb5b14610111578063a9059cbb1461013b578063b58be5df14610157578063e0fc94b01461019d578063edc509af146101b957610085565b80630ca76175146100895780631d6d5b6e146100b15780634188b719146100cd57806368892bf4146100f5575b5f80fd5b348015610094575f80fd5b506100af60048036038101906100aa9190611779565b6101d5565b005b6100cb60048036038101906100c691906118d6565b610297565b005b3480156100d8575f80fd5b506100f360048036038101906100ee9190611963565b61044d565b005b61010f600480360381019061010a91906118d6565b610748565b005b34801561011c575f80fd5b506101256107bb565b60405161013291906119cd565b60405180910390f35b61015560048036038101906101509190611a10565b6107de565b005b348015610162575f80fd5b5061017d60048036038101906101789190611963565b6108e4565b6040516101949b9a99989796959493929190611ae6565b60405180910390f35b6101b760048036038101906101b29190611bda565b610b32565b005b6101d360048036038101906101ce91906118d6565b610d9a565b005b7f000000000000000000000000000000000000000000000000000000000000000073ffffffffffffffffffffffffffffffffffffffff163373ffffffffffffffffffffffffffffffffffffffff161461025a576040517fc6829f8300000000000000000000000000000000000000000000000000000000815260040160405180910390fd5b610265838383610fc9565b827f85e1543bf2f84fe80c6badbce3648c8539ad1df4d2b3d822938ca0538be727e660405160405180910390a2505050565b5f6102a28383610fce565b90503373ffffffffffffffffffffffffffffffffffffffff16600482815481106102cf576102ce611cb7565b5b905f5260205f2090600b02016002015f9054906101000a900473ffffffffffffffffffffffffffffffffffffffff1673ffffffffffffffffffffffffffffffffffffffff161461031d575f80fd5b5f60026004838154811061033457610333611cb7565b5b905f5260205f2090600b02016006015461034e9190611d11565b90505f806004848154811061036657610365611cb7565b5b905f5260205f2090600b02016003015f9054906101000a900473ffffffffffffffffffffffffffffffffffffffff1673ffffffffffffffffffffffffffffffffffffffff16836040516103b890611d7f565b5f6040518083038185875af1925050503d805f81146103f2576040519150601f19603f3d011682016040523d82523d5f602084013e6103f7565b606091505b50915091508161043c576040517f08c379a000000000000000000000000000000000000000000000000000000000815260040161043390611ddd565b60405180910390fd5b6104458461044d565b505050505050565b600480549050811061045d575f80fd5b5f8190505b60016004805490506104749190611dfb565b81101561066057600460018261048a9190611e2e565b8154811061049b5761049a611cb7565b5b905f5260205f2090600b0201600482815481106104bb576104ba611cb7565b5b905f5260205f2090600b02015f82015f9054906101000a900461ffff16815f015f6101000a81548161ffff021916908361ffff160217905550600182018160010190816105089190612070565b50600282015f9054906101000a900473ffffffffffffffffffffffffffffffffffffffff16816002015f6101000a81548173ffffffffffffffffffffffffffffffffffffffff021916908373ffffffffffffffffffffffffffffffffffffffff160217905550600382015f9054906101000a900473ffffffffffffffffffffffffffffffffffffffff16816003015f6101000a81548173ffffffffffffffffffffffffffffffffffffffff021916908373ffffffffffffffffffffffffffffffffffffffff160217905550600482018160040190816105e79190612070565b50600582018160050190816105fc9190612070565b5060068201548160060155600782015481600701556008820154816008015560098201548160090155600a82015f9054906101000a900460ff1681600a015f6101000a81548160ff0219169083151502179055509050508080600101915050610462565b50600480548061067357610672612155565b5b600190038181905f5260205f2090600b02015f8082015f6101000a81549061ffff0219169055600182015f6106a8919061151d565b600282015f6101000a81549073ffffffffffffffffffffffffffffffffffffffff0219169055600382015f6101000a81549073ffffffffffffffffffffffffffffffffffffffff0219169055600482015f610703919061151d565b600582015f610712919061151d565b600682015f9055600782015f9055600882015f9055600982015f9055600a82015f6101000a81549060ff02191690555050905550565b5f6107538383610fce565b9050336004828154811061076a57610769611cb7565b5b905f5260205f2090600b02016002015f6101000a81548173ffffffffffffffffffffffffffffffffffffffff021916908373ffffffffffffffffffffffffffffffffffffffff160217905550505050565b5f8054906101000a900473ffffffffffffffffffffffffffffffffffffffff1681565b5f8054906101000a900473ffffffffffffffffffffffffffffffffffffffff1673ffffffffffffffffffffffffffffffffffffffff163373ffffffffffffffffffffffffffffffffffffffff1614610834575f80fd5b5f808373ffffffffffffffffffffffffffffffffffffffff168360405161085a90611d7f565b5f6040518083038185875af1925050503d805f8114610894576040519150601f19603f3d011682016040523d82523d5f602084013e610899565b606091505b5091509150816108de576040517f08c379a00000000000000000000000000000000000000000000000000000000081526004016108d590611ddd565b60405180910390fd5b50505050565b600481815481106108f3575f80fd5b905f5260205f2090600b02015f91509050805f015f9054906101000a900461ffff169080600101805461092590611e8e565b80601f016020809104026020016040519081016040528092919081815260200182805461095190611e8e565b801561099c5780601f106109735761010080835404028352916020019161099c565b820191905f5260205f20905b81548152906001019060200180831161097f57829003601f168201915b505050505090806002015f9054906101000a900473ffffffffffffffffffffffffffffffffffffffff1690806003015f9054906101000a900473ffffffffffffffffffffffffffffffffffffffff16908060040180546109fb90611e8e565b80601f0160208091040260200160405190810160405280929190818152602001828054610a2790611e8e565b8015610a725780601f10610a4957610100808354040283529160200191610a72565b820191905f5260205f20905b815481529060010190602001808311610a5557829003601f168201915b505050505090806005018054610a8790611e8e565b80601f0160208091040260200160405190810160405280929190818152602001828054610ab390611e8e565b8015610afe5780601f10610ad557610100808354040283529160200191610afe565b820191905f5260205f20905b815481529060010190602001808311610ae157829003601f168201915b50505050509080600601549080600701549080600801549080600901549080600a015f9054906101000a900460ff1690508b565b610b3b84611096565b610b43575f80fd5b610b4c83611096565b610b54575f80fd5b610b5c61155a565b86815f019061ffff16908161ffff168152505085816020018190525033816060019073ffffffffffffffffffffffffffffffffffffffff16908173ffffffffffffffffffffffffffffffffffffffff1681525050848160800181905250838160a00181905250348160c0018181525050828160e00181815250505f81610140019015159081151581525050603c80601884610bf79190612182565b610c019190612182565b610c0b9190612182565b60ff1642610c199190611e2e565b816101200181815250504281610100018181525050600481908060018154018082558091505060019003905f5260205f2090600b02015f909190919091505f820151815f015f6101000a81548161ffff021916908361ffff1602179055506020820151816001019081610c8c91906121be565b506040820151816002015f6101000a81548173ffffffffffffffffffffffffffffffffffffffff021916908373ffffffffffffffffffffffffffffffffffffffff1602179055506060820151816003015f6101000a81548173ffffffffffffffffffffffffffffffffffffffff021916908373ffffffffffffffffffffffffffffffffffffffff1602179055506080820151816004019081610d2e91906121be565b5060a0820151816005019081610d4491906121be565b5060c0820151816006015560e082015181600701556101008201518160080155610120820151816009015561014082015181600a015f6101000a81548160ff021916908315150217905550505050505050505050565b5f610da58383610fce565b90503373ffffffffffffffffffffffffffffffffffffffff1660048281548110610dd257610dd1611cb7565b5b905f5260205f2090600b02016003015f9054906101000a900473ffffffffffffffffffffffffffffffffffffffff1673ffffffffffffffffffffffffffffffffffffffff1614610e20575f80fd5b5f73ffffffffffffffffffffffffffffffffffffffff1660048281548110610e4b57610e4a611cb7565b5b905f5260205f2090600b02016002015f9054906101000a900473ffffffffffffffffffffffffffffffffffffffff1673ffffffffffffffffffffffffffffffffffffffff1603610e99575f80fd5b5f600260048381548110610eb057610eaf611cb7565b5b905f5260205f2090600b020160060154610eca9190611d11565b90505f8060048481548110610ee257610ee1611cb7565b5b905f5260205f2090600b02016002015f9054906101000a900473ffffffffffffffffffffffffffffffffffffffff1673ffffffffffffffffffffffffffffffffffffffff1683604051610f3490611d7f565b5f6040518083038185875af1925050503d805f8114610f6e576040519150601f19603f3d011682016040523d82523d5f602084013e610f73565b606091505b509150915081610fb8576040517f08c379a0000000000000000000000000000000000000000000000000000000008152600401610faf90611ddd565b60405180910390fd5b610fc18461044d565b505050505050565b505050565b5f805f90505f5b600480549050811015611081578461ffff1660048281548110610ffb57610ffa611cb7565b5b905f5260205f2090600b02015f015f9054906101000a900461ffff1661ffff16148015611065575083805190602001206004828154811061103f5761103e611cb7565b5b905f5260205f2090600b020160010160405161105b919061231f565b6040518091039020145b15611074578092505050611090565b8080600101915050610fd5565b508061108b575f80fd5b5f9150505b92915050565b5f80829050600b8151146110ad575f9150506112fd565b5f5b600a8160ff161015611131575f6110c88260ff16611302565b90505f8182838485868788898a8b6040516020016110f09b9a9998979695949392919061236f565b60405160208183030381529060405290508080519060200120848051906020012003611122575f9450505050506112fd565b505080806001019150506110af565b505f80600a90505f5b60098160ff1610156111aa57818061115190612407565b92506030858360ff168151811061116b5761116a611cb7565b5b602001015160f81c60f81b60f81c611183919061242e565b61118d9190612182565b60ff168361119b9190611e2e565b9250808060010191505061113a565b505f600b836111b9919061248f565b9050600281106111d55780600b6111d09190611dfb565b6111d7565b5f5b9050806030856009815181106111f0576111ef611cb7565b5b602001015160f81c60f81b60f81c611208919061242e565b60ff161461121c575f9450505050506112fd565b5f9250600b91505f5b600a8160ff16101561129557828061123c90612407565b93506030868360ff168151811061125657611255611cb7565b5b602001015160f81c60f81b60f81c61126e919061242e565b6112789190612182565b60ff16846112869190611e2e565b93508080600101915050611225565b50600b836112a3919061248f565b9050600281106112bf5780600b6112ba9190611dfb565b6112c1565b5f5b905080603085600a815181106112da576112d9611cb7565b5b602001015160f81c60f81b60f81c6112f2919061242e565b60ff16149450505050505b919050565b60605f6001611310846113cc565b0190505f8167ffffffffffffffff81111561132e5761132d611655565b5b6040519080825280601f01601f1916602001820160405280156113605781602001600182028036833780820191505090505b5090505f82602001820190505b6001156113c1578080600190039150507f3031323334353637383961626364656600000000000000000000000000000000600a86061a8153600a85816113b6576113b5612462565b5b0494505f850361136d575b819350505050919050565b5f805f90507a184f03e93ff9f4daa797ed6e38ed64bf6a1f0100000000000000008310611428577a184f03e93ff9f4daa797ed6e38ed64bf6a1f010000000000000000838161141e5761141d612462565b5b0492506040810190505b6d04ee2d6d415b85acef81000000008310611465576d04ee2d6d415b85acef8100000000838161145b5761145a612462565b5b0492506020810190505b662386f26fc10000831061149457662386f26fc10000838161148a57611489612462565b5b0492506010810190505b6305f5e10083106114bd576305f5e10083816114b3576114b2612462565b5b0492506008810190505b61271083106114e25761271083816114d8576114d7612462565b5b0492506004810190505b6064831061150557606483816114fb576114fa612462565b5b0492506002810190505b600a8310611514576001810190505b80915050919050565b50805461152990611e8e565b5f825580601f1061153a5750611557565b601f0160209004905f5260205f209081019061155691906115de565b5b50565b6040518061016001604052805f61ffff168152602001606081526020015f73ffffffffffffffffffffffffffffffffffffffff1681526020015f73ffffffffffffffffffffffffffffffffffffffff16815260200160608152602001606081526020015f81526020015f81526020015f81526020015f81526020015f151581525090565b5b808211156115f5575f815f9055506001016115df565b5090565b5f604051905090565b5f80fd5b5f80fd5b5f819050919050565b61161c8161160a565b8114611626575f80fd5b50565b5f8135905061163781611613565b92915050565b5f80fd5b5f80fd5b5f601f19601f8301169050919050565b7f4e487b71000000000000000000000000000000000000000000000000000000005f52604160045260245ffd5b61168b82611645565b810181811067ffffffffffffffff821117156116aa576116a9611655565b5b80604052505050565b5f6116bc6115f9565b90506116c88282611682565b919050565b5f67ffffffffffffffff8211156116e7576116e6611655565b5b6116f082611645565b9050602081019050919050565b828183375f83830152505050565b5f61171d611718846116cd565b6116b3565b90508281526020810184848401111561173957611738611641565b5b6117448482856116fd565b509392505050565b5f82601f8301126117605761175f61163d565b5b813561177084826020860161170b565b91505092915050565b5f805f606084860312156117905761178f611602565b5b5f61179d86828701611629565b935050602084013567ffffffffffffffff8111156117be576117bd611606565b5b6117ca8682870161174c565b925050604084013567ffffffffffffffff8111156117eb576117ea611606565b5b6117f78682870161174c565b9150509250925092565b5f61ffff82169050919050565b61181781611801565b8114611821575f80fd5b50565b5f813590506118328161180e565b92915050565b5f67ffffffffffffffff82111561185257611851611655565b5b61185b82611645565b9050602081019050919050565b5f61187a61187584611838565b6116b3565b90508281526020810184848401111561189657611895611641565b5b6118a18482856116fd565b509392505050565b5f82601f8301126118bd576118bc61163d565b5b81356118cd848260208601611868565b91505092915050565b5f80604083850312156118ec576118eb611602565b5b5f6118f985828601611824565b925050602083013567ffffffffffffffff81111561191a57611919611606565b5b611926858286016118a9565b9150509250929050565b5f819050919050565b61194281611930565b811461194c575f80fd5b50565b5f8135905061195d81611939565b92915050565b5f6020828403121561197857611977611602565b5b5f6119858482850161194f565b91505092915050565b5f73ffffffffffffffffffffffffffffffffffffffff82169050919050565b5f6119b78261198e565b9050919050565b6119c7816119ad565b82525050565b5f6020820190506119e05f8301846119be565b92915050565b6119ef816119ad565b81146119f9575f80fd5b50565b5f81359050611a0a816119e6565b92915050565b5f8060408385031215611a2657611a25611602565b5b5f611a33858286016119fc565b9250506020611a448582860161194f565b9150509250929050565b611a5781611801565b82525050565b5f81519050919050565b5f82825260208201905092915050565b8281835e5f83830152505050565b5f611a8f82611a5d565b611a998185611a67565b9350611aa9818560208601611a77565b611ab281611645565b840191505092915050565b611ac681611930565b82525050565b5f8115159050919050565b611ae081611acc565b82525050565b5f61016082019050611afa5f83018e611a4e565b8181036020830152611b0c818d611a85565b9050611b1b604083018c6119be565b611b28606083018b6119be565b8181036080830152611b3a818a611a85565b905081810360a0830152611b4e8189611a85565b9050611b5d60c0830188611abd565b611b6a60e0830187611abd565b611b78610100830186611abd565b611b86610120830185611abd565b611b94610140830184611ad7565b9c9b505050505050505050505050565b5f60ff82169050919050565b611bb981611ba4565b8114611bc3575f80fd5b50565b5f81359050611bd481611bb0565b92915050565b5f805f805f8060c08789031215611bf457611bf3611602565b5b5f611c0189828a01611824565b965050602087013567ffffffffffffffff811115611c2257611c21611606565b5b611c2e89828a016118a9565b955050604087013567ffffffffffffffff811115611c4f57611c4e611606565b5b611c5b89828a016118a9565b945050606087013567ffffffffffffffff811115611c7c57611c7b611606565b5b611c8889828a016118a9565b9350506080611c9989828a0161194f565b92505060a0611caa89828a01611bc6565b9150509295509295509295565b7f4e487b71000000000000000000000000000000000000000000000000000000005f52603260045260245ffd5b7f4e487b71000000000000000000000000000000000000000000000000000000005f52601160045260245ffd5b5f611d1b82611930565b9150611d2683611930565b9250828202611d3481611930565b91508282048414831517611d4b57611d4a611ce4565b5b5092915050565b5f81905092915050565b50565b5f611d6a5f83611d52565b9150611d7582611d5c565b5f82019050919050565b5f611d8982611d5f565b9150819050919050565b7f4661696c656420746f2073656e642045746865720000000000000000000000005f82015250565b5f611dc7601483611a67565b9150611dd282611d93565b602082019050919050565b5f6020820190508181035f830152611df481611dbb565b9050919050565b5f611e0582611930565b9150611e1083611930565b9250828203905081811115611e2857611e27611ce4565b5b92915050565b5f611e3882611930565b9150611e4383611930565b9250828201905080821115611e5b57611e5a611ce4565b5b92915050565b7f4e487b71000000000000000000000000000000000000000000000000000000005f52602260045260245ffd5b5f6002820490506001821680611ea557607f821691505b602082108103611eb857611eb7611e61565b5b50919050565b5f81549050611ecc81611e8e565b9050919050565b5f819050815f5260205f209050919050565b5f6020601f8301049050919050565b5f82821b905092915050565b5f60088302611f2f7fffffffffffffffffffffffffffffffffffffffffffffffffffffffffffffffff82611ef4565b611f398683611ef4565b95508019841693508086168417925050509392505050565b5f819050919050565b5f611f74611f6f611f6a84611930565b611f51565b611930565b9050919050565b5f819050919050565b611f8d83611f5a565b611fa1611f9982611f7b565b848454611f00565b825550505050565b5f90565b611fb5611fa9565b611fc0818484611f84565b505050565b5b81811015611fe357611fd85f82611fad565b600181019050611fc6565b5050565b601f82111561202857611ff981611ed3565b61200284611ee5565b81016020851015612011578190505b61202561201d85611ee5565b830182611fc5565b50505b505050565b5f82821c905092915050565b5f6120485f198460080261202d565b1980831691505092915050565b5f6120608383612039565b9150826002028217905092915050565b81810361207e575050612153565b61208782611ebe565b67ffffffffffffffff8111156120a05761209f611655565b5b6120aa8254611e8e565b6120b5828285611fe7565b5f601f8311600181146120e2575f84156120d0578287015490505b6120da8582612055565b86555061214c565b601f1984166120f087611ed3565b96506120fb86611ed3565b5f5b82811015612122578489015482556001820191506001850194506020810190506120fd565b8683101561213f578489015461213b601f891682612039565b8355505b6001600288020188555050505b5050505050505b565b7f4e487b71000000000000000000000000000000000000000000000000000000005f52603160045260245ffd5b5f61218c82611ba4565b915061219783611ba4565b92508282026121a581611ba4565b91508082146121b7576121b6611ce4565b5b5092915050565b6121c782611a5d565b67ffffffffffffffff8111156121e0576121df611655565b5b6121ea8254611e8e565b6121f5828285611fe7565b5f60209050601f831160018114612226575f8415612214578287015190505b61221e8582612055565b865550612285565b601f19841661223486611ed3565b5f5b8281101561225b57848901518255600182019150602085019450602081019050612236565b868310156122785784890151612274601f891682612039565b8355505b6001600288020188555050505b505050505050565b5f819050815f5260205f209050919050565b5f81546122ab81611e8e565b6122b58186611d52565b9450600182165f81146122cf57600181146122e457612316565b60ff1983168652811515820286019350612316565b6122ed8561228d565b5f5b8381101561230e578154818901526001820191506020810190506122ef565b838801955050505b50505092915050565b5f61232a828461229f565b915081905092915050565b5f81905092915050565b5f61234982611a5d565b6123538185612335565b9350612363818560208601611a77565b80840191505092915050565b5f61237a828e61233f565b9150612386828d61233f565b9150612392828c61233f565b915061239e828b61233f565b91506123aa828a61233f565b91506123b6828961233f565b91506123c2828861233f565b91506123ce828761233f565b91506123da828661233f565b91506123e6828561233f565b91506123f2828461233f565b91508190509c9b505050505050505050505050565b5f61241182611ba4565b91505f820361242357612422611ce4565b5b600182039050919050565b5f61243882611ba4565b915061244383611ba4565b9250828203905060ff81111561245c5761245b611ce4565b5b92915050565b7f4e487b71000000000000000000000000000000000000000000000000000000005f52601260045260245ffd5b5f61249982611930565b91506124a483611930565b9250826124b4576124b3612462565b5b82820690509291505056fea26469706673582212203a7bf0c8291a344a5cf250d784e7da588ad03dd9c068c246e5af0cb20ba7c03e64736f6c634300081a0033",
			"opcodes": "PUSH1 0xA0 PUSH1 0x40 MSTORE PUSH20 0xB83E47C2BC239B3BF370BC41E1459A34B41238D0 PUSH1 0x1 PUSH0 PUSH2 0x100 EXP DUP2 SLOAD DUP2 PUSH20 0xFFFFFFFFFFFFFFFFFFFFFFFFFFFFFFFFFFFFFFFF MUL NOT AND SWAP1 DUP4 PUSH20 0xFFFFFFFFFFFFFFFFFFFFFFFFFFFFFFFFFFFFFFFF AND MUL OR SWAP1 SSTORE POP PUSH32 0x66756E2D657468657265756D2D7365706F6C69612D3100000000000000000000 PUSH0 SHL PUSH1 0x2 SSTORE PUSH3 0x493E0 PUSH1 0x3 PUSH0 PUSH2 0x100 EXP DUP2 SLOAD DUP2 PUSH4 0xFFFFFFFF MUL NOT AND SWAP1 DUP4 PUSH4 0xFFFFFFFF AND MUL OR SWAP1 SSTORE POP CALLVALUE DUP1 ISZERO PUSH2 0xAC JUMPI PUSH0 DUP1 REVERT JUMPDEST POP PUSH1 0x1 PUSH0 SWAP1 SLOAD SWAP1 PUSH2 0x100 EXP SWAP1 DIV PUSH20 0xFFFFFFFFFFFFFFFFFFFFFFFFFFFFFFFFFFFFFFFF AND DUP1 PUSH20 0xFFFFFFFFFFFFFFFFFFFFFFFFFFFFFFFFFFFFFFFF AND PUSH1 0x80 DUP2 PUSH20 0xFFFFFFFFFFFFFFFFFFFFFFFFFFFFFFFFFFFFFFFF AND DUP2 MSTORE POP POP POP CALLER PUSH0 DUP1 PUSH2 0x100 EXP DUP2 SLOAD DUP2 PUSH20 0xFFFFFFFFFFFFFFFFFFFFFFFFFFFFFFFFFFFFFFFF MUL NOT AND SWAP1 DUP4 PUSH20 0xFFFFFFFFFFFFFFFFFFFFFFFFFFFFFFFFFFFFFFFF AND MUL OR SWAP1 SSTORE POP PUSH1 0x80 MLOAD PUSH2 0x24F5 PUSH2 0x15B PUSH0 CODECOPY PUSH0 PUSH2 0x1D7 ADD MSTORE PUSH2 0x24F5 PUSH0 RETURN INVALID PUSH1 0x80 PUSH1 0x40 MSTORE PUSH1 0x4 CALLDATASIZE LT PUSH2 0x85 JUMPI PUSH0 CALLDATALOAD PUSH1 0xE0 SHR DUP1 PUSH4 0x8DA5CB5B GT PUSH2 0x58 JUMPI DUP1 PUSH4 0x8DA5CB5B EQ PUSH2 0x111 JUMPI DUP1 PUSH4 0xA9059CBB EQ PUSH2 0x13B JUMPI DUP1 PUSH4 0xB58BE5DF EQ PUSH2 0x157 JUMPI DUP1 PUSH4 0xE0FC94B0 EQ PUSH2 0x19D JUMPI DUP1 PUSH4 0xEDC509AF EQ PUSH2 0x1B9 JUMPI PUSH2 0x85 JUMP JUMPDEST DUP1 PUSH4 0xCA76175 EQ PUSH2 0x89 JUMPI DUP1 PUSH4 0x1D6D5B6E EQ PUSH2 0xB1 JUMPI DUP1 PUSH4 0x4188B719 EQ PUSH2 0xCD JUMPI DUP1 PUSH4 0x68892BF4 EQ PUSH2 0xF5 JUMPI JUMPDEST PUSH0 DUP1 REVERT JUMPDEST CALLVALUE DUP1 ISZERO PUSH2 0x94 JUMPI PUSH0 DUP1 REVERT JUMPDEST POP PUSH2 0xAF PUSH1 0x4 DUP1 CALLDATASIZE SUB DUP2 ADD SWAP1 PUSH2 0xAA SWAP2 SWAP1 PUSH2 0x1779 JUMP JUMPDEST PUSH2 0x1D5 JUMP JUMPDEST STOP JUMPDEST PUSH2 0xCB PUSH1 0x4 DUP1 CALLDATASIZE SUB DUP2 ADD SWAP1 PUSH2 0xC6 SWAP2 SWAP1 PUSH2 0x18D6 JUMP JUMPDEST PUSH2 0x297 JUMP JUMPDEST STOP JUMPDEST CALLVALUE DUP1 ISZERO PUSH2 0xD8 JUMPI PUSH0 DUP1 REVERT JUMPDEST POP PUSH2 0xF3 PUSH1 0x4 DUP1 CALLDATASIZE SUB DUP2 ADD SWAP1 PUSH2 0xEE SWAP2 SWAP1 PUSH2 0x1963 JUMP JUMPDEST PUSH2 0x44D JUMP JUMPDEST STOP JUMPDEST PUSH2 0x10F PUSH1 0x4 DUP1 CALLDATASIZE SUB DUP2 ADD SWAP1 PUSH2 0x10A SWAP2 SWAP1 PUSH2 0x18D6 JUMP JUMPDEST PUSH2 0x748 JUMP JUMPDEST STOP JUMPDEST CALLVALUE DUP1 ISZERO PUSH2 0x11C JUMPI PUSH0 DUP1 REVERT JUMPDEST POP PUSH2 0x125 PUSH2 0x7BB JUMP JUMPDEST PUSH1 0x40 MLOAD PUSH2 0x132 SWAP2 SWAP1 PUSH2 0x19CD JUMP JUMPDEST PUSH1 0x40 MLOAD DUP1 SWAP2 SUB SWAP1 RETURN JUMPDEST PUSH2 0x155 PUSH1 0x4 DUP1 CALLDATASIZE SUB DUP2 ADD SWAP1 PUSH2 0x150 SWAP2 SWAP1 PUSH2 0x1A10 JUMP JUMPDEST PUSH2 0x7DE JUMP JUMPDEST STOP JUMPDEST CALLVALUE DUP1 ISZERO PUSH2 0x162 JUMPI PUSH0 DUP1 REVERT JUMPDEST POP PUSH2 0x17D PUSH1 0x4 DUP1 CALLDATASIZE SUB DUP2 ADD SWAP1 PUSH2 0x178 SWAP2 SWAP1 PUSH2 0x1963 JUMP JUMPDEST PUSH2 0x8E4 JUMP JUMPDEST PUSH1 0x40 MLOAD PUSH2 0x194 SWAP12 SWAP11 SWAP10 SWAP9 SWAP8 SWAP7 SWAP6 SWAP5 SWAP4 SWAP3 SWAP2 SWAP1 PUSH2 0x1AE6 JUMP JUMPDEST PUSH1 0x40 MLOAD DUP1 SWAP2 SUB SWAP1 RETURN JUMPDEST PUSH2 0x1B7 PUSH1 0x4 DUP1 CALLDATASIZE SUB DUP2 ADD SWAP1 PUSH2 0x1B2 SWAP2 SWAP1 PUSH2 0x1BDA JUMP JUMPDEST PUSH2 0xB32 JUMP JUMPDEST STOP JUMPDEST PUSH2 0x1D3 PUSH1 0x4 DUP1 CALLDATASIZE SUB DUP2 ADD SWAP1 PUSH2 0x1CE SWAP2 SWAP1 PUSH2 0x18D6 JUMP JUMPDEST PUSH2 0xD9A JUMP JUMPDEST STOP JUMPDEST PUSH32 0x0 PUSH20 0xFFFFFFFFFFFFFFFFFFFFFFFFFFFFFFFFFFFFFFFF AND CALLER PUSH20 0xFFFFFFFFFFFFFFFFFFFFFFFFFFFFFFFFFFFFFFFF AND EQ PUSH2 0x25A JUMPI PUSH1 0x40 MLOAD PUSH32 0xC6829F8300000000000000000000000000000000000000000000000000000000 DUP2 MSTORE PUSH1 0x4 ADD PUSH1 0x40 MLOAD DUP1 SWAP2 SUB SWAP1 REVERT JUMPDEST PUSH2 0x265 DUP4 DUP4 DUP4 PUSH2 0xFC9 JUMP JUMPDEST DUP3 PUSH32 0x85E1543BF2F84FE80C6BADBCE3648C8539AD1DF4D2B3D822938CA0538BE727E6 PUSH1 0x40 MLOAD PUSH1 0x40 MLOAD DUP1 SWAP2 SUB SWAP1 LOG2 POP POP POP JUMP JUMPDEST PUSH0 PUSH2 0x2A2 DUP4 DUP4 PUSH2 0xFCE JUMP JUMPDEST SWAP1 POP CALLER PUSH20 0xFFFFFFFFFFFFFFFFFFFFFFFFFFFFFFFFFFFFFFFF AND PUSH1 0x4 DUP3 DUP2 SLOAD DUP2 LT PUSH2 0x2CF JUMPI PUSH2 0x2CE PUSH2 0x1CB7 JUMP JUMPDEST JUMPDEST SWAP1 PUSH0 MSTORE PUSH1 0x20 PUSH0 KECCAK256 SWAP1 PUSH1 0xB MUL ADD PUSH1 0x2 ADD PUSH0 SWAP1 SLOAD SWAP1 PUSH2 0x100 EXP SWAP1 DIV PUSH20 0xFFFFFFFFFFFFFFFFFFFFFFFFFFFFFFFFFFFFFFFF AND PUSH20 0xFFFFFFFFFFFFFFFFFFFFFFFFFFFFFFFFFFFFFFFF AND EQ PUSH2 0x31D JUMPI PUSH0 DUP1 REVERT JUMPDEST PUSH0 PUSH1 0x2 PUSH1 0x4 DUP4 DUP2 SLOAD DUP2 LT PUSH2 0x334 JUMPI PUSH2 0x333 PUSH2 0x1CB7 JUMP JUMPDEST JUMPDEST SWAP1 PUSH0 MSTORE PUSH1 0x20 PUSH0 KECCAK256 SWAP1 PUSH1 0xB MUL ADD PUSH1 0x6 ADD SLOAD PUSH2 0x34E SWAP2 SWAP1 PUSH2 0x1D11 JUMP JUMPDEST SWAP1 POP PUSH0 DUP1 PUSH1 0x4 DUP5 DUP2 SLOAD DUP2 LT PUSH2 0x366 JUMPI PUSH2 0x365 PUSH2 0x1CB7 JUMP JUMPDEST JUMPDEST SWAP1 PUSH0 MSTORE PUSH1 0x20 PUSH0 KECCAK256 SWAP1 PUSH1 0xB MUL ADD PUSH1 0x3 ADD PUSH0 SWAP1 SLOAD SWAP1 PUSH2 0x100 EXP SWAP1 DIV PUSH20 0xFFFFFFFFFFFFFFFFFFFFFFFFFFFFFFFFFFFFFFFF AND PUSH20 0xFFFFFFFFFFFFFFFFFFFFFFFFFFFFFFFFFFFFFFFF AND DUP4 PUSH1 0x40 MLOAD PUSH2 0x3B8 SWAP1 PUSH2 0x1D7F JUMP JUMPDEST PUSH0 PUSH1 0x40 MLOAD DUP1 DUP4 SUB DUP2 DUP6 DUP8 GAS CALL SWAP3 POP POP POP RETURNDATASIZE DUP1 PUSH0 DUP2 EQ PUSH2 0x3F2 JUMPI PUSH1 0x40 MLOAD SWAP2 POP PUSH1 0x1F NOT PUSH1 0x3F RETURNDATASIZE ADD AND DUP3 ADD PUSH1 0x40 MSTORE RETURNDATASIZE DUP3 MSTORE RETURNDATASIZE PUSH0 PUSH1 0x20 DUP5 ADD RETURNDATACOPY PUSH2 0x3F7 JUMP JUMPDEST PUSH1 0x60 SWAP2 POP JUMPDEST POP SWAP2 POP SWAP2 POP DUP2 PUSH2 0x43C JUMPI PUSH1 0x40 MLOAD PUSH32 0x8C379A000000000000000000000000000000000000000000000000000000000 DUP2 MSTORE PUSH1 0x4 ADD PUSH2 0x433 SWAP1 PUSH2 0x1DDD JUMP JUMPDEST PUSH1 0x40 MLOAD DUP1 SWAP2 SUB SWAP1 REVERT JUMPDEST PUSH2 0x445 DUP5 PUSH2 0x44D JUMP JUMPDEST POP POP POP POP POP POP JUMP JUMPDEST PUSH1 0x4 DUP1 SLOAD SWAP1 POP DUP2 LT PUSH2 0x45D JUMPI PUSH0 DUP1 REVERT JUMPDEST PUSH0 DUP2 SWAP1 POP JUMPDEST PUSH1 0x1 PUSH1 0x4 DUP1 SLOAD SWAP1 POP PUSH2 0x474 SWAP2 SWAP1 PUSH2 0x1DFB JUMP JUMPDEST DUP2 LT ISZERO PUSH2 0x660 JUMPI PUSH1 0x4 PUSH1 0x1 DUP3 PUSH2 0x48A SWAP2 SWAP1 PUSH2 0x1E2E JUMP JUMPDEST DUP2 SLOAD DUP2 LT PUSH2 0x49B JUMPI PUSH2 0x49A PUSH2 0x1CB7 JUMP JUMPDEST JUMPDEST SWAP1 PUSH0 MSTORE PUSH1 0x20 PUSH0 KECCAK256 SWAP1 PUSH1 0xB MUL ADD PUSH1 0x4 DUP3 DUP2 SLOAD DUP2 LT PUSH2 0x4BB JUMPI PUSH2 0x4BA PUSH2 0x1CB7 JUMP JUMPDEST JUMPDEST SWAP1 PUSH0 MSTORE PUSH1 0x20 PUSH0 KECCAK256 SWAP1 PUSH1 0xB MUL ADD PUSH0 DUP3 ADD PUSH0 SWAP1 SLOAD SWAP1 PUSH2 0x100 EXP SWAP1 DIV PUSH2 0xFFFF AND DUP2 PUSH0 ADD PUSH0 PUSH2 0x100 EXP DUP2 SLOAD DUP2 PUSH2 0xFFFF MUL NOT AND SWAP1 DUP4 PUSH2 0xFFFF AND MUL OR SWAP1 SSTORE POP PUSH1 0x1 DUP3 ADD DUP2 PUSH1 0x1 ADD SWAP1 DUP2 PUSH2 0x508 SWAP2 SWAP1 PUSH2 0x2070 JUMP JUMPDEST POP PUSH1 0x2 DUP3 ADD PUSH0 SWAP1 SLOAD SWAP1 PUSH2 0x100 EXP SWAP1 DIV PUSH20 0xFFFFFFFFFFFFFFFFFFFFFFFFFFFFFFFFFFFFFFFF AND DUP2 PUSH1 0x2 ADD PUSH0 PUSH2 0x100 EXP DUP2 SLOAD DUP2 PUSH20 0xFFFFFFFFFFFFFFFFFFFFFFFFFFFFFFFFFFFFFFFF MUL NOT AND SWAP1 DUP4 PUSH20 0xFFFFFFFFFFFFFFFFFFFFFFFFFFFFFFFFFFFFFFFF AND MUL OR SWAP1 SSTORE POP PUSH1 0x3 DUP3 ADD PUSH0 SWAP1 SLOAD SWAP1 PUSH2 0x100 EXP SWAP1 DIV PUSH20 0xFFFFFFFFFFFFFFFFFFFFFFFFFFFFFFFFFFFFFFFF AND DUP2 PUSH1 0x3 ADD PUSH0 PUSH2 0x100 EXP DUP2 SLOAD DUP2 PUSH20 0xFFFFFFFFFFFFFFFFFFFFFFFFFFFFFFFFFFFFFFFF MUL NOT AND SWAP1 DUP4 PUSH20 0xFFFFFFFFFFFFFFFFFFFFFFFFFFFFFFFFFFFFFFFF AND MUL OR SWAP1 SSTORE POP PUSH1 0x4 DUP3 ADD DUP2 PUSH1 0x4 ADD SWAP1 DUP2 PUSH2 0x5E7 SWAP2 SWAP1 PUSH2 0x2070 JUMP JUMPDEST POP PUSH1 0x5 DUP3 ADD DUP2 PUSH1 0x5 ADD SWAP1 DUP2 PUSH2 0x5FC SWAP2 SWAP1 PUSH2 0x2070 JUMP JUMPDEST POP PUSH1 0x6 DUP3 ADD SLOAD DUP2 PUSH1 0x6 ADD SSTORE PUSH1 0x7 DUP3 ADD SLOAD DUP2 PUSH1 0x7 ADD SSTORE PUSH1 0x8 DUP3 ADD SLOAD DUP2 PUSH1 0x8 ADD SSTORE PUSH1 0x9 DUP3 ADD SLOAD DUP2 PUSH1 0x9 ADD SSTORE PUSH1 0xA DUP3 ADD PUSH0 SWAP1 SLOAD SWAP1 PUSH2 0x100 EXP SWAP1 DIV PUSH1 0xFF AND DUP2 PUSH1 0xA ADD PUSH0 PUSH2 0x100 EXP DUP2 SLOAD DUP2 PUSH1 0xFF MUL NOT AND SWAP1 DUP4 ISZERO ISZERO MUL OR SWAP1 SSTORE POP SWAP1 POP POP DUP1 DUP1 PUSH1 0x1 ADD SWAP2 POP POP PUSH2 0x462 JUMP JUMPDEST POP PUSH1 0x4 DUP1 SLOAD DUP1 PUSH2 0x673 JUMPI PUSH2 0x672 PUSH2 0x2155 JUMP JUMPDEST JUMPDEST PUSH1 0x1 SWAP1 SUB DUP2 DUP2 SWAP1 PUSH0 MSTORE PUSH1 0x20 PUSH0 KECCAK256 SWAP1 PUSH1 0xB MUL ADD PUSH0 DUP1 DUP3 ADD PUSH0 PUSH2 0x100 EXP DUP2 SLOAD SWAP1 PUSH2 0xFFFF MUL NOT AND SWAP1 SSTORE PUSH1 0x1 DUP3 ADD PUSH0 PUSH2 0x6A8 SWAP2 SWAP1 PUSH2 0x151D JUMP JUMPDEST PUSH1 0x2 DUP3 ADD PUSH0 PUSH2 0x100 EXP DUP2 SLOAD SWAP1 PUSH20 0xFFFFFFFFFFFFFFFFFFFFFFFFFFFFFFFFFFFFFFFF MUL NOT AND SWAP1 SSTORE PUSH1 0x3 DUP3 ADD PUSH0 PUSH2 0x100 EXP DUP2 SLOAD SWAP1 PUSH20 0xFFFFFFFFFFFFFFFFFFFFFFFFFFFFFFFFFFFFFFFF MUL NOT AND SWAP1 SSTORE PUSH1 0x4 DUP3 ADD PUSH0 PUSH2 0x703 SWAP2 SWAP1 PUSH2 0x151D JUMP JUMPDEST PUSH1 0x5 DUP3 ADD PUSH0 PUSH2 0x712 SWAP2 SWAP1 PUSH2 0x151D JUMP JUMPDEST PUSH1 0x6 DUP3 ADD PUSH0 SWAP1 SSTORE PUSH1 0x7 DUP3 ADD PUSH0 SWAP1 SSTORE PUSH1 0x8 DUP3 ADD PUSH0 SWAP1 SSTORE PUSH1 0x9 DUP3 ADD PUSH0 SWAP1 SSTORE PUSH1 0xA DUP3 ADD PUSH0 PUSH2 0x100 EXP DUP2 SLOAD SWAP1 PUSH1 0xFF MUL NOT AND SWAP1 SSTORE POP POP SWAP1 SSTORE POP JUMP JUMPDEST PUSH0 PUSH2 0x753 DUP4 DUP4 PUSH2 0xFCE JUMP JUMPDEST SWAP1 POP CALLER PUSH1 0x4 DUP3 DUP2 SLOAD DUP2 LT PUSH2 0x76A JUMPI PUSH2 0x769 PUSH2 0x1CB7 JUMP JUMPDEST JUMPDEST SWAP1 PUSH0 MSTORE PUSH1 0x20 PUSH0 KECCAK256 SWAP1 PUSH1 0xB MUL ADD PUSH1 0x2 ADD PUSH0 PUSH2 0x100 EXP DUP2 SLOAD DUP2 PUSH20 0xFFFFFFFFFFFFFFFFFFFFFFFFFFFFFFFFFFFFFFFF MUL NOT AND SWAP1 DUP4 PUSH20 0xFFFFFFFFFFFFFFFFFFFFFFFFFFFFFFFFFFFFFFFF AND MUL OR SWAP1 SSTORE POP POP POP POP JUMP JUMPDEST PUSH0 DUP1 SLOAD SWAP1 PUSH2 0x100 EXP SWAP1 DIV PUSH20 0xFFFFFFFFFFFFFFFFFFFFFFFFFFFFFFFFFFFFFFFF AND DUP2 JUMP JUMPDEST PUSH0 DUP1 SLOAD SWAP1 PUSH2 0x100 EXP SWAP1 DIV PUSH20 0xFFFFFFFFFFFFFFFFFFFFFFFFFFFFFFFFFFFFFFFF AND PUSH20 0xFFFFFFFFFFFFFFFFFFFFFFFFFFFFFFFFFFFFFFFF AND CALLER PUSH20 0xFFFFFFFFFFFFFFFFFFFFFFFFFFFFFFFFFFFFFFFF AND EQ PUSH2 0x834 JUMPI PUSH0 DUP1 REVERT JUMPDEST PUSH0 DUP1 DUP4 PUSH20 0xFFFFFFFFFFFFFFFFFFFFFFFFFFFFFFFFFFFFFFFF AND DUP4 PUSH1 0x40 MLOAD PUSH2 0x85A SWAP1 PUSH2 0x1D7F JUMP JUMPDEST PUSH0 PUSH1 0x40 MLOAD DUP1 DUP4 SUB DUP2 DUP6 DUP8 GAS CALL SWAP3 POP POP POP RETURNDATASIZE DUP1 PUSH0 DUP2 EQ PUSH2 0x894 JUMPI PUSH1 0x40 MLOAD SWAP2 POP PUSH1 0x1F NOT PUSH1 0x3F RETURNDATASIZE ADD AND DUP3 ADD PUSH1 0x40 MSTORE RETURNDATASIZE DUP3 MSTORE RETURNDATASIZE PUSH0 PUSH1 0x20 DUP5 ADD RETURNDATACOPY PUSH2 0x899 JUMP JUMPDEST PUSH1 0x60 SWAP2 POP JUMPDEST POP SWAP2 POP SWAP2 POP DUP2 PUSH2 0x8DE JUMPI PUSH1 0x40 MLOAD PUSH32 0x8C379A000000000000000000000000000000000000000000000000000000000 DUP2 MSTORE PUSH1 0x4 ADD PUSH2 0x8D5 SWAP1 PUSH2 0x1DDD JUMP JUMPDEST PUSH1 0x40 MLOAD DUP1 SWAP2 SUB SWAP1 REVERT JUMPDEST POP POP POP POP JUMP JUMPDEST PUSH1 0x4 DUP2 DUP2 SLOAD DUP2 LT PUSH2 0x8F3 JUMPI PUSH0 DUP1 REVERT JUMPDEST SWAP1 PUSH0 MSTORE PUSH1 0x20 PUSH0 KECCAK256 SWAP1 PUSH1 0xB MUL ADD PUSH0 SWAP2 POP SWAP1 POP DUP1 PUSH0 ADD PUSH0 SWAP1 SLOAD SWAP1 PUSH2 0x100 EXP SWAP1 DIV PUSH2 0xFFFF AND SWAP1 DUP1 PUSH1 0x1 ADD DUP1 SLOAD PUSH2 0x925 SWAP1 PUSH2 0x1E8E JUMP JUMPDEST DUP1 PUSH1 0x1F ADD PUSH1 0x20 DUP1 SWAP2 DIV MUL PUSH1 0x20 ADD PUSH1 0x40 MLOAD SWAP1 DUP2 ADD PUSH1 0x40 MSTORE DUP1 SWAP3 SWAP2 SWAP1 DUP2 DUP2 MSTORE PUSH1 0x20 ADD DUP3 DUP1 SLOAD PUSH2 0x951 SWAP1 PUSH2 0x1E8E JUMP JUMPDEST DUP1 ISZERO PUSH2 0x99C JUMPI DUP1 PUSH1 0x1F LT PUSH2 0x973 JUMPI PUSH2 0x100 DUP1 DUP4 SLOAD DIV MUL DUP4 MSTORE SWAP2 PUSH1 0x20 ADD SWAP2 PUSH2 0x99C JUMP JUMPDEST DUP3 ADD SWAP2 SWAP1 PUSH0 MSTORE PUSH1 0x20 PUSH0 KECCAK256 SWAP1 JUMPDEST DUP2 SLOAD DUP2 MSTORE SWAP1 PUSH1 0x1 ADD SWAP1 PUSH1 0x20 ADD DUP1 DUP4 GT PUSH2 0x97F JUMPI DUP3 SWAP1 SUB PUSH1 0x1F AND DUP3 ADD SWAP2 JUMPDEST POP POP POP POP POP SWAP1 DUP1 PUSH1 0x2 ADD PUSH0 SWAP1 SLOAD SWAP1 PUSH2 0x100 EXP SWAP1 DIV PUSH20 0xFFFFFFFFFFFFFFFFFFFFFFFFFFFFFFFFFFFFFFFF AND SWAP1 DUP1 PUSH1 0x3 ADD PUSH0 SWAP1 SLOAD SWAP1 PUSH2 0x100 EXP SWAP1 DIV PUSH20 0xFFFFFFFFFFFFFFFFFFFFFFFFFFFFFFFFFFFFFFFF AND SWAP1 DUP1 PUSH1 0x4 ADD DUP1 SLOAD PUSH2 0x9FB SWAP1 PUSH2 0x1E8E JUMP JUMPDEST DUP1 PUSH1 0x1F ADD PUSH1 0x20 DUP1 SWAP2 DIV MUL PUSH1 0x20 ADD PUSH1 0x40 MLOAD SWAP1 DUP2 ADD PUSH1 0x40 MSTORE DUP1 SWAP3 SWAP2 SWAP1 DUP2 DUP2 MSTORE PUSH1 0x20 ADD DUP3 DUP1 SLOAD PUSH2 0xA27 SWAP1 PUSH2 0x1E8E JUMP JUMPDEST DUP1 ISZERO PUSH2 0xA72 JUMPI DUP1 PUSH1 0x1F LT PUSH2 0xA49 JUMPI PUSH2 0x100 DUP1 DUP4 SLOAD DIV MUL DUP4 MSTORE SWAP2 PUSH1 0x20 ADD SWAP2 PUSH2 0xA72 JUMP JUMPDEST DUP3 ADD SWAP2 SWAP1 PUSH0 MSTORE PUSH1 0x20 PUSH0 KECCAK256 SWAP1 JUMPDEST DUP2 SLOAD DUP2 MSTORE SWAP1 PUSH1 0x1 ADD SWAP1 PUSH1 0x20 ADD DUP1 DUP4 GT PUSH2 0xA55 JUMPI DUP3 SWAP1 SUB PUSH1 0x1F AND DUP3 ADD SWAP2 JUMPDEST POP POP POP POP POP SWAP1 DUP1 PUSH1 0x5 ADD DUP1 SLOAD PUSH2 0xA87 SWAP1 PUSH2 0x1E8E JUMP JUMPDEST DUP1 PUSH1 0x1F ADD PUSH1 0x20 DUP1 SWAP2 DIV MUL PUSH1 0x20 ADD PUSH1 0x40 MLOAD SWAP1 DUP2 ADD PUSH1 0x40 MSTORE DUP1 SWAP3 SWAP2 SWAP1 DUP2 DUP2 MSTORE PUSH1 0x20 ADD DUP3 DUP1 SLOAD PUSH2 0xAB3 SWAP1 PUSH2 0x1E8E JUMP JUMPDEST DUP1 ISZERO PUSH2 0xAFE JUMPI DUP1 PUSH1 0x1F LT PUSH2 0xAD5 JUMPI PUSH2 0x100 DUP1 DUP4 SLOAD DIV MUL DUP4 MSTORE SWAP2 PUSH1 0x20 ADD SWAP2 PUSH2 0xAFE JUMP JUMPDEST DUP3 ADD SWAP2 SWAP1 PUSH0 MSTORE PUSH1 0x20 PUSH0 KECCAK256 SWAP1 JUMPDEST DUP2 SLOAD DUP2 MSTORE SWAP1 PUSH1 0x1 ADD SWAP1 PUSH1 0x20 ADD DUP1 DUP4 GT PUSH2 0xAE1 JUMPI DUP3 SWAP1 SUB PUSH1 0x1F AND DUP3 ADD SWAP2 JUMPDEST POP POP POP POP POP SWAP1 DUP1 PUSH1 0x6 ADD SLOAD SWAP1 DUP1 PUSH1 0x7 ADD SLOAD SWAP1 DUP1 PUSH1 0x8 ADD SLOAD SWAP1 DUP1 PUSH1 0x9 ADD SLOAD SWAP1 DUP1 PUSH1 0xA ADD PUSH0 SWAP1 SLOAD SWAP1 PUSH2 0x100 EXP SWAP1 DIV PUSH1 0xFF AND SWAP1 POP DUP12 JUMP JUMPDEST PUSH2 0xB3B DUP5 PUSH2 0x1096 JUMP JUMPDEST PUSH2 0xB43 JUMPI PUSH0 DUP1 REVERT JUMPDEST PUSH2 0xB4C DUP4 PUSH2 0x1096 JUMP JUMPDEST PUSH2 0xB54 JUMPI PUSH0 DUP1 REVERT JUMPDEST PUSH2 0xB5C PUSH2 0x155A JUMP JUMPDEST DUP7 DUP2 PUSH0 ADD SWAP1 PUSH2 0xFFFF AND SWAP1 DUP2 PUSH2 0xFFFF AND DUP2 MSTORE POP POP DUP6 DUP2 PUSH1 0x20 ADD DUP2 SWAP1 MSTORE POP CALLER DUP2 PUSH1 0x60 ADD SWAP1 PUSH20 0xFFFFFFFFFFFFFFFFFFFFFFFFFFFFFFFFFFFFFFFF AND SWAP1 DUP2 PUSH20 0xFFFFFFFFFFFFFFFFFFFFFFFFFFFFFFFFFFFFFFFF AND DUP2 MSTORE POP POP DUP5 DUP2 PUSH1 0x80 ADD DUP2 SWAP1 MSTORE POP DUP4 DUP2 PUSH1 0xA0 ADD DUP2 SWAP1 MSTORE POP CALLVALUE DUP2 PUSH1 0xC0 ADD DUP2 DUP2 MSTORE POP POP DUP3 DUP2 PUSH1 0xE0 ADD DUP2 DUP2 MSTORE POP POP PUSH0 DUP2 PUSH2 0x140 ADD SWAP1 ISZERO ISZERO SWAP1 DUP2 ISZERO ISZERO DUP2 MSTORE POP POP PUSH1 0x3C DUP1 PUSH1 0x18 DUP5 PUSH2 0xBF7 SWAP2 SWAP1 PUSH2 0x2182 JUMP JUMPDEST PUSH2 0xC01 SWAP2 SWAP1 PUSH2 0x2182 JUMP JUMPDEST PUSH2 0xC0B SWAP2 SWAP1 PUSH2 0x2182 JUMP JUMPDEST PUSH1 0xFF AND TIMESTAMP PUSH2 0xC19 SWAP2 SWAP1 PUSH2 0x1E2E JUMP JUMPDEST DUP2 PUSH2 0x120 ADD DUP2 DUP2 MSTORE POP POP TIMESTAMP DUP2 PUSH2 0x100 ADD DUP2 DUP2 MSTORE POP POP PUSH1 0x4 DUP2 SWAP1 DUP1 PUSH1 0x1 DUP2 SLOAD ADD DUP1 DUP3 SSTORE DUP1 SWAP2 POP POP PUSH1 0x1 SWAP1 SUB SWAP1 PUSH0 MSTORE PUSH1 0x20 PUSH0 KECCAK256 SWAP1 PUSH1 0xB MUL ADD PUSH0 SWAP1 SWAP2 SWAP1 SWAP2 SWAP1 SWAP2 POP PUSH0 DUP3 ADD MLOAD DUP2 PUSH0 ADD PUSH0 PUSH2 0x100 EXP DUP2 SLOAD DUP2 PUSH2 0xFFFF MUL NOT AND SWAP1 DUP4 PUSH2 0xFFFF AND MUL OR SWAP1 SSTORE POP PUSH1 0x20 DUP3 ADD MLOAD DUP2 PUSH1 0x1 ADD SWAP1 DUP2 PUSH2 0xC8C SWAP2 SWAP1 PUSH2 0x21BE JUMP JUMPDEST POP PUSH1 0x40 DUP3 ADD MLOAD DUP2 PUSH1 0x2 ADD PUSH0 PUSH2 0x100 EXP DUP2 SLOAD DUP2 PUSH20 0xFFFFFFFFFFFFFFFFFFFFFFFFFFFFFFFFFFFFFFFF MUL NOT AND SWAP1 DUP4 PUSH20 0xFFFFFFFFFFFFFFFFFFFFFFFFFFFFFFFFFFFFFFFF AND MUL OR SWAP1 SSTORE POP PUSH1 0x60 DUP3 ADD MLOAD DUP2 PUSH1 0x3 ADD PUSH0 PUSH2 0x100 EXP DUP2 SLOAD DUP2 PUSH20 0xFFFFFFFFFFFFFFFFFFFFFFFFFFFFFFFFFFFFFFFF MUL NOT AND SWAP1 DUP4 PUSH20 0xFFFFFFFFFFFFFFFFFFFFFFFFFFFFFFFFFFFFFFFF AND MUL OR SWAP1 SSTORE POP PUSH1 0x80 DUP3 ADD MLOAD DUP2 PUSH1 0x4 ADD SWAP1 DUP2 PUSH2 0xD2E SWAP2 SWAP1 PUSH2 0x21BE JUMP JUMPDEST POP PUSH1 0xA0 DUP3 ADD MLOAD DUP2 PUSH1 0x5 ADD SWAP1 DUP2 PUSH2 0xD44 SWAP2 SWAP1 PUSH2 0x21BE JUMP JUMPDEST POP PUSH1 0xC0 DUP3 ADD MLOAD DUP2 PUSH1 0x6 ADD SSTORE PUSH1 0xE0 DUP3 ADD MLOAD DUP2 PUSH1 0x7 ADD SSTORE PUSH2 0x100 DUP3 ADD MLOAD DUP2 PUSH1 0x8 ADD SSTORE PUSH2 0x120 DUP3 ADD MLOAD DUP2 PUSH1 0x9 ADD SSTORE PUSH2 0x140 DUP3 ADD MLOAD DUP2 PUSH1 0xA ADD PUSH0 PUSH2 0x100 EXP DUP2 SLOAD DUP2 PUSH1 0xFF MUL NOT AND SWAP1 DUP4 ISZERO ISZERO MUL OR SWAP1 SSTORE POP POP POP POP POP POP POP POP POP POP JUMP JUMPDEST PUSH0 PUSH2 0xDA5 DUP4 DUP4 PUSH2 0xFCE JUMP JUMPDEST SWAP1 POP CALLER PUSH20 0xFFFFFFFFFFFFFFFFFFFFFFFFFFFFFFFFFFFFFFFF AND PUSH1 0x4 DUP3 DUP2 SLOAD DUP2 LT PUSH2 0xDD2 JUMPI PUSH2 0xDD1 PUSH2 0x1CB7 JUMP JUMPDEST JUMPDEST SWAP1 PUSH0 MSTORE PUSH1 0x20 PUSH0 KECCAK256 SWAP1 PUSH1 0xB MUL ADD PUSH1 0x3 ADD PUSH0 SWAP1 SLOAD SWAP1 PUSH2 0x100 EXP SWAP1 DIV PUSH20 0xFFFFFFFFFFFFFFFFFFFFFFFFFFFFFFFFFFFFFFFF AND PUSH20 0xFFFFFFFFFFFFFFFFFFFFFFFFFFFFFFFFFFFFFFFF AND EQ PUSH2 0xE20 JUMPI PUSH0 DUP1 REVERT JUMPDEST PUSH0 PUSH20 0xFFFFFFFFFFFFFFFFFFFFFFFFFFFFFFFFFFFFFFFF AND PUSH1 0x4 DUP3 DUP2 SLOAD DUP2 LT PUSH2 0xE4B JUMPI PUSH2 0xE4A PUSH2 0x1CB7 JUMP JUMPDEST JUMPDEST SWAP1 PUSH0 MSTORE PUSH1 0x20 PUSH0 KECCAK256 SWAP1 PUSH1 0xB MUL ADD PUSH1 0x2 ADD PUSH0 SWAP1 SLOAD SWAP1 PUSH2 0x100 EXP SWAP1 DIV PUSH20 0xFFFFFFFFFFFFFFFFFFFFFFFFFFFFFFFFFFFFFFFF AND PUSH20 0xFFFFFFFFFFFFFFFFFFFFFFFFFFFFFFFFFFFFFFFF AND SUB PUSH2 0xE99 JUMPI PUSH0 DUP1 REVERT JUMPDEST PUSH0 PUSH1 0x2 PUSH1 0x4 DUP4 DUP2 SLOAD DUP2 LT PUSH2 0xEB0 JUMPI PUSH2 0xEAF PUSH2 0x1CB7 JUMP JUMPDEST JUMPDEST SWAP1 PUSH0 MSTORE PUSH1 0x20 PUSH0 KECCAK256 SWAP1 PUSH1 0xB MUL ADD PUSH1 0x6 ADD SLOAD PUSH2 0xECA SWAP2 SWAP1 PUSH2 0x1D11 JUMP JUMPDEST SWAP1 POP PUSH0 DUP1 PUSH1 0x4 DUP5 DUP2 SLOAD DUP2 LT PUSH2 0xEE2 JUMPI PUSH2 0xEE1 PUSH2 0x1CB7 JUMP JUMPDEST JUMPDEST SWAP1 PUSH0 MSTORE PUSH1 0x20 PUSH0 KECCAK256 SWAP1 PUSH1 0xB MUL ADD PUSH1 0x2 ADD PUSH0 SWAP1 SLOAD SWAP1 PUSH2 0x100 EXP SWAP1 DIV PUSH20 0xFFFFFFFFFFFFFFFFFFFFFFFFFFFFFFFFFFFFFFFF AND PUSH20 0xFFFFFFFFFFFFFFFFFFFFFFFFFFFFFFFFFFFFFFFF AND DUP4 PUSH1 0x40 MLOAD PUSH2 0xF34 SWAP1 PUSH2 0x1D7F JUMP JUMPDEST PUSH0 PUSH1 0x40 MLOAD DUP1 DUP4 SUB DUP2 DUP6 DUP8 GAS CALL SWAP3 POP POP POP RETURNDATASIZE DUP1 PUSH0 DUP2 EQ PUSH2 0xF6E JUMPI PUSH1 0x40 MLOAD SWAP2 POP PUSH1 0x1F NOT PUSH1 0x3F RETURNDATASIZE ADD AND DUP3 ADD PUSH1 0x40 MSTORE RETURNDATASIZE DUP3 MSTORE RETURNDATASIZE PUSH0 PUSH1 0x20 DUP5 ADD RETURNDATACOPY PUSH2 0xF73 JUMP JUMPDEST PUSH1 0x60 SWAP2 POP JUMPDEST POP SWAP2 POP SWAP2 POP DUP2 PUSH2 0xFB8 JUMPI PUSH1 0x40 MLOAD PUSH32 0x8C379A000000000000000000000000000000000000000000000000000000000 DUP2 MSTORE PUSH1 0x4 ADD PUSH2 0xFAF SWAP1 PUSH2 0x1DDD JUMP JUMPDEST PUSH1 0x40 MLOAD DUP1 SWAP2 SUB SWAP1 REVERT JUMPDEST PUSH2 0xFC1 DUP5 PUSH2 0x44D JUMP JUMPDEST POP POP POP POP POP POP JUMP JUMPDEST POP POP POP JUMP JUMPDEST PUSH0 DUP1 PUSH0 SWAP1 POP PUSH0 JUMPDEST PUSH1 0x4 DUP1 SLOAD SWAP1 POP DUP2 LT ISZERO PUSH2 0x1081 JUMPI DUP5 PUSH2 0xFFFF AND PUSH1 0x4 DUP3 DUP2 SLOAD DUP2 LT PUSH2 0xFFB JUMPI PUSH2 0xFFA PUSH2 0x1CB7 JUMP JUMPDEST JUMPDEST SWAP1 PUSH0 MSTORE PUSH1 0x20 PUSH0 KECCAK256 SWAP1 PUSH1 0xB MUL ADD PUSH0 ADD PUSH0 SWAP1 SLOAD SWAP1 PUSH2 0x100 EXP SWAP1 DIV PUSH2 0xFFFF AND PUSH2 0xFFFF AND EQ DUP1 ISZERO PUSH2 0x1065 JUMPI POP DUP4 DUP1 MLOAD SWAP1 PUSH1 0x20 ADD KECCAK256 PUSH1 0x4 DUP3 DUP2 SLOAD DUP2 LT PUSH2 0x103F JUMPI PUSH2 0x103E PUSH2 0x1CB7 JUMP JUMPDEST JUMPDEST SWAP1 PUSH0 MSTORE PUSH1 0x20 PUSH0 KECCAK256 SWAP1 PUSH1 0xB MUL ADD PUSH1 0x1 ADD PUSH1 0x40 MLOAD PUSH2 0x105B SWAP2 SWAP1 PUSH2 0x231F JUMP JUMPDEST PUSH1 0x40 MLOAD DUP1 SWAP2 SUB SWAP1 KECCAK256 EQ JUMPDEST ISZERO PUSH2 0x1074 JUMPI DUP1 SWAP3 POP POP POP PUSH2 0x1090 JUMP JUMPDEST DUP1 DUP1 PUSH1 0x1 ADD SWAP2 POP POP PUSH2 0xFD5 JUMP JUMPDEST POP DUP1 PUSH2 0x108B JUMPI PUSH0 DUP1 REVERT JUMPDEST PUSH0 SWAP2 POP POP JUMPDEST SWAP3 SWAP2 POP POP JUMP JUMPDEST PUSH0 DUP1 DUP3 SWAP1 POP PUSH1 0xB DUP2 MLOAD EQ PUSH2 0x10AD JUMPI PUSH0 SWAP2 POP POP PUSH2 0x12FD JUMP JUMPDEST PUSH0 JUMPDEST PUSH1 0xA DUP2 PUSH1 0xFF AND LT ISZERO PUSH2 0x1131 JUMPI PUSH0 PUSH2 0x10C8 DUP3 PUSH1 0xFF AND PUSH2 0x1302 JUMP JUMPDEST SWAP1 POP PUSH0 DUP2 DUP3 DUP4 DUP5 DUP6 DUP7 DUP8 DUP9 DUP10 DUP11 DUP12 PUSH1 0x40 MLOAD PUSH1 0x20 ADD PUSH2 0x10F0 SWAP12 SWAP11 SWAP10 SWAP9 SWAP8 SWAP7 SWAP6 SWAP5 SWAP4 SWAP3 SWAP2 SWAP1 PUSH2 0x236F JUMP JUMPDEST PUSH1 0x40 MLOAD PUSH1 0x20 DUP2 DUP4 SUB SUB DUP2 MSTORE SWAP1 PUSH1 0x40 MSTORE SWAP1 POP DUP1 DUP1 MLOAD SWAP1 PUSH1 0x20 ADD KECCAK256 DUP5 DUP1 MLOAD SWAP1 PUSH1 0x20 ADD KECCAK256 SUB PUSH2 0x1122 JUMPI PUSH0 SWAP5 POP POP POP POP POP PUSH2 0x12FD JUMP JUMPDEST POP POP DUP1 DUP1 PUSH1 0x1 ADD SWAP2 POP POP PUSH2 0x10AF JUMP JUMPDEST POP PUSH0 DUP1 PUSH1 0xA SWAP1 POP PUSH0 JUMPDEST PUSH1 0x9 DUP2 PUSH1 0xFF AND LT ISZERO PUSH2 0x11AA JUMPI DUP2 DUP1 PUSH2 0x1151 SWAP1 PUSH2 0x2407 JUMP JUMPDEST SWAP3 POP PUSH1 0x30 DUP6 DUP4 PUSH1 0xFF AND DUP2 MLOAD DUP2 LT PUSH2 0x116B JUMPI PUSH2 0x116A PUSH2 0x1CB7 JUMP JUMPDEST JUMPDEST PUSH1 0x20 ADD ADD MLOAD PUSH1 0xF8 SHR PUSH1 0xF8 SHL PUSH1 0xF8 SHR PUSH2 0x1183 SWAP2 SWAP1 PUSH2 0x242E JUMP JUMPDEST PUSH2 0x118D SWAP2 SWAP1 PUSH2 0x2182 JUMP JUMPDEST PUSH1 0xFF AND DUP4 PUSH2 0x119B SWAP2 SWAP1 PUSH2 0x1E2E JUMP JUMPDEST SWAP3 POP DUP1 DUP1 PUSH1 0x1 ADD SWAP2 POP POP PUSH2 0x113A JUMP JUMPDEST POP PUSH0 PUSH1 0xB DUP4 PUSH2 0x11B9 SWAP2 SWAP1 PUSH2 0x248F JUMP JUMPDEST SWAP1 POP PUSH1 0x2 DUP2 LT PUSH2 0x11D5 JUMPI DUP1 PUSH1 0xB PUSH2 0x11D0 SWAP2 SWAP1 PUSH2 0x1DFB JUMP JUMPDEST PUSH2 0x11D7 JUMP JUMPDEST PUSH0 JUMPDEST SWAP1 POP DUP1 PUSH1 0x30 DUP6 PUSH1 0x9 DUP2 MLOAD DUP2 LT PUSH2 0x11F0 JUMPI PUSH2 0x11EF PUSH2 0x1CB7 JUMP JUMPDEST JUMPDEST PUSH1 0x20 ADD ADD MLOAD PUSH1 0xF8 SHR PUSH1 0xF8 SHL PUSH1 0xF8 SHR PUSH2 0x1208 SWAP2 SWAP1 PUSH2 0x242E JUMP JUMPDEST PUSH1 0xFF AND EQ PUSH2 0x121C JUMPI PUSH0 SWAP5 POP POP POP POP POP PUSH2 0x12FD JUMP JUMPDEST PUSH0 SWAP3 POP PUSH1 0xB SWAP2 POP PUSH0 JUMPDEST PUSH1 0xA DUP2 PUSH1 0xFF AND LT ISZERO PUSH2 0x1295 JUMPI DUP3 DUP1 PUSH2 0x123C SWAP1 PUSH2 0x2407 JUMP JUMPDEST SWAP4 POP PUSH1 0x30 DUP7 DUP4 PUSH1 0xFF AND DUP2 MLOAD DUP2 LT PUSH2 0x1256 JUMPI PUSH2 0x1255 PUSH2 0x1CB7 JUMP JUMPDEST JUMPDEST PUSH1 0x20 ADD ADD MLOAD PUSH1 0xF8 SHR PUSH1 0xF8 SHL PUSH1 0xF8 SHR PUSH2 0x126E SWAP2 SWAP1 PUSH2 0x242E JUMP JUMPDEST PUSH2 0x1278 SWAP2 SWAP1 PUSH2 0x2182 JUMP JUMPDEST PUSH1 0xFF AND DUP5 PUSH2 0x1286 SWAP2 SWAP1 PUSH2 0x1E2E JUMP JUMPDEST SWAP4 POP DUP1 DUP1 PUSH1 0x1 ADD SWAP2 POP POP PUSH2 0x1225 JUMP JUMPDEST POP PUSH1 0xB DUP4 PUSH2 0x12A3 SWAP2 SWAP1 PUSH2 0x248F JUMP JUMPDEST SWAP1 POP PUSH1 0x2 DUP2 LT PUSH2 0x12BF JUMPI DUP1 PUSH1 0xB PUSH2 0x12BA SWAP2 SWAP1 PUSH2 0x1DFB JUMP JUMPDEST PUSH2 0x12C1 JUMP JUMPDEST PUSH0 JUMPDEST SWAP1 POP DUP1 PUSH1 0x30 DUP6 PUSH1 0xA DUP2 MLOAD DUP2 LT PUSH2 0x12DA JUMPI PUSH2 0x12D9 PUSH2 0x1CB7 JUMP JUMPDEST JUMPDEST PUSH1 0x20 ADD ADD MLOAD PUSH1 0xF8 SHR PUSH1 0xF8 SHL PUSH1 0xF8 SHR PUSH2 0x12F2 SWAP2 SWAP1 PUSH2 0x242E JUMP JUMPDEST PUSH1 0xFF AND EQ SWAP5 POP POP POP POP POP JUMPDEST SWAP2 SWAP1 POP JUMP JUMPDEST PUSH1 0x60 PUSH0 PUSH1 0x1 PUSH2 0x1310 DUP5 PUSH2 0x13CC JUMP JUMPDEST ADD SWAP1 POP PUSH0 DUP2 PUSH8 0xFFFFFFFFFFFFFFFF DUP2 GT ISZERO PUSH2 0x132E JUMPI PUSH2 0x132D PUSH2 0x1655 JUMP JUMPDEST JUMPDEST PUSH1 0x40 MLOAD SWAP1 DUP1 DUP3 MSTORE DUP1 PUSH1 0x1F ADD PUSH1 0x1F NOT AND PUSH1 0x20 ADD DUP3 ADD PUSH1 0x40 MSTORE DUP1 ISZERO PUSH2 0x1360 JUMPI DUP2 PUSH1 0x20 ADD PUSH1 0x1 DUP3 MUL DUP1 CALLDATASIZE DUP4 CALLDATACOPY DUP1 DUP3 ADD SWAP2 POP POP SWAP1 POP JUMPDEST POP SWAP1 POP PUSH0 DUP3 PUSH1 0x20 ADD DUP3 ADD SWAP1 POP JUMPDEST PUSH1 0x1 ISZERO PUSH2 0x13C1 JUMPI DUP1 DUP1 PUSH1 0x1 SWAP1 SUB SWAP2 POP POP PUSH32 0x3031323334353637383961626364656600000000000000000000000000000000 PUSH1 0xA DUP7 MOD BYTE DUP2 MSTORE8 PUSH1 0xA DUP6 DUP2 PUSH2 0x13B6 JUMPI PUSH2 0x13B5 PUSH2 0x2462 JUMP JUMPDEST JUMPDEST DIV SWAP5 POP PUSH0 DUP6 SUB PUSH2 0x136D JUMPI JUMPDEST DUP2 SWAP4 POP POP POP POP SWAP2 SWAP1 POP JUMP JUMPDEST PUSH0 DUP1 PUSH0 SWAP1 POP PUSH27 0x184F03E93FF9F4DAA797ED6E38ED64BF6A1F010000000000000000 DUP4 LT PUSH2 0x1428 JUMPI PUSH27 0x184F03E93FF9F4DAA797ED6E38ED64BF6A1F010000000000000000 DUP4 DUP2 PUSH2 0x141E JUMPI PUSH2 0x141D PUSH2 0x2462 JUMP JUMPDEST JUMPDEST DIV SWAP3 POP PUSH1 0x40 DUP2 ADD SWAP1 POP JUMPDEST PUSH14 0x4EE2D6D415B85ACEF8100000000 DUP4 LT PUSH2 0x1465 JUMPI PUSH14 0x4EE2D6D415B85ACEF8100000000 DUP4 DUP2 PUSH2 0x145B JUMPI PUSH2 0x145A PUSH2 0x2462 JUMP JUMPDEST JUMPDEST DIV SWAP3 POP PUSH1 0x20 DUP2 ADD SWAP1 POP JUMPDEST PUSH7 0x2386F26FC10000 DUP4 LT PUSH2 0x1494 JUMPI PUSH7 0x2386F26FC10000 DUP4 DUP2 PUSH2 0x148A JUMPI PUSH2 0x1489 PUSH2 0x2462 JUMP JUMPDEST JUMPDEST DIV SWAP3 POP PUSH1 0x10 DUP2 ADD SWAP1 POP JUMPDEST PUSH4 0x5F5E100 DUP4 LT PUSH2 0x14BD JUMPI PUSH4 0x5F5E100 DUP4 DUP2 PUSH2 0x14B3 JUMPI PUSH2 0x14B2 PUSH2 0x2462 JUMP JUMPDEST JUMPDEST DIV SWAP3 POP PUSH1 0x8 DUP2 ADD SWAP1 POP JUMPDEST PUSH2 0x2710 DUP4 LT PUSH2 0x14E2 JUMPI PUSH2 0x2710 DUP4 DUP2 PUSH2 0x14D8 JUMPI PUSH2 0x14D7 PUSH2 0x2462 JUMP JUMPDEST JUMPDEST DIV SWAP3 POP PUSH1 0x4 DUP2 ADD SWAP1 POP JUMPDEST PUSH1 0x64 DUP4 LT PUSH2 0x1505 JUMPI PUSH1 0x64 DUP4 DUP2 PUSH2 0x14FB JUMPI PUSH2 0x14FA PUSH2 0x2462 JUMP JUMPDEST JUMPDEST DIV SWAP3 POP PUSH1 0x2 DUP2 ADD SWAP1 POP JUMPDEST PUSH1 0xA DUP4 LT PUSH2 0x1514 JUMPI PUSH1 0x1 DUP2 ADD SWAP1 POP JUMPDEST DUP1 SWAP2 POP POP SWAP2 SWAP1 POP JUMP JUMPDEST POP DUP1 SLOAD PUSH2 0x1529 SWAP1 PUSH2 0x1E8E JUMP JUMPDEST PUSH0 DUP3 SSTORE DUP1 PUSH1 0x1F LT PUSH2 0x153A JUMPI POP PUSH2 0x1557 JUMP JUMPDEST PUSH1 0x1F ADD PUSH1 0x20 SWAP1 DIV SWAP1 PUSH0 MSTORE PUSH1 0x20 PUSH0 KECCAK256 SWAP1 DUP2 ADD SWAP1 PUSH2 0x1556 SWAP2 SWAP1 PUSH2 0x15DE JUMP JUMPDEST JUMPDEST POP JUMP JUMPDEST PUSH1 0x40 MLOAD DUP1 PUSH2 0x160 ADD PUSH1 0x40 MSTORE DUP1 PUSH0 PUSH2 0xFFFF AND DUP2 MSTORE PUSH1 0x20 ADD PUSH1 0x60 DUP2 MSTORE PUSH1 0x20 ADD PUSH0 PUSH20 0xFFFFFFFFFFFFFFFFFFFFFFFFFFFFFFFFFFFFFFFF AND DUP2 MSTORE PUSH1 0x20 ADD PUSH0 PUSH20 0xFFFFFFFFFFFFFFFFFFFFFFFFFFFFFFFFFFFFFFFF AND DUP2 MSTORE PUSH1 0x20 ADD PUSH1 0x60 DUP2 MSTORE PUSH1 0x20 ADD PUSH1 0x60 DUP2 MSTORE PUSH1 0x20 ADD PUSH0 DUP2 MSTORE PUSH1 0x20 ADD PUSH0 DUP2 MSTORE PUSH1 0x20 ADD PUSH0 DUP2 MSTORE PUSH1 0x20 ADD PUSH0 DUP2 MSTORE PUSH1 0x20 ADD PUSH0 ISZERO ISZERO DUP2 MSTORE POP SWAP1 JUMP JUMPDEST JUMPDEST DUP1 DUP3 GT ISZERO PUSH2 0x15F5 JUMPI PUSH0 DUP2 PUSH0 SWAP1 SSTORE POP PUSH1 0x1 ADD PUSH2 0x15DF JUMP JUMPDEST POP SWAP1 JUMP JUMPDEST PUSH0 PUSH1 0x40 MLOAD SWAP1 POP SWAP1 JUMP JUMPDEST PUSH0 DUP1 REVERT JUMPDEST PUSH0 DUP1 REVERT JUMPDEST PUSH0 DUP2 SWAP1 POP SWAP2 SWAP1 POP JUMP JUMPDEST PUSH2 0x161C DUP2 PUSH2 0x160A JUMP JUMPDEST DUP2 EQ PUSH2 0x1626 JUMPI PUSH0 DUP1 REVERT JUMPDEST POP JUMP JUMPDEST PUSH0 DUP2 CALLDATALOAD SWAP1 POP PUSH2 0x1637 DUP2 PUSH2 0x1613 JUMP JUMPDEST SWAP3 SWAP2 POP POP JUMP JUMPDEST PUSH0 DUP1 REVERT JUMPDEST PUSH0 DUP1 REVERT JUMPDEST PUSH0 PUSH1 0x1F NOT PUSH1 0x1F DUP4 ADD AND SWAP1 POP SWAP2 SWAP1 POP JUMP JUMPDEST PUSH32 0x4E487B7100000000000000000000000000000000000000000000000000000000 PUSH0 MSTORE PUSH1 0x41 PUSH1 0x4 MSTORE PUSH1 0x24 PUSH0 REVERT JUMPDEST PUSH2 0x168B DUP3 PUSH2 0x1645 JUMP JUMPDEST DUP2 ADD DUP2 DUP2 LT PUSH8 0xFFFFFFFFFFFFFFFF DUP3 GT OR ISZERO PUSH2 0x16AA JUMPI PUSH2 0x16A9 PUSH2 0x1655 JUMP JUMPDEST JUMPDEST DUP1 PUSH1 0x40 MSTORE POP POP POP JUMP JUMPDEST PUSH0 PUSH2 0x16BC PUSH2 0x15F9 JUMP JUMPDEST SWAP1 POP PUSH2 0x16C8 DUP3 DUP3 PUSH2 0x1682 JUMP JUMPDEST SWAP2 SWAP1 POP JUMP JUMPDEST PUSH0 PUSH8 0xFFFFFFFFFFFFFFFF DUP3 GT ISZERO PUSH2 0x16E7 JUMPI PUSH2 0x16E6 PUSH2 0x1655 JUMP JUMPDEST JUMPDEST PUSH2 0x16F0 DUP3 PUSH2 0x1645 JUMP JUMPDEST SWAP1 POP PUSH1 0x20 DUP2 ADD SWAP1 POP SWAP2 SWAP1 POP JUMP JUMPDEST DUP3 DUP2 DUP4 CALLDATACOPY PUSH0 DUP4 DUP4 ADD MSTORE POP POP POP JUMP JUMPDEST PUSH0 PUSH2 0x171D PUSH2 0x1718 DUP5 PUSH2 0x16CD JUMP JUMPDEST PUSH2 0x16B3 JUMP JUMPDEST SWAP1 POP DUP3 DUP2 MSTORE PUSH1 0x20 DUP2 ADD DUP5 DUP5 DUP5 ADD GT ISZERO PUSH2 0x1739 JUMPI PUSH2 0x1738 PUSH2 0x1641 JUMP JUMPDEST JUMPDEST PUSH2 0x1744 DUP5 DUP3 DUP6 PUSH2 0x16FD JUMP JUMPDEST POP SWAP4 SWAP3 POP POP POP JUMP JUMPDEST PUSH0 DUP3 PUSH1 0x1F DUP4 ADD SLT PUSH2 0x1760 JUMPI PUSH2 0x175F PUSH2 0x163D JUMP JUMPDEST JUMPDEST DUP2 CALLDATALOAD PUSH2 0x1770 DUP5 DUP3 PUSH1 0x20 DUP7 ADD PUSH2 0x170B JUMP JUMPDEST SWAP2 POP POP SWAP3 SWAP2 POP POP JUMP JUMPDEST PUSH0 DUP1 PUSH0 PUSH1 0x60 DUP5 DUP7 SUB SLT ISZERO PUSH2 0x1790 JUMPI PUSH2 0x178F PUSH2 0x1602 JUMP JUMPDEST JUMPDEST PUSH0 PUSH2 0x179D DUP7 DUP3 DUP8 ADD PUSH2 0x1629 JUMP JUMPDEST SWAP4 POP POP PUSH1 0x20 DUP5 ADD CALLDATALOAD PUSH8 0xFFFFFFFFFFFFFFFF DUP2 GT ISZERO PUSH2 0x17BE JUMPI PUSH2 0x17BD PUSH2 0x1606 JUMP JUMPDEST JUMPDEST PUSH2 0x17CA DUP7 DUP3 DUP8 ADD PUSH2 0x174C JUMP JUMPDEST SWAP3 POP POP PUSH1 0x40 DUP5 ADD CALLDATALOAD PUSH8 0xFFFFFFFFFFFFFFFF DUP2 GT ISZERO PUSH2 0x17EB JUMPI PUSH2 0x17EA PUSH2 0x1606 JUMP JUMPDEST JUMPDEST PUSH2 0x17F7 DUP7 DUP3 DUP8 ADD PUSH2 0x174C JUMP JUMPDEST SWAP2 POP POP SWAP3 POP SWAP3 POP SWAP3 JUMP JUMPDEST PUSH0 PUSH2 0xFFFF DUP3 AND SWAP1 POP SWAP2 SWAP1 POP JUMP JUMPDEST PUSH2 0x1817 DUP2 PUSH2 0x1801 JUMP JUMPDEST DUP2 EQ PUSH2 0x1821 JUMPI PUSH0 DUP1 REVERT JUMPDEST POP JUMP JUMPDEST PUSH0 DUP2 CALLDATALOAD SWAP1 POP PUSH2 0x1832 DUP2 PUSH2 0x180E JUMP JUMPDEST SWAP3 SWAP2 POP POP JUMP JUMPDEST PUSH0 PUSH8 0xFFFFFFFFFFFFFFFF DUP3 GT ISZERO PUSH2 0x1852 JUMPI PUSH2 0x1851 PUSH2 0x1655 JUMP JUMPDEST JUMPDEST PUSH2 0x185B DUP3 PUSH2 0x1645 JUMP JUMPDEST SWAP1 POP PUSH1 0x20 DUP2 ADD SWAP1 POP SWAP2 SWAP1 POP JUMP JUMPDEST PUSH0 PUSH2 0x187A PUSH2 0x1875 DUP5 PUSH2 0x1838 JUMP JUMPDEST PUSH2 0x16B3 JUMP JUMPDEST SWAP1 POP DUP3 DUP2 MSTORE PUSH1 0x20 DUP2 ADD DUP5 DUP5 DUP5 ADD GT ISZERO PUSH2 0x1896 JUMPI PUSH2 0x1895 PUSH2 0x1641 JUMP JUMPDEST JUMPDEST PUSH2 0x18A1 DUP5 DUP3 DUP6 PUSH2 0x16FD JUMP JUMPDEST POP SWAP4 SWAP3 POP POP POP JUMP JUMPDEST PUSH0 DUP3 PUSH1 0x1F DUP4 ADD SLT PUSH2 0x18BD JUMPI PUSH2 0x18BC PUSH2 0x163D JUMP JUMPDEST JUMPDEST DUP2 CALLDATALOAD PUSH2 0x18CD DUP5 DUP3 PUSH1 0x20 DUP7 ADD PUSH2 0x1868 JUMP JUMPDEST SWAP2 POP POP SWAP3 SWAP2 POP POP JUMP JUMPDEST PUSH0 DUP1 PUSH1 0x40 DUP4 DUP6 SUB SLT ISZERO PUSH2 0x18EC JUMPI PUSH2 0x18EB PUSH2 0x1602 JUMP JUMPDEST JUMPDEST PUSH0 PUSH2 0x18F9 DUP6 DUP3 DUP7 ADD PUSH2 0x1824 JUMP JUMPDEST SWAP3 POP POP PUSH1 0x20 DUP4 ADD CALLDATALOAD PUSH8 0xFFFFFFFFFFFFFFFF DUP2 GT ISZERO PUSH2 0x191A JUMPI PUSH2 0x1919 PUSH2 0x1606 JUMP JUMPDEST JUMPDEST PUSH2 0x1926 DUP6 DUP3 DUP7 ADD PUSH2 0x18A9 JUMP JUMPDEST SWAP2 POP POP SWAP3 POP SWAP3 SWAP1 POP JUMP JUMPDEST PUSH0 DUP2 SWAP1 POP SWAP2 SWAP1 POP JUMP JUMPDEST PUSH2 0x1942 DUP2 PUSH2 0x1930 JUMP JUMPDEST DUP2 EQ PUSH2 0x194C JUMPI PUSH0 DUP1 REVERT JUMPDEST POP JUMP JUMPDEST PUSH0 DUP2 CALLDATALOAD SWAP1 POP PUSH2 0x195D DUP2 PUSH2 0x1939 JUMP JUMPDEST SWAP3 SWAP2 POP POP JUMP JUMPDEST PUSH0 PUSH1 0x20 DUP3 DUP5 SUB SLT ISZERO PUSH2 0x1978 JUMPI PUSH2 0x1977 PUSH2 0x1602 JUMP JUMPDEST JUMPDEST PUSH0 PUSH2 0x1985 DUP5 DUP3 DUP6 ADD PUSH2 0x194F JUMP JUMPDEST SWAP2 POP POP SWAP3 SWAP2 POP POP JUMP JUMPDEST PUSH0 PUSH20 0xFFFFFFFFFFFFFFFFFFFFFFFFFFFFFFFFFFFFFFFF DUP3 AND SWAP1 POP SWAP2 SWAP1 POP JUMP JUMPDEST PUSH0 PUSH2 0x19B7 DUP3 PUSH2 0x198E JUMP JUMPDEST SWAP1 POP SWAP2 SWAP1 POP JUMP JUMPDEST PUSH2 0x19C7 DUP2 PUSH2 0x19AD JUMP JUMPDEST DUP3 MSTORE POP POP JUMP JUMPDEST PUSH0 PUSH1 0x20 DUP3 ADD SWAP1 POP PUSH2 0x19E0 PUSH0 DUP4 ADD DUP5 PUSH2 0x19BE JUMP JUMPDEST SWAP3 SWAP2 POP POP JUMP JUMPDEST PUSH2 0x19EF DUP2 PUSH2 0x19AD JUMP JUMPDEST DUP2 EQ PUSH2 0x19F9 JUMPI PUSH0 DUP1 REVERT JUMPDEST POP JUMP JUMPDEST PUSH0 DUP2 CALLDATALOAD SWAP1 POP PUSH2 0x1A0A DUP2 PUSH2 0x19E6 JUMP JUMPDEST SWAP3 SWAP2 POP POP JUMP JUMPDEST PUSH0 DUP1 PUSH1 0x40 DUP4 DUP6 SUB SLT ISZERO PUSH2 0x1A26 JUMPI PUSH2 0x1A25 PUSH2 0x1602 JUMP JUMPDEST JUMPDEST PUSH0 PUSH2 0x1A33 DUP6 DUP3 DUP7 ADD PUSH2 0x19FC JUMP JUMPDEST SWAP3 POP POP PUSH1 0x20 PUSH2 0x1A44 DUP6 DUP3 DUP7 ADD PUSH2 0x194F JUMP JUMPDEST SWAP2 POP POP SWAP3 POP SWAP3 SWAP1 POP JUMP JUMPDEST PUSH2 0x1A57 DUP2 PUSH2 0x1801 JUMP JUMPDEST DUP3 MSTORE POP POP JUMP JUMPDEST PUSH0 DUP2 MLOAD SWAP1 POP SWAP2 SWAP1 POP JUMP JUMPDEST PUSH0 DUP3 DUP3 MSTORE PUSH1 0x20 DUP3 ADD SWAP1 POP SWAP3 SWAP2 POP POP JUMP JUMPDEST DUP3 DUP2 DUP4 MCOPY PUSH0 DUP4 DUP4 ADD MSTORE POP POP POP JUMP JUMPDEST PUSH0 PUSH2 0x1A8F DUP3 PUSH2 0x1A5D JUMP JUMPDEST PUSH2 0x1A99 DUP2 DUP6 PUSH2 0x1A67 JUMP JUMPDEST SWAP4 POP PUSH2 0x1AA9 DUP2 DUP6 PUSH1 0x20 DUP7 ADD PUSH2 0x1A77 JUMP JUMPDEST PUSH2 0x1AB2 DUP2 PUSH2 0x1645 JUMP JUMPDEST DUP5 ADD SWAP2 POP POP SWAP3 SWAP2 POP POP JUMP JUMPDEST PUSH2 0x1AC6 DUP2 PUSH2 0x1930 JUMP JUMPDEST DUP3 MSTORE POP POP JUMP JUMPDEST PUSH0 DUP2 ISZERO ISZERO SWAP1 POP SWAP2 SWAP1 POP JUMP JUMPDEST PUSH2 0x1AE0 DUP2 PUSH2 0x1ACC JUMP JUMPDEST DUP3 MSTORE POP POP JUMP JUMPDEST PUSH0 PUSH2 0x160 DUP3 ADD SWAP1 POP PUSH2 0x1AFA PUSH0 DUP4 ADD DUP15 PUSH2 0x1A4E JUMP JUMPDEST DUP2 DUP2 SUB PUSH1 0x20 DUP4 ADD MSTORE PUSH2 0x1B0C DUP2 DUP14 PUSH2 0x1A85 JUMP JUMPDEST SWAP1 POP PUSH2 0x1B1B PUSH1 0x40 DUP4 ADD DUP13 PUSH2 0x19BE JUMP JUMPDEST PUSH2 0x1B28 PUSH1 0x60 DUP4 ADD DUP12 PUSH2 0x19BE JUMP JUMPDEST DUP2 DUP2 SUB PUSH1 0x80 DUP4 ADD MSTORE PUSH2 0x1B3A DUP2 DUP11 PUSH2 0x1A85 JUMP JUMPDEST SWAP1 POP DUP2 DUP2 SUB PUSH1 0xA0 DUP4 ADD MSTORE PUSH2 0x1B4E DUP2 DUP10 PUSH2 0x1A85 JUMP JUMPDEST SWAP1 POP PUSH2 0x1B5D PUSH1 0xC0 DUP4 ADD DUP9 PUSH2 0x1ABD JUMP JUMPDEST PUSH2 0x1B6A PUSH1 0xE0 DUP4 ADD DUP8 PUSH2 0x1ABD JUMP JUMPDEST PUSH2 0x1B78 PUSH2 0x100 DUP4 ADD DUP7 PUSH2 0x1ABD JUMP JUMPDEST PUSH2 0x1B86 PUSH2 0x120 DUP4 ADD DUP6 PUSH2 0x1ABD JUMP JUMPDEST PUSH2 0x1B94 PUSH2 0x140 DUP4 ADD DUP5 PUSH2 0x1AD7 JUMP JUMPDEST SWAP13 SWAP12 POP POP POP POP POP POP POP POP POP POP POP POP JUMP JUMPDEST PUSH0 PUSH1 0xFF DUP3 AND SWAP1 POP SWAP2 SWAP1 POP JUMP JUMPDEST PUSH2 0x1BB9 DUP2 PUSH2 0x1BA4 JUMP JUMPDEST DUP2 EQ PUSH2 0x1BC3 JUMPI PUSH0 DUP1 REVERT JUMPDEST POP JUMP JUMPDEST PUSH0 DUP2 CALLDATALOAD SWAP1 POP PUSH2 0x1BD4 DUP2 PUSH2 0x1BB0 JUMP JUMPDEST SWAP3 SWAP2 POP POP JUMP JUMPDEST PUSH0 DUP1 PUSH0 DUP1 PUSH0 DUP1 PUSH1 0xC0 DUP8 DUP10 SUB SLT ISZERO PUSH2 0x1BF4 JUMPI PUSH2 0x1BF3 PUSH2 0x1602 JUMP JUMPDEST JUMPDEST PUSH0 PUSH2 0x1C01 DUP10 DUP3 DUP11 ADD PUSH2 0x1824 JUMP JUMPDEST SWAP7 POP POP PUSH1 0x20 DUP8 ADD CALLDATALOAD PUSH8 0xFFFFFFFFFFFFFFFF DUP2 GT ISZERO PUSH2 0x1C22 JUMPI PUSH2 0x1C21 PUSH2 0x1606 JUMP JUMPDEST JUMPDEST PUSH2 0x1C2E DUP10 DUP3 DUP11 ADD PUSH2 0x18A9 JUMP JUMPDEST SWAP6 POP POP PUSH1 0x40 DUP8 ADD CALLDATALOAD PUSH8 0xFFFFFFFFFFFFFFFF DUP2 GT ISZERO PUSH2 0x1C4F JUMPI PUSH2 0x1C4E PUSH2 0x1606 JUMP JUMPDEST JUMPDEST PUSH2 0x1C5B DUP10 DUP3 DUP11 ADD PUSH2 0x18A9 JUMP JUMPDEST SWAP5 POP POP PUSH1 0x60 DUP8 ADD CALLDATALOAD PUSH8 0xFFFFFFFFFFFFFFFF DUP2 GT ISZERO PUSH2 0x1C7C JUMPI PUSH2 0x1C7B PUSH2 0x1606 JUMP JUMPDEST JUMPDEST PUSH2 0x1C88 DUP10 DUP3 DUP11 ADD PUSH2 0x18A9 JUMP JUMPDEST SWAP4 POP POP PUSH1 0x80 PUSH2 0x1C99 DUP10 DUP3 DUP11 ADD PUSH2 0x194F JUMP JUMPDEST SWAP3 POP POP PUSH1 0xA0 PUSH2 0x1CAA DUP10 DUP3 DUP11 ADD PUSH2 0x1BC6 JUMP JUMPDEST SWAP2 POP POP SWAP3 SWAP6 POP SWAP3 SWAP6 POP SWAP3 SWAP6 JUMP JUMPDEST PUSH32 0x4E487B7100000000000000000000000000000000000000000000000000000000 PUSH0 MSTORE PUSH1 0x32 PUSH1 0x4 MSTORE PUSH1 0x24 PUSH0 REVERT JUMPDEST PUSH32 0x4E487B7100000000000000000000000000000000000000000000000000000000 PUSH0 MSTORE PUSH1 0x11 PUSH1 0x4 MSTORE PUSH1 0x24 PUSH0 REVERT JUMPDEST PUSH0 PUSH2 0x1D1B DUP3 PUSH2 0x1930 JUMP JUMPDEST SWAP2 POP PUSH2 0x1D26 DUP4 PUSH2 0x1930 JUMP JUMPDEST SWAP3 POP DUP3 DUP3 MUL PUSH2 0x1D34 DUP2 PUSH2 0x1930 JUMP JUMPDEST SWAP2 POP DUP3 DUP3 DIV DUP5 EQ DUP4 ISZERO OR PUSH2 0x1D4B JUMPI PUSH2 0x1D4A PUSH2 0x1CE4 JUMP JUMPDEST JUMPDEST POP SWAP3 SWAP2 POP POP JUMP JUMPDEST PUSH0 DUP2 SWAP1 POP SWAP3 SWAP2 POP POP JUMP JUMPDEST POP JUMP JUMPDEST PUSH0 PUSH2 0x1D6A PUSH0 DUP4 PUSH2 0x1D52 JUMP JUMPDEST SWAP2 POP PUSH2 0x1D75 DUP3 PUSH2 0x1D5C JUMP JUMPDEST PUSH0 DUP3 ADD SWAP1 POP SWAP2 SWAP1 POP JUMP JUMPDEST PUSH0 PUSH2 0x1D89 DUP3 PUSH2 0x1D5F JUMP JUMPDEST SWAP2 POP DUP2 SWAP1 POP SWAP2 SWAP1 POP JUMP JUMPDEST PUSH32 0x4661696C656420746F2073656E64204574686572000000000000000000000000 PUSH0 DUP3 ADD MSTORE POP JUMP JUMPDEST PUSH0 PUSH2 0x1DC7 PUSH1 0x14 DUP4 PUSH2 0x1A67 JUMP JUMPDEST SWAP2 POP PUSH2 0x1DD2 DUP3 PUSH2 0x1D93 JUMP JUMPDEST PUSH1 0x20 DUP3 ADD SWAP1 POP SWAP2 SWAP1 POP JUMP JUMPDEST PUSH0 PUSH1 0x20 DUP3 ADD SWAP1 POP DUP2 DUP2 SUB PUSH0 DUP4 ADD MSTORE PUSH2 0x1DF4 DUP2 PUSH2 0x1DBB JUMP JUMPDEST SWAP1 POP SWAP2 SWAP1 POP JUMP JUMPDEST PUSH0 PUSH2 0x1E05 DUP3 PUSH2 0x1930 JUMP JUMPDEST SWAP2 POP PUSH2 0x1E10 DUP4 PUSH2 0x1930 JUMP JUMPDEST SWAP3 POP DUP3 DUP3 SUB SWAP1 POP DUP2 DUP2 GT ISZERO PUSH2 0x1E28 JUMPI PUSH2 0x1E27 PUSH2 0x1CE4 JUMP JUMPDEST JUMPDEST SWAP3 SWAP2 POP POP JUMP JUMPDEST PUSH0 PUSH2 0x1E38 DUP3 PUSH2 0x1930 JUMP JUMPDEST SWAP2 POP PUSH2 0x1E43 DUP4 PUSH2 0x1930 JUMP JUMPDEST SWAP3 POP DUP3 DUP3 ADD SWAP1 POP DUP1 DUP3 GT ISZERO PUSH2 0x1E5B JUMPI PUSH2 0x1E5A PUSH2 0x1CE4 JUMP JUMPDEST JUMPDEST SWAP3 SWAP2 POP POP JUMP JUMPDEST PUSH32 0x4E487B7100000000000000000000000000000000000000000000000000000000 PUSH0 MSTORE PUSH1 0x22 PUSH1 0x4 MSTORE PUSH1 0x24 PUSH0 REVERT JUMPDEST PUSH0 PUSH1 0x2 DUP3 DIV SWAP1 POP PUSH1 0x1 DUP3 AND DUP1 PUSH2 0x1EA5 JUMPI PUSH1 0x7F DUP3 AND SWAP2 POP JUMPDEST PUSH1 0x20 DUP3 LT DUP2 SUB PUSH2 0x1EB8 JUMPI PUSH2 0x1EB7 PUSH2 0x1E61 JUMP JUMPDEST JUMPDEST POP SWAP2 SWAP1 POP JUMP JUMPDEST PUSH0 DUP2 SLOAD SWAP1 POP PUSH2 0x1ECC DUP2 PUSH2 0x1E8E JUMP JUMPDEST SWAP1 POP SWAP2 SWAP1 POP JUMP JUMPDEST PUSH0 DUP2 SWAP1 POP DUP2 PUSH0 MSTORE PUSH1 0x20 PUSH0 KECCAK256 SWAP1 POP SWAP2 SWAP1 POP JUMP JUMPDEST PUSH0 PUSH1 0x20 PUSH1 0x1F DUP4 ADD DIV SWAP1 POP SWAP2 SWAP1 POP JUMP JUMPDEST PUSH0 DUP3 DUP3 SHL SWAP1 POP SWAP3 SWAP2 POP POP JUMP JUMPDEST PUSH0 PUSH1 0x8 DUP4 MUL PUSH2 0x1F2F PUSH32 0xFFFFFFFFFFFFFFFFFFFFFFFFFFFFFFFFFFFFFFFFFFFFFFFFFFFFFFFFFFFFFFFF DUP3 PUSH2 0x1EF4 JUMP JUMPDEST PUSH2 0x1F39 DUP7 DUP4 PUSH2 0x1EF4 JUMP JUMPDEST SWAP6 POP DUP1 NOT DUP5 AND SWAP4 POP DUP1 DUP7 AND DUP5 OR SWAP3 POP POP POP SWAP4 SWAP3 POP POP POP JUMP JUMPDEST PUSH0 DUP2 SWAP1 POP SWAP2 SWAP1 POP JUMP JUMPDEST PUSH0 PUSH2 0x1F74 PUSH2 0x1F6F PUSH2 0x1F6A DUP5 PUSH2 0x1930 JUMP JUMPDEST PUSH2 0x1F51 JUMP JUMPDEST PUSH2 0x1930 JUMP JUMPDEST SWAP1 POP SWAP2 SWAP1 POP JUMP JUMPDEST PUSH0 DUP2 SWAP1 POP SWAP2 SWAP1 POP JUMP JUMPDEST PUSH2 0x1F8D DUP4 PUSH2 0x1F5A JUMP JUMPDEST PUSH2 0x1FA1 PUSH2 0x1F99 DUP3 PUSH2 0x1F7B JUMP JUMPDEST DUP5 DUP5 SLOAD PUSH2 0x1F00 JUMP JUMPDEST DUP3 SSTORE POP POP POP POP JUMP JUMPDEST PUSH0 SWAP1 JUMP JUMPDEST PUSH2 0x1FB5 PUSH2 0x1FA9 JUMP JUMPDEST PUSH2 0x1FC0 DUP2 DUP5 DUP5 PUSH2 0x1F84 JUMP JUMPDEST POP POP POP JUMP JUMPDEST JUMPDEST DUP2 DUP2 LT ISZERO PUSH2 0x1FE3 JUMPI PUSH2 0x1FD8 PUSH0 DUP3 PUSH2 0x1FAD JUMP JUMPDEST PUSH1 0x1 DUP2 ADD SWAP1 POP PUSH2 0x1FC6 JUMP JUMPDEST POP POP JUMP JUMPDEST PUSH1 0x1F DUP3 GT ISZERO PUSH2 0x2028 JUMPI PUSH2 0x1FF9 DUP2 PUSH2 0x1ED3 JUMP JUMPDEST PUSH2 0x2002 DUP5 PUSH2 0x1EE5 JUMP JUMPDEST DUP2 ADD PUSH1 0x20 DUP6 LT ISZERO PUSH2 0x2011 JUMPI DUP2 SWAP1 POP JUMPDEST PUSH2 0x2025 PUSH2 0x201D DUP6 PUSH2 0x1EE5 JUMP JUMPDEST DUP4 ADD DUP3 PUSH2 0x1FC5 JUMP JUMPDEST POP POP JUMPDEST POP POP POP JUMP JUMPDEST PUSH0 DUP3 DUP3 SHR SWAP1 POP SWAP3 SWAP2 POP POP JUMP JUMPDEST PUSH0 PUSH2 0x2048 PUSH0 NOT DUP5 PUSH1 0x8 MUL PUSH2 0x202D JUMP JUMPDEST NOT DUP1 DUP4 AND SWAP2 POP POP SWAP3 SWAP2 POP POP JUMP JUMPDEST PUSH0 PUSH2 0x2060 DUP4 DUP4 PUSH2 0x2039 JUMP JUMPDEST SWAP2 POP DUP3 PUSH1 0x2 MUL DUP3 OR SWAP1 POP SWAP3 SWAP2 POP POP JUMP JUMPDEST DUP2 DUP2 SUB PUSH2 0x207E JUMPI POP POP PUSH2 0x2153 JUMP JUMPDEST PUSH2 0x2087 DUP3 PUSH2 0x1EBE JUMP JUMPDEST PUSH8 0xFFFFFFFFFFFFFFFF DUP2 GT ISZERO PUSH2 0x20A0 JUMPI PUSH2 0x209F PUSH2 0x1655 JUMP JUMPDEST JUMPDEST PUSH2 0x20AA DUP3 SLOAD PUSH2 0x1E8E JUMP JUMPDEST PUSH2 0x20B5 DUP3 DUP3 DUP6 PUSH2 0x1FE7 JUMP JUMPDEST PUSH0 PUSH1 0x1F DUP4 GT PUSH1 0x1 DUP2 EQ PUSH2 0x20E2 JUMPI PUSH0 DUP5 ISZERO PUSH2 0x20D0 JUMPI DUP3 DUP8 ADD SLOAD SWAP1 POP JUMPDEST PUSH2 0x20DA DUP6 DUP3 PUSH2 0x2055 JUMP JUMPDEST DUP7 SSTORE POP PUSH2 0x214C JUMP JUMPDEST PUSH1 0x1F NOT DUP5 AND PUSH2 0x20F0 DUP8 PUSH2 0x1ED3 JUMP JUMPDEST SWAP7 POP PUSH2 0x20FB DUP7 PUSH2 0x1ED3 JUMP JUMPDEST PUSH0 JUMPDEST DUP3 DUP2 LT ISZERO PUSH2 0x2122 JUMPI DUP5 DUP10 ADD SLOAD DUP3 SSTORE PUSH1 0x1 DUP3 ADD SWAP2 POP PUSH1 0x1 DUP6 ADD SWAP5 POP PUSH1 0x20 DUP2 ADD SWAP1 POP PUSH2 0x20FD JUMP JUMPDEST DUP7 DUP4 LT ISZERO PUSH2 0x213F JUMPI DUP5 DUP10 ADD SLOAD PUSH2 0x213B PUSH1 0x1F DUP10 AND DUP3 PUSH2 0x2039 JUMP JUMPDEST DUP4 SSTORE POP JUMPDEST PUSH1 0x1 PUSH1 0x2 DUP9 MUL ADD DUP9 SSTORE POP POP POP JUMPDEST POP POP POP POP POP POP JUMPDEST JUMP JUMPDEST PUSH32 0x4E487B7100000000000000000000000000000000000000000000000000000000 PUSH0 MSTORE PUSH1 0x31 PUSH1 0x4 MSTORE PUSH1 0x24 PUSH0 REVERT JUMPDEST PUSH0 PUSH2 0x218C DUP3 PUSH2 0x1BA4 JUMP JUMPDEST SWAP2 POP PUSH2 0x2197 DUP4 PUSH2 0x1BA4 JUMP JUMPDEST SWAP3 POP DUP3 DUP3 MUL PUSH2 0x21A5 DUP2 PUSH2 0x1BA4 JUMP JUMPDEST SWAP2 POP DUP1 DUP3 EQ PUSH2 0x21B7 JUMPI PUSH2 0x21B6 PUSH2 0x1CE4 JUMP JUMPDEST JUMPDEST POP SWAP3 SWAP2 POP POP JUMP JUMPDEST PUSH2 0x21C7 DUP3 PUSH2 0x1A5D JUMP JUMPDEST PUSH8 0xFFFFFFFFFFFFFFFF DUP2 GT ISZERO PUSH2 0x21E0 JUMPI PUSH2 0x21DF PUSH2 0x1655 JUMP JUMPDEST JUMPDEST PUSH2 0x21EA DUP3 SLOAD PUSH2 0x1E8E JUMP JUMPDEST PUSH2 0x21F5 DUP3 DUP3 DUP6 PUSH2 0x1FE7 JUMP JUMPDEST PUSH0 PUSH1 0x20 SWAP1 POP PUSH1 0x1F DUP4 GT PUSH1 0x1 DUP2 EQ PUSH2 0x2226 JUMPI PUSH0 DUP5 ISZERO PUSH2 0x2214 JUMPI DUP3 DUP8 ADD MLOAD SWAP1 POP JUMPDEST PUSH2 0x221E DUP6 DUP3 PUSH2 0x2055 JUMP JUMPDEST DUP7 SSTORE POP PUSH2 0x2285 JUMP JUMPDEST PUSH1 0x1F NOT DUP5 AND PUSH2 0x2234 DUP7 PUSH2 0x1ED3 JUMP JUMPDEST PUSH0 JUMPDEST DUP3 DUP2 LT ISZERO PUSH2 0x225B JUMPI DUP5 DUP10 ADD MLOAD DUP3 SSTORE PUSH1 0x1 DUP3 ADD SWAP2 POP PUSH1 0x20 DUP6 ADD SWAP5 POP PUSH1 0x20 DUP2 ADD SWAP1 POP PUSH2 0x2236 JUMP JUMPDEST DUP7 DUP4 LT ISZERO PUSH2 0x2278 JUMPI DUP5 DUP10 ADD MLOAD PUSH2 0x2274 PUSH1 0x1F DUP10 AND DUP3 PUSH2 0x2039 JUMP JUMPDEST DUP4 SSTORE POP JUMPDEST PUSH1 0x1 PUSH1 0x2 DUP9 MUL ADD DUP9 SSTORE POP POP POP JUMPDEST POP POP POP POP POP POP JUMP JUMPDEST PUSH0 DUP2 SWAP1 POP DUP2 PUSH0 MSTORE PUSH1 0x20 PUSH0 KECCAK256 SWAP1 POP SWAP2 SWAP1 POP JUMP JUMPDEST PUSH0 DUP2 SLOAD PUSH2 0x22AB DUP2 PUSH2 0x1E8E JUMP JUMPDEST PUSH2 0x22B5 DUP2 DUP7 PUSH2 0x1D52 JUMP JUMPDEST SWAP5 POP PUSH1 0x1 DUP3 AND PUSH0 DUP2 EQ PUSH2 0x22CF JUMPI PUSH1 0x1 DUP2 EQ PUSH2 0x22E4 JUMPI PUSH2 0x2316 JUMP JUMPDEST PUSH1 0xFF NOT DUP4 AND DUP7 MSTORE DUP2 ISZERO ISZERO DUP3 MUL DUP7 ADD SWAP4 POP PUSH2 0x2316 JUMP JUMPDEST PUSH2 0x22ED DUP6 PUSH2 0x228D JUMP JUMPDEST PUSH0 JUMPDEST DUP4 DUP2 LT ISZERO PUSH2 0x230E JUMPI DUP2 SLOAD DUP2 DUP10 ADD MSTORE PUSH1 0x1 DUP3 ADD SWAP2 POP PUSH1 0x20 DUP2 ADD SWAP1 POP PUSH2 0x22EF JUMP JUMPDEST DUP4 DUP9 ADD SWAP6 POP POP POP JUMPDEST POP POP POP SWAP3 SWAP2 POP POP JUMP JUMPDEST PUSH0 PUSH2 0x232A DUP3 DUP5 PUSH2 0x229F JUMP JUMPDEST SWAP2 POP DUP2 SWAP1 POP SWAP3 SWAP2 POP POP JUMP JUMPDEST PUSH0 DUP2 SWAP1 POP SWAP3 SWAP2 POP POP JUMP JUMPDEST PUSH0 PUSH2 0x2349 DUP3 PUSH2 0x1A5D JUMP JUMPDEST PUSH2 0x2353 DUP2 DUP6 PUSH2 0x2335 JUMP JUMPDEST SWAP4 POP PUSH2 0x2363 DUP2 DUP6 PUSH1 0x20 DUP7 ADD PUSH2 0x1A77 JUMP JUMPDEST DUP1 DUP5 ADD SWAP2 POP POP SWAP3 SWAP2 POP POP JUMP JUMPDEST PUSH0 PUSH2 0x237A DUP3 DUP15 PUSH2 0x233F JUMP JUMPDEST SWAP2 POP PUSH2 0x2386 DUP3 DUP14 PUSH2 0x233F JUMP JUMPDEST SWAP2 POP PUSH2 0x2392 DUP3 DUP13 PUSH2 0x233F JUMP JUMPDEST SWAP2 POP PUSH2 0x239E DUP3 DUP12 PUSH2 0x233F JUMP JUMPDEST SWAP2 POP PUSH2 0x23AA DUP3 DUP11 PUSH2 0x233F JUMP JUMPDEST SWAP2 POP PUSH2 0x23B6 DUP3 DUP10 PUSH2 0x233F JUMP JUMPDEST SWAP2 POP PUSH2 0x23C2 DUP3 DUP9 PUSH2 0x233F JUMP JUMPDEST SWAP2 POP PUSH2 0x23CE DUP3 DUP8 PUSH2 0x233F JUMP JUMPDEST SWAP2 POP PUSH2 0x23DA DUP3 DUP7 PUSH2 0x233F JUMP JUMPDEST SWAP2 POP PUSH2 0x23E6 DUP3 DUP6 PUSH2 0x233F JUMP JUMPDEST SWAP2 POP PUSH2 0x23F2 DUP3 DUP5 PUSH2 0x233F JUMP JUMPDEST SWAP2 POP DUP2 SWAP1 POP SWAP13 SWAP12 POP POP POP POP POP POP POP POP POP POP POP POP JUMP JUMPDEST PUSH0 PUSH2 0x2411 DUP3 PUSH2 0x1BA4 JUMP JUMPDEST SWAP2 POP PUSH0 DUP3 SUB PUSH2 0x2423 JUMPI PUSH2 0x2422 PUSH2 0x1CE4 JUMP JUMPDEST JUMPDEST PUSH1 0x1 DUP3 SUB SWAP1 POP SWAP2 SWAP1 POP JUMP JUMPDEST PUSH0 PUSH2 0x2438 DUP3 PUSH2 0x1BA4 JUMP JUMPDEST SWAP2 POP PUSH2 0x2443 DUP4 PUSH2 0x1BA4 JUMP JUMPDEST SWAP3 POP DUP3 DUP3 SUB SWAP1 POP PUSH1 0xFF DUP2 GT ISZERO PUSH2 0x245C JUMPI PUSH2 0x245B PUSH2 0x1CE4 JUMP JUMPDEST JUMPDEST SWAP3 SWAP2 POP POP JUMP JUMPDEST PUSH32 0x4E487B7100000000000000000000000000000000000000000000000000000000 PUSH0 MSTORE PUSH1 0x12 PUSH1 0x4 MSTORE PUSH1 0x24 PUSH0 REVERT JUMPDEST PUSH0 PUSH2 0x2499 DUP3 PUSH2 0x1930 JUMP JUMPDEST SWAP2 POP PUSH2 0x24A4 DUP4 PUSH2 0x1930 JUMP JUMPDEST SWAP3 POP DUP3 PUSH2 0x24B4 JUMPI PUSH2 0x24B3 PUSH2 0x2462 JUMP JUMPDEST JUMPDEST DUP3 DUP3 MOD SWAP1 POP SWAP3 SWAP2 POP POP JUMP INVALID LOG2 PUSH5 0x6970667358 0x22 SLT KECCAK256 GASPRICE PUSH28 0xF0C8291A344A5CF250D784E7DA588AD03DD9C068C246E5AF0CB20BA7 0xC0 RETURNDATACOPY PUSH5 0x736F6C6343 STOP ADDMOD BYTE STOP CALLER "
		},
		"gasEstimates": {
			"creation": {
				"codeDepositCost": "1892200",
				"executionCost": "infinite",
				"totalCost": "infinite"
			},
			"external": {
				"cancelaContratoComprador(uint16,string)": "infinite",
				"cancelaContratoVendedor(uint16,string)": "infinite",
				"contratosArras(uint256)": "infinite",
				"enviarArrasComprador(uint16,string)": "infinite",
				"handleOracleFulfillment(bytes32,bytes,bytes)": "infinite",
				"iniciarCompra(uint16,string,string,string,uint256,uint8)": "infinite",
				"owner()": "2505",
				"removeContrato(uint256)": "infinite",
				"transfer(address,uint256)": "infinite"
			},
			"internal": {
				"encontraContrato(uint16,string memory)": "infinite",
				"fulfillRequest(bytes32,bytes memory,bytes memory)": "15",
				"validaCpf(string memory)": "infinite"
			}
		},
		"methodIdentifiers": {
			"cancelaContratoComprador(uint16,string)": "1d6d5b6e",
			"cancelaContratoVendedor(uint16,string)": "edc509af",
			"contratosArras(uint256)": "b58be5df",
			"enviarArrasComprador(uint16,string)": "68892bf4",
			"handleOracleFulfillment(bytes32,bytes,bytes)": "0ca76175",
			"iniciarCompra(uint16,string,string,string,uint256,uint8)": "e0fc94b0",
			"owner()": "8da5cb5b",
			"removeContrato(uint256)": "4188b719",
			"transfer(address,uint256)": "a9059cbb"
		}
	},
	"abi": [
		{
			"inputs": [],
			"stateMutability": "nonpayable",
			"type": "constructor"
		},
		{
			"inputs": [],
			"name": "OnlyRouterCanFulfill",
			"type": "error"
		},
		{
			"anonymous": false,
			"inputs": [
				{
					"indexed": true,
					"internalType": "bytes32",
					"name": "id",
					"type": "bytes32"
				}
			],
			"name": "RequestFulfilled",
			"type": "event"
		},
		{
			"anonymous": false,
			"inputs": [
				{
					"indexed": true,
					"internalType": "bytes32",
					"name": "id",
					"type": "bytes32"
				}
			],
			"name": "RequestSent",
			"type": "event"
		},
		{
			"inputs": [
				{
					"internalType": "uint16",
					"name": "_renavam",
					"type": "uint16"
				},
				{
					"internalType": "string",
					"name": "_placa",
					"type": "string"
				}
			],
			"name": "cancelaContratoComprador",
			"outputs": [],
			"stateMutability": "payable",
			"type": "function"
		},
		{
			"inputs": [
				{
					"internalType": "uint16",
					"name": "_renavam",
					"type": "uint16"
				},
				{
					"internalType": "string",
					"name": "_placa",
					"type": "string"
				}
			],
			"name": "cancelaContratoVendedor",
			"outputs": [],
			"stateMutability": "payable",
			"type": "function"
		},
		{
			"inputs": [
				{
					"internalType": "uint256",
					"name": "",
					"type": "uint256"
				}
			],
			"name": "contratosArras",
			"outputs": [
				{
					"internalType": "uint16",
					"name": "renavam",
					"type": "uint16"
				},
				{
					"internalType": "string",
					"name": "placa",
					"type": "string"
				},
				{
					"internalType": "address",
					"name": "carteiraComprador",
					"type": "address"
				},
				{
					"internalType": "address",
					"name": "carteiraVendedor",
					"type": "address"
				},
				{
					"internalType": "string",
					"name": "cpfComprador",
					"type": "string"
				},
				{
					"internalType": "string",
					"name": "cpfVendedor",
					"type": "string"
				},
				{
					"internalType": "uint256",
					"name": "valorArras",
					"type": "uint256"
				},
				{
					"internalType": "uint256",
					"name": "valorTotal",
					"type": "uint256"
				},
				{
					"internalType": "uint256",
					"name": "dataInicial",
					"type": "uint256"
				},
				{
					"internalType": "uint256",
					"name": "prazoDias",
					"type": "uint256"
				},
				{
					"internalType": "bool",
					"name": "pago",
					"type": "bool"
				}
			],
			"stateMutability": "view",
			"type": "function"
		},
		{
			"inputs": [
				{
					"internalType": "uint16",
					"name": "_renavam",
					"type": "uint16"
				},
				{
					"internalType": "string",
					"name": "_placa",
					"type": "string"
				}
			],
			"name": "enviarArrasComprador",
			"outputs": [],
			"stateMutability": "payable",
			"type": "function"
		},
		{
			"inputs": [
				{
					"internalType": "bytes32",
					"name": "requestId",
					"type": "bytes32"
				},
				{
					"internalType": "bytes",
					"name": "response",
					"type": "bytes"
				},
				{
					"internalType": "bytes",
					"name": "err",
					"type": "bytes"
				}
			],
			"name": "handleOracleFulfillment",
			"outputs": [],
			"stateMutability": "nonpayable",
			"type": "function"
		},
		{
			"inputs": [
				{
					"internalType": "uint16",
					"name": "_renavam",
					"type": "uint16"
				},
				{
					"internalType": "string",
					"name": "_placa",
					"type": "string"
				},
				{
					"internalType": "string",
					"name": "_cpfComprador",
					"type": "string"
				},
				{
					"internalType": "string",
					"name": "_cpfVendedor",
					"type": "string"
				},
				{
					"internalType": "uint256",
					"name": "_valorTotal",
					"type": "uint256"
				},
				{
					"internalType": "uint8",
					"name": "_prazoDias",
					"type": "uint8"
				}
			],
			"name": "iniciarCompra",
			"outputs": [],
			"stateMutability": "payable",
			"type": "function"
		},
		{
			"inputs": [],
			"name": "owner",
			"outputs": [
				{
					"internalType": "address",
					"name": "",
					"type": "address"
				}
			],
			"stateMutability": "view",
			"type": "function"
		},
		{
			"inputs": [
				{
					"internalType": "uint256",
					"name": "_index",
					"type": "uint256"
				}
			],
			"name": "removeContrato",
			"outputs": [],
			"stateMutability": "nonpayable",
			"type": "function"
		},
		{
			"inputs": [
				{
					"internalType": "address",
					"name": "_to",
					"type": "address"
				},
				{
					"internalType": "uint256",
					"name": "amount",
					"type": "uint256"
				}
			],
			"name": "transfer",
			"outputs": [],
			"stateMutability": "payable",
			"type": "function"
		}
	]
}