{
	"data": {
		"bytecode": {
			"linkReferences": {},
			"object": "60a060405273b83e47c2bc239b3bf370bc41e1459a34b41238d060015f6101000a81548173ffffffffffffffffffffffffffffffffffffffff021916908373ffffffffffffffffffffffffffffffffffffffff1602179055507f66756e2d657468657265756d2d7365706f6c69612d31000000000000000000005f1b600255620493e060035f6101000a81548163ffffffff021916908363ffffffff1602179055503480156100ac575f80fd5b5060405161470d38038061470d83398181016040528101906100ce91906101d4565b60015f9054906101000a900473ffffffffffffffffffffffffffffffffffffffff168073ffffffffffffffffffffffffffffffffffffffff1660808173ffffffffffffffffffffffffffffffffffffffff168152505050335f806101000a81548173ffffffffffffffffffffffffffffffffffffffff021916908373ffffffffffffffffffffffffffffffffffffffff16021790555080600360046101000a81548167ffffffffffffffff021916908367ffffffffffffffff160217905550506101ff565b5f80fd5b5f67ffffffffffffffff82169050919050565b6101b381610197565b81146101bd575f80fd5b50565b5f815190506101ce816101aa565b92915050565b5f602082840312156101e9576101e8610193565b5b5f6101f6848285016101c0565b91505092915050565b6080516144ef61021e5f395f81816103200152611fae01526144ef5ff3fe608060405260043610610090575f3560e01c80638da5cb5b116100585780638da5cb5b14610138578063a9059cbb14610162578063b58be5df1461017e578063bc6c50de146101c4578063bd2449b5146101e057610090565b806302b28c5a146100945780630ca76175146100b05780631befbf39146100d857806350b888461461010057806361d839bd1461011c575b5f80fd5b6100ae60048036038101906100a99190612ddd565b6101fc565b005b3480156100bb575f80fd5b506100d660048036038101906100d19190612f24565b61031e565b005b3480156100e3575f80fd5b506100fe60048036038101906100f99190612ddd565b6103e0565b005b61011a60048036038101906101159190612ddd565b6109c1565b005b61013660048036038101906101319190612fdf565b610a34565b005b348015610143575f80fd5b5061014c610c60565b6040516101599190613117565b60405180910390f35b61017c6004803603810190610177919061315a565b610c83565b005b348015610189575f80fd5b506101a4600480360381019061019f9190613198565b610d89565b6040516101bb9b9a9998979695949392919061324c565b60405180910390f35b6101de60048036038101906101d99190612ddd565b611050565b005b6101fa60048036038101906101f59190612ddd565b61127f565b005b5f6102078383611435565b90503373ffffffffffffffffffffffffffffffffffffffff166006828154811061023457610233613311565b5b905f5260205f2090600b02016002015f9054906101000a900473ffffffffffffffffffffffffffffffffffffffff1673ffffffffffffffffffffffffffffffffffffffff1614610282575f80fd5b6006818154811061029657610295613311565b5b905f5260205f2090600b020160060154346102b1919061336b565b600682815481106102c5576102c4613311565b5b905f5260205f2090600b020160070154146102de575f80fd5b6001600682815481106102f4576102f3613311565b5b905f5260205f2090600b0201600a015f6101000a81548160ff021916908315150217905550505050565b7f000000000000000000000000000000000000000000000000000000000000000073ffffffffffffffffffffffffffffffffffffffff163373ffffffffffffffffffffffffffffffffffffffff16146103a3576040517fc6829f8300000000000000000000000000000000000000000000000000000000815260040160405180910390fd5b6103ae838383611503565b827f85e1543bf2f84fe80c6badbce3648c8539ad1df4d2b3d822938ca0538be727e660405160405180910390a2505050565b5f6103eb8383611435565b90505f73ffffffffffffffffffffffffffffffffffffffff166006828154811061041857610417613311565b5b905f5260205f2090600b02016002015f9054906101000a900473ffffffffffffffffffffffffffffffffffffffff1673ffffffffffffffffffffffffffffffffffffffff1614801561048c5750426006828154811061047a57610479613311565b5b905f5260205f2090600b020160080154105b156105e6575f80600683815481106104a7576104a6613311565b5b905f5260205f2090600b02016002015f9054906101000a900473ffffffffffffffffffffffffffffffffffffffff1673ffffffffffffffffffffffffffffffffffffffff1660068481548110610500576104ff613311565b5b905f5260205f2090600b02016006015460405161051c906133cb565b5f6040518083038185875af1925050503d805f8114610556576040519150601f19603f3d011682016040523d82523d5f602084013e61055b565b606091505b5091509150816105a0576040517f08c379a000000000000000000000000000000000000000000000000000000000815260040161059790613429565b60405180910390fd5b6105a9836118b9565b7fb749d4cbef5280ab440645a46bbada3f52c0d015210cfceabd4e5b4e49195f776040516105d6906134b7565b60405180910390a15050506109bd565b42600682815481106105fb576105fa613311565b5b905f5260205f2090600b02016009015410801561064557506006818154811061062757610626613311565b5b905f5260205f2090600b0201600a015f9054906101000a900460ff16155b156107b0575f60026006838154811061066157610660613311565b5b905f5260205f2090600b02016006015461067b91906134d5565b90505f806006848154811061069357610692613311565b5b905f5260205f2090600b02016003015f9054906101000a900473ffffffffffffffffffffffffffffffffffffffff1673ffffffffffffffffffffffffffffffffffffffff16836040516106e5906133cb565b5f6040518083038185875af1925050503d805f811461071f576040519150601f19603f3d011682016040523d82523d5f602084013e610724565b606091505b509150915081610769576040517f08c379a000000000000000000000000000000000000000000000000000000000815260040161076090613429565b60405180910390fd5b610772846118b9565b7fb749d4cbef5280ab440645a46bbada3f52c0d015210cfceabd4e5b4e49195f7760405161079f90613586565b60405180910390a1505050506109bd565b600681815481106107c4576107c3613311565b5b905f5260205f2090600b0201600a015f9054906101000a900460ff16156109bb576107ed612b10565b5f6040518060600160405280603581526020016144856035913990508060405160200161081a9190613674565b604051602081830303815290604052905080600684815481106108405761083f613311565b5b905f5260205f2090600b0201600401604051602001610860929190613784565b60405160208183030381529060405290508060405160200161088291906137cd565b604051602081830303815290604052905080600684815481106108a8576108a7613311565b5b905f5260205f2090600b02016001016040516020016108c8929190613784565b6040516020818303038152906040529050806040516020016108ea9190613818565b604051602081830303815290604052905080600684815481106109105761090f613311565b5b905f5260205f2090600b02015f0160405160200161092f929190613784565b604051602081830303815290604052905080604051602001610951919061396b565b60405160208183030381529060405290506109758183611b9590919063ffffffff16565b6109b261098183611ba5565b600360049054906101000a900467ffffffffffffffff1660035f9054906101000a900463ffffffff16600254611faa565b60048190555050505b505b5050565b5f6109cc8383611435565b905033600682815481106109e3576109e2613311565b5b905f5260205f2090600b02016002015f6101000a81548173ffffffffffffffffffffffffffffffffffffffff021916908373ffffffffffffffffffffffffffffffffffffffff160217905550505050565b610a3d84612089565b610a45575f80fd5b610a4e83612089565b610a56575f80fd5b610a5e612b7f565b86815f018190525085816020018190525033816060019073ffffffffffffffffffffffffffffffffffffffff16908173ffffffffffffffffffffffffffffffffffffffff1681525050848160800181905250838160a00181905250348160c0018181525050828160e00181815250505f81610140019015159081151581525050600542610aeb919061336b565b816101200181815250504281610100018181525050600681908060018154018082558091505060019003905f5260205f2090600b02015f909190919091505f820151815f019081610b3c9190613b17565b506020820151816001019081610b529190613b17565b506040820151816002015f6101000a81548173ffffffffffffffffffffffffffffffffffffffff021916908373ffffffffffffffffffffffffffffffffffffffff1602179055506060820151816003015f6101000a81548173ffffffffffffffffffffffffffffffffffffffff021916908373ffffffffffffffffffffffffffffffffffffffff1602179055506080820151816004019081610bf49190613b17565b5060a0820151816005019081610c0a9190613b17565b5060c0820151816006015560e082015181600701556101008201518160080155610120820151816009015561014082015181600a015f6101000a81548160ff021916908315150217905550505050505050505050565b5f8054906101000a900473ffffffffffffffffffffffffffffffffffffffff1681565b5f8054906101000a900473ffffffffffffffffffffffffffffffffffffffff1673ffffffffffffffffffffffffffffffffffffffff163373ffffffffffffffffffffffffffffffffffffffff1614610cd9575f80fd5b5f808373ffffffffffffffffffffffffffffffffffffffff1683604051610cff906133cb565b5f6040518083038185875af1925050503d805f8114610d39576040519150601f19603f3d011682016040523d82523d5f602084013e610d3e565b606091505b509150915081610d83576040517f08c379a0000000000000000000000000000000000000000000000000000000008152600401610d7a90613429565b60405180910390fd5b50505050565b60068181548110610d98575f80fd5b905f5260205f2090600b02015f91509050805f018054610db7906136c2565b80601f0160208091040260200160405190810160405280929190818152602001828054610de3906136c2565b8015610e2e5780601f10610e0557610100808354040283529160200191610e2e565b820191905f5260205f20905b815481529060010190602001808311610e1157829003601f168201915b505050505090806001018054610e43906136c2565b80601f0160208091040260200160405190810160405280929190818152602001828054610e6f906136c2565b8015610eba5780601f10610e9157610100808354040283529160200191610eba565b820191905f5260205f20905b815481529060010190602001808311610e9d57829003601f168201915b505050505090806002015f9054906101000a900473ffffffffffffffffffffffffffffffffffffffff1690806003015f9054906101000a900473ffffffffffffffffffffffffffffffffffffffff1690806004018054610f19906136c2565b80601f0160208091040260200160405190810160405280929190818152602001828054610f45906136c2565b8015610f905780601f10610f6757610100808354040283529160200191610f90565b820191905f5260205f20905b815481529060010190602001808311610f7357829003601f168201915b505050505090806005018054610fa5906136c2565b80601f0160208091040260200160405190810160405280929190818152602001828054610fd1906136c2565b801561101c5780601f10610ff35761010080835404028352916020019161101c565b820191905f5260205f20905b815481529060010190602001808311610fff57829003601f168201915b50505050509080600601549080600701549080600801549080600901549080600a015f9054906101000a900460ff1690508b565b5f61105b8383611435565b90503373ffffffffffffffffffffffffffffffffffffffff166006828154811061108857611087613311565b5b905f5260205f2090600b02016003015f9054906101000a900473ffffffffffffffffffffffffffffffffffffffff1673ffffffffffffffffffffffffffffffffffffffff16146110d6575f80fd5b5f73ffffffffffffffffffffffffffffffffffffffff166006828154811061110157611100613311565b5b905f5260205f2090600b02016002015f9054906101000a900473ffffffffffffffffffffffffffffffffffffffff1673ffffffffffffffffffffffffffffffffffffffff160361114f575f80fd5b5f60026006838154811061116657611165613311565b5b905f5260205f2090600b02016006015461118091906134d5565b90505f806006848154811061119857611197613311565b5b905f5260205f2090600b02016002015f9054906101000a900473ffffffffffffffffffffffffffffffffffffffff1673ffffffffffffffffffffffffffffffffffffffff16836040516111ea906133cb565b5f6040518083038185875af1925050503d805f8114611224576040519150601f19603f3d011682016040523d82523d5f602084013e611229565b606091505b50915091508161126e576040517f08c379a000000000000000000000000000000000000000000000000000000000815260040161126590613429565b60405180910390fd5b611277846118b9565b505050505050565b5f61128a8383611435565b90503373ffffffffffffffffffffffffffffffffffffffff16600682815481106112b7576112b6613311565b5b905f5260205f2090600b02016002015f9054906101000a900473ffffffffffffffffffffffffffffffffffffffff1673ffffffffffffffffffffffffffffffffffffffff1614611305575f80fd5b5f60026006838154811061131c5761131b613311565b5b905f5260205f2090600b02016006015461133691906134d5565b90505f806006848154811061134e5761134d613311565b5b905f5260205f2090600b02016003015f9054906101000a900473ffffffffffffffffffffffffffffffffffffffff1673ffffffffffffffffffffffffffffffffffffffff16836040516113a0906133cb565b5f6040518083038185875af1925050503d805f81146113da576040519150601f19603f3d011682016040523d82523d5f602084013e6113df565b606091505b509150915081611424576040517f08c379a000000000000000000000000000000000000000000000000000000000815260040161141b90613429565b60405180910390fd5b61142d846118b9565b505050505050565b5f805f90505f5b6006805490508110156114ee5784805190602001206006828154811061146557611464613311565b5b905f5260205f2090600b02015f016040516114809190613c78565b60405180910390201480156114d257508380519060200120600682815481106114ac576114ab613311565b5b905f5260205f2090600b02016001016040516114c89190613c78565b6040518091039020145b156114e15780925050506114fd565b808060010191505061143c565b50806114f8575f80fd5b5f9150505b92915050565b8260045414611547576040517f08c379a000000000000000000000000000000000000000000000000000000000815260040161153e90613429565b60405180910390fd5b5f8261155290613cbb565b5f1c90504260066005548154811061156d5761156c613311565b5b905f5260205f2090600b02016009015410801561158a575060cc81145b1561171f575f6006600554815481106115a6576115a5613311565b5b905f5260205f2090600b0201600601546006600554815481106115cc576115cb613311565b5b905f5260205f2090600b0201600701546115e6919061336b565b90505f80600660055481548110611600576115ff613311565b5b905f5260205f2090600b02016002015f9054906101000a900473ffffffffffffffffffffffffffffffffffffffff1673ffffffffffffffffffffffffffffffffffffffff1683604051611652906133cb565b5f6040518083038185875af1925050503d805f811461168c576040519150601f19603f3d011682016040523d82523d5f602084013e611691565b606091505b5091509150816116d6576040517f08c379a00000000000000000000000000000000000000000000000000000000081526004016116cd90613429565b60405180910390fd5b6116e16005546118b9565b7fb749d4cbef5280ab440645a46bbada3f52c0d015210cfceabd4e5b4e49195f7760405161170e90613ddd565b60405180910390a1505050506118b4565b60c881036118b2575f60066005548154811061173e5761173d613311565b5b905f5260205f2090600b02016006015460066005548154811061176457611763613311565b5b905f5260205f2090600b02016007015461177e919061336b565b90505f8060066005548154811061179857611797613311565b5b905f5260205f2090600b02016003015f9054906101000a900473ffffffffffffffffffffffffffffffffffffffff1673ffffffffffffffffffffffffffffffffffffffff16836040516117ea906133cb565b5f6040518083038185875af1925050503d805f8114611824576040519150601f19603f3d011682016040523d82523d5f602084013e611829565b606091505b50915091508161186e576040517f08c379a000000000000000000000000000000000000000000000000000000000815260040161186590613429565b60405180910390fd5b7fb749d4cbef5280ab440645a46bbada3f52c0d015210cfceabd4e5b4e49195f7760405161189b90613e6b565b60405180910390a16118ae6005546118b9565b5050505b505b505050565b60068054905081106118c9575f80fd5b5f8190505b60016006805490506118e09190613e89565b811015611ab25760066001826118f6919061336b565b8154811061190757611906613311565b5b905f5260205f2090600b02016006828154811061192757611926613311565b5b905f5260205f2090600b02015f8201815f0190816119459190613ed1565b506001820181600101908161195a9190613ed1565b50600282015f9054906101000a900473ffffffffffffffffffffffffffffffffffffffff16816002015f6101000a81548173ffffffffffffffffffffffffffffffffffffffff021916908373ffffffffffffffffffffffffffffffffffffffff160217905550600382015f9054906101000a900473ffffffffffffffffffffffffffffffffffffffff16816003015f6101000a81548173ffffffffffffffffffffffffffffffffffffffff021916908373ffffffffffffffffffffffffffffffffffffffff16021790555060048201816004019081611a399190613ed1565b5060058201816005019081611a4e9190613ed1565b5060068201548160060155600782015481600701556008820154816008015560098201548160090155600a82015f9054906101000a900460ff1681600a015f6101000a81548160ff02191690831515021790555090505080806001019150506118ce565b506006805480611ac557611ac4613fb6565b5b600190038181905f5260205f2090600b02015f8082015f611ae69190612c00565b600182015f611af59190612c00565b600282015f6101000a81549073ffffffffffffffffffffffffffffffffffffffff0219169055600382015f6101000a81549073ffffffffffffffffffffffffffffffffffffffff0219169055600482015f611b509190612c00565b600582015f611b5f9190612c00565b600682015f9055600782015f9055600882015f9055600982015f9055600a82015f6101000a81549060ff02191690555050905550565b611ba1825f80846122f5565b5050565b60605f611bb361010061239b565b9050611bfd6040518060400160405280600c81526020017f636f64654c6f636174696f6e0000000000000000000000000000000000000000815250826123c090919063ffffffff16565b611c25835f01516002811115611c1657611c15613fe3565b5b826123e890919063ffffffff16565b611c6d6040518060400160405280600881526020017f6c616e6775616765000000000000000000000000000000000000000000000000815250826123c090919063ffffffff16565b611c9583604001515f811115611c8657611c85613fe3565b5b826123e890919063ffffffff16565b611cdd6040518060400160405280600681526020017f736f757263650000000000000000000000000000000000000000000000000000815250826123c090919063ffffffff16565b611cf48360600151826123c090919063ffffffff16565b5f8360a00151511115611da857611d496040518060400160405280600481526020017f6172677300000000000000000000000000000000000000000000000000000000815250826123c090919063ffffffff16565b611d5281612437565b5f5b8360a0015151811015611d9d57611d928460a001518281518110611d7b57611d7a613311565b5b6020026020010151836123c090919063ffffffff16565b806001019050611d54565b50611da78161245f565b5b5f8360800151511115611ee7575f6002811115611dc857611dc7613fe3565b5b83602001516002811115611ddf57611dde613fe3565b5b03611e16576040517fa80d31f700000000000000000000000000000000000000000000000000000000815260040160405180910390fd5b611e5e6040518060400160405280600f81526020017f736563726574734c6f636174696f6e0000000000000000000000000000000000815250826123c090919063ffffffff16565b611e8783602001516002811115611e7857611e77613fe3565b5b826123e890919063ffffffff16565b611ecf6040518060400160405280600781526020017f7365637265747300000000000000000000000000000000000000000000000000815250826123c090919063ffffffff16565b611ee683608001518261248790919063ffffffff16565b5b5f8360c00151511115611f9b57611f3c6040518060400160405280600981526020017f6279746573417267730000000000000000000000000000000000000000000000815250826123c090919063ffffffff16565b611f4581612437565b5f5b8360c0015151811015611f9057611f858460c001518281518110611f6e57611f6d613311565b5b60200260200101518361248790919063ffffffff16565b806001019050611f47565b50611f9a8161245f565b5b805f01515f0151915050919050565b5f807f000000000000000000000000000000000000000000000000000000000000000073ffffffffffffffffffffffffffffffffffffffff1663461d27628688600188886040518663ffffffff1660e01b815260040161200e9594939291906140c3565b6020604051808303815f875af115801561202a573d5f803e3d5ffd5b505050506040513d601f19601f8201168201806040525081019061204e919061412f565b9050807f1131472297a800fee664d1d89cfa8f7676ff07189ecc53f80bbb5f4969099db860405160405180910390a280915050949350505050565b5f80829050600b8151146120a0575f9150506122f0565b5f5b600a8160ff161015612124575f6120bb8260ff166124af565b90505f8182838485868788898a8b6040516020016120e39b9a9998979695949392919061415a565b60405160208183030381529060405290508080519060200120848051906020012003612115575f9450505050506122f0565b505080806001019150506120a2565b505f80600a90505f5b60098160ff16101561219d578180612144906141fe565b92506030858360ff168151811061215e5761215d613311565b5b602001015160f81c60f81b60f81c6121769190614225565b6121809190614259565b60ff168361218e919061336b565b9250808060010191505061212d565b505f600b836121ac91906142c2565b9050600281106121c85780600b6121c39190613e89565b6121ca565b5f5b9050806030856009815181106121e3576121e2613311565b5b602001015160f81c60f81b60f81c6121fb9190614225565b60ff161461220f575f9450505050506122f0565b5f9250600b91505f5b600a8160ff16101561228857828061222f906141fe565b93506030868360ff168151811061224957612248613311565b5b602001015160f81c60f81b60f81c6122619190614225565b61226b9190614259565b60ff1684612279919061336b565b93508080600101915050612218565b50600b8361229691906142c2565b9050600281106122b25780600b6122ad9190613e89565b6122b4565b5f5b905080603085600a815181106122cd576122cc613311565b5b602001015160f81c60f81b60f81c6122e59190614225565b60ff16149450505050505b919050565b5f81510361232f576040517f22ce3edd00000000000000000000000000000000000000000000000000000000815260040160405180910390fd5b82845f0190600281111561234657612345613fe3565b5b9081600281111561235a57612359613fe3565b5b815250508184604001905f81111561237557612374613fe3565b5b90815f81111561238857612387613fe3565b5b8152505080846060018190525050505050565b6123a3612c3d565b6123b0815f015183612579565b505f816020018181525050919050565b6123cd82600383516125ef565b6123e381835f015161278f90919063ffffffff16565b505050565b61240960026005600660ff16901b17835f01516127ab90919063ffffffff16565b50612433828260405160200161241f91906142f2565b604051602081830303815290604052612487565b5050565b612442816004612812565b600181602001818151612455919061336b565b9150818152505050565b61246a816007612812565b60018160200181815161247d9190613e89565b9150818152505050565b61249482600283516125ef565b6124aa81835f015161278f90919063ffffffff16565b505050565b60605f60016124bd84612837565b0190505f8167ffffffffffffffff8111156124db576124da612cb9565b5b6040519080825280601f01601f19166020018201604052801561250d5781602001600182028036833780820191505090505b5090505f82602001820190505b60011561256e578080600190039150507f3031323334353637383961626364656600000000000000000000000000000000600a86061a8153600a858161256357612562614295565b5b0494505f850361251a575b819350505050919050565b612581612c5c565b5f60208361258f91906142c2565b146125bb576020826125a191906142c2565b60206125ad9190613e89565b826125b8919061336b565b91505b818360200181815250506040518084525f8152828101602001818110156125e0575f80fd5b80604052505082905092915050565b60178167ffffffffffffffff1611612629576126238160058460ff16901b60ff1617845f01516127ab90919063ffffffff16565b5061278a565b60ff8167ffffffffffffffff16116126855761265b601860058460ff16901b17845f01516127ab90919063ffffffff16565b5061267f8167ffffffffffffffff166001855f01516129889092919063ffffffff16565b50612789565b61ffff8167ffffffffffffffff16116126e2576126b8601960058460ff16901b17845f01516127ab90919063ffffffff16565b506126dc8167ffffffffffffffff166002855f01516129889092919063ffffffff16565b50612788565b63ffffffff8167ffffffffffffffff161161274157612717601a60058460ff16901b17845f01516127ab90919063ffffffff16565b5061273b8167ffffffffffffffff166004855f01516129889092919063ffffffff16565b50612787565b612761601b60058460ff16901b17845f01516127ab90919063ffffffff16565b506127858167ffffffffffffffff166008855f01516129889092919063ffffffff16565b505b5b5b5b505050565b612797612c5c565b6127a383838451612a11565b905092915050565b6127b3612c5c565b5f835f01515190505f6001826127c9919061336b565b9050846020015182106127ed576127ec856002836127e791906134d5565b612aee565b5b84516020838201018581538151831115612805578282525b5050849250505092915050565b612832601f60058360ff16901b17835f01516127ab90919063ffffffff16565b505050565b5f805f90507a184f03e93ff9f4daa797ed6e38ed64bf6a1f0100000000000000008310612893577a184f03e93ff9f4daa797ed6e38ed64bf6a1f010000000000000000838161288957612888614295565b5b0492506040810190505b6d04ee2d6d415b85acef810000000083106128d0576d04ee2d6d415b85acef810000000083816128c6576128c5614295565b5b0492506020810190505b662386f26fc1000083106128ff57662386f26fc1000083816128f5576128f4614295565b5b0492506010810190505b6305f5e1008310612928576305f5e100838161291e5761291d614295565b5b0492506008810190505b612710831061294d57612710838161294357612942614295565b5b0492506004810190505b60648310612970576064838161296657612965614295565b5b0492506002810190505b600a831061297f576001810190505b80915050919050565b612990612c5c565b5f845f01515190505f81846129a5919061336b565b905085602001518111156129ca576129c9866002836129c491906134d5565b612aee565b5b5f6001856101006129db919061443a565b6129e59190613e89565b905086518281018783198251161781528151841115612a02578382525b50508693505050509392505050565b612a19612c5c565b8251821115612a26575f80fd5b5f845f01515190505f8382612a3b919061336b565b90508560200151811115612a6057612a5f86600283612a5a91906134d5565b612aee565b5b5f8087518051856020830101935080851115612a7a578482525b60208901925050505b60208610612ac15780518252602082612a9c919061336b565b9150602081612aab919061336b565b9050602086612aba9190613e89565b9550612a83565b5f6001876020036101000a0390508019825116818451168181178552505050879450505050509392505050565b5f825f01519050612aff8383612579565b50612b0a838261278f565b50505050565b6040518060e001604052805f6002811115612b2e57612b2d613fe3565b5b81526020015f6002811115612b4657612b45613fe3565b5b81526020015f80811115612b5d57612b5c613fe3565b5b8152602001606081526020016060815260200160608152602001606081525090565b60405180610160016040528060608152602001606081526020015f73ffffffffffffffffffffffffffffffffffffffff1681526020015f73ffffffffffffffffffffffffffffffffffffffff16815260200160608152602001606081526020015f81526020015f81526020015f81526020015f81526020015f151581525090565b508054612c0c906136c2565b5f825580601f10612c1d5750612c3a565b601f0160209004905f5260205f2090810190612c399190612c75565b5b50565b6040518060400160405280612c50612c5c565b81526020015f81525090565b6040518060400160405280606081526020015f81525090565b5b80821115612c8c575f815f905550600101612c76565b5090565b5f604051905090565b5f80fd5b5f80fd5b5f80fd5b5f80fd5b5f601f19601f8301169050919050565b7f4e487b71000000000000000000000000000000000000000000000000000000005f52604160045260245ffd5b612cef82612ca9565b810181811067ffffffffffffffff82111715612d0e57612d0d612cb9565b5b80604052505050565b5f612d20612c90565b9050612d2c8282612ce6565b919050565b5f67ffffffffffffffff821115612d4b57612d4a612cb9565b5b612d5482612ca9565b9050602081019050919050565b828183375f83830152505050565b5f612d81612d7c84612d31565b612d17565b905082815260208101848484011115612d9d57612d9c612ca5565b5b612da8848285612d61565b509392505050565b5f82601f830112612dc457612dc3612ca1565b5b8135612dd4848260208601612d6f565b91505092915050565b5f8060408385031215612df357612df2612c99565b5b5f83013567ffffffffffffffff811115612e1057612e0f612c9d565b5b612e1c85828601612db0565b925050602083013567ffffffffffffffff811115612e3d57612e3c612c9d565b5b612e4985828601612db0565b9150509250929050565b5f819050919050565b612e6581612e53565b8114612e6f575f80fd5b50565b5f81359050612e8081612e5c565b92915050565b5f67ffffffffffffffff821115612ea057612e9f612cb9565b5b612ea982612ca9565b9050602081019050919050565b5f612ec8612ec384612e86565b612d17565b905082815260208101848484011115612ee457612ee3612ca5565b5b612eef848285612d61565b509392505050565b5f82601f830112612f0b57612f0a612ca1565b5b8135612f1b848260208601612eb6565b91505092915050565b5f805f60608486031215612f3b57612f3a612c99565b5b5f612f4886828701612e72565b935050602084013567ffffffffffffffff811115612f6957612f68612c9d565b5b612f7586828701612ef7565b925050604084013567ffffffffffffffff811115612f9657612f95612c9d565b5b612fa286828701612ef7565b9150509250925092565b5f819050919050565b612fbe81612fac565b8114612fc8575f80fd5b50565b5f81359050612fd981612fb5565b92915050565b5f805f805f8060c08789031215612ff957612ff8612c99565b5b5f87013567ffffffffffffffff81111561301657613015612c9d565b5b61302289828a01612db0565b965050602087013567ffffffffffffffff81111561304357613042612c9d565b5b61304f89828a01612db0565b955050604087013567ffffffffffffffff8111156130705761306f612c9d565b5b61307c89828a01612db0565b945050606087013567ffffffffffffffff81111561309d5761309c612c9d565b5b6130a989828a01612db0565b93505060806130ba89828a01612fcb565b92505060a06130cb89828a01612fcb565b9150509295509295509295565b5f73ffffffffffffffffffffffffffffffffffffffff82169050919050565b5f613101826130d8565b9050919050565b613111816130f7565b82525050565b5f60208201905061312a5f830184613108565b92915050565b613139816130f7565b8114613143575f80fd5b50565b5f8135905061315481613130565b92915050565b5f80604083850312156131705761316f612c99565b5b5f61317d85828601613146565b925050602061318e85828601612fcb565b9150509250929050565b5f602082840312156131ad576131ac612c99565b5b5f6131ba84828501612fcb565b91505092915050565b5f81519050919050565b5f82825260208201905092915050565b8281835e5f83830152505050565b5f6131f5826131c3565b6131ff81856131cd565b935061320f8185602086016131dd565b61321881612ca9565b840191505092915050565b61322c81612fac565b82525050565b5f8115159050919050565b61324681613232565b82525050565b5f610160820190508181035f830152613265818e6131eb565b90508181036020830152613279818d6131eb565b9050613288604083018c613108565b613295606083018b613108565b81810360808301526132a7818a6131eb565b905081810360a08301526132bb81896131eb565b90506132ca60c0830188613223565b6132d760e0830187613223565b6132e5610100830186613223565b6132f3610120830185613223565b61330161014083018461323d565b9c9b505050505050505050505050565b7f4e487b71000000000000000000000000000000000000000000000000000000005f52603260045260245ffd5b7f4e487b71000000000000000000000000000000000000000000000000000000005f52601160045260245ffd5b5f61337582612fac565b915061338083612fac565b92508282019050808211156133985761339761333e565b5b92915050565b5f81905092915050565b50565b5f6133b65f8361339e565b91506133c1826133a8565b5f82019050919050565b5f6133d5826133ab565b9150819050919050565b7f4661696c656420746f2073656e642045746865720000000000000000000000005f82015250565b5f6134136014836131cd565b915061341e826133df565b602082019050919050565b5f6020820190508181035f83015261344081613407565b9050919050565b7f436f6d707261646f72206e616f207061676f752061732061727261732c2076615f8201527f6c6f72207265656d626f6c7361646f20616f2076656e6465646f720000000000602082015250565b5f6134a1603b836131cd565b91506134ac82613447565b604082019050919050565b5f6020820190508181035f8301526134ce81613495565b9050919050565b5f6134df82612fac565b91506134ea83612fac565b92508282026134f881612fac565b9150828204841483151761350f5761350e61333e565b5b5092915050565b7f436f6d707261646f72206e616f207061676f752076616c6f7220646f206361725f8201527f726f2c20617272617320656e76696164617320616f2076656e6465646f720000602082015250565b5f613570603e836131cd565b915061357b82613516565b604082019050919050565b5f6020820190508181035f83015261359d81613564565b9050919050565b5f81905092915050565b5f6135b8826131c3565b6135c281856135a4565b93506135d28185602086016131dd565b80840191505092915050565b7f75726c3a206068747470733a2f2f6170692e7269636172646f6775696d6172615f8201527f65732e6465762f76312f76656963756c6f732f70726f70726965746172696f2f60208201527f6370662f00000000000000000000000000000000000000000000000000000000604082015250565b5f61365e6044836135a4565b9150613669826135de565b604482019050919050565b5f61367f82846135ae565b915061368a82613652565b915081905092915050565b7f4e487b71000000000000000000000000000000000000000000000000000000005f52602260045260245ffd5b5f60028204905060018216806136d957607f821691505b6020821081036136ec576136eb613695565b5b50919050565b5f819050815f5260205f209050919050565b5f8154613710816136c2565b61371a81866135a4565b9450600182165f811461373457600181146137495761377b565b60ff198316865281151582028601935061377b565b613752856136f2565b5f5b8381101561377357815481890152600182019150602081019050613754565b838801955050505b50505092915050565b5f61378f82856135ae565b915061379b8284613704565b91508190509392505050565b7f2f706c6163612f00000000000000000000000000000000000000000000000000815250565b5f6137d882846135ae565b91506137e3826137a7565b60078201915081905092915050565b7f2f72656e6176616d2f0000000000000000000000000000000000000000000000815250565b5f61382382846135ae565b915061382e826137f2565b60098201915081905092915050565b7f607d293b69662028617069526573706f6e73652e6572726f7229207b726574755f8201527f726e2046756e6374696f6e732e656e636f6465537472696e672827353030272960208201527f3b7d636f6e7374207b2064617461207d203d20617069526573706f6e73653b6360408201527f6f6e73742076657269666963615472616e73666572656e636961203d2064617460608201527f612e72656e6176616d20213d3d206e756c6c203f202732303027203a2027323060808201527f34273b2072657475726e2046756e6374696f6e732e656e636f6465537472696e60a08201527f672876657269666963615472616e73666572656e636961293b0000000000000060c082015250565b5f61395560d9836135a4565b91506139608261383d565b60d982019050919050565b5f61397682846135ae565b915061398182613949565b915081905092915050565b5f6020601f8301049050919050565b5f82821b905092915050565b5f600883026139d67fffffffffffffffffffffffffffffffffffffffffffffffffffffffffffffffff8261399b565b6139e0868361399b565b95508019841693508086168417925050509392505050565b5f819050919050565b5f613a1b613a16613a1184612fac565b6139f8565b612fac565b9050919050565b5f819050919050565b613a3483613a01565b613a48613a4082613a22565b8484546139a7565b825550505050565b5f90565b613a5c613a50565b613a67818484613a2b565b505050565b5b81811015613a8a57613a7f5f82613a54565b600181019050613a6d565b5050565b601f821115613acf57613aa0816136f2565b613aa98461398c565b81016020851015613ab8578190505b613acc613ac48561398c565b830182613a6c565b50505b505050565b5f82821c905092915050565b5f613aef5f1984600802613ad4565b1980831691505092915050565b5f613b078383613ae0565b9150826002028217905092915050565b613b20826131c3565b67ffffffffffffffff811115613b3957613b38612cb9565b5b613b4382546136c2565b613b4e828285613a8e565b5f60209050601f831160018114613b7f575f8415613b6d578287015190505b613b778582613afc565b865550613bde565b601f198416613b8d866136f2565b5f5b82811015613bb457848901518255600182019150602085019450602081019050613b8f565b86831015613bd15784890151613bcd601f891682613ae0565b8355505b6001600288020188555050505b505050505050565b5f819050815f5260205f209050919050565b5f8154613c04816136c2565b613c0e818661339e565b9450600182165f8114613c285760018114613c3d57613c6f565b60ff1983168652811515820286019350613c6f565b613c4685613be6565b5f5b83811015613c6757815481890152600182019150602081019050613c48565b838801955050505b50505092915050565b5f613c838284613bf8565b915081905092915050565b5f81519050919050565b5f819050602082019050919050565b5f613cb28251612e53565b80915050919050565b5f613cc582613c8e565b82613ccf84613c98565b9050613cda81613ca7565b92506020821015613d1a57613d157fffffffffffffffffffffffffffffffffffffffffffffffffffffffffffffffff8360200360080261399b565b831692505b5050919050565b7f436f6d707261646f72207061676f75206f2076656e6465646f722c20706f72655f8201527f6d206f20636172726f206e616f20666f69207472616e7366657269646f2e205260208201527f65656d626f6c736f206520617272617320656e76696164617320616f20636f6d60408201527f707261646f720000000000000000000000000000000000000000000000000000606082015250565b5f613dc76066836131cd565b9150613dd282613d21565b608082019050919050565b5f6020820190508181035f830152613df481613dbb565b9050919050565b7f436f6e747261746f2063756d707269646f2c2076616c6f7220656e766961646f5f8201527f20616f2076656e6465646f720000000000000000000000000000000000000000602082015250565b5f613e55602c836131cd565b9150613e6082613dfb565b604082019050919050565b5f6020820190508181035f830152613e8281613e49565b9050919050565b5f613e9382612fac565b9150613e9e83612fac565b9250828203905081811115613eb657613eb561333e565b5b92915050565b5f81549050613eca816136c2565b9050919050565b818103613edf575050613fb4565b613ee882613ebc565b67ffffffffffffffff811115613f0157613f00612cb9565b5b613f0b82546136c2565b613f16828285613a8e565b5f601f831160018114613f43575f8415613f31578287015490505b613f3b8582613afc565b865550613fad565b601f198416613f51876136f2565b9650613f5c866136f2565b5f5b82811015613f8357848901548255600182019150600185019450602081019050613f5e565b86831015613fa05784890154613f9c601f891682613ae0565b8355505b6001600288020188555050505b5050505050505b565b7f4e487b71000000000000000000000000000000000000000000000000000000005f52603160045260245ffd5b7f4e487b71000000000000000000000000000000000000000000000000000000005f52602160045260245ffd5b5f67ffffffffffffffff82169050919050565b61402c81614010565b82525050565b5f82825260208201905092915050565b5f61404c82613c8e565b6140568185614032565b93506140668185602086016131dd565b61406f81612ca9565b840191505092915050565b5f61ffff82169050919050565b6140908161407a565b82525050565b5f63ffffffff82169050919050565b6140ae81614096565b82525050565b6140bd81612e53565b82525050565b5f60a0820190506140d65f830188614023565b81810360208301526140e88187614042565b90506140f76040830186614087565b61410460608301856140a5565b61411160808301846140b4565b9695505050505050565b5f8151905061412981612e5c565b92915050565b5f6020828403121561414457614143612c99565b5b5f6141518482850161411b565b91505092915050565b5f614165828e6135ae565b9150614171828d6135ae565b915061417d828c6135ae565b9150614189828b6135ae565b9150614195828a6135ae565b91506141a182896135ae565b91506141ad82886135ae565b91506141b982876135ae565b91506141c582866135ae565b91506141d182856135ae565b91506141dd82846135ae565b91508190509c9b505050505050505050505050565b5f60ff82169050919050565b5f614208826141f2565b91505f820361421a5761421961333e565b5b600182039050919050565b5f61422f826141f2565b915061423a836141f2565b9250828203905060ff8111156142535761425261333e565b5b92915050565b5f614263826141f2565b915061426e836141f2565b925082820261427c816141f2565b915080821461428e5761428d61333e565b5b5092915050565b7f4e487b71000000000000000000000000000000000000000000000000000000005f52601260045260245ffd5b5f6142cc82612fac565b91506142d783612fac565b9250826142e7576142e6614295565b5b828206905092915050565b5f6020820190506143055f830184613223565b92915050565b5f8160011c9050919050565b5f808291508390505b60018511156143605780860481111561433c5761433b61333e565b5b600185161561434b5780820291505b80810290506143598561430b565b9450614320565b94509492505050565b5f826143785760019050614433565b81614385575f9050614433565b816001811461439b57600281146143a5576143d4565b6001915050614433565b60ff8411156143b7576143b661333e565b5b8360020a9150848211156143ce576143cd61333e565b5b50614433565b5060208310610133831016604e8410600b84101617156144095782820a9050838111156144045761440361333e565b5b614433565b6144168484846001614317565b9250905081840481111561442d5761442c61333e565b5b81810290505b9392505050565b5f61444482612fac565b915061444f83612fac565b925061447c7fffffffffffffffffffffffffffffffffffffffffffffffffffffffffffffffff8484614369565b90509291505056fe636f6e737420617069526573706f6e7365203d2061776169742046756e6374696f6e732e6d616b654874747052657175657374287ba26469706673582212208b8be73f75b2bf68f873ab65ed0696a0d5295268c01375f05432f0ea3378139564736f6c634300081a0033",
			"opcodes": "PUSH1 0xA0 PUSH1 0x40 MSTORE PUSH20 0xB83E47C2BC239B3BF370BC41E1459A34B41238D0 PUSH1 0x1 PUSH0 PUSH2 0x100 EXP DUP2 SLOAD DUP2 PUSH20 0xFFFFFFFFFFFFFFFFFFFFFFFFFFFFFFFFFFFFFFFF MUL NOT AND SWAP1 DUP4 PUSH20 0xFFFFFFFFFFFFFFFFFFFFFFFFFFFFFFFFFFFFFFFF AND MUL OR SWAP1 SSTORE POP PUSH32 0x66756E2D657468657265756D2D7365706F6C69612D3100000000000000000000 PUSH0 SHL PUSH1 0x2 SSTORE PUSH3 0x493E0 PUSH1 0x3 PUSH0 PUSH2 0x100 EXP DUP2 SLOAD DUP2 PUSH4 0xFFFFFFFF MUL NOT AND SWAP1 DUP4 PUSH4 0xFFFFFFFF AND MUL OR SWAP1 SSTORE POP CALLVALUE DUP1 ISZERO PUSH2 0xAC JUMPI PUSH0 DUP1 REVERT JUMPDEST POP PUSH1 0x40 MLOAD PUSH2 0x470D CODESIZE SUB DUP1 PUSH2 0x470D DUP4 CODECOPY DUP2 DUP2 ADD PUSH1 0x40 MSTORE DUP2 ADD SWAP1 PUSH2 0xCE SWAP2 SWAP1 PUSH2 0x1D4 JUMP JUMPDEST PUSH1 0x1 PUSH0 SWAP1 SLOAD SWAP1 PUSH2 0x100 EXP SWAP1 DIV PUSH20 0xFFFFFFFFFFFFFFFFFFFFFFFFFFFFFFFFFFFFFFFF AND DUP1 PUSH20 0xFFFFFFFFFFFFFFFFFFFFFFFFFFFFFFFFFFFFFFFF AND PUSH1 0x80 DUP2 PUSH20 0xFFFFFFFFFFFFFFFFFFFFFFFFFFFFFFFFFFFFFFFF AND DUP2 MSTORE POP POP POP CALLER PUSH0 DUP1 PUSH2 0x100 EXP DUP2 SLOAD DUP2 PUSH20 0xFFFFFFFFFFFFFFFFFFFFFFFFFFFFFFFFFFFFFFFF MUL NOT AND SWAP1 DUP4 PUSH20 0xFFFFFFFFFFFFFFFFFFFFFFFFFFFFFFFFFFFFFFFF AND MUL OR SWAP1 SSTORE POP DUP1 PUSH1 0x3 PUSH1 0x4 PUSH2 0x100 EXP DUP2 SLOAD DUP2 PUSH8 0xFFFFFFFFFFFFFFFF MUL NOT AND SWAP1 DUP4 PUSH8 0xFFFFFFFFFFFFFFFF AND MUL OR SWAP1 SSTORE POP POP PUSH2 0x1FF JUMP JUMPDEST PUSH0 DUP1 REVERT JUMPDEST PUSH0 PUSH8 0xFFFFFFFFFFFFFFFF DUP3 AND SWAP1 POP SWAP2 SWAP1 POP JUMP JUMPDEST PUSH2 0x1B3 DUP2 PUSH2 0x197 JUMP JUMPDEST DUP2 EQ PUSH2 0x1BD JUMPI PUSH0 DUP1 REVERT JUMPDEST POP JUMP JUMPDEST PUSH0 DUP2 MLOAD SWAP1 POP PUSH2 0x1CE DUP2 PUSH2 0x1AA JUMP JUMPDEST SWAP3 SWAP2 POP POP JUMP JUMPDEST PUSH0 PUSH1 0x20 DUP3 DUP5 SUB SLT ISZERO PUSH2 0x1E9 JUMPI PUSH2 0x1E8 PUSH2 0x193 JUMP JUMPDEST JUMPDEST PUSH0 PUSH2 0x1F6 DUP5 DUP3 DUP6 ADD PUSH2 0x1C0 JUMP JUMPDEST SWAP2 POP POP SWAP3 SWAP2 POP POP JUMP JUMPDEST PUSH1 0x80 MLOAD PUSH2 0x44EF PUSH2 0x21E PUSH0 CODECOPY PUSH0 DUP2 DUP2 PUSH2 0x320 ADD MSTORE PUSH2 0x1FAE ADD MSTORE PUSH2 0x44EF PUSH0 RETURN INVALID PUSH1 0x80 PUSH1 0x40 MSTORE PUSH1 0x4 CALLDATASIZE LT PUSH2 0x90 JUMPI PUSH0 CALLDATALOAD PUSH1 0xE0 SHR DUP1 PUSH4 0x8DA5CB5B GT PUSH2 0x58 JUMPI DUP1 PUSH4 0x8DA5CB5B EQ PUSH2 0x138 JUMPI DUP1 PUSH4 0xA9059CBB EQ PUSH2 0x162 JUMPI DUP1 PUSH4 0xB58BE5DF EQ PUSH2 0x17E JUMPI DUP1 PUSH4 0xBC6C50DE EQ PUSH2 0x1C4 JUMPI DUP1 PUSH4 0xBD2449B5 EQ PUSH2 0x1E0 JUMPI PUSH2 0x90 JUMP JUMPDEST DUP1 PUSH4 0x2B28C5A EQ PUSH2 0x94 JUMPI DUP1 PUSH4 0xCA76175 EQ PUSH2 0xB0 JUMPI DUP1 PUSH4 0x1BEFBF39 EQ PUSH2 0xD8 JUMPI DUP1 PUSH4 0x50B88846 EQ PUSH2 0x100 JUMPI DUP1 PUSH4 0x61D839BD EQ PUSH2 0x11C JUMPI JUMPDEST PUSH0 DUP1 REVERT JUMPDEST PUSH2 0xAE PUSH1 0x4 DUP1 CALLDATASIZE SUB DUP2 ADD SWAP1 PUSH2 0xA9 SWAP2 SWAP1 PUSH2 0x2DDD JUMP JUMPDEST PUSH2 0x1FC JUMP JUMPDEST STOP JUMPDEST CALLVALUE DUP1 ISZERO PUSH2 0xBB JUMPI PUSH0 DUP1 REVERT JUMPDEST POP PUSH2 0xD6 PUSH1 0x4 DUP1 CALLDATASIZE SUB DUP2 ADD SWAP1 PUSH2 0xD1 SWAP2 SWAP1 PUSH2 0x2F24 JUMP JUMPDEST PUSH2 0x31E JUMP JUMPDEST STOP JUMPDEST CALLVALUE DUP1 ISZERO PUSH2 0xE3 JUMPI PUSH0 DUP1 REVERT JUMPDEST POP PUSH2 0xFE PUSH1 0x4 DUP1 CALLDATASIZE SUB DUP2 ADD SWAP1 PUSH2 0xF9 SWAP2 SWAP1 PUSH2 0x2DDD JUMP JUMPDEST PUSH2 0x3E0 JUMP JUMPDEST STOP JUMPDEST PUSH2 0x11A PUSH1 0x4 DUP1 CALLDATASIZE SUB DUP2 ADD SWAP1 PUSH2 0x115 SWAP2 SWAP1 PUSH2 0x2DDD JUMP JUMPDEST PUSH2 0x9C1 JUMP JUMPDEST STOP JUMPDEST PUSH2 0x136 PUSH1 0x4 DUP1 CALLDATASIZE SUB DUP2 ADD SWAP1 PUSH2 0x131 SWAP2 SWAP1 PUSH2 0x2FDF JUMP JUMPDEST PUSH2 0xA34 JUMP JUMPDEST STOP JUMPDEST CALLVALUE DUP1 ISZERO PUSH2 0x143 JUMPI PUSH0 DUP1 REVERT JUMPDEST POP PUSH2 0x14C PUSH2 0xC60 JUMP JUMPDEST PUSH1 0x40 MLOAD PUSH2 0x159 SWAP2 SWAP1 PUSH2 0x3117 JUMP JUMPDEST PUSH1 0x40 MLOAD DUP1 SWAP2 SUB SWAP1 RETURN JUMPDEST PUSH2 0x17C PUSH1 0x4 DUP1 CALLDATASIZE SUB DUP2 ADD SWAP1 PUSH2 0x177 SWAP2 SWAP1 PUSH2 0x315A JUMP JUMPDEST PUSH2 0xC83 JUMP JUMPDEST STOP JUMPDEST CALLVALUE DUP1 ISZERO PUSH2 0x189 JUMPI PUSH0 DUP1 REVERT JUMPDEST POP PUSH2 0x1A4 PUSH1 0x4 DUP1 CALLDATASIZE SUB DUP2 ADD SWAP1 PUSH2 0x19F SWAP2 SWAP1 PUSH2 0x3198 JUMP JUMPDEST PUSH2 0xD89 JUMP JUMPDEST PUSH1 0x40 MLOAD PUSH2 0x1BB SWAP12 SWAP11 SWAP10 SWAP9 SWAP8 SWAP7 SWAP6 SWAP5 SWAP4 SWAP3 SWAP2 SWAP1 PUSH2 0x324C JUMP JUMPDEST PUSH1 0x40 MLOAD DUP1 SWAP2 SUB SWAP1 RETURN JUMPDEST PUSH2 0x1DE PUSH1 0x4 DUP1 CALLDATASIZE SUB DUP2 ADD SWAP1 PUSH2 0x1D9 SWAP2 SWAP1 PUSH2 0x2DDD JUMP JUMPDEST PUSH2 0x1050 JUMP JUMPDEST STOP JUMPDEST PUSH2 0x1FA PUSH1 0x4 DUP1 CALLDATASIZE SUB DUP2 ADD SWAP1 PUSH2 0x1F5 SWAP2 SWAP1 PUSH2 0x2DDD JUMP JUMPDEST PUSH2 0x127F JUMP JUMPDEST STOP JUMPDEST PUSH0 PUSH2 0x207 DUP4 DUP4 PUSH2 0x1435 JUMP JUMPDEST SWAP1 POP CALLER PUSH20 0xFFFFFFFFFFFFFFFFFFFFFFFFFFFFFFFFFFFFFFFF AND PUSH1 0x6 DUP3 DUP2 SLOAD DUP2 LT PUSH2 0x234 JUMPI PUSH2 0x233 PUSH2 0x3311 JUMP JUMPDEST JUMPDEST SWAP1 PUSH0 MSTORE PUSH1 0x20 PUSH0 KECCAK256 SWAP1 PUSH1 0xB MUL ADD PUSH1 0x2 ADD PUSH0 SWAP1 SLOAD SWAP1 PUSH2 0x100 EXP SWAP1 DIV PUSH20 0xFFFFFFFFFFFFFFFFFFFFFFFFFFFFFFFFFFFFFFFF AND PUSH20 0xFFFFFFFFFFFFFFFFFFFFFFFFFFFFFFFFFFFFFFFF AND EQ PUSH2 0x282 JUMPI PUSH0 DUP1 REVERT JUMPDEST PUSH1 0x6 DUP2 DUP2 SLOAD DUP2 LT PUSH2 0x296 JUMPI PUSH2 0x295 PUSH2 0x3311 JUMP JUMPDEST JUMPDEST SWAP1 PUSH0 MSTORE PUSH1 0x20 PUSH0 KECCAK256 SWAP1 PUSH1 0xB MUL ADD PUSH1 0x6 ADD SLOAD CALLVALUE PUSH2 0x2B1 SWAP2 SWAP1 PUSH2 0x336B JUMP JUMPDEST PUSH1 0x6 DUP3 DUP2 SLOAD DUP2 LT PUSH2 0x2C5 JUMPI PUSH2 0x2C4 PUSH2 0x3311 JUMP JUMPDEST JUMPDEST SWAP1 PUSH0 MSTORE PUSH1 0x20 PUSH0 KECCAK256 SWAP1 PUSH1 0xB MUL ADD PUSH1 0x7 ADD SLOAD EQ PUSH2 0x2DE JUMPI PUSH0 DUP1 REVERT JUMPDEST PUSH1 0x1 PUSH1 0x6 DUP3 DUP2 SLOAD DUP2 LT PUSH2 0x2F4 JUMPI PUSH2 0x2F3 PUSH2 0x3311 JUMP JUMPDEST JUMPDEST SWAP1 PUSH0 MSTORE PUSH1 0x20 PUSH0 KECCAK256 SWAP1 PUSH1 0xB MUL ADD PUSH1 0xA ADD PUSH0 PUSH2 0x100 EXP DUP2 SLOAD DUP2 PUSH1 0xFF MUL NOT AND SWAP1 DUP4 ISZERO ISZERO MUL OR SWAP1 SSTORE POP POP POP POP JUMP JUMPDEST PUSH32 0x0 PUSH20 0xFFFFFFFFFFFFFFFFFFFFFFFFFFFFFFFFFFFFFFFF AND CALLER PUSH20 0xFFFFFFFFFFFFFFFFFFFFFFFFFFFFFFFFFFFFFFFF AND EQ PUSH2 0x3A3 JUMPI PUSH1 0x40 MLOAD PUSH32 0xC6829F8300000000000000000000000000000000000000000000000000000000 DUP2 MSTORE PUSH1 0x4 ADD PUSH1 0x40 MLOAD DUP1 SWAP2 SUB SWAP1 REVERT JUMPDEST PUSH2 0x3AE DUP4 DUP4 DUP4 PUSH2 0x1503 JUMP JUMPDEST DUP3 PUSH32 0x85E1543BF2F84FE80C6BADBCE3648C8539AD1DF4D2B3D822938CA0538BE727E6 PUSH1 0x40 MLOAD PUSH1 0x40 MLOAD DUP1 SWAP2 SUB SWAP1 LOG2 POP POP POP JUMP JUMPDEST PUSH0 PUSH2 0x3EB DUP4 DUP4 PUSH2 0x1435 JUMP JUMPDEST SWAP1 POP PUSH0 PUSH20 0xFFFFFFFFFFFFFFFFFFFFFFFFFFFFFFFFFFFFFFFF AND PUSH1 0x6 DUP3 DUP2 SLOAD DUP2 LT PUSH2 0x418 JUMPI PUSH2 0x417 PUSH2 0x3311 JUMP JUMPDEST JUMPDEST SWAP1 PUSH0 MSTORE PUSH1 0x20 PUSH0 KECCAK256 SWAP1 PUSH1 0xB MUL ADD PUSH1 0x2 ADD PUSH0 SWAP1 SLOAD SWAP1 PUSH2 0x100 EXP SWAP1 DIV PUSH20 0xFFFFFFFFFFFFFFFFFFFFFFFFFFFFFFFFFFFFFFFF AND PUSH20 0xFFFFFFFFFFFFFFFFFFFFFFFFFFFFFFFFFFFFFFFF AND EQ DUP1 ISZERO PUSH2 0x48C JUMPI POP TIMESTAMP PUSH1 0x6 DUP3 DUP2 SLOAD DUP2 LT PUSH2 0x47A JUMPI PUSH2 0x479 PUSH2 0x3311 JUMP JUMPDEST JUMPDEST SWAP1 PUSH0 MSTORE PUSH1 0x20 PUSH0 KECCAK256 SWAP1 PUSH1 0xB MUL ADD PUSH1 0x8 ADD SLOAD LT JUMPDEST ISZERO PUSH2 0x5E6 JUMPI PUSH0 DUP1 PUSH1 0x6 DUP4 DUP2 SLOAD DUP2 LT PUSH2 0x4A7 JUMPI PUSH2 0x4A6 PUSH2 0x3311 JUMP JUMPDEST JUMPDEST SWAP1 PUSH0 MSTORE PUSH1 0x20 PUSH0 KECCAK256 SWAP1 PUSH1 0xB MUL ADD PUSH1 0x2 ADD PUSH0 SWAP1 SLOAD SWAP1 PUSH2 0x100 EXP SWAP1 DIV PUSH20 0xFFFFFFFFFFFFFFFFFFFFFFFFFFFFFFFFFFFFFFFF AND PUSH20 0xFFFFFFFFFFFFFFFFFFFFFFFFFFFFFFFFFFFFFFFF AND PUSH1 0x6 DUP5 DUP2 SLOAD DUP2 LT PUSH2 0x500 JUMPI PUSH2 0x4FF PUSH2 0x3311 JUMP JUMPDEST JUMPDEST SWAP1 PUSH0 MSTORE PUSH1 0x20 PUSH0 KECCAK256 SWAP1 PUSH1 0xB MUL ADD PUSH1 0x6 ADD SLOAD PUSH1 0x40 MLOAD PUSH2 0x51C SWAP1 PUSH2 0x33CB JUMP JUMPDEST PUSH0 PUSH1 0x40 MLOAD DUP1 DUP4 SUB DUP2 DUP6 DUP8 GAS CALL SWAP3 POP POP POP RETURNDATASIZE DUP1 PUSH0 DUP2 EQ PUSH2 0x556 JUMPI PUSH1 0x40 MLOAD SWAP2 POP PUSH1 0x1F NOT PUSH1 0x3F RETURNDATASIZE ADD AND DUP3 ADD PUSH1 0x40 MSTORE RETURNDATASIZE DUP3 MSTORE RETURNDATASIZE PUSH0 PUSH1 0x20 DUP5 ADD RETURNDATACOPY PUSH2 0x55B JUMP JUMPDEST PUSH1 0x60 SWAP2 POP JUMPDEST POP SWAP2 POP SWAP2 POP DUP2 PUSH2 0x5A0 JUMPI PUSH1 0x40 MLOAD PUSH32 0x8C379A000000000000000000000000000000000000000000000000000000000 DUP2 MSTORE PUSH1 0x4 ADD PUSH2 0x597 SWAP1 PUSH2 0x3429 JUMP JUMPDEST PUSH1 0x40 MLOAD DUP1 SWAP2 SUB SWAP1 REVERT JUMPDEST PUSH2 0x5A9 DUP4 PUSH2 0x18B9 JUMP JUMPDEST PUSH32 0xB749D4CBEF5280AB440645A46BBADA3F52C0D015210CFCEABD4E5B4E49195F77 PUSH1 0x40 MLOAD PUSH2 0x5D6 SWAP1 PUSH2 0x34B7 JUMP JUMPDEST PUSH1 0x40 MLOAD DUP1 SWAP2 SUB SWAP1 LOG1 POP POP POP PUSH2 0x9BD JUMP JUMPDEST TIMESTAMP PUSH1 0x6 DUP3 DUP2 SLOAD DUP2 LT PUSH2 0x5FB JUMPI PUSH2 0x5FA PUSH2 0x3311 JUMP JUMPDEST JUMPDEST SWAP1 PUSH0 MSTORE PUSH1 0x20 PUSH0 KECCAK256 SWAP1 PUSH1 0xB MUL ADD PUSH1 0x9 ADD SLOAD LT DUP1 ISZERO PUSH2 0x645 JUMPI POP PUSH1 0x6 DUP2 DUP2 SLOAD DUP2 LT PUSH2 0x627 JUMPI PUSH2 0x626 PUSH2 0x3311 JUMP JUMPDEST JUMPDEST SWAP1 PUSH0 MSTORE PUSH1 0x20 PUSH0 KECCAK256 SWAP1 PUSH1 0xB MUL ADD PUSH1 0xA ADD PUSH0 SWAP1 SLOAD SWAP1 PUSH2 0x100 EXP SWAP1 DIV PUSH1 0xFF AND ISZERO JUMPDEST ISZERO PUSH2 0x7B0 JUMPI PUSH0 PUSH1 0x2 PUSH1 0x6 DUP4 DUP2 SLOAD DUP2 LT PUSH2 0x661 JUMPI PUSH2 0x660 PUSH2 0x3311 JUMP JUMPDEST JUMPDEST SWAP1 PUSH0 MSTORE PUSH1 0x20 PUSH0 KECCAK256 SWAP1 PUSH1 0xB MUL ADD PUSH1 0x6 ADD SLOAD PUSH2 0x67B SWAP2 SWAP1 PUSH2 0x34D5 JUMP JUMPDEST SWAP1 POP PUSH0 DUP1 PUSH1 0x6 DUP5 DUP2 SLOAD DUP2 LT PUSH2 0x693 JUMPI PUSH2 0x692 PUSH2 0x3311 JUMP JUMPDEST JUMPDEST SWAP1 PUSH0 MSTORE PUSH1 0x20 PUSH0 KECCAK256 SWAP1 PUSH1 0xB MUL ADD PUSH1 0x3 ADD PUSH0 SWAP1 SLOAD SWAP1 PUSH2 0x100 EXP SWAP1 DIV PUSH20 0xFFFFFFFFFFFFFFFFFFFFFFFFFFFFFFFFFFFFFFFF AND PUSH20 0xFFFFFFFFFFFFFFFFFFFFFFFFFFFFFFFFFFFFFFFF AND DUP4 PUSH1 0x40 MLOAD PUSH2 0x6E5 SWAP1 PUSH2 0x33CB JUMP JUMPDEST PUSH0 PUSH1 0x40 MLOAD DUP1 DUP4 SUB DUP2 DUP6 DUP8 GAS CALL SWAP3 POP POP POP RETURNDATASIZE DUP1 PUSH0 DUP2 EQ PUSH2 0x71F JUMPI PUSH1 0x40 MLOAD SWAP2 POP PUSH1 0x1F NOT PUSH1 0x3F RETURNDATASIZE ADD AND DUP3 ADD PUSH1 0x40 MSTORE RETURNDATASIZE DUP3 MSTORE RETURNDATASIZE PUSH0 PUSH1 0x20 DUP5 ADD RETURNDATACOPY PUSH2 0x724 JUMP JUMPDEST PUSH1 0x60 SWAP2 POP JUMPDEST POP SWAP2 POP SWAP2 POP DUP2 PUSH2 0x769 JUMPI PUSH1 0x40 MLOAD PUSH32 0x8C379A000000000000000000000000000000000000000000000000000000000 DUP2 MSTORE PUSH1 0x4 ADD PUSH2 0x760 SWAP1 PUSH2 0x3429 JUMP JUMPDEST PUSH1 0x40 MLOAD DUP1 SWAP2 SUB SWAP1 REVERT JUMPDEST PUSH2 0x772 DUP5 PUSH2 0x18B9 JUMP JUMPDEST PUSH32 0xB749D4CBEF5280AB440645A46BBADA3F52C0D015210CFCEABD4E5B4E49195F77 PUSH1 0x40 MLOAD PUSH2 0x79F SWAP1 PUSH2 0x3586 JUMP JUMPDEST PUSH1 0x40 MLOAD DUP1 SWAP2 SUB SWAP1 LOG1 POP POP POP POP PUSH2 0x9BD JUMP JUMPDEST PUSH1 0x6 DUP2 DUP2 SLOAD DUP2 LT PUSH2 0x7C4 JUMPI PUSH2 0x7C3 PUSH2 0x3311 JUMP JUMPDEST JUMPDEST SWAP1 PUSH0 MSTORE PUSH1 0x20 PUSH0 KECCAK256 SWAP1 PUSH1 0xB MUL ADD PUSH1 0xA ADD PUSH0 SWAP1 SLOAD SWAP1 PUSH2 0x100 EXP SWAP1 DIV PUSH1 0xFF AND ISZERO PUSH2 0x9BB JUMPI PUSH2 0x7ED PUSH2 0x2B10 JUMP JUMPDEST PUSH0 PUSH1 0x40 MLOAD DUP1 PUSH1 0x60 ADD PUSH1 0x40 MSTORE DUP1 PUSH1 0x35 DUP2 MSTORE PUSH1 0x20 ADD PUSH2 0x4485 PUSH1 0x35 SWAP2 CODECOPY SWAP1 POP DUP1 PUSH1 0x40 MLOAD PUSH1 0x20 ADD PUSH2 0x81A SWAP2 SWAP1 PUSH2 0x3674 JUMP JUMPDEST PUSH1 0x40 MLOAD PUSH1 0x20 DUP2 DUP4 SUB SUB DUP2 MSTORE SWAP1 PUSH1 0x40 MSTORE SWAP1 POP DUP1 PUSH1 0x6 DUP5 DUP2 SLOAD DUP2 LT PUSH2 0x840 JUMPI PUSH2 0x83F PUSH2 0x3311 JUMP JUMPDEST JUMPDEST SWAP1 PUSH0 MSTORE PUSH1 0x20 PUSH0 KECCAK256 SWAP1 PUSH1 0xB MUL ADD PUSH1 0x4 ADD PUSH1 0x40 MLOAD PUSH1 0x20 ADD PUSH2 0x860 SWAP3 SWAP2 SWAP1 PUSH2 0x3784 JUMP JUMPDEST PUSH1 0x40 MLOAD PUSH1 0x20 DUP2 DUP4 SUB SUB DUP2 MSTORE SWAP1 PUSH1 0x40 MSTORE SWAP1 POP DUP1 PUSH1 0x40 MLOAD PUSH1 0x20 ADD PUSH2 0x882 SWAP2 SWAP1 PUSH2 0x37CD JUMP JUMPDEST PUSH1 0x40 MLOAD PUSH1 0x20 DUP2 DUP4 SUB SUB DUP2 MSTORE SWAP1 PUSH1 0x40 MSTORE SWAP1 POP DUP1 PUSH1 0x6 DUP5 DUP2 SLOAD DUP2 LT PUSH2 0x8A8 JUMPI PUSH2 0x8A7 PUSH2 0x3311 JUMP JUMPDEST JUMPDEST SWAP1 PUSH0 MSTORE PUSH1 0x20 PUSH0 KECCAK256 SWAP1 PUSH1 0xB MUL ADD PUSH1 0x1 ADD PUSH1 0x40 MLOAD PUSH1 0x20 ADD PUSH2 0x8C8 SWAP3 SWAP2 SWAP1 PUSH2 0x3784 JUMP JUMPDEST PUSH1 0x40 MLOAD PUSH1 0x20 DUP2 DUP4 SUB SUB DUP2 MSTORE SWAP1 PUSH1 0x40 MSTORE SWAP1 POP DUP1 PUSH1 0x40 MLOAD PUSH1 0x20 ADD PUSH2 0x8EA SWAP2 SWAP1 PUSH2 0x3818 JUMP JUMPDEST PUSH1 0x40 MLOAD PUSH1 0x20 DUP2 DUP4 SUB SUB DUP2 MSTORE SWAP1 PUSH1 0x40 MSTORE SWAP1 POP DUP1 PUSH1 0x6 DUP5 DUP2 SLOAD DUP2 LT PUSH2 0x910 JUMPI PUSH2 0x90F PUSH2 0x3311 JUMP JUMPDEST JUMPDEST SWAP1 PUSH0 MSTORE PUSH1 0x20 PUSH0 KECCAK256 SWAP1 PUSH1 0xB MUL ADD PUSH0 ADD PUSH1 0x40 MLOAD PUSH1 0x20 ADD PUSH2 0x92F SWAP3 SWAP2 SWAP1 PUSH2 0x3784 JUMP JUMPDEST PUSH1 0x40 MLOAD PUSH1 0x20 DUP2 DUP4 SUB SUB DUP2 MSTORE SWAP1 PUSH1 0x40 MSTORE SWAP1 POP DUP1 PUSH1 0x40 MLOAD PUSH1 0x20 ADD PUSH2 0x951 SWAP2 SWAP1 PUSH2 0x396B JUMP JUMPDEST PUSH1 0x40 MLOAD PUSH1 0x20 DUP2 DUP4 SUB SUB DUP2 MSTORE SWAP1 PUSH1 0x40 MSTORE SWAP1 POP PUSH2 0x975 DUP2 DUP4 PUSH2 0x1B95 SWAP1 SWAP2 SWAP1 PUSH4 0xFFFFFFFF AND JUMP JUMPDEST PUSH2 0x9B2 PUSH2 0x981 DUP4 PUSH2 0x1BA5 JUMP JUMPDEST PUSH1 0x3 PUSH1 0x4 SWAP1 SLOAD SWAP1 PUSH2 0x100 EXP SWAP1 DIV PUSH8 0xFFFFFFFFFFFFFFFF AND PUSH1 0x3 PUSH0 SWAP1 SLOAD SWAP1 PUSH2 0x100 EXP SWAP1 DIV PUSH4 0xFFFFFFFF AND PUSH1 0x2 SLOAD PUSH2 0x1FAA JUMP JUMPDEST PUSH1 0x4 DUP2 SWAP1 SSTORE POP POP POP JUMPDEST POP JUMPDEST POP POP JUMP JUMPDEST PUSH0 PUSH2 0x9CC DUP4 DUP4 PUSH2 0x1435 JUMP JUMPDEST SWAP1 POP CALLER PUSH1 0x6 DUP3 DUP2 SLOAD DUP2 LT PUSH2 0x9E3 JUMPI PUSH2 0x9E2 PUSH2 0x3311 JUMP JUMPDEST JUMPDEST SWAP1 PUSH0 MSTORE PUSH1 0x20 PUSH0 KECCAK256 SWAP1 PUSH1 0xB MUL ADD PUSH1 0x2 ADD PUSH0 PUSH2 0x100 EXP DUP2 SLOAD DUP2 PUSH20 0xFFFFFFFFFFFFFFFFFFFFFFFFFFFFFFFFFFFFFFFF MUL NOT AND SWAP1 DUP4 PUSH20 0xFFFFFFFFFFFFFFFFFFFFFFFFFFFFFFFFFFFFFFFF AND MUL OR SWAP1 SSTORE POP POP POP POP JUMP JUMPDEST PUSH2 0xA3D DUP5 PUSH2 0x2089 JUMP JUMPDEST PUSH2 0xA45 JUMPI PUSH0 DUP1 REVERT JUMPDEST PUSH2 0xA4E DUP4 PUSH2 0x2089 JUMP JUMPDEST PUSH2 0xA56 JUMPI PUSH0 DUP1 REVERT JUMPDEST PUSH2 0xA5E PUSH2 0x2B7F JUMP JUMPDEST DUP7 DUP2 PUSH0 ADD DUP2 SWAP1 MSTORE POP DUP6 DUP2 PUSH1 0x20 ADD DUP2 SWAP1 MSTORE POP CALLER DUP2 PUSH1 0x60 ADD SWAP1 PUSH20 0xFFFFFFFFFFFFFFFFFFFFFFFFFFFFFFFFFFFFFFFF AND SWAP1 DUP2 PUSH20 0xFFFFFFFFFFFFFFFFFFFFFFFFFFFFFFFFFFFFFFFF AND DUP2 MSTORE POP POP DUP5 DUP2 PUSH1 0x80 ADD DUP2 SWAP1 MSTORE POP DUP4 DUP2 PUSH1 0xA0 ADD DUP2 SWAP1 MSTORE POP CALLVALUE DUP2 PUSH1 0xC0 ADD DUP2 DUP2 MSTORE POP POP DUP3 DUP2 PUSH1 0xE0 ADD DUP2 DUP2 MSTORE POP POP PUSH0 DUP2 PUSH2 0x140 ADD SWAP1 ISZERO ISZERO SWAP1 DUP2 ISZERO ISZERO DUP2 MSTORE POP POP PUSH1 0x5 TIMESTAMP PUSH2 0xAEB SWAP2 SWAP1 PUSH2 0x336B JUMP JUMPDEST DUP2 PUSH2 0x120 ADD DUP2 DUP2 MSTORE POP POP TIMESTAMP DUP2 PUSH2 0x100 ADD DUP2 DUP2 MSTORE POP POP PUSH1 0x6 DUP2 SWAP1 DUP1 PUSH1 0x1 DUP2 SLOAD ADD DUP1 DUP3 SSTORE DUP1 SWAP2 POP POP PUSH1 0x1 SWAP1 SUB SWAP1 PUSH0 MSTORE PUSH1 0x20 PUSH0 KECCAK256 SWAP1 PUSH1 0xB MUL ADD PUSH0 SWAP1 SWAP2 SWAP1 SWAP2 SWAP1 SWAP2 POP PUSH0 DUP3 ADD MLOAD DUP2 PUSH0 ADD SWAP1 DUP2 PUSH2 0xB3C SWAP2 SWAP1 PUSH2 0x3B17 JUMP JUMPDEST POP PUSH1 0x20 DUP3 ADD MLOAD DUP2 PUSH1 0x1 ADD SWAP1 DUP2 PUSH2 0xB52 SWAP2 SWAP1 PUSH2 0x3B17 JUMP JUMPDEST POP PUSH1 0x40 DUP3 ADD MLOAD DUP2 PUSH1 0x2 ADD PUSH0 PUSH2 0x100 EXP DUP2 SLOAD DUP2 PUSH20 0xFFFFFFFFFFFFFFFFFFFFFFFFFFFFFFFFFFFFFFFF MUL NOT AND SWAP1 DUP4 PUSH20 0xFFFFFFFFFFFFFFFFFFFFFFFFFFFFFFFFFFFFFFFF AND MUL OR SWAP1 SSTORE POP PUSH1 0x60 DUP3 ADD MLOAD DUP2 PUSH1 0x3 ADD PUSH0 PUSH2 0x100 EXP DUP2 SLOAD DUP2 PUSH20 0xFFFFFFFFFFFFFFFFFFFFFFFFFFFFFFFFFFFFFFFF MUL NOT AND SWAP1 DUP4 PUSH20 0xFFFFFFFFFFFFFFFFFFFFFFFFFFFFFFFFFFFFFFFF AND MUL OR SWAP1 SSTORE POP PUSH1 0x80 DUP3 ADD MLOAD DUP2 PUSH1 0x4 ADD SWAP1 DUP2 PUSH2 0xBF4 SWAP2 SWAP1 PUSH2 0x3B17 JUMP JUMPDEST POP PUSH1 0xA0 DUP3 ADD MLOAD DUP2 PUSH1 0x5 ADD SWAP1 DUP2 PUSH2 0xC0A SWAP2 SWAP1 PUSH2 0x3B17 JUMP JUMPDEST POP PUSH1 0xC0 DUP3 ADD MLOAD DUP2 PUSH1 0x6 ADD SSTORE PUSH1 0xE0 DUP3 ADD MLOAD DUP2 PUSH1 0x7 ADD SSTORE PUSH2 0x100 DUP3 ADD MLOAD DUP2 PUSH1 0x8 ADD SSTORE PUSH2 0x120 DUP3 ADD MLOAD DUP2 PUSH1 0x9 ADD SSTORE PUSH2 0x140 DUP3 ADD MLOAD DUP2 PUSH1 0xA ADD PUSH0 PUSH2 0x100 EXP DUP2 SLOAD DUP2 PUSH1 0xFF MUL NOT AND SWAP1 DUP4 ISZERO ISZERO MUL OR SWAP1 SSTORE POP POP POP POP POP POP POP POP POP POP JUMP JUMPDEST PUSH0 DUP1 SLOAD SWAP1 PUSH2 0x100 EXP SWAP1 DIV PUSH20 0xFFFFFFFFFFFFFFFFFFFFFFFFFFFFFFFFFFFFFFFF AND DUP2 JUMP JUMPDEST PUSH0 DUP1 SLOAD SWAP1 PUSH2 0x100 EXP SWAP1 DIV PUSH20 0xFFFFFFFFFFFFFFFFFFFFFFFFFFFFFFFFFFFFFFFF AND PUSH20 0xFFFFFFFFFFFFFFFFFFFFFFFFFFFFFFFFFFFFFFFF AND CALLER PUSH20 0xFFFFFFFFFFFFFFFFFFFFFFFFFFFFFFFFFFFFFFFF AND EQ PUSH2 0xCD9 JUMPI PUSH0 DUP1 REVERT JUMPDEST PUSH0 DUP1 DUP4 PUSH20 0xFFFFFFFFFFFFFFFFFFFFFFFFFFFFFFFFFFFFFFFF AND DUP4 PUSH1 0x40 MLOAD PUSH2 0xCFF SWAP1 PUSH2 0x33CB JUMP JUMPDEST PUSH0 PUSH1 0x40 MLOAD DUP1 DUP4 SUB DUP2 DUP6 DUP8 GAS CALL SWAP3 POP POP POP RETURNDATASIZE DUP1 PUSH0 DUP2 EQ PUSH2 0xD39 JUMPI PUSH1 0x40 MLOAD SWAP2 POP PUSH1 0x1F NOT PUSH1 0x3F RETURNDATASIZE ADD AND DUP3 ADD PUSH1 0x40 MSTORE RETURNDATASIZE DUP3 MSTORE RETURNDATASIZE PUSH0 PUSH1 0x20 DUP5 ADD RETURNDATACOPY PUSH2 0xD3E JUMP JUMPDEST PUSH1 0x60 SWAP2 POP JUMPDEST POP SWAP2 POP SWAP2 POP DUP2 PUSH2 0xD83 JUMPI PUSH1 0x40 MLOAD PUSH32 0x8C379A000000000000000000000000000000000000000000000000000000000 DUP2 MSTORE PUSH1 0x4 ADD PUSH2 0xD7A SWAP1 PUSH2 0x3429 JUMP JUMPDEST PUSH1 0x40 MLOAD DUP1 SWAP2 SUB SWAP1 REVERT JUMPDEST POP POP POP POP JUMP JUMPDEST PUSH1 0x6 DUP2 DUP2 SLOAD DUP2 LT PUSH2 0xD98 JUMPI PUSH0 DUP1 REVERT JUMPDEST SWAP1 PUSH0 MSTORE PUSH1 0x20 PUSH0 KECCAK256 SWAP1 PUSH1 0xB MUL ADD PUSH0 SWAP2 POP SWAP1 POP DUP1 PUSH0 ADD DUP1 SLOAD PUSH2 0xDB7 SWAP1 PUSH2 0x36C2 JUMP JUMPDEST DUP1 PUSH1 0x1F ADD PUSH1 0x20 DUP1 SWAP2 DIV MUL PUSH1 0x20 ADD PUSH1 0x40 MLOAD SWAP1 DUP2 ADD PUSH1 0x40 MSTORE DUP1 SWAP3 SWAP2 SWAP1 DUP2 DUP2 MSTORE PUSH1 0x20 ADD DUP3 DUP1 SLOAD PUSH2 0xDE3 SWAP1 PUSH2 0x36C2 JUMP JUMPDEST DUP1 ISZERO PUSH2 0xE2E JUMPI DUP1 PUSH1 0x1F LT PUSH2 0xE05 JUMPI PUSH2 0x100 DUP1 DUP4 SLOAD DIV MUL DUP4 MSTORE SWAP2 PUSH1 0x20 ADD SWAP2 PUSH2 0xE2E JUMP JUMPDEST DUP3 ADD SWAP2 SWAP1 PUSH0 MSTORE PUSH1 0x20 PUSH0 KECCAK256 SWAP1 JUMPDEST DUP2 SLOAD DUP2 MSTORE SWAP1 PUSH1 0x1 ADD SWAP1 PUSH1 0x20 ADD DUP1 DUP4 GT PUSH2 0xE11 JUMPI DUP3 SWAP1 SUB PUSH1 0x1F AND DUP3 ADD SWAP2 JUMPDEST POP POP POP POP POP SWAP1 DUP1 PUSH1 0x1 ADD DUP1 SLOAD PUSH2 0xE43 SWAP1 PUSH2 0x36C2 JUMP JUMPDEST DUP1 PUSH1 0x1F ADD PUSH1 0x20 DUP1 SWAP2 DIV MUL PUSH1 0x20 ADD PUSH1 0x40 MLOAD SWAP1 DUP2 ADD PUSH1 0x40 MSTORE DUP1 SWAP3 SWAP2 SWAP1 DUP2 DUP2 MSTORE PUSH1 0x20 ADD DUP3 DUP1 SLOAD PUSH2 0xE6F SWAP1 PUSH2 0x36C2 JUMP JUMPDEST DUP1 ISZERO PUSH2 0xEBA JUMPI DUP1 PUSH1 0x1F LT PUSH2 0xE91 JUMPI PUSH2 0x100 DUP1 DUP4 SLOAD DIV MUL DUP4 MSTORE SWAP2 PUSH1 0x20 ADD SWAP2 PUSH2 0xEBA JUMP JUMPDEST DUP3 ADD SWAP2 SWAP1 PUSH0 MSTORE PUSH1 0x20 PUSH0 KECCAK256 SWAP1 JUMPDEST DUP2 SLOAD DUP2 MSTORE SWAP1 PUSH1 0x1 ADD SWAP1 PUSH1 0x20 ADD DUP1 DUP4 GT PUSH2 0xE9D JUMPI DUP3 SWAP1 SUB PUSH1 0x1F AND DUP3 ADD SWAP2 JUMPDEST POP POP POP POP POP SWAP1 DUP1 PUSH1 0x2 ADD PUSH0 SWAP1 SLOAD SWAP1 PUSH2 0x100 EXP SWAP1 DIV PUSH20 0xFFFFFFFFFFFFFFFFFFFFFFFFFFFFFFFFFFFFFFFF AND SWAP1 DUP1 PUSH1 0x3 ADD PUSH0 SWAP1 SLOAD SWAP1 PUSH2 0x100 EXP SWAP1 DIV PUSH20 0xFFFFFFFFFFFFFFFFFFFFFFFFFFFFFFFFFFFFFFFF AND SWAP1 DUP1 PUSH1 0x4 ADD DUP1 SLOAD PUSH2 0xF19 SWAP1 PUSH2 0x36C2 JUMP JUMPDEST DUP1 PUSH1 0x1F ADD PUSH1 0x20 DUP1 SWAP2 DIV MUL PUSH1 0x20 ADD PUSH1 0x40 MLOAD SWAP1 DUP2 ADD PUSH1 0x40 MSTORE DUP1 SWAP3 SWAP2 SWAP1 DUP2 DUP2 MSTORE PUSH1 0x20 ADD DUP3 DUP1 SLOAD PUSH2 0xF45 SWAP1 PUSH2 0x36C2 JUMP JUMPDEST DUP1 ISZERO PUSH2 0xF90 JUMPI DUP1 PUSH1 0x1F LT PUSH2 0xF67 JUMPI PUSH2 0x100 DUP1 DUP4 SLOAD DIV MUL DUP4 MSTORE SWAP2 PUSH1 0x20 ADD SWAP2 PUSH2 0xF90 JUMP JUMPDEST DUP3 ADD SWAP2 SWAP1 PUSH0 MSTORE PUSH1 0x20 PUSH0 KECCAK256 SWAP1 JUMPDEST DUP2 SLOAD DUP2 MSTORE SWAP1 PUSH1 0x1 ADD SWAP1 PUSH1 0x20 ADD DUP1 DUP4 GT PUSH2 0xF73 JUMPI DUP3 SWAP1 SUB PUSH1 0x1F AND DUP3 ADD SWAP2 JUMPDEST POP POP POP POP POP SWAP1 DUP1 PUSH1 0x5 ADD DUP1 SLOAD PUSH2 0xFA5 SWAP1 PUSH2 0x36C2 JUMP JUMPDEST DUP1 PUSH1 0x1F ADD PUSH1 0x20 DUP1 SWAP2 DIV MUL PUSH1 0x20 ADD PUSH1 0x40 MLOAD SWAP1 DUP2 ADD PUSH1 0x40 MSTORE DUP1 SWAP3 SWAP2 SWAP1 DUP2 DUP2 MSTORE PUSH1 0x20 ADD DUP3 DUP1 SLOAD PUSH2 0xFD1 SWAP1 PUSH2 0x36C2 JUMP JUMPDEST DUP1 ISZERO PUSH2 0x101C JUMPI DUP1 PUSH1 0x1F LT PUSH2 0xFF3 JUMPI PUSH2 0x100 DUP1 DUP4 SLOAD DIV MUL DUP4 MSTORE SWAP2 PUSH1 0x20 ADD SWAP2 PUSH2 0x101C JUMP JUMPDEST DUP3 ADD SWAP2 SWAP1 PUSH0 MSTORE PUSH1 0x20 PUSH0 KECCAK256 SWAP1 JUMPDEST DUP2 SLOAD DUP2 MSTORE SWAP1 PUSH1 0x1 ADD SWAP1 PUSH1 0x20 ADD DUP1 DUP4 GT PUSH2 0xFFF JUMPI DUP3 SWAP1 SUB PUSH1 0x1F AND DUP3 ADD SWAP2 JUMPDEST POP POP POP POP POP SWAP1 DUP1 PUSH1 0x6 ADD SLOAD SWAP1 DUP1 PUSH1 0x7 ADD SLOAD SWAP1 DUP1 PUSH1 0x8 ADD SLOAD SWAP1 DUP1 PUSH1 0x9 ADD SLOAD SWAP1 DUP1 PUSH1 0xA ADD PUSH0 SWAP1 SLOAD SWAP1 PUSH2 0x100 EXP SWAP1 DIV PUSH1 0xFF AND SWAP1 POP DUP12 JUMP JUMPDEST PUSH0 PUSH2 0x105B DUP4 DUP4 PUSH2 0x1435 JUMP JUMPDEST SWAP1 POP CALLER PUSH20 0xFFFFFFFFFFFFFFFFFFFFFFFFFFFFFFFFFFFFFFFF AND PUSH1 0x6 DUP3 DUP2 SLOAD DUP2 LT PUSH2 0x1088 JUMPI PUSH2 0x1087 PUSH2 0x3311 JUMP JUMPDEST JUMPDEST SWAP1 PUSH0 MSTORE PUSH1 0x20 PUSH0 KECCAK256 SWAP1 PUSH1 0xB MUL ADD PUSH1 0x3 ADD PUSH0 SWAP1 SLOAD SWAP1 PUSH2 0x100 EXP SWAP1 DIV PUSH20 0xFFFFFFFFFFFFFFFFFFFFFFFFFFFFFFFFFFFFFFFF AND PUSH20 0xFFFFFFFFFFFFFFFFFFFFFFFFFFFFFFFFFFFFFFFF AND EQ PUSH2 0x10D6 JUMPI PUSH0 DUP1 REVERT JUMPDEST PUSH0 PUSH20 0xFFFFFFFFFFFFFFFFFFFFFFFFFFFFFFFFFFFFFFFF AND PUSH1 0x6 DUP3 DUP2 SLOAD DUP2 LT PUSH2 0x1101 JUMPI PUSH2 0x1100 PUSH2 0x3311 JUMP JUMPDEST JUMPDEST SWAP1 PUSH0 MSTORE PUSH1 0x20 PUSH0 KECCAK256 SWAP1 PUSH1 0xB MUL ADD PUSH1 0x2 ADD PUSH0 SWAP1 SLOAD SWAP1 PUSH2 0x100 EXP SWAP1 DIV PUSH20 0xFFFFFFFFFFFFFFFFFFFFFFFFFFFFFFFFFFFFFFFF AND PUSH20 0xFFFFFFFFFFFFFFFFFFFFFFFFFFFFFFFFFFFFFFFF AND SUB PUSH2 0x114F JUMPI PUSH0 DUP1 REVERT JUMPDEST PUSH0 PUSH1 0x2 PUSH1 0x6 DUP4 DUP2 SLOAD DUP2 LT PUSH2 0x1166 JUMPI PUSH2 0x1165 PUSH2 0x3311 JUMP JUMPDEST JUMPDEST SWAP1 PUSH0 MSTORE PUSH1 0x20 PUSH0 KECCAK256 SWAP1 PUSH1 0xB MUL ADD PUSH1 0x6 ADD SLOAD PUSH2 0x1180 SWAP2 SWAP1 PUSH2 0x34D5 JUMP JUMPDEST SWAP1 POP PUSH0 DUP1 PUSH1 0x6 DUP5 DUP2 SLOAD DUP2 LT PUSH2 0x1198 JUMPI PUSH2 0x1197 PUSH2 0x3311 JUMP JUMPDEST JUMPDEST SWAP1 PUSH0 MSTORE PUSH1 0x20 PUSH0 KECCAK256 SWAP1 PUSH1 0xB MUL ADD PUSH1 0x2 ADD PUSH0 SWAP1 SLOAD SWAP1 PUSH2 0x100 EXP SWAP1 DIV PUSH20 0xFFFFFFFFFFFFFFFFFFFFFFFFFFFFFFFFFFFFFFFF AND PUSH20 0xFFFFFFFFFFFFFFFFFFFFFFFFFFFFFFFFFFFFFFFF AND DUP4 PUSH1 0x40 MLOAD PUSH2 0x11EA SWAP1 PUSH2 0x33CB JUMP JUMPDEST PUSH0 PUSH1 0x40 MLOAD DUP1 DUP4 SUB DUP2 DUP6 DUP8 GAS CALL SWAP3 POP POP POP RETURNDATASIZE DUP1 PUSH0 DUP2 EQ PUSH2 0x1224 JUMPI PUSH1 0x40 MLOAD SWAP2 POP PUSH1 0x1F NOT PUSH1 0x3F RETURNDATASIZE ADD AND DUP3 ADD PUSH1 0x40 MSTORE RETURNDATASIZE DUP3 MSTORE RETURNDATASIZE PUSH0 PUSH1 0x20 DUP5 ADD RETURNDATACOPY PUSH2 0x1229 JUMP JUMPDEST PUSH1 0x60 SWAP2 POP JUMPDEST POP SWAP2 POP SWAP2 POP DUP2 PUSH2 0x126E JUMPI PUSH1 0x40 MLOAD PUSH32 0x8C379A000000000000000000000000000000000000000000000000000000000 DUP2 MSTORE PUSH1 0x4 ADD PUSH2 0x1265 SWAP1 PUSH2 0x3429 JUMP JUMPDEST PUSH1 0x40 MLOAD DUP1 SWAP2 SUB SWAP1 REVERT JUMPDEST PUSH2 0x1277 DUP5 PUSH2 0x18B9 JUMP JUMPDEST POP POP POP POP POP POP JUMP JUMPDEST PUSH0 PUSH2 0x128A DUP4 DUP4 PUSH2 0x1435 JUMP JUMPDEST SWAP1 POP CALLER PUSH20 0xFFFFFFFFFFFFFFFFFFFFFFFFFFFFFFFFFFFFFFFF AND PUSH1 0x6 DUP3 DUP2 SLOAD DUP2 LT PUSH2 0x12B7 JUMPI PUSH2 0x12B6 PUSH2 0x3311 JUMP JUMPDEST JUMPDEST SWAP1 PUSH0 MSTORE PUSH1 0x20 PUSH0 KECCAK256 SWAP1 PUSH1 0xB MUL ADD PUSH1 0x2 ADD PUSH0 SWAP1 SLOAD SWAP1 PUSH2 0x100 EXP SWAP1 DIV PUSH20 0xFFFFFFFFFFFFFFFFFFFFFFFFFFFFFFFFFFFFFFFF AND PUSH20 0xFFFFFFFFFFFFFFFFFFFFFFFFFFFFFFFFFFFFFFFF AND EQ PUSH2 0x1305 JUMPI PUSH0 DUP1 REVERT JUMPDEST PUSH0 PUSH1 0x2 PUSH1 0x6 DUP4 DUP2 SLOAD DUP2 LT PUSH2 0x131C JUMPI PUSH2 0x131B PUSH2 0x3311 JUMP JUMPDEST JUMPDEST SWAP1 PUSH0 MSTORE PUSH1 0x20 PUSH0 KECCAK256 SWAP1 PUSH1 0xB MUL ADD PUSH1 0x6 ADD SLOAD PUSH2 0x1336 SWAP2 SWAP1 PUSH2 0x34D5 JUMP JUMPDEST SWAP1 POP PUSH0 DUP1 PUSH1 0x6 DUP5 DUP2 SLOAD DUP2 LT PUSH2 0x134E JUMPI PUSH2 0x134D PUSH2 0x3311 JUMP JUMPDEST JUMPDEST SWAP1 PUSH0 MSTORE PUSH1 0x20 PUSH0 KECCAK256 SWAP1 PUSH1 0xB MUL ADD PUSH1 0x3 ADD PUSH0 SWAP1 SLOAD SWAP1 PUSH2 0x100 EXP SWAP1 DIV PUSH20 0xFFFFFFFFFFFFFFFFFFFFFFFFFFFFFFFFFFFFFFFF AND PUSH20 0xFFFFFFFFFFFFFFFFFFFFFFFFFFFFFFFFFFFFFFFF AND DUP4 PUSH1 0x40 MLOAD PUSH2 0x13A0 SWAP1 PUSH2 0x33CB JUMP JUMPDEST PUSH0 PUSH1 0x40 MLOAD DUP1 DUP4 SUB DUP2 DUP6 DUP8 GAS CALL SWAP3 POP POP POP RETURNDATASIZE DUP1 PUSH0 DUP2 EQ PUSH2 0x13DA JUMPI PUSH1 0x40 MLOAD SWAP2 POP PUSH1 0x1F NOT PUSH1 0x3F RETURNDATASIZE ADD AND DUP3 ADD PUSH1 0x40 MSTORE RETURNDATASIZE DUP3 MSTORE RETURNDATASIZE PUSH0 PUSH1 0x20 DUP5 ADD RETURNDATACOPY PUSH2 0x13DF JUMP JUMPDEST PUSH1 0x60 SWAP2 POP JUMPDEST POP SWAP2 POP SWAP2 POP DUP2 PUSH2 0x1424 JUMPI PUSH1 0x40 MLOAD PUSH32 0x8C379A000000000000000000000000000000000000000000000000000000000 DUP2 MSTORE PUSH1 0x4 ADD PUSH2 0x141B SWAP1 PUSH2 0x3429 JUMP JUMPDEST PUSH1 0x40 MLOAD DUP1 SWAP2 SUB SWAP1 REVERT JUMPDEST PUSH2 0x142D DUP5 PUSH2 0x18B9 JUMP JUMPDEST POP POP POP POP POP POP JUMP JUMPDEST PUSH0 DUP1 PUSH0 SWAP1 POP PUSH0 JUMPDEST PUSH1 0x6 DUP1 SLOAD SWAP1 POP DUP2 LT ISZERO PUSH2 0x14EE JUMPI DUP5 DUP1 MLOAD SWAP1 PUSH1 0x20 ADD KECCAK256 PUSH1 0x6 DUP3 DUP2 SLOAD DUP2 LT PUSH2 0x1465 JUMPI PUSH2 0x1464 PUSH2 0x3311 JUMP JUMPDEST JUMPDEST SWAP1 PUSH0 MSTORE PUSH1 0x20 PUSH0 KECCAK256 SWAP1 PUSH1 0xB MUL ADD PUSH0 ADD PUSH1 0x40 MLOAD PUSH2 0x1480 SWAP2 SWAP1 PUSH2 0x3C78 JUMP JUMPDEST PUSH1 0x40 MLOAD DUP1 SWAP2 SUB SWAP1 KECCAK256 EQ DUP1 ISZERO PUSH2 0x14D2 JUMPI POP DUP4 DUP1 MLOAD SWAP1 PUSH1 0x20 ADD KECCAK256 PUSH1 0x6 DUP3 DUP2 SLOAD DUP2 LT PUSH2 0x14AC JUMPI PUSH2 0x14AB PUSH2 0x3311 JUMP JUMPDEST JUMPDEST SWAP1 PUSH0 MSTORE PUSH1 0x20 PUSH0 KECCAK256 SWAP1 PUSH1 0xB MUL ADD PUSH1 0x1 ADD PUSH1 0x40 MLOAD PUSH2 0x14C8 SWAP2 SWAP1 PUSH2 0x3C78 JUMP JUMPDEST PUSH1 0x40 MLOAD DUP1 SWAP2 SUB SWAP1 KECCAK256 EQ JUMPDEST ISZERO PUSH2 0x14E1 JUMPI DUP1 SWAP3 POP POP POP PUSH2 0x14FD JUMP JUMPDEST DUP1 DUP1 PUSH1 0x1 ADD SWAP2 POP POP PUSH2 0x143C JUMP JUMPDEST POP DUP1 PUSH2 0x14F8 JUMPI PUSH0 DUP1 REVERT JUMPDEST PUSH0 SWAP2 POP POP JUMPDEST SWAP3 SWAP2 POP POP JUMP JUMPDEST DUP3 PUSH1 0x4 SLOAD EQ PUSH2 0x1547 JUMPI PUSH1 0x40 MLOAD PUSH32 0x8C379A000000000000000000000000000000000000000000000000000000000 DUP2 MSTORE PUSH1 0x4 ADD PUSH2 0x153E SWAP1 PUSH2 0x3429 JUMP JUMPDEST PUSH1 0x40 MLOAD DUP1 SWAP2 SUB SWAP1 REVERT JUMPDEST PUSH0 DUP3 PUSH2 0x1552 SWAP1 PUSH2 0x3CBB JUMP JUMPDEST PUSH0 SHR SWAP1 POP TIMESTAMP PUSH1 0x6 PUSH1 0x5 SLOAD DUP2 SLOAD DUP2 LT PUSH2 0x156D JUMPI PUSH2 0x156C PUSH2 0x3311 JUMP JUMPDEST JUMPDEST SWAP1 PUSH0 MSTORE PUSH1 0x20 PUSH0 KECCAK256 SWAP1 PUSH1 0xB MUL ADD PUSH1 0x9 ADD SLOAD LT DUP1 ISZERO PUSH2 0x158A JUMPI POP PUSH1 0xCC DUP2 EQ JUMPDEST ISZERO PUSH2 0x171F JUMPI PUSH0 PUSH1 0x6 PUSH1 0x5 SLOAD DUP2 SLOAD DUP2 LT PUSH2 0x15A6 JUMPI PUSH2 0x15A5 PUSH2 0x3311 JUMP JUMPDEST JUMPDEST SWAP1 PUSH0 MSTORE PUSH1 0x20 PUSH0 KECCAK256 SWAP1 PUSH1 0xB MUL ADD PUSH1 0x6 ADD SLOAD PUSH1 0x6 PUSH1 0x5 SLOAD DUP2 SLOAD DUP2 LT PUSH2 0x15CC JUMPI PUSH2 0x15CB PUSH2 0x3311 JUMP JUMPDEST JUMPDEST SWAP1 PUSH0 MSTORE PUSH1 0x20 PUSH0 KECCAK256 SWAP1 PUSH1 0xB MUL ADD PUSH1 0x7 ADD SLOAD PUSH2 0x15E6 SWAP2 SWAP1 PUSH2 0x336B JUMP JUMPDEST SWAP1 POP PUSH0 DUP1 PUSH1 0x6 PUSH1 0x5 SLOAD DUP2 SLOAD DUP2 LT PUSH2 0x1600 JUMPI PUSH2 0x15FF PUSH2 0x3311 JUMP JUMPDEST JUMPDEST SWAP1 PUSH0 MSTORE PUSH1 0x20 PUSH0 KECCAK256 SWAP1 PUSH1 0xB MUL ADD PUSH1 0x2 ADD PUSH0 SWAP1 SLOAD SWAP1 PUSH2 0x100 EXP SWAP1 DIV PUSH20 0xFFFFFFFFFFFFFFFFFFFFFFFFFFFFFFFFFFFFFFFF AND PUSH20 0xFFFFFFFFFFFFFFFFFFFFFFFFFFFFFFFFFFFFFFFF AND DUP4 PUSH1 0x40 MLOAD PUSH2 0x1652 SWAP1 PUSH2 0x33CB JUMP JUMPDEST PUSH0 PUSH1 0x40 MLOAD DUP1 DUP4 SUB DUP2 DUP6 DUP8 GAS CALL SWAP3 POP POP POP RETURNDATASIZE DUP1 PUSH0 DUP2 EQ PUSH2 0x168C JUMPI PUSH1 0x40 MLOAD SWAP2 POP PUSH1 0x1F NOT PUSH1 0x3F RETURNDATASIZE ADD AND DUP3 ADD PUSH1 0x40 MSTORE RETURNDATASIZE DUP3 MSTORE RETURNDATASIZE PUSH0 PUSH1 0x20 DUP5 ADD RETURNDATACOPY PUSH2 0x1691 JUMP JUMPDEST PUSH1 0x60 SWAP2 POP JUMPDEST POP SWAP2 POP SWAP2 POP DUP2 PUSH2 0x16D6 JUMPI PUSH1 0x40 MLOAD PUSH32 0x8C379A000000000000000000000000000000000000000000000000000000000 DUP2 MSTORE PUSH1 0x4 ADD PUSH2 0x16CD SWAP1 PUSH2 0x3429 JUMP JUMPDEST PUSH1 0x40 MLOAD DUP1 SWAP2 SUB SWAP1 REVERT JUMPDEST PUSH2 0x16E1 PUSH1 0x5 SLOAD PUSH2 0x18B9 JUMP JUMPDEST PUSH32 0xB749D4CBEF5280AB440645A46BBADA3F52C0D015210CFCEABD4E5B4E49195F77 PUSH1 0x40 MLOAD PUSH2 0x170E SWAP1 PUSH2 0x3DDD JUMP JUMPDEST PUSH1 0x40 MLOAD DUP1 SWAP2 SUB SWAP1 LOG1 POP POP POP POP PUSH2 0x18B4 JUMP JUMPDEST PUSH1 0xC8 DUP2 SUB PUSH2 0x18B2 JUMPI PUSH0 PUSH1 0x6 PUSH1 0x5 SLOAD DUP2 SLOAD DUP2 LT PUSH2 0x173E JUMPI PUSH2 0x173D PUSH2 0x3311 JUMP JUMPDEST JUMPDEST SWAP1 PUSH0 MSTORE PUSH1 0x20 PUSH0 KECCAK256 SWAP1 PUSH1 0xB MUL ADD PUSH1 0x6 ADD SLOAD PUSH1 0x6 PUSH1 0x5 SLOAD DUP2 SLOAD DUP2 LT PUSH2 0x1764 JUMPI PUSH2 0x1763 PUSH2 0x3311 JUMP JUMPDEST JUMPDEST SWAP1 PUSH0 MSTORE PUSH1 0x20 PUSH0 KECCAK256 SWAP1 PUSH1 0xB MUL ADD PUSH1 0x7 ADD SLOAD PUSH2 0x177E SWAP2 SWAP1 PUSH2 0x336B JUMP JUMPDEST SWAP1 POP PUSH0 DUP1 PUSH1 0x6 PUSH1 0x5 SLOAD DUP2 SLOAD DUP2 LT PUSH2 0x1798 JUMPI PUSH2 0x1797 PUSH2 0x3311 JUMP JUMPDEST JUMPDEST SWAP1 PUSH0 MSTORE PUSH1 0x20 PUSH0 KECCAK256 SWAP1 PUSH1 0xB MUL ADD PUSH1 0x3 ADD PUSH0 SWAP1 SLOAD SWAP1 PUSH2 0x100 EXP SWAP1 DIV PUSH20 0xFFFFFFFFFFFFFFFFFFFFFFFFFFFFFFFFFFFFFFFF AND PUSH20 0xFFFFFFFFFFFFFFFFFFFFFFFFFFFFFFFFFFFFFFFF AND DUP4 PUSH1 0x40 MLOAD PUSH2 0x17EA SWAP1 PUSH2 0x33CB JUMP JUMPDEST PUSH0 PUSH1 0x40 MLOAD DUP1 DUP4 SUB DUP2 DUP6 DUP8 GAS CALL SWAP3 POP POP POP RETURNDATASIZE DUP1 PUSH0 DUP2 EQ PUSH2 0x1824 JUMPI PUSH1 0x40 MLOAD SWAP2 POP PUSH1 0x1F NOT PUSH1 0x3F RETURNDATASIZE ADD AND DUP3 ADD PUSH1 0x40 MSTORE RETURNDATASIZE DUP3 MSTORE RETURNDATASIZE PUSH0 PUSH1 0x20 DUP5 ADD RETURNDATACOPY PUSH2 0x1829 JUMP JUMPDEST PUSH1 0x60 SWAP2 POP JUMPDEST POP SWAP2 POP SWAP2 POP DUP2 PUSH2 0x186E JUMPI PUSH1 0x40 MLOAD PUSH32 0x8C379A000000000000000000000000000000000000000000000000000000000 DUP2 MSTORE PUSH1 0x4 ADD PUSH2 0x1865 SWAP1 PUSH2 0x3429 JUMP JUMPDEST PUSH1 0x40 MLOAD DUP1 SWAP2 SUB SWAP1 REVERT JUMPDEST PUSH32 0xB749D4CBEF5280AB440645A46BBADA3F52C0D015210CFCEABD4E5B4E49195F77 PUSH1 0x40 MLOAD PUSH2 0x189B SWAP1 PUSH2 0x3E6B JUMP JUMPDEST PUSH1 0x40 MLOAD DUP1 SWAP2 SUB SWAP1 LOG1 PUSH2 0x18AE PUSH1 0x5 SLOAD PUSH2 0x18B9 JUMP JUMPDEST POP POP POP JUMPDEST POP JUMPDEST POP POP POP JUMP JUMPDEST PUSH1 0x6 DUP1 SLOAD SWAP1 POP DUP2 LT PUSH2 0x18C9 JUMPI PUSH0 DUP1 REVERT JUMPDEST PUSH0 DUP2 SWAP1 POP JUMPDEST PUSH1 0x1 PUSH1 0x6 DUP1 SLOAD SWAP1 POP PUSH2 0x18E0 SWAP2 SWAP1 PUSH2 0x3E89 JUMP JUMPDEST DUP2 LT ISZERO PUSH2 0x1AB2 JUMPI PUSH1 0x6 PUSH1 0x1 DUP3 PUSH2 0x18F6 SWAP2 SWAP1 PUSH2 0x336B JUMP JUMPDEST DUP2 SLOAD DUP2 LT PUSH2 0x1907 JUMPI PUSH2 0x1906 PUSH2 0x3311 JUMP JUMPDEST JUMPDEST SWAP1 PUSH0 MSTORE PUSH1 0x20 PUSH0 KECCAK256 SWAP1 PUSH1 0xB MUL ADD PUSH1 0x6 DUP3 DUP2 SLOAD DUP2 LT PUSH2 0x1927 JUMPI PUSH2 0x1926 PUSH2 0x3311 JUMP JUMPDEST JUMPDEST SWAP1 PUSH0 MSTORE PUSH1 0x20 PUSH0 KECCAK256 SWAP1 PUSH1 0xB MUL ADD PUSH0 DUP3 ADD DUP2 PUSH0 ADD SWAP1 DUP2 PUSH2 0x1945 SWAP2 SWAP1 PUSH2 0x3ED1 JUMP JUMPDEST POP PUSH1 0x1 DUP3 ADD DUP2 PUSH1 0x1 ADD SWAP1 DUP2 PUSH2 0x195A SWAP2 SWAP1 PUSH2 0x3ED1 JUMP JUMPDEST POP PUSH1 0x2 DUP3 ADD PUSH0 SWAP1 SLOAD SWAP1 PUSH2 0x100 EXP SWAP1 DIV PUSH20 0xFFFFFFFFFFFFFFFFFFFFFFFFFFFFFFFFFFFFFFFF AND DUP2 PUSH1 0x2 ADD PUSH0 PUSH2 0x100 EXP DUP2 SLOAD DUP2 PUSH20 0xFFFFFFFFFFFFFFFFFFFFFFFFFFFFFFFFFFFFFFFF MUL NOT AND SWAP1 DUP4 PUSH20 0xFFFFFFFFFFFFFFFFFFFFFFFFFFFFFFFFFFFFFFFF AND MUL OR SWAP1 SSTORE POP PUSH1 0x3 DUP3 ADD PUSH0 SWAP1 SLOAD SWAP1 PUSH2 0x100 EXP SWAP1 DIV PUSH20 0xFFFFFFFFFFFFFFFFFFFFFFFFFFFFFFFFFFFFFFFF AND DUP2 PUSH1 0x3 ADD PUSH0 PUSH2 0x100 EXP DUP2 SLOAD DUP2 PUSH20 0xFFFFFFFFFFFFFFFFFFFFFFFFFFFFFFFFFFFFFFFF MUL NOT AND SWAP1 DUP4 PUSH20 0xFFFFFFFFFFFFFFFFFFFFFFFFFFFFFFFFFFFFFFFF AND MUL OR SWAP1 SSTORE POP PUSH1 0x4 DUP3 ADD DUP2 PUSH1 0x4 ADD SWAP1 DUP2 PUSH2 0x1A39 SWAP2 SWAP1 PUSH2 0x3ED1 JUMP JUMPDEST POP PUSH1 0x5 DUP3 ADD DUP2 PUSH1 0x5 ADD SWAP1 DUP2 PUSH2 0x1A4E SWAP2 SWAP1 PUSH2 0x3ED1 JUMP JUMPDEST POP PUSH1 0x6 DUP3 ADD SLOAD DUP2 PUSH1 0x6 ADD SSTORE PUSH1 0x7 DUP3 ADD SLOAD DUP2 PUSH1 0x7 ADD SSTORE PUSH1 0x8 DUP3 ADD SLOAD DUP2 PUSH1 0x8 ADD SSTORE PUSH1 0x9 DUP3 ADD SLOAD DUP2 PUSH1 0x9 ADD SSTORE PUSH1 0xA DUP3 ADD PUSH0 SWAP1 SLOAD SWAP1 PUSH2 0x100 EXP SWAP1 DIV PUSH1 0xFF AND DUP2 PUSH1 0xA ADD PUSH0 PUSH2 0x100 EXP DUP2 SLOAD DUP2 PUSH1 0xFF MUL NOT AND SWAP1 DUP4 ISZERO ISZERO MUL OR SWAP1 SSTORE POP SWAP1 POP POP DUP1 DUP1 PUSH1 0x1 ADD SWAP2 POP POP PUSH2 0x18CE JUMP JUMPDEST POP PUSH1 0x6 DUP1 SLOAD DUP1 PUSH2 0x1AC5 JUMPI PUSH2 0x1AC4 PUSH2 0x3FB6 JUMP JUMPDEST JUMPDEST PUSH1 0x1 SWAP1 SUB DUP2 DUP2 SWAP1 PUSH0 MSTORE PUSH1 0x20 PUSH0 KECCAK256 SWAP1 PUSH1 0xB MUL ADD PUSH0 DUP1 DUP3 ADD PUSH0 PUSH2 0x1AE6 SWAP2 SWAP1 PUSH2 0x2C00 JUMP JUMPDEST PUSH1 0x1 DUP3 ADD PUSH0 PUSH2 0x1AF5 SWAP2 SWAP1 PUSH2 0x2C00 JUMP JUMPDEST PUSH1 0x2 DUP3 ADD PUSH0 PUSH2 0x100 EXP DUP2 SLOAD SWAP1 PUSH20 0xFFFFFFFFFFFFFFFFFFFFFFFFFFFFFFFFFFFFFFFF MUL NOT AND SWAP1 SSTORE PUSH1 0x3 DUP3 ADD PUSH0 PUSH2 0x100 EXP DUP2 SLOAD SWAP1 PUSH20 0xFFFFFFFFFFFFFFFFFFFFFFFFFFFFFFFFFFFFFFFF MUL NOT AND SWAP1 SSTORE PUSH1 0x4 DUP3 ADD PUSH0 PUSH2 0x1B50 SWAP2 SWAP1 PUSH2 0x2C00 JUMP JUMPDEST PUSH1 0x5 DUP3 ADD PUSH0 PUSH2 0x1B5F SWAP2 SWAP1 PUSH2 0x2C00 JUMP JUMPDEST PUSH1 0x6 DUP3 ADD PUSH0 SWAP1 SSTORE PUSH1 0x7 DUP3 ADD PUSH0 SWAP1 SSTORE PUSH1 0x8 DUP3 ADD PUSH0 SWAP1 SSTORE PUSH1 0x9 DUP3 ADD PUSH0 SWAP1 SSTORE PUSH1 0xA DUP3 ADD PUSH0 PUSH2 0x100 EXP DUP2 SLOAD SWAP1 PUSH1 0xFF MUL NOT AND SWAP1 SSTORE POP POP SWAP1 SSTORE POP JUMP JUMPDEST PUSH2 0x1BA1 DUP3 PUSH0 DUP1 DUP5 PUSH2 0x22F5 JUMP JUMPDEST POP POP JUMP JUMPDEST PUSH1 0x60 PUSH0 PUSH2 0x1BB3 PUSH2 0x100 PUSH2 0x239B JUMP JUMPDEST SWAP1 POP PUSH2 0x1BFD PUSH1 0x40 MLOAD DUP1 PUSH1 0x40 ADD PUSH1 0x40 MSTORE DUP1 PUSH1 0xC DUP2 MSTORE PUSH1 0x20 ADD PUSH32 0x636F64654C6F636174696F6E0000000000000000000000000000000000000000 DUP2 MSTORE POP DUP3 PUSH2 0x23C0 SWAP1 SWAP2 SWAP1 PUSH4 0xFFFFFFFF AND JUMP JUMPDEST PUSH2 0x1C25 DUP4 PUSH0 ADD MLOAD PUSH1 0x2 DUP2 GT ISZERO PUSH2 0x1C16 JUMPI PUSH2 0x1C15 PUSH2 0x3FE3 JUMP JUMPDEST JUMPDEST DUP3 PUSH2 0x23E8 SWAP1 SWAP2 SWAP1 PUSH4 0xFFFFFFFF AND JUMP JUMPDEST PUSH2 0x1C6D PUSH1 0x40 MLOAD DUP1 PUSH1 0x40 ADD PUSH1 0x40 MSTORE DUP1 PUSH1 0x8 DUP2 MSTORE PUSH1 0x20 ADD PUSH32 0x6C616E6775616765000000000000000000000000000000000000000000000000 DUP2 MSTORE POP DUP3 PUSH2 0x23C0 SWAP1 SWAP2 SWAP1 PUSH4 0xFFFFFFFF AND JUMP JUMPDEST PUSH2 0x1C95 DUP4 PUSH1 0x40 ADD MLOAD PUSH0 DUP2 GT ISZERO PUSH2 0x1C86 JUMPI PUSH2 0x1C85 PUSH2 0x3FE3 JUMP JUMPDEST JUMPDEST DUP3 PUSH2 0x23E8 SWAP1 SWAP2 SWAP1 PUSH4 0xFFFFFFFF AND JUMP JUMPDEST PUSH2 0x1CDD PUSH1 0x40 MLOAD DUP1 PUSH1 0x40 ADD PUSH1 0x40 MSTORE DUP1 PUSH1 0x6 DUP2 MSTORE PUSH1 0x20 ADD PUSH32 0x736F757263650000000000000000000000000000000000000000000000000000 DUP2 MSTORE POP DUP3 PUSH2 0x23C0 SWAP1 SWAP2 SWAP1 PUSH4 0xFFFFFFFF AND JUMP JUMPDEST PUSH2 0x1CF4 DUP4 PUSH1 0x60 ADD MLOAD DUP3 PUSH2 0x23C0 SWAP1 SWAP2 SWAP1 PUSH4 0xFFFFFFFF AND JUMP JUMPDEST PUSH0 DUP4 PUSH1 0xA0 ADD MLOAD MLOAD GT ISZERO PUSH2 0x1DA8 JUMPI PUSH2 0x1D49 PUSH1 0x40 MLOAD DUP1 PUSH1 0x40 ADD PUSH1 0x40 MSTORE DUP1 PUSH1 0x4 DUP2 MSTORE PUSH1 0x20 ADD PUSH32 0x6172677300000000000000000000000000000000000000000000000000000000 DUP2 MSTORE POP DUP3 PUSH2 0x23C0 SWAP1 SWAP2 SWAP1 PUSH4 0xFFFFFFFF AND JUMP JUMPDEST PUSH2 0x1D52 DUP2 PUSH2 0x2437 JUMP JUMPDEST PUSH0 JUMPDEST DUP4 PUSH1 0xA0 ADD MLOAD MLOAD DUP2 LT ISZERO PUSH2 0x1D9D JUMPI PUSH2 0x1D92 DUP5 PUSH1 0xA0 ADD MLOAD DUP3 DUP2 MLOAD DUP2 LT PUSH2 0x1D7B JUMPI PUSH2 0x1D7A PUSH2 0x3311 JUMP JUMPDEST JUMPDEST PUSH1 0x20 MUL PUSH1 0x20 ADD ADD MLOAD DUP4 PUSH2 0x23C0 SWAP1 SWAP2 SWAP1 PUSH4 0xFFFFFFFF AND JUMP JUMPDEST DUP1 PUSH1 0x1 ADD SWAP1 POP PUSH2 0x1D54 JUMP JUMPDEST POP PUSH2 0x1DA7 DUP2 PUSH2 0x245F JUMP JUMPDEST JUMPDEST PUSH0 DUP4 PUSH1 0x80 ADD MLOAD MLOAD GT ISZERO PUSH2 0x1EE7 JUMPI PUSH0 PUSH1 0x2 DUP2 GT ISZERO PUSH2 0x1DC8 JUMPI PUSH2 0x1DC7 PUSH2 0x3FE3 JUMP JUMPDEST JUMPDEST DUP4 PUSH1 0x20 ADD MLOAD PUSH1 0x2 DUP2 GT ISZERO PUSH2 0x1DDF JUMPI PUSH2 0x1DDE PUSH2 0x3FE3 JUMP JUMPDEST JUMPDEST SUB PUSH2 0x1E16 JUMPI PUSH1 0x40 MLOAD PUSH32 0xA80D31F700000000000000000000000000000000000000000000000000000000 DUP2 MSTORE PUSH1 0x4 ADD PUSH1 0x40 MLOAD DUP1 SWAP2 SUB SWAP1 REVERT JUMPDEST PUSH2 0x1E5E PUSH1 0x40 MLOAD DUP1 PUSH1 0x40 ADD PUSH1 0x40 MSTORE DUP1 PUSH1 0xF DUP2 MSTORE PUSH1 0x20 ADD PUSH32 0x736563726574734C6F636174696F6E0000000000000000000000000000000000 DUP2 MSTORE POP DUP3 PUSH2 0x23C0 SWAP1 SWAP2 SWAP1 PUSH4 0xFFFFFFFF AND JUMP JUMPDEST PUSH2 0x1E87 DUP4 PUSH1 0x20 ADD MLOAD PUSH1 0x2 DUP2 GT ISZERO PUSH2 0x1E78 JUMPI PUSH2 0x1E77 PUSH2 0x3FE3 JUMP JUMPDEST JUMPDEST DUP3 PUSH2 0x23E8 SWAP1 SWAP2 SWAP1 PUSH4 0xFFFFFFFF AND JUMP JUMPDEST PUSH2 0x1ECF PUSH1 0x40 MLOAD DUP1 PUSH1 0x40 ADD PUSH1 0x40 MSTORE DUP1 PUSH1 0x7 DUP2 MSTORE PUSH1 0x20 ADD PUSH32 0x7365637265747300000000000000000000000000000000000000000000000000 DUP2 MSTORE POP DUP3 PUSH2 0x23C0 SWAP1 SWAP2 SWAP1 PUSH4 0xFFFFFFFF AND JUMP JUMPDEST PUSH2 0x1EE6 DUP4 PUSH1 0x80 ADD MLOAD DUP3 PUSH2 0x2487 SWAP1 SWAP2 SWAP1 PUSH4 0xFFFFFFFF AND JUMP JUMPDEST JUMPDEST PUSH0 DUP4 PUSH1 0xC0 ADD MLOAD MLOAD GT ISZERO PUSH2 0x1F9B JUMPI PUSH2 0x1F3C PUSH1 0x40 MLOAD DUP1 PUSH1 0x40 ADD PUSH1 0x40 MSTORE DUP1 PUSH1 0x9 DUP2 MSTORE PUSH1 0x20 ADD PUSH32 0x6279746573417267730000000000000000000000000000000000000000000000 DUP2 MSTORE POP DUP3 PUSH2 0x23C0 SWAP1 SWAP2 SWAP1 PUSH4 0xFFFFFFFF AND JUMP JUMPDEST PUSH2 0x1F45 DUP2 PUSH2 0x2437 JUMP JUMPDEST PUSH0 JUMPDEST DUP4 PUSH1 0xC0 ADD MLOAD MLOAD DUP2 LT ISZERO PUSH2 0x1F90 JUMPI PUSH2 0x1F85 DUP5 PUSH1 0xC0 ADD MLOAD DUP3 DUP2 MLOAD DUP2 LT PUSH2 0x1F6E JUMPI PUSH2 0x1F6D PUSH2 0x3311 JUMP JUMPDEST JUMPDEST PUSH1 0x20 MUL PUSH1 0x20 ADD ADD MLOAD DUP4 PUSH2 0x2487 SWAP1 SWAP2 SWAP1 PUSH4 0xFFFFFFFF AND JUMP JUMPDEST DUP1 PUSH1 0x1 ADD SWAP1 POP PUSH2 0x1F47 JUMP JUMPDEST POP PUSH2 0x1F9A DUP2 PUSH2 0x245F JUMP JUMPDEST JUMPDEST DUP1 PUSH0 ADD MLOAD PUSH0 ADD MLOAD SWAP2 POP POP SWAP2 SWAP1 POP JUMP JUMPDEST PUSH0 DUP1 PUSH32 0x0 PUSH20 0xFFFFFFFFFFFFFFFFFFFFFFFFFFFFFFFFFFFFFFFF AND PUSH4 0x461D2762 DUP7 DUP9 PUSH1 0x1 DUP9 DUP9 PUSH1 0x40 MLOAD DUP7 PUSH4 0xFFFFFFFF AND PUSH1 0xE0 SHL DUP2 MSTORE PUSH1 0x4 ADD PUSH2 0x200E SWAP6 SWAP5 SWAP4 SWAP3 SWAP2 SWAP1 PUSH2 0x40C3 JUMP JUMPDEST PUSH1 0x20 PUSH1 0x40 MLOAD DUP1 DUP4 SUB DUP2 PUSH0 DUP8 GAS CALL ISZERO DUP1 ISZERO PUSH2 0x202A JUMPI RETURNDATASIZE PUSH0 DUP1 RETURNDATACOPY RETURNDATASIZE PUSH0 REVERT JUMPDEST POP POP POP POP PUSH1 0x40 MLOAD RETURNDATASIZE PUSH1 0x1F NOT PUSH1 0x1F DUP3 ADD AND DUP3 ADD DUP1 PUSH1 0x40 MSTORE POP DUP2 ADD SWAP1 PUSH2 0x204E SWAP2 SWAP1 PUSH2 0x412F JUMP JUMPDEST SWAP1 POP DUP1 PUSH32 0x1131472297A800FEE664D1D89CFA8F7676FF07189ECC53F80BBB5F4969099DB8 PUSH1 0x40 MLOAD PUSH1 0x40 MLOAD DUP1 SWAP2 SUB SWAP1 LOG2 DUP1 SWAP2 POP POP SWAP5 SWAP4 POP POP POP POP JUMP JUMPDEST PUSH0 DUP1 DUP3 SWAP1 POP PUSH1 0xB DUP2 MLOAD EQ PUSH2 0x20A0 JUMPI PUSH0 SWAP2 POP POP PUSH2 0x22F0 JUMP JUMPDEST PUSH0 JUMPDEST PUSH1 0xA DUP2 PUSH1 0xFF AND LT ISZERO PUSH2 0x2124 JUMPI PUSH0 PUSH2 0x20BB DUP3 PUSH1 0xFF AND PUSH2 0x24AF JUMP JUMPDEST SWAP1 POP PUSH0 DUP2 DUP3 DUP4 DUP5 DUP6 DUP7 DUP8 DUP9 DUP10 DUP11 DUP12 PUSH1 0x40 MLOAD PUSH1 0x20 ADD PUSH2 0x20E3 SWAP12 SWAP11 SWAP10 SWAP9 SWAP8 SWAP7 SWAP6 SWAP5 SWAP4 SWAP3 SWAP2 SWAP1 PUSH2 0x415A JUMP JUMPDEST PUSH1 0x40 MLOAD PUSH1 0x20 DUP2 DUP4 SUB SUB DUP2 MSTORE SWAP1 PUSH1 0x40 MSTORE SWAP1 POP DUP1 DUP1 MLOAD SWAP1 PUSH1 0x20 ADD KECCAK256 DUP5 DUP1 MLOAD SWAP1 PUSH1 0x20 ADD KECCAK256 SUB PUSH2 0x2115 JUMPI PUSH0 SWAP5 POP POP POP POP POP PUSH2 0x22F0 JUMP JUMPDEST POP POP DUP1 DUP1 PUSH1 0x1 ADD SWAP2 POP POP PUSH2 0x20A2 JUMP JUMPDEST POP PUSH0 DUP1 PUSH1 0xA SWAP1 POP PUSH0 JUMPDEST PUSH1 0x9 DUP2 PUSH1 0xFF AND LT ISZERO PUSH2 0x219D JUMPI DUP2 DUP1 PUSH2 0x2144 SWAP1 PUSH2 0x41FE JUMP JUMPDEST SWAP3 POP PUSH1 0x30 DUP6 DUP4 PUSH1 0xFF AND DUP2 MLOAD DUP2 LT PUSH2 0x215E JUMPI PUSH2 0x215D PUSH2 0x3311 JUMP JUMPDEST JUMPDEST PUSH1 0x20 ADD ADD MLOAD PUSH1 0xF8 SHR PUSH1 0xF8 SHL PUSH1 0xF8 SHR PUSH2 0x2176 SWAP2 SWAP1 PUSH2 0x4225 JUMP JUMPDEST PUSH2 0x2180 SWAP2 SWAP1 PUSH2 0x4259 JUMP JUMPDEST PUSH1 0xFF AND DUP4 PUSH2 0x218E SWAP2 SWAP1 PUSH2 0x336B JUMP JUMPDEST SWAP3 POP DUP1 DUP1 PUSH1 0x1 ADD SWAP2 POP POP PUSH2 0x212D JUMP JUMPDEST POP PUSH0 PUSH1 0xB DUP4 PUSH2 0x21AC SWAP2 SWAP1 PUSH2 0x42C2 JUMP JUMPDEST SWAP1 POP PUSH1 0x2 DUP2 LT PUSH2 0x21C8 JUMPI DUP1 PUSH1 0xB PUSH2 0x21C3 SWAP2 SWAP1 PUSH2 0x3E89 JUMP JUMPDEST PUSH2 0x21CA JUMP JUMPDEST PUSH0 JUMPDEST SWAP1 POP DUP1 PUSH1 0x30 DUP6 PUSH1 0x9 DUP2 MLOAD DUP2 LT PUSH2 0x21E3 JUMPI PUSH2 0x21E2 PUSH2 0x3311 JUMP JUMPDEST JUMPDEST PUSH1 0x20 ADD ADD MLOAD PUSH1 0xF8 SHR PUSH1 0xF8 SHL PUSH1 0xF8 SHR PUSH2 0x21FB SWAP2 SWAP1 PUSH2 0x4225 JUMP JUMPDEST PUSH1 0xFF AND EQ PUSH2 0x220F JUMPI PUSH0 SWAP5 POP POP POP POP POP PUSH2 0x22F0 JUMP JUMPDEST PUSH0 SWAP3 POP PUSH1 0xB SWAP2 POP PUSH0 JUMPDEST PUSH1 0xA DUP2 PUSH1 0xFF AND LT ISZERO PUSH2 0x2288 JUMPI DUP3 DUP1 PUSH2 0x222F SWAP1 PUSH2 0x41FE JUMP JUMPDEST SWAP4 POP PUSH1 0x30 DUP7 DUP4 PUSH1 0xFF AND DUP2 MLOAD DUP2 LT PUSH2 0x2249 JUMPI PUSH2 0x2248 PUSH2 0x3311 JUMP JUMPDEST JUMPDEST PUSH1 0x20 ADD ADD MLOAD PUSH1 0xF8 SHR PUSH1 0xF8 SHL PUSH1 0xF8 SHR PUSH2 0x2261 SWAP2 SWAP1 PUSH2 0x4225 JUMP JUMPDEST PUSH2 0x226B SWAP2 SWAP1 PUSH2 0x4259 JUMP JUMPDEST PUSH1 0xFF AND DUP5 PUSH2 0x2279 SWAP2 SWAP1 PUSH2 0x336B JUMP JUMPDEST SWAP4 POP DUP1 DUP1 PUSH1 0x1 ADD SWAP2 POP POP PUSH2 0x2218 JUMP JUMPDEST POP PUSH1 0xB DUP4 PUSH2 0x2296 SWAP2 SWAP1 PUSH2 0x42C2 JUMP JUMPDEST SWAP1 POP PUSH1 0x2 DUP2 LT PUSH2 0x22B2 JUMPI DUP1 PUSH1 0xB PUSH2 0x22AD SWAP2 SWAP1 PUSH2 0x3E89 JUMP JUMPDEST PUSH2 0x22B4 JUMP JUMPDEST PUSH0 JUMPDEST SWAP1 POP DUP1 PUSH1 0x30 DUP6 PUSH1 0xA DUP2 MLOAD DUP2 LT PUSH2 0x22CD JUMPI PUSH2 0x22CC PUSH2 0x3311 JUMP JUMPDEST JUMPDEST PUSH1 0x20 ADD ADD MLOAD PUSH1 0xF8 SHR PUSH1 0xF8 SHL PUSH1 0xF8 SHR PUSH2 0x22E5 SWAP2 SWAP1 PUSH2 0x4225 JUMP JUMPDEST PUSH1 0xFF AND EQ SWAP5 POP POP POP POP POP JUMPDEST SWAP2 SWAP1 POP JUMP JUMPDEST PUSH0 DUP2 MLOAD SUB PUSH2 0x232F JUMPI PUSH1 0x40 MLOAD PUSH32 0x22CE3EDD00000000000000000000000000000000000000000000000000000000 DUP2 MSTORE PUSH1 0x4 ADD PUSH1 0x40 MLOAD DUP1 SWAP2 SUB SWAP1 REVERT JUMPDEST DUP3 DUP5 PUSH0 ADD SWAP1 PUSH1 0x2 DUP2 GT ISZERO PUSH2 0x2346 JUMPI PUSH2 0x2345 PUSH2 0x3FE3 JUMP JUMPDEST JUMPDEST SWAP1 DUP2 PUSH1 0x2 DUP2 GT ISZERO PUSH2 0x235A JUMPI PUSH2 0x2359 PUSH2 0x3FE3 JUMP JUMPDEST JUMPDEST DUP2 MSTORE POP POP DUP2 DUP5 PUSH1 0x40 ADD SWAP1 PUSH0 DUP2 GT ISZERO PUSH2 0x2375 JUMPI PUSH2 0x2374 PUSH2 0x3FE3 JUMP JUMPDEST JUMPDEST SWAP1 DUP2 PUSH0 DUP2 GT ISZERO PUSH2 0x2388 JUMPI PUSH2 0x2387 PUSH2 0x3FE3 JUMP JUMPDEST JUMPDEST DUP2 MSTORE POP POP DUP1 DUP5 PUSH1 0x60 ADD DUP2 SWAP1 MSTORE POP POP POP POP POP JUMP JUMPDEST PUSH2 0x23A3 PUSH2 0x2C3D JUMP JUMPDEST PUSH2 0x23B0 DUP2 PUSH0 ADD MLOAD DUP4 PUSH2 0x2579 JUMP JUMPDEST POP PUSH0 DUP2 PUSH1 0x20 ADD DUP2 DUP2 MSTORE POP POP SWAP2 SWAP1 POP JUMP JUMPDEST PUSH2 0x23CD DUP3 PUSH1 0x3 DUP4 MLOAD PUSH2 0x25EF JUMP JUMPDEST PUSH2 0x23E3 DUP2 DUP4 PUSH0 ADD MLOAD PUSH2 0x278F SWAP1 SWAP2 SWAP1 PUSH4 0xFFFFFFFF AND JUMP JUMPDEST POP POP POP JUMP JUMPDEST PUSH2 0x2409 PUSH1 0x2 PUSH1 0x5 PUSH1 0x6 PUSH1 0xFF AND SWAP1 SHL OR DUP4 PUSH0 ADD MLOAD PUSH2 0x27AB SWAP1 SWAP2 SWAP1 PUSH4 0xFFFFFFFF AND JUMP JUMPDEST POP PUSH2 0x2433 DUP3 DUP3 PUSH1 0x40 MLOAD PUSH1 0x20 ADD PUSH2 0x241F SWAP2 SWAP1 PUSH2 0x42F2 JUMP JUMPDEST PUSH1 0x40 MLOAD PUSH1 0x20 DUP2 DUP4 SUB SUB DUP2 MSTORE SWAP1 PUSH1 0x40 MSTORE PUSH2 0x2487 JUMP JUMPDEST POP POP JUMP JUMPDEST PUSH2 0x2442 DUP2 PUSH1 0x4 PUSH2 0x2812 JUMP JUMPDEST PUSH1 0x1 DUP2 PUSH1 0x20 ADD DUP2 DUP2 MLOAD PUSH2 0x2455 SWAP2 SWAP1 PUSH2 0x336B JUMP JUMPDEST SWAP2 POP DUP2 DUP2 MSTORE POP POP POP JUMP JUMPDEST PUSH2 0x246A DUP2 PUSH1 0x7 PUSH2 0x2812 JUMP JUMPDEST PUSH1 0x1 DUP2 PUSH1 0x20 ADD DUP2 DUP2 MLOAD PUSH2 0x247D SWAP2 SWAP1 PUSH2 0x3E89 JUMP JUMPDEST SWAP2 POP DUP2 DUP2 MSTORE POP POP POP JUMP JUMPDEST PUSH2 0x2494 DUP3 PUSH1 0x2 DUP4 MLOAD PUSH2 0x25EF JUMP JUMPDEST PUSH2 0x24AA DUP2 DUP4 PUSH0 ADD MLOAD PUSH2 0x278F SWAP1 SWAP2 SWAP1 PUSH4 0xFFFFFFFF AND JUMP JUMPDEST POP POP POP JUMP JUMPDEST PUSH1 0x60 PUSH0 PUSH1 0x1 PUSH2 0x24BD DUP5 PUSH2 0x2837 JUMP JUMPDEST ADD SWAP1 POP PUSH0 DUP2 PUSH8 0xFFFFFFFFFFFFFFFF DUP2 GT ISZERO PUSH2 0x24DB JUMPI PUSH2 0x24DA PUSH2 0x2CB9 JUMP JUMPDEST JUMPDEST PUSH1 0x40 MLOAD SWAP1 DUP1 DUP3 MSTORE DUP1 PUSH1 0x1F ADD PUSH1 0x1F NOT AND PUSH1 0x20 ADD DUP3 ADD PUSH1 0x40 MSTORE DUP1 ISZERO PUSH2 0x250D JUMPI DUP2 PUSH1 0x20 ADD PUSH1 0x1 DUP3 MUL DUP1 CALLDATASIZE DUP4 CALLDATACOPY DUP1 DUP3 ADD SWAP2 POP POP SWAP1 POP JUMPDEST POP SWAP1 POP PUSH0 DUP3 PUSH1 0x20 ADD DUP3 ADD SWAP1 POP JUMPDEST PUSH1 0x1 ISZERO PUSH2 0x256E JUMPI DUP1 DUP1 PUSH1 0x1 SWAP1 SUB SWAP2 POP POP PUSH32 0x3031323334353637383961626364656600000000000000000000000000000000 PUSH1 0xA DUP7 MOD BYTE DUP2 MSTORE8 PUSH1 0xA DUP6 DUP2 PUSH2 0x2563 JUMPI PUSH2 0x2562 PUSH2 0x4295 JUMP JUMPDEST JUMPDEST DIV SWAP5 POP PUSH0 DUP6 SUB PUSH2 0x251A JUMPI JUMPDEST DUP2 SWAP4 POP POP POP POP SWAP2 SWAP1 POP JUMP JUMPDEST PUSH2 0x2581 PUSH2 0x2C5C JUMP JUMPDEST PUSH0 PUSH1 0x20 DUP4 PUSH2 0x258F SWAP2 SWAP1 PUSH2 0x42C2 JUMP JUMPDEST EQ PUSH2 0x25BB JUMPI PUSH1 0x20 DUP3 PUSH2 0x25A1 SWAP2 SWAP1 PUSH2 0x42C2 JUMP JUMPDEST PUSH1 0x20 PUSH2 0x25AD SWAP2 SWAP1 PUSH2 0x3E89 JUMP JUMPDEST DUP3 PUSH2 0x25B8 SWAP2 SWAP1 PUSH2 0x336B JUMP JUMPDEST SWAP2 POP JUMPDEST DUP2 DUP4 PUSH1 0x20 ADD DUP2 DUP2 MSTORE POP POP PUSH1 0x40 MLOAD DUP1 DUP5 MSTORE PUSH0 DUP2 MSTORE DUP3 DUP2 ADD PUSH1 0x20 ADD DUP2 DUP2 LT ISZERO PUSH2 0x25E0 JUMPI PUSH0 DUP1 REVERT JUMPDEST DUP1 PUSH1 0x40 MSTORE POP POP DUP3 SWAP1 POP SWAP3 SWAP2 POP POP JUMP JUMPDEST PUSH1 0x17 DUP2 PUSH8 0xFFFFFFFFFFFFFFFF AND GT PUSH2 0x2629 JUMPI PUSH2 0x2623 DUP2 PUSH1 0x5 DUP5 PUSH1 0xFF AND SWAP1 SHL PUSH1 0xFF AND OR DUP5 PUSH0 ADD MLOAD PUSH2 0x27AB SWAP1 SWAP2 SWAP1 PUSH4 0xFFFFFFFF AND JUMP JUMPDEST POP PUSH2 0x278A JUMP JUMPDEST PUSH1 0xFF DUP2 PUSH8 0xFFFFFFFFFFFFFFFF AND GT PUSH2 0x2685 JUMPI PUSH2 0x265B PUSH1 0x18 PUSH1 0x5 DUP5 PUSH1 0xFF AND SWAP1 SHL OR DUP5 PUSH0 ADD MLOAD PUSH2 0x27AB SWAP1 SWAP2 SWAP1 PUSH4 0xFFFFFFFF AND JUMP JUMPDEST POP PUSH2 0x267F DUP2 PUSH8 0xFFFFFFFFFFFFFFFF AND PUSH1 0x1 DUP6 PUSH0 ADD MLOAD PUSH2 0x2988 SWAP1 SWAP3 SWAP2 SWAP1 PUSH4 0xFFFFFFFF AND JUMP JUMPDEST POP PUSH2 0x2789 JUMP JUMPDEST PUSH2 0xFFFF DUP2 PUSH8 0xFFFFFFFFFFFFFFFF AND GT PUSH2 0x26E2 JUMPI PUSH2 0x26B8 PUSH1 0x19 PUSH1 0x5 DUP5 PUSH1 0xFF AND SWAP1 SHL OR DUP5 PUSH0 ADD MLOAD PUSH2 0x27AB SWAP1 SWAP2 SWAP1 PUSH4 0xFFFFFFFF AND JUMP JUMPDEST POP PUSH2 0x26DC DUP2 PUSH8 0xFFFFFFFFFFFFFFFF AND PUSH1 0x2 DUP6 PUSH0 ADD MLOAD PUSH2 0x2988 SWAP1 SWAP3 SWAP2 SWAP1 PUSH4 0xFFFFFFFF AND JUMP JUMPDEST POP PUSH2 0x2788 JUMP JUMPDEST PUSH4 0xFFFFFFFF DUP2 PUSH8 0xFFFFFFFFFFFFFFFF AND GT PUSH2 0x2741 JUMPI PUSH2 0x2717 PUSH1 0x1A PUSH1 0x5 DUP5 PUSH1 0xFF AND SWAP1 SHL OR DUP5 PUSH0 ADD MLOAD PUSH2 0x27AB SWAP1 SWAP2 SWAP1 PUSH4 0xFFFFFFFF AND JUMP JUMPDEST POP PUSH2 0x273B DUP2 PUSH8 0xFFFFFFFFFFFFFFFF AND PUSH1 0x4 DUP6 PUSH0 ADD MLOAD PUSH2 0x2988 SWAP1 SWAP3 SWAP2 SWAP1 PUSH4 0xFFFFFFFF AND JUMP JUMPDEST POP PUSH2 0x2787 JUMP JUMPDEST PUSH2 0x2761 PUSH1 0x1B PUSH1 0x5 DUP5 PUSH1 0xFF AND SWAP1 SHL OR DUP5 PUSH0 ADD MLOAD PUSH2 0x27AB SWAP1 SWAP2 SWAP1 PUSH4 0xFFFFFFFF AND JUMP JUMPDEST POP PUSH2 0x2785 DUP2 PUSH8 0xFFFFFFFFFFFFFFFF AND PUSH1 0x8 DUP6 PUSH0 ADD MLOAD PUSH2 0x2988 SWAP1 SWAP3 SWAP2 SWAP1 PUSH4 0xFFFFFFFF AND JUMP JUMPDEST POP JUMPDEST JUMPDEST JUMPDEST JUMPDEST POP POP POP JUMP JUMPDEST PUSH2 0x2797 PUSH2 0x2C5C JUMP JUMPDEST PUSH2 0x27A3 DUP4 DUP4 DUP5 MLOAD PUSH2 0x2A11 JUMP JUMPDEST SWAP1 POP SWAP3 SWAP2 POP POP JUMP JUMPDEST PUSH2 0x27B3 PUSH2 0x2C5C JUMP JUMPDEST PUSH0 DUP4 PUSH0 ADD MLOAD MLOAD SWAP1 POP PUSH0 PUSH1 0x1 DUP3 PUSH2 0x27C9 SWAP2 SWAP1 PUSH2 0x336B JUMP JUMPDEST SWAP1 POP DUP5 PUSH1 0x20 ADD MLOAD DUP3 LT PUSH2 0x27ED JUMPI PUSH2 0x27EC DUP6 PUSH1 0x2 DUP4 PUSH2 0x27E7 SWAP2 SWAP1 PUSH2 0x34D5 JUMP JUMPDEST PUSH2 0x2AEE JUMP JUMPDEST JUMPDEST DUP5 MLOAD PUSH1 0x20 DUP4 DUP3 ADD ADD DUP6 DUP2 MSTORE8 DUP2 MLOAD DUP4 GT ISZERO PUSH2 0x2805 JUMPI DUP3 DUP3 MSTORE JUMPDEST POP POP DUP5 SWAP3 POP POP POP SWAP3 SWAP2 POP POP JUMP JUMPDEST PUSH2 0x2832 PUSH1 0x1F PUSH1 0x5 DUP4 PUSH1 0xFF AND SWAP1 SHL OR DUP4 PUSH0 ADD MLOAD PUSH2 0x27AB SWAP1 SWAP2 SWAP1 PUSH4 0xFFFFFFFF AND JUMP JUMPDEST POP POP POP JUMP JUMPDEST PUSH0 DUP1 PUSH0 SWAP1 POP PUSH27 0x184F03E93FF9F4DAA797ED6E38ED64BF6A1F010000000000000000 DUP4 LT PUSH2 0x2893 JUMPI PUSH27 0x184F03E93FF9F4DAA797ED6E38ED64BF6A1F010000000000000000 DUP4 DUP2 PUSH2 0x2889 JUMPI PUSH2 0x2888 PUSH2 0x4295 JUMP JUMPDEST JUMPDEST DIV SWAP3 POP PUSH1 0x40 DUP2 ADD SWAP1 POP JUMPDEST PUSH14 0x4EE2D6D415B85ACEF8100000000 DUP4 LT PUSH2 0x28D0 JUMPI PUSH14 0x4EE2D6D415B85ACEF8100000000 DUP4 DUP2 PUSH2 0x28C6 JUMPI PUSH2 0x28C5 PUSH2 0x4295 JUMP JUMPDEST JUMPDEST DIV SWAP3 POP PUSH1 0x20 DUP2 ADD SWAP1 POP JUMPDEST PUSH7 0x2386F26FC10000 DUP4 LT PUSH2 0x28FF JUMPI PUSH7 0x2386F26FC10000 DUP4 DUP2 PUSH2 0x28F5 JUMPI PUSH2 0x28F4 PUSH2 0x4295 JUMP JUMPDEST JUMPDEST DIV SWAP3 POP PUSH1 0x10 DUP2 ADD SWAP1 POP JUMPDEST PUSH4 0x5F5E100 DUP4 LT PUSH2 0x2928 JUMPI PUSH4 0x5F5E100 DUP4 DUP2 PUSH2 0x291E JUMPI PUSH2 0x291D PUSH2 0x4295 JUMP JUMPDEST JUMPDEST DIV SWAP3 POP PUSH1 0x8 DUP2 ADD SWAP1 POP JUMPDEST PUSH2 0x2710 DUP4 LT PUSH2 0x294D JUMPI PUSH2 0x2710 DUP4 DUP2 PUSH2 0x2943 JUMPI PUSH2 0x2942 PUSH2 0x4295 JUMP JUMPDEST JUMPDEST DIV SWAP3 POP PUSH1 0x4 DUP2 ADD SWAP1 POP JUMPDEST PUSH1 0x64 DUP4 LT PUSH2 0x2970 JUMPI PUSH1 0x64 DUP4 DUP2 PUSH2 0x2966 JUMPI PUSH2 0x2965 PUSH2 0x4295 JUMP JUMPDEST JUMPDEST DIV SWAP3 POP PUSH1 0x2 DUP2 ADD SWAP1 POP JUMPDEST PUSH1 0xA DUP4 LT PUSH2 0x297F JUMPI PUSH1 0x1 DUP2 ADD SWAP1 POP JUMPDEST DUP1 SWAP2 POP POP SWAP2 SWAP1 POP JUMP JUMPDEST PUSH2 0x2990 PUSH2 0x2C5C JUMP JUMPDEST PUSH0 DUP5 PUSH0 ADD MLOAD MLOAD SWAP1 POP PUSH0 DUP2 DUP5 PUSH2 0x29A5 SWAP2 SWAP1 PUSH2 0x336B JUMP JUMPDEST SWAP1 POP DUP6 PUSH1 0x20 ADD MLOAD DUP2 GT ISZERO PUSH2 0x29CA JUMPI PUSH2 0x29C9 DUP7 PUSH1 0x2 DUP4 PUSH2 0x29C4 SWAP2 SWAP1 PUSH2 0x34D5 JUMP JUMPDEST PUSH2 0x2AEE JUMP JUMPDEST JUMPDEST PUSH0 PUSH1 0x1 DUP6 PUSH2 0x100 PUSH2 0x29DB SWAP2 SWAP1 PUSH2 0x443A JUMP JUMPDEST PUSH2 0x29E5 SWAP2 SWAP1 PUSH2 0x3E89 JUMP JUMPDEST SWAP1 POP DUP7 MLOAD DUP3 DUP2 ADD DUP8 DUP4 NOT DUP3 MLOAD AND OR DUP2 MSTORE DUP2 MLOAD DUP5 GT ISZERO PUSH2 0x2A02 JUMPI DUP4 DUP3 MSTORE JUMPDEST POP POP DUP7 SWAP4 POP POP POP POP SWAP4 SWAP3 POP POP POP JUMP JUMPDEST PUSH2 0x2A19 PUSH2 0x2C5C JUMP JUMPDEST DUP3 MLOAD DUP3 GT ISZERO PUSH2 0x2A26 JUMPI PUSH0 DUP1 REVERT JUMPDEST PUSH0 DUP5 PUSH0 ADD MLOAD MLOAD SWAP1 POP PUSH0 DUP4 DUP3 PUSH2 0x2A3B SWAP2 SWAP1 PUSH2 0x336B JUMP JUMPDEST SWAP1 POP DUP6 PUSH1 0x20 ADD MLOAD DUP2 GT ISZERO PUSH2 0x2A60 JUMPI PUSH2 0x2A5F DUP7 PUSH1 0x2 DUP4 PUSH2 0x2A5A SWAP2 SWAP1 PUSH2 0x34D5 JUMP JUMPDEST PUSH2 0x2AEE JUMP JUMPDEST JUMPDEST PUSH0 DUP1 DUP8 MLOAD DUP1 MLOAD DUP6 PUSH1 0x20 DUP4 ADD ADD SWAP4 POP DUP1 DUP6 GT ISZERO PUSH2 0x2A7A JUMPI DUP5 DUP3 MSTORE JUMPDEST PUSH1 0x20 DUP10 ADD SWAP3 POP POP POP JUMPDEST PUSH1 0x20 DUP7 LT PUSH2 0x2AC1 JUMPI DUP1 MLOAD DUP3 MSTORE PUSH1 0x20 DUP3 PUSH2 0x2A9C SWAP2 SWAP1 PUSH2 0x336B JUMP JUMPDEST SWAP2 POP PUSH1 0x20 DUP2 PUSH2 0x2AAB SWAP2 SWAP1 PUSH2 0x336B JUMP JUMPDEST SWAP1 POP PUSH1 0x20 DUP7 PUSH2 0x2ABA SWAP2 SWAP1 PUSH2 0x3E89 JUMP JUMPDEST SWAP6 POP PUSH2 0x2A83 JUMP JUMPDEST PUSH0 PUSH1 0x1 DUP8 PUSH1 0x20 SUB PUSH2 0x100 EXP SUB SWAP1 POP DUP1 NOT DUP3 MLOAD AND DUP2 DUP5 MLOAD AND DUP2 DUP2 OR DUP6 MSTORE POP POP POP DUP8 SWAP5 POP POP POP POP POP SWAP4 SWAP3 POP POP POP JUMP JUMPDEST PUSH0 DUP3 PUSH0 ADD MLOAD SWAP1 POP PUSH2 0x2AFF DUP4 DUP4 PUSH2 0x2579 JUMP JUMPDEST POP PUSH2 0x2B0A DUP4 DUP3 PUSH2 0x278F JUMP JUMPDEST POP POP POP POP JUMP JUMPDEST PUSH1 0x40 MLOAD DUP1 PUSH1 0xE0 ADD PUSH1 0x40 MSTORE DUP1 PUSH0 PUSH1 0x2 DUP2 GT ISZERO PUSH2 0x2B2E JUMPI PUSH2 0x2B2D PUSH2 0x3FE3 JUMP JUMPDEST JUMPDEST DUP2 MSTORE PUSH1 0x20 ADD PUSH0 PUSH1 0x2 DUP2 GT ISZERO PUSH2 0x2B46 JUMPI PUSH2 0x2B45 PUSH2 0x3FE3 JUMP JUMPDEST JUMPDEST DUP2 MSTORE PUSH1 0x20 ADD PUSH0 DUP1 DUP2 GT ISZERO PUSH2 0x2B5D JUMPI PUSH2 0x2B5C PUSH2 0x3FE3 JUMP JUMPDEST JUMPDEST DUP2 MSTORE PUSH1 0x20 ADD PUSH1 0x60 DUP2 MSTORE PUSH1 0x20 ADD PUSH1 0x60 DUP2 MSTORE PUSH1 0x20 ADD PUSH1 0x60 DUP2 MSTORE PUSH1 0x20 ADD PUSH1 0x60 DUP2 MSTORE POP SWAP1 JUMP JUMPDEST PUSH1 0x40 MLOAD DUP1 PUSH2 0x160 ADD PUSH1 0x40 MSTORE DUP1 PUSH1 0x60 DUP2 MSTORE PUSH1 0x20 ADD PUSH1 0x60 DUP2 MSTORE PUSH1 0x20 ADD PUSH0 PUSH20 0xFFFFFFFFFFFFFFFFFFFFFFFFFFFFFFFFFFFFFFFF AND DUP2 MSTORE PUSH1 0x20 ADD PUSH0 PUSH20 0xFFFFFFFFFFFFFFFFFFFFFFFFFFFFFFFFFFFFFFFF AND DUP2 MSTORE PUSH1 0x20 ADD PUSH1 0x60 DUP2 MSTORE PUSH1 0x20 ADD PUSH1 0x60 DUP2 MSTORE PUSH1 0x20 ADD PUSH0 DUP2 MSTORE PUSH1 0x20 ADD PUSH0 DUP2 MSTORE PUSH1 0x20 ADD PUSH0 DUP2 MSTORE PUSH1 0x20 ADD PUSH0 DUP2 MSTORE PUSH1 0x20 ADD PUSH0 ISZERO ISZERO DUP2 MSTORE POP SWAP1 JUMP JUMPDEST POP DUP1 SLOAD PUSH2 0x2C0C SWAP1 PUSH2 0x36C2 JUMP JUMPDEST PUSH0 DUP3 SSTORE DUP1 PUSH1 0x1F LT PUSH2 0x2C1D JUMPI POP PUSH2 0x2C3A JUMP JUMPDEST PUSH1 0x1F ADD PUSH1 0x20 SWAP1 DIV SWAP1 PUSH0 MSTORE PUSH1 0x20 PUSH0 KECCAK256 SWAP1 DUP2 ADD SWAP1 PUSH2 0x2C39 SWAP2 SWAP1 PUSH2 0x2C75 JUMP JUMPDEST JUMPDEST POP JUMP JUMPDEST PUSH1 0x40 MLOAD DUP1 PUSH1 0x40 ADD PUSH1 0x40 MSTORE DUP1 PUSH2 0x2C50 PUSH2 0x2C5C JUMP JUMPDEST DUP2 MSTORE PUSH1 0x20 ADD PUSH0 DUP2 MSTORE POP SWAP1 JUMP JUMPDEST PUSH1 0x40 MLOAD DUP1 PUSH1 0x40 ADD PUSH1 0x40 MSTORE DUP1 PUSH1 0x60 DUP2 MSTORE PUSH1 0x20 ADD PUSH0 DUP2 MSTORE POP SWAP1 JUMP JUMPDEST JUMPDEST DUP1 DUP3 GT ISZERO PUSH2 0x2C8C JUMPI PUSH0 DUP2 PUSH0 SWAP1 SSTORE POP PUSH1 0x1 ADD PUSH2 0x2C76 JUMP JUMPDEST POP SWAP1 JUMP JUMPDEST PUSH0 PUSH1 0x40 MLOAD SWAP1 POP SWAP1 JUMP JUMPDEST PUSH0 DUP1 REVERT JUMPDEST PUSH0 DUP1 REVERT JUMPDEST PUSH0 DUP1 REVERT JUMPDEST PUSH0 DUP1 REVERT JUMPDEST PUSH0 PUSH1 0x1F NOT PUSH1 0x1F DUP4 ADD AND SWAP1 POP SWAP2 SWAP1 POP JUMP JUMPDEST PUSH32 0x4E487B7100000000000000000000000000000000000000000000000000000000 PUSH0 MSTORE PUSH1 0x41 PUSH1 0x4 MSTORE PUSH1 0x24 PUSH0 REVERT JUMPDEST PUSH2 0x2CEF DUP3 PUSH2 0x2CA9 JUMP JUMPDEST DUP2 ADD DUP2 DUP2 LT PUSH8 0xFFFFFFFFFFFFFFFF DUP3 GT OR ISZERO PUSH2 0x2D0E JUMPI PUSH2 0x2D0D PUSH2 0x2CB9 JUMP JUMPDEST JUMPDEST DUP1 PUSH1 0x40 MSTORE POP POP POP JUMP JUMPDEST PUSH0 PUSH2 0x2D20 PUSH2 0x2C90 JUMP JUMPDEST SWAP1 POP PUSH2 0x2D2C DUP3 DUP3 PUSH2 0x2CE6 JUMP JUMPDEST SWAP2 SWAP1 POP JUMP JUMPDEST PUSH0 PUSH8 0xFFFFFFFFFFFFFFFF DUP3 GT ISZERO PUSH2 0x2D4B JUMPI PUSH2 0x2D4A PUSH2 0x2CB9 JUMP JUMPDEST JUMPDEST PUSH2 0x2D54 DUP3 PUSH2 0x2CA9 JUMP JUMPDEST SWAP1 POP PUSH1 0x20 DUP2 ADD SWAP1 POP SWAP2 SWAP1 POP JUMP JUMPDEST DUP3 DUP2 DUP4 CALLDATACOPY PUSH0 DUP4 DUP4 ADD MSTORE POP POP POP JUMP JUMPDEST PUSH0 PUSH2 0x2D81 PUSH2 0x2D7C DUP5 PUSH2 0x2D31 JUMP JUMPDEST PUSH2 0x2D17 JUMP JUMPDEST SWAP1 POP DUP3 DUP2 MSTORE PUSH1 0x20 DUP2 ADD DUP5 DUP5 DUP5 ADD GT ISZERO PUSH2 0x2D9D JUMPI PUSH2 0x2D9C PUSH2 0x2CA5 JUMP JUMPDEST JUMPDEST PUSH2 0x2DA8 DUP5 DUP3 DUP6 PUSH2 0x2D61 JUMP JUMPDEST POP SWAP4 SWAP3 POP POP POP JUMP JUMPDEST PUSH0 DUP3 PUSH1 0x1F DUP4 ADD SLT PUSH2 0x2DC4 JUMPI PUSH2 0x2DC3 PUSH2 0x2CA1 JUMP JUMPDEST JUMPDEST DUP2 CALLDATALOAD PUSH2 0x2DD4 DUP5 DUP3 PUSH1 0x20 DUP7 ADD PUSH2 0x2D6F JUMP JUMPDEST SWAP2 POP POP SWAP3 SWAP2 POP POP JUMP JUMPDEST PUSH0 DUP1 PUSH1 0x40 DUP4 DUP6 SUB SLT ISZERO PUSH2 0x2DF3 JUMPI PUSH2 0x2DF2 PUSH2 0x2C99 JUMP JUMPDEST JUMPDEST PUSH0 DUP4 ADD CALLDATALOAD PUSH8 0xFFFFFFFFFFFFFFFF DUP2 GT ISZERO PUSH2 0x2E10 JUMPI PUSH2 0x2E0F PUSH2 0x2C9D JUMP JUMPDEST JUMPDEST PUSH2 0x2E1C DUP6 DUP3 DUP7 ADD PUSH2 0x2DB0 JUMP JUMPDEST SWAP3 POP POP PUSH1 0x20 DUP4 ADD CALLDATALOAD PUSH8 0xFFFFFFFFFFFFFFFF DUP2 GT ISZERO PUSH2 0x2E3D JUMPI PUSH2 0x2E3C PUSH2 0x2C9D JUMP JUMPDEST JUMPDEST PUSH2 0x2E49 DUP6 DUP3 DUP7 ADD PUSH2 0x2DB0 JUMP JUMPDEST SWAP2 POP POP SWAP3 POP SWAP3 SWAP1 POP JUMP JUMPDEST PUSH0 DUP2 SWAP1 POP SWAP2 SWAP1 POP JUMP JUMPDEST PUSH2 0x2E65 DUP2 PUSH2 0x2E53 JUMP JUMPDEST DUP2 EQ PUSH2 0x2E6F JUMPI PUSH0 DUP1 REVERT JUMPDEST POP JUMP JUMPDEST PUSH0 DUP2 CALLDATALOAD SWAP1 POP PUSH2 0x2E80 DUP2 PUSH2 0x2E5C JUMP JUMPDEST SWAP3 SWAP2 POP POP JUMP JUMPDEST PUSH0 PUSH8 0xFFFFFFFFFFFFFFFF DUP3 GT ISZERO PUSH2 0x2EA0 JUMPI PUSH2 0x2E9F PUSH2 0x2CB9 JUMP JUMPDEST JUMPDEST PUSH2 0x2EA9 DUP3 PUSH2 0x2CA9 JUMP JUMPDEST SWAP1 POP PUSH1 0x20 DUP2 ADD SWAP1 POP SWAP2 SWAP1 POP JUMP JUMPDEST PUSH0 PUSH2 0x2EC8 PUSH2 0x2EC3 DUP5 PUSH2 0x2E86 JUMP JUMPDEST PUSH2 0x2D17 JUMP JUMPDEST SWAP1 POP DUP3 DUP2 MSTORE PUSH1 0x20 DUP2 ADD DUP5 DUP5 DUP5 ADD GT ISZERO PUSH2 0x2EE4 JUMPI PUSH2 0x2EE3 PUSH2 0x2CA5 JUMP JUMPDEST JUMPDEST PUSH2 0x2EEF DUP5 DUP3 DUP6 PUSH2 0x2D61 JUMP JUMPDEST POP SWAP4 SWAP3 POP POP POP JUMP JUMPDEST PUSH0 DUP3 PUSH1 0x1F DUP4 ADD SLT PUSH2 0x2F0B JUMPI PUSH2 0x2F0A PUSH2 0x2CA1 JUMP JUMPDEST JUMPDEST DUP2 CALLDATALOAD PUSH2 0x2F1B DUP5 DUP3 PUSH1 0x20 DUP7 ADD PUSH2 0x2EB6 JUMP JUMPDEST SWAP2 POP POP SWAP3 SWAP2 POP POP JUMP JUMPDEST PUSH0 DUP1 PUSH0 PUSH1 0x60 DUP5 DUP7 SUB SLT ISZERO PUSH2 0x2F3B JUMPI PUSH2 0x2F3A PUSH2 0x2C99 JUMP JUMPDEST JUMPDEST PUSH0 PUSH2 0x2F48 DUP7 DUP3 DUP8 ADD PUSH2 0x2E72 JUMP JUMPDEST SWAP4 POP POP PUSH1 0x20 DUP5 ADD CALLDATALOAD PUSH8 0xFFFFFFFFFFFFFFFF DUP2 GT ISZERO PUSH2 0x2F69 JUMPI PUSH2 0x2F68 PUSH2 0x2C9D JUMP JUMPDEST JUMPDEST PUSH2 0x2F75 DUP7 DUP3 DUP8 ADD PUSH2 0x2EF7 JUMP JUMPDEST SWAP3 POP POP PUSH1 0x40 DUP5 ADD CALLDATALOAD PUSH8 0xFFFFFFFFFFFFFFFF DUP2 GT ISZERO PUSH2 0x2F96 JUMPI PUSH2 0x2F95 PUSH2 0x2C9D JUMP JUMPDEST JUMPDEST PUSH2 0x2FA2 DUP7 DUP3 DUP8 ADD PUSH2 0x2EF7 JUMP JUMPDEST SWAP2 POP POP SWAP3 POP SWAP3 POP SWAP3 JUMP JUMPDEST PUSH0 DUP2 SWAP1 POP SWAP2 SWAP1 POP JUMP JUMPDEST PUSH2 0x2FBE DUP2 PUSH2 0x2FAC JUMP JUMPDEST DUP2 EQ PUSH2 0x2FC8 JUMPI PUSH0 DUP1 REVERT JUMPDEST POP JUMP JUMPDEST PUSH0 DUP2 CALLDATALOAD SWAP1 POP PUSH2 0x2FD9 DUP2 PUSH2 0x2FB5 JUMP JUMPDEST SWAP3 SWAP2 POP POP JUMP JUMPDEST PUSH0 DUP1 PUSH0 DUP1 PUSH0 DUP1 PUSH1 0xC0 DUP8 DUP10 SUB SLT ISZERO PUSH2 0x2FF9 JUMPI PUSH2 0x2FF8 PUSH2 0x2C99 JUMP JUMPDEST JUMPDEST PUSH0 DUP8 ADD CALLDATALOAD PUSH8 0xFFFFFFFFFFFFFFFF DUP2 GT ISZERO PUSH2 0x3016 JUMPI PUSH2 0x3015 PUSH2 0x2C9D JUMP JUMPDEST JUMPDEST PUSH2 0x3022 DUP10 DUP3 DUP11 ADD PUSH2 0x2DB0 JUMP JUMPDEST SWAP7 POP POP PUSH1 0x20 DUP8 ADD CALLDATALOAD PUSH8 0xFFFFFFFFFFFFFFFF DUP2 GT ISZERO PUSH2 0x3043 JUMPI PUSH2 0x3042 PUSH2 0x2C9D JUMP JUMPDEST JUMPDEST PUSH2 0x304F DUP10 DUP3 DUP11 ADD PUSH2 0x2DB0 JUMP JUMPDEST SWAP6 POP POP PUSH1 0x40 DUP8 ADD CALLDATALOAD PUSH8 0xFFFFFFFFFFFFFFFF DUP2 GT ISZERO PUSH2 0x3070 JUMPI PUSH2 0x306F PUSH2 0x2C9D JUMP JUMPDEST JUMPDEST PUSH2 0x307C DUP10 DUP3 DUP11 ADD PUSH2 0x2DB0 JUMP JUMPDEST SWAP5 POP POP PUSH1 0x60 DUP8 ADD CALLDATALOAD PUSH8 0xFFFFFFFFFFFFFFFF DUP2 GT ISZERO PUSH2 0x309D JUMPI PUSH2 0x309C PUSH2 0x2C9D JUMP JUMPDEST JUMPDEST PUSH2 0x30A9 DUP10 DUP3 DUP11 ADD PUSH2 0x2DB0 JUMP JUMPDEST SWAP4 POP POP PUSH1 0x80 PUSH2 0x30BA DUP10 DUP3 DUP11 ADD PUSH2 0x2FCB JUMP JUMPDEST SWAP3 POP POP PUSH1 0xA0 PUSH2 0x30CB DUP10 DUP3 DUP11 ADD PUSH2 0x2FCB JUMP JUMPDEST SWAP2 POP POP SWAP3 SWAP6 POP SWAP3 SWAP6 POP SWAP3 SWAP6 JUMP JUMPDEST PUSH0 PUSH20 0xFFFFFFFFFFFFFFFFFFFFFFFFFFFFFFFFFFFFFFFF DUP3 AND SWAP1 POP SWAP2 SWAP1 POP JUMP JUMPDEST PUSH0 PUSH2 0x3101 DUP3 PUSH2 0x30D8 JUMP JUMPDEST SWAP1 POP SWAP2 SWAP1 POP JUMP JUMPDEST PUSH2 0x3111 DUP2 PUSH2 0x30F7 JUMP JUMPDEST DUP3 MSTORE POP POP JUMP JUMPDEST PUSH0 PUSH1 0x20 DUP3 ADD SWAP1 POP PUSH2 0x312A PUSH0 DUP4 ADD DUP5 PUSH2 0x3108 JUMP JUMPDEST SWAP3 SWAP2 POP POP JUMP JUMPDEST PUSH2 0x3139 DUP2 PUSH2 0x30F7 JUMP JUMPDEST DUP2 EQ PUSH2 0x3143 JUMPI PUSH0 DUP1 REVERT JUMPDEST POP JUMP JUMPDEST PUSH0 DUP2 CALLDATALOAD SWAP1 POP PUSH2 0x3154 DUP2 PUSH2 0x3130 JUMP JUMPDEST SWAP3 SWAP2 POP POP JUMP JUMPDEST PUSH0 DUP1 PUSH1 0x40 DUP4 DUP6 SUB SLT ISZERO PUSH2 0x3170 JUMPI PUSH2 0x316F PUSH2 0x2C99 JUMP JUMPDEST JUMPDEST PUSH0 PUSH2 0x317D DUP6 DUP3 DUP7 ADD PUSH2 0x3146 JUMP JUMPDEST SWAP3 POP POP PUSH1 0x20 PUSH2 0x318E DUP6 DUP3 DUP7 ADD PUSH2 0x2FCB JUMP JUMPDEST SWAP2 POP POP SWAP3 POP SWAP3 SWAP1 POP JUMP JUMPDEST PUSH0 PUSH1 0x20 DUP3 DUP5 SUB SLT ISZERO PUSH2 0x31AD JUMPI PUSH2 0x31AC PUSH2 0x2C99 JUMP JUMPDEST JUMPDEST PUSH0 PUSH2 0x31BA DUP5 DUP3 DUP6 ADD PUSH2 0x2FCB JUMP JUMPDEST SWAP2 POP POP SWAP3 SWAP2 POP POP JUMP JUMPDEST PUSH0 DUP2 MLOAD SWAP1 POP SWAP2 SWAP1 POP JUMP JUMPDEST PUSH0 DUP3 DUP3 MSTORE PUSH1 0x20 DUP3 ADD SWAP1 POP SWAP3 SWAP2 POP POP JUMP JUMPDEST DUP3 DUP2 DUP4 MCOPY PUSH0 DUP4 DUP4 ADD MSTORE POP POP POP JUMP JUMPDEST PUSH0 PUSH2 0x31F5 DUP3 PUSH2 0x31C3 JUMP JUMPDEST PUSH2 0x31FF DUP2 DUP6 PUSH2 0x31CD JUMP JUMPDEST SWAP4 POP PUSH2 0x320F DUP2 DUP6 PUSH1 0x20 DUP7 ADD PUSH2 0x31DD JUMP JUMPDEST PUSH2 0x3218 DUP2 PUSH2 0x2CA9 JUMP JUMPDEST DUP5 ADD SWAP2 POP POP SWAP3 SWAP2 POP POP JUMP JUMPDEST PUSH2 0x322C DUP2 PUSH2 0x2FAC JUMP JUMPDEST DUP3 MSTORE POP POP JUMP JUMPDEST PUSH0 DUP2 ISZERO ISZERO SWAP1 POP SWAP2 SWAP1 POP JUMP JUMPDEST PUSH2 0x3246 DUP2 PUSH2 0x3232 JUMP JUMPDEST DUP3 MSTORE POP POP JUMP JUMPDEST PUSH0 PUSH2 0x160 DUP3 ADD SWAP1 POP DUP2 DUP2 SUB PUSH0 DUP4 ADD MSTORE PUSH2 0x3265 DUP2 DUP15 PUSH2 0x31EB JUMP JUMPDEST SWAP1 POP DUP2 DUP2 SUB PUSH1 0x20 DUP4 ADD MSTORE PUSH2 0x3279 DUP2 DUP14 PUSH2 0x31EB JUMP JUMPDEST SWAP1 POP PUSH2 0x3288 PUSH1 0x40 DUP4 ADD DUP13 PUSH2 0x3108 JUMP JUMPDEST PUSH2 0x3295 PUSH1 0x60 DUP4 ADD DUP12 PUSH2 0x3108 JUMP JUMPDEST DUP2 DUP2 SUB PUSH1 0x80 DUP4 ADD MSTORE PUSH2 0x32A7 DUP2 DUP11 PUSH2 0x31EB JUMP JUMPDEST SWAP1 POP DUP2 DUP2 SUB PUSH1 0xA0 DUP4 ADD MSTORE PUSH2 0x32BB DUP2 DUP10 PUSH2 0x31EB JUMP JUMPDEST SWAP1 POP PUSH2 0x32CA PUSH1 0xC0 DUP4 ADD DUP9 PUSH2 0x3223 JUMP JUMPDEST PUSH2 0x32D7 PUSH1 0xE0 DUP4 ADD DUP8 PUSH2 0x3223 JUMP JUMPDEST PUSH2 0x32E5 PUSH2 0x100 DUP4 ADD DUP7 PUSH2 0x3223 JUMP JUMPDEST PUSH2 0x32F3 PUSH2 0x120 DUP4 ADD DUP6 PUSH2 0x3223 JUMP JUMPDEST PUSH2 0x3301 PUSH2 0x140 DUP4 ADD DUP5 PUSH2 0x323D JUMP JUMPDEST SWAP13 SWAP12 POP POP POP POP POP POP POP POP POP POP POP POP JUMP JUMPDEST PUSH32 0x4E487B7100000000000000000000000000000000000000000000000000000000 PUSH0 MSTORE PUSH1 0x32 PUSH1 0x4 MSTORE PUSH1 0x24 PUSH0 REVERT JUMPDEST PUSH32 0x4E487B7100000000000000000000000000000000000000000000000000000000 PUSH0 MSTORE PUSH1 0x11 PUSH1 0x4 MSTORE PUSH1 0x24 PUSH0 REVERT JUMPDEST PUSH0 PUSH2 0x3375 DUP3 PUSH2 0x2FAC JUMP JUMPDEST SWAP2 POP PUSH2 0x3380 DUP4 PUSH2 0x2FAC JUMP JUMPDEST SWAP3 POP DUP3 DUP3 ADD SWAP1 POP DUP1 DUP3 GT ISZERO PUSH2 0x3398 JUMPI PUSH2 0x3397 PUSH2 0x333E JUMP JUMPDEST JUMPDEST SWAP3 SWAP2 POP POP JUMP JUMPDEST PUSH0 DUP2 SWAP1 POP SWAP3 SWAP2 POP POP JUMP JUMPDEST POP JUMP JUMPDEST PUSH0 PUSH2 0x33B6 PUSH0 DUP4 PUSH2 0x339E JUMP JUMPDEST SWAP2 POP PUSH2 0x33C1 DUP3 PUSH2 0x33A8 JUMP JUMPDEST PUSH0 DUP3 ADD SWAP1 POP SWAP2 SWAP1 POP JUMP JUMPDEST PUSH0 PUSH2 0x33D5 DUP3 PUSH2 0x33AB JUMP JUMPDEST SWAP2 POP DUP2 SWAP1 POP SWAP2 SWAP1 POP JUMP JUMPDEST PUSH32 0x4661696C656420746F2073656E64204574686572000000000000000000000000 PUSH0 DUP3 ADD MSTORE POP JUMP JUMPDEST PUSH0 PUSH2 0x3413 PUSH1 0x14 DUP4 PUSH2 0x31CD JUMP JUMPDEST SWAP2 POP PUSH2 0x341E DUP3 PUSH2 0x33DF JUMP JUMPDEST PUSH1 0x20 DUP3 ADD SWAP1 POP SWAP2 SWAP1 POP JUMP JUMPDEST PUSH0 PUSH1 0x20 DUP3 ADD SWAP1 POP DUP2 DUP2 SUB PUSH0 DUP4 ADD MSTORE PUSH2 0x3440 DUP2 PUSH2 0x3407 JUMP JUMPDEST SWAP1 POP SWAP2 SWAP1 POP JUMP JUMPDEST PUSH32 0x436F6D707261646F72206E616F207061676F752061732061727261732C207661 PUSH0 DUP3 ADD MSTORE PUSH32 0x6C6F72207265656D626F6C7361646F20616F2076656E6465646F720000000000 PUSH1 0x20 DUP3 ADD MSTORE POP JUMP JUMPDEST PUSH0 PUSH2 0x34A1 PUSH1 0x3B DUP4 PUSH2 0x31CD JUMP JUMPDEST SWAP2 POP PUSH2 0x34AC DUP3 PUSH2 0x3447 JUMP JUMPDEST PUSH1 0x40 DUP3 ADD SWAP1 POP SWAP2 SWAP1 POP JUMP JUMPDEST PUSH0 PUSH1 0x20 DUP3 ADD SWAP1 POP DUP2 DUP2 SUB PUSH0 DUP4 ADD MSTORE PUSH2 0x34CE DUP2 PUSH2 0x3495 JUMP JUMPDEST SWAP1 POP SWAP2 SWAP1 POP JUMP JUMPDEST PUSH0 PUSH2 0x34DF DUP3 PUSH2 0x2FAC JUMP JUMPDEST SWAP2 POP PUSH2 0x34EA DUP4 PUSH2 0x2FAC JUMP JUMPDEST SWAP3 POP DUP3 DUP3 MUL PUSH2 0x34F8 DUP2 PUSH2 0x2FAC JUMP JUMPDEST SWAP2 POP DUP3 DUP3 DIV DUP5 EQ DUP4 ISZERO OR PUSH2 0x350F JUMPI PUSH2 0x350E PUSH2 0x333E JUMP JUMPDEST JUMPDEST POP SWAP3 SWAP2 POP POP JUMP JUMPDEST PUSH32 0x436F6D707261646F72206E616F207061676F752076616C6F7220646F20636172 PUSH0 DUP3 ADD MSTORE PUSH32 0x726F2C20617272617320656E76696164617320616F2076656E6465646F720000 PUSH1 0x20 DUP3 ADD MSTORE POP JUMP JUMPDEST PUSH0 PUSH2 0x3570 PUSH1 0x3E DUP4 PUSH2 0x31CD JUMP JUMPDEST SWAP2 POP PUSH2 0x357B DUP3 PUSH2 0x3516 JUMP JUMPDEST PUSH1 0x40 DUP3 ADD SWAP1 POP SWAP2 SWAP1 POP JUMP JUMPDEST PUSH0 PUSH1 0x20 DUP3 ADD SWAP1 POP DUP2 DUP2 SUB PUSH0 DUP4 ADD MSTORE PUSH2 0x359D DUP2 PUSH2 0x3564 JUMP JUMPDEST SWAP1 POP SWAP2 SWAP1 POP JUMP JUMPDEST PUSH0 DUP2 SWAP1 POP SWAP3 SWAP2 POP POP JUMP JUMPDEST PUSH0 PUSH2 0x35B8 DUP3 PUSH2 0x31C3 JUMP JUMPDEST PUSH2 0x35C2 DUP2 DUP6 PUSH2 0x35A4 JUMP JUMPDEST SWAP4 POP PUSH2 0x35D2 DUP2 DUP6 PUSH1 0x20 DUP7 ADD PUSH2 0x31DD JUMP JUMPDEST DUP1 DUP5 ADD SWAP2 POP POP SWAP3 SWAP2 POP POP JUMP JUMPDEST PUSH32 0x75726C3A206068747470733A2F2F6170692E7269636172646F6775696D617261 PUSH0 DUP3 ADD MSTORE PUSH32 0x65732E6465762F76312F76656963756C6F732F70726F70726965746172696F2F PUSH1 0x20 DUP3 ADD MSTORE PUSH32 0x6370662F00000000000000000000000000000000000000000000000000000000 PUSH1 0x40 DUP3 ADD MSTORE POP JUMP JUMPDEST PUSH0 PUSH2 0x365E PUSH1 0x44 DUP4 PUSH2 0x35A4 JUMP JUMPDEST SWAP2 POP PUSH2 0x3669 DUP3 PUSH2 0x35DE JUMP JUMPDEST PUSH1 0x44 DUP3 ADD SWAP1 POP SWAP2 SWAP1 POP JUMP JUMPDEST PUSH0 PUSH2 0x367F DUP3 DUP5 PUSH2 0x35AE JUMP JUMPDEST SWAP2 POP PUSH2 0x368A DUP3 PUSH2 0x3652 JUMP JUMPDEST SWAP2 POP DUP2 SWAP1 POP SWAP3 SWAP2 POP POP JUMP JUMPDEST PUSH32 0x4E487B7100000000000000000000000000000000000000000000000000000000 PUSH0 MSTORE PUSH1 0x22 PUSH1 0x4 MSTORE PUSH1 0x24 PUSH0 REVERT JUMPDEST PUSH0 PUSH1 0x2 DUP3 DIV SWAP1 POP PUSH1 0x1 DUP3 AND DUP1 PUSH2 0x36D9 JUMPI PUSH1 0x7F DUP3 AND SWAP2 POP JUMPDEST PUSH1 0x20 DUP3 LT DUP2 SUB PUSH2 0x36EC JUMPI PUSH2 0x36EB PUSH2 0x3695 JUMP JUMPDEST JUMPDEST POP SWAP2 SWAP1 POP JUMP JUMPDEST PUSH0 DUP2 SWAP1 POP DUP2 PUSH0 MSTORE PUSH1 0x20 PUSH0 KECCAK256 SWAP1 POP SWAP2 SWAP1 POP JUMP JUMPDEST PUSH0 DUP2 SLOAD PUSH2 0x3710 DUP2 PUSH2 0x36C2 JUMP JUMPDEST PUSH2 0x371A DUP2 DUP7 PUSH2 0x35A4 JUMP JUMPDEST SWAP5 POP PUSH1 0x1 DUP3 AND PUSH0 DUP2 EQ PUSH2 0x3734 JUMPI PUSH1 0x1 DUP2 EQ PUSH2 0x3749 JUMPI PUSH2 0x377B JUMP JUMPDEST PUSH1 0xFF NOT DUP4 AND DUP7 MSTORE DUP2 ISZERO ISZERO DUP3 MUL DUP7 ADD SWAP4 POP PUSH2 0x377B JUMP JUMPDEST PUSH2 0x3752 DUP6 PUSH2 0x36F2 JUMP JUMPDEST PUSH0 JUMPDEST DUP4 DUP2 LT ISZERO PUSH2 0x3773 JUMPI DUP2 SLOAD DUP2 DUP10 ADD MSTORE PUSH1 0x1 DUP3 ADD SWAP2 POP PUSH1 0x20 DUP2 ADD SWAP1 POP PUSH2 0x3754 JUMP JUMPDEST DUP4 DUP9 ADD SWAP6 POP POP POP JUMPDEST POP POP POP SWAP3 SWAP2 POP POP JUMP JUMPDEST PUSH0 PUSH2 0x378F DUP3 DUP6 PUSH2 0x35AE JUMP JUMPDEST SWAP2 POP PUSH2 0x379B DUP3 DUP5 PUSH2 0x3704 JUMP JUMPDEST SWAP2 POP DUP2 SWAP1 POP SWAP4 SWAP3 POP POP POP JUMP JUMPDEST PUSH32 0x2F706C6163612F00000000000000000000000000000000000000000000000000 DUP2 MSTORE POP JUMP JUMPDEST PUSH0 PUSH2 0x37D8 DUP3 DUP5 PUSH2 0x35AE JUMP JUMPDEST SWAP2 POP PUSH2 0x37E3 DUP3 PUSH2 0x37A7 JUMP JUMPDEST PUSH1 0x7 DUP3 ADD SWAP2 POP DUP2 SWAP1 POP SWAP3 SWAP2 POP POP JUMP JUMPDEST PUSH32 0x2F72656E6176616D2F0000000000000000000000000000000000000000000000 DUP2 MSTORE POP JUMP JUMPDEST PUSH0 PUSH2 0x3823 DUP3 DUP5 PUSH2 0x35AE JUMP JUMPDEST SWAP2 POP PUSH2 0x382E DUP3 PUSH2 0x37F2 JUMP JUMPDEST PUSH1 0x9 DUP3 ADD SWAP2 POP DUP2 SWAP1 POP SWAP3 SWAP2 POP POP JUMP JUMPDEST PUSH32 0x607D293B69662028617069526573706F6E73652E6572726F7229207B72657475 PUSH0 DUP3 ADD MSTORE PUSH32 0x726E2046756E6374696F6E732E656E636F6465537472696E6728273530302729 PUSH1 0x20 DUP3 ADD MSTORE PUSH32 0x3B7D636F6E7374207B2064617461207D203D20617069526573706F6E73653B63 PUSH1 0x40 DUP3 ADD MSTORE PUSH32 0x6F6E73742076657269666963615472616E73666572656E636961203D20646174 PUSH1 0x60 DUP3 ADD MSTORE PUSH32 0x612E72656E6176616D20213D3D206E756C6C203F202732303027203A20273230 PUSH1 0x80 DUP3 ADD MSTORE PUSH32 0x34273B2072657475726E2046756E6374696F6E732E656E636F6465537472696E PUSH1 0xA0 DUP3 ADD MSTORE PUSH32 0x672876657269666963615472616E73666572656E636961293B00000000000000 PUSH1 0xC0 DUP3 ADD MSTORE POP JUMP JUMPDEST PUSH0 PUSH2 0x3955 PUSH1 0xD9 DUP4 PUSH2 0x35A4 JUMP JUMPDEST SWAP2 POP PUSH2 0x3960 DUP3 PUSH2 0x383D JUMP JUMPDEST PUSH1 0xD9 DUP3 ADD SWAP1 POP SWAP2 SWAP1 POP JUMP JUMPDEST PUSH0 PUSH2 0x3976 DUP3 DUP5 PUSH2 0x35AE JUMP JUMPDEST SWAP2 POP PUSH2 0x3981 DUP3 PUSH2 0x3949 JUMP JUMPDEST SWAP2 POP DUP2 SWAP1 POP SWAP3 SWAP2 POP POP JUMP JUMPDEST PUSH0 PUSH1 0x20 PUSH1 0x1F DUP4 ADD DIV SWAP1 POP SWAP2 SWAP1 POP JUMP JUMPDEST PUSH0 DUP3 DUP3 SHL SWAP1 POP SWAP3 SWAP2 POP POP JUMP JUMPDEST PUSH0 PUSH1 0x8 DUP4 MUL PUSH2 0x39D6 PUSH32 0xFFFFFFFFFFFFFFFFFFFFFFFFFFFFFFFFFFFFFFFFFFFFFFFFFFFFFFFFFFFFFFFF DUP3 PUSH2 0x399B JUMP JUMPDEST PUSH2 0x39E0 DUP7 DUP4 PUSH2 0x399B JUMP JUMPDEST SWAP6 POP DUP1 NOT DUP5 AND SWAP4 POP DUP1 DUP7 AND DUP5 OR SWAP3 POP POP POP SWAP4 SWAP3 POP POP POP JUMP JUMPDEST PUSH0 DUP2 SWAP1 POP SWAP2 SWAP1 POP JUMP JUMPDEST PUSH0 PUSH2 0x3A1B PUSH2 0x3A16 PUSH2 0x3A11 DUP5 PUSH2 0x2FAC JUMP JUMPDEST PUSH2 0x39F8 JUMP JUMPDEST PUSH2 0x2FAC JUMP JUMPDEST SWAP1 POP SWAP2 SWAP1 POP JUMP JUMPDEST PUSH0 DUP2 SWAP1 POP SWAP2 SWAP1 POP JUMP JUMPDEST PUSH2 0x3A34 DUP4 PUSH2 0x3A01 JUMP JUMPDEST PUSH2 0x3A48 PUSH2 0x3A40 DUP3 PUSH2 0x3A22 JUMP JUMPDEST DUP5 DUP5 SLOAD PUSH2 0x39A7 JUMP JUMPDEST DUP3 SSTORE POP POP POP POP JUMP JUMPDEST PUSH0 SWAP1 JUMP JUMPDEST PUSH2 0x3A5C PUSH2 0x3A50 JUMP JUMPDEST PUSH2 0x3A67 DUP2 DUP5 DUP5 PUSH2 0x3A2B JUMP JUMPDEST POP POP POP JUMP JUMPDEST JUMPDEST DUP2 DUP2 LT ISZERO PUSH2 0x3A8A JUMPI PUSH2 0x3A7F PUSH0 DUP3 PUSH2 0x3A54 JUMP JUMPDEST PUSH1 0x1 DUP2 ADD SWAP1 POP PUSH2 0x3A6D JUMP JUMPDEST POP POP JUMP JUMPDEST PUSH1 0x1F DUP3 GT ISZERO PUSH2 0x3ACF JUMPI PUSH2 0x3AA0 DUP2 PUSH2 0x36F2 JUMP JUMPDEST PUSH2 0x3AA9 DUP5 PUSH2 0x398C JUMP JUMPDEST DUP2 ADD PUSH1 0x20 DUP6 LT ISZERO PUSH2 0x3AB8 JUMPI DUP2 SWAP1 POP JUMPDEST PUSH2 0x3ACC PUSH2 0x3AC4 DUP6 PUSH2 0x398C JUMP JUMPDEST DUP4 ADD DUP3 PUSH2 0x3A6C JUMP JUMPDEST POP POP JUMPDEST POP POP POP JUMP JUMPDEST PUSH0 DUP3 DUP3 SHR SWAP1 POP SWAP3 SWAP2 POP POP JUMP JUMPDEST PUSH0 PUSH2 0x3AEF PUSH0 NOT DUP5 PUSH1 0x8 MUL PUSH2 0x3AD4 JUMP JUMPDEST NOT DUP1 DUP4 AND SWAP2 POP POP SWAP3 SWAP2 POP POP JUMP JUMPDEST PUSH0 PUSH2 0x3B07 DUP4 DUP4 PUSH2 0x3AE0 JUMP JUMPDEST SWAP2 POP DUP3 PUSH1 0x2 MUL DUP3 OR SWAP1 POP SWAP3 SWAP2 POP POP JUMP JUMPDEST PUSH2 0x3B20 DUP3 PUSH2 0x31C3 JUMP JUMPDEST PUSH8 0xFFFFFFFFFFFFFFFF DUP2 GT ISZERO PUSH2 0x3B39 JUMPI PUSH2 0x3B38 PUSH2 0x2CB9 JUMP JUMPDEST JUMPDEST PUSH2 0x3B43 DUP3 SLOAD PUSH2 0x36C2 JUMP JUMPDEST PUSH2 0x3B4E DUP3 DUP3 DUP6 PUSH2 0x3A8E JUMP JUMPDEST PUSH0 PUSH1 0x20 SWAP1 POP PUSH1 0x1F DUP4 GT PUSH1 0x1 DUP2 EQ PUSH2 0x3B7F JUMPI PUSH0 DUP5 ISZERO PUSH2 0x3B6D JUMPI DUP3 DUP8 ADD MLOAD SWAP1 POP JUMPDEST PUSH2 0x3B77 DUP6 DUP3 PUSH2 0x3AFC JUMP JUMPDEST DUP7 SSTORE POP PUSH2 0x3BDE JUMP JUMPDEST PUSH1 0x1F NOT DUP5 AND PUSH2 0x3B8D DUP7 PUSH2 0x36F2 JUMP JUMPDEST PUSH0 JUMPDEST DUP3 DUP2 LT ISZERO PUSH2 0x3BB4 JUMPI DUP5 DUP10 ADD MLOAD DUP3 SSTORE PUSH1 0x1 DUP3 ADD SWAP2 POP PUSH1 0x20 DUP6 ADD SWAP5 POP PUSH1 0x20 DUP2 ADD SWAP1 POP PUSH2 0x3B8F JUMP JUMPDEST DUP7 DUP4 LT ISZERO PUSH2 0x3BD1 JUMPI DUP5 DUP10 ADD MLOAD PUSH2 0x3BCD PUSH1 0x1F DUP10 AND DUP3 PUSH2 0x3AE0 JUMP JUMPDEST DUP4 SSTORE POP JUMPDEST PUSH1 0x1 PUSH1 0x2 DUP9 MUL ADD DUP9 SSTORE POP POP POP JUMPDEST POP POP POP POP POP POP JUMP JUMPDEST PUSH0 DUP2 SWAP1 POP DUP2 PUSH0 MSTORE PUSH1 0x20 PUSH0 KECCAK256 SWAP1 POP SWAP2 SWAP1 POP JUMP JUMPDEST PUSH0 DUP2 SLOAD PUSH2 0x3C04 DUP2 PUSH2 0x36C2 JUMP JUMPDEST PUSH2 0x3C0E DUP2 DUP7 PUSH2 0x339E JUMP JUMPDEST SWAP5 POP PUSH1 0x1 DUP3 AND PUSH0 DUP2 EQ PUSH2 0x3C28 JUMPI PUSH1 0x1 DUP2 EQ PUSH2 0x3C3D JUMPI PUSH2 0x3C6F JUMP JUMPDEST PUSH1 0xFF NOT DUP4 AND DUP7 MSTORE DUP2 ISZERO ISZERO DUP3 MUL DUP7 ADD SWAP4 POP PUSH2 0x3C6F JUMP JUMPDEST PUSH2 0x3C46 DUP6 PUSH2 0x3BE6 JUMP JUMPDEST PUSH0 JUMPDEST DUP4 DUP2 LT ISZERO PUSH2 0x3C67 JUMPI DUP2 SLOAD DUP2 DUP10 ADD MSTORE PUSH1 0x1 DUP3 ADD SWAP2 POP PUSH1 0x20 DUP2 ADD SWAP1 POP PUSH2 0x3C48 JUMP JUMPDEST DUP4 DUP9 ADD SWAP6 POP POP POP JUMPDEST POP POP POP SWAP3 SWAP2 POP POP JUMP JUMPDEST PUSH0 PUSH2 0x3C83 DUP3 DUP5 PUSH2 0x3BF8 JUMP JUMPDEST SWAP2 POP DUP2 SWAP1 POP SWAP3 SWAP2 POP POP JUMP JUMPDEST PUSH0 DUP2 MLOAD SWAP1 POP SWAP2 SWAP1 POP JUMP JUMPDEST PUSH0 DUP2 SWAP1 POP PUSH1 0x20 DUP3 ADD SWAP1 POP SWAP2 SWAP1 POP JUMP JUMPDEST PUSH0 PUSH2 0x3CB2 DUP3 MLOAD PUSH2 0x2E53 JUMP JUMPDEST DUP1 SWAP2 POP POP SWAP2 SWAP1 POP JUMP JUMPDEST PUSH0 PUSH2 0x3CC5 DUP3 PUSH2 0x3C8E JUMP JUMPDEST DUP3 PUSH2 0x3CCF DUP5 PUSH2 0x3C98 JUMP JUMPDEST SWAP1 POP PUSH2 0x3CDA DUP2 PUSH2 0x3CA7 JUMP JUMPDEST SWAP3 POP PUSH1 0x20 DUP3 LT ISZERO PUSH2 0x3D1A JUMPI PUSH2 0x3D15 PUSH32 0xFFFFFFFFFFFFFFFFFFFFFFFFFFFFFFFFFFFFFFFFFFFFFFFFFFFFFFFFFFFFFFFF DUP4 PUSH1 0x20 SUB PUSH1 0x8 MUL PUSH2 0x399B JUMP JUMPDEST DUP4 AND SWAP3 POP JUMPDEST POP POP SWAP2 SWAP1 POP JUMP JUMPDEST PUSH32 0x436F6D707261646F72207061676F75206F2076656E6465646F722C20706F7265 PUSH0 DUP3 ADD MSTORE PUSH32 0x6D206F20636172726F206E616F20666F69207472616E7366657269646F2E2052 PUSH1 0x20 DUP3 ADD MSTORE PUSH32 0x65656D626F6C736F206520617272617320656E76696164617320616F20636F6D PUSH1 0x40 DUP3 ADD MSTORE PUSH32 0x707261646F720000000000000000000000000000000000000000000000000000 PUSH1 0x60 DUP3 ADD MSTORE POP JUMP JUMPDEST PUSH0 PUSH2 0x3DC7 PUSH1 0x66 DUP4 PUSH2 0x31CD JUMP JUMPDEST SWAP2 POP PUSH2 0x3DD2 DUP3 PUSH2 0x3D21 JUMP JUMPDEST PUSH1 0x80 DUP3 ADD SWAP1 POP SWAP2 SWAP1 POP JUMP JUMPDEST PUSH0 PUSH1 0x20 DUP3 ADD SWAP1 POP DUP2 DUP2 SUB PUSH0 DUP4 ADD MSTORE PUSH2 0x3DF4 DUP2 PUSH2 0x3DBB JUMP JUMPDEST SWAP1 POP SWAP2 SWAP1 POP JUMP JUMPDEST PUSH32 0x436F6E747261746F2063756D707269646F2C2076616C6F7220656E766961646F PUSH0 DUP3 ADD MSTORE PUSH32 0x20616F2076656E6465646F720000000000000000000000000000000000000000 PUSH1 0x20 DUP3 ADD MSTORE POP JUMP JUMPDEST PUSH0 PUSH2 0x3E55 PUSH1 0x2C DUP4 PUSH2 0x31CD JUMP JUMPDEST SWAP2 POP PUSH2 0x3E60 DUP3 PUSH2 0x3DFB JUMP JUMPDEST PUSH1 0x40 DUP3 ADD SWAP1 POP SWAP2 SWAP1 POP JUMP JUMPDEST PUSH0 PUSH1 0x20 DUP3 ADD SWAP1 POP DUP2 DUP2 SUB PUSH0 DUP4 ADD MSTORE PUSH2 0x3E82 DUP2 PUSH2 0x3E49 JUMP JUMPDEST SWAP1 POP SWAP2 SWAP1 POP JUMP JUMPDEST PUSH0 PUSH2 0x3E93 DUP3 PUSH2 0x2FAC JUMP JUMPDEST SWAP2 POP PUSH2 0x3E9E DUP4 PUSH2 0x2FAC JUMP JUMPDEST SWAP3 POP DUP3 DUP3 SUB SWAP1 POP DUP2 DUP2 GT ISZERO PUSH2 0x3EB6 JUMPI PUSH2 0x3EB5 PUSH2 0x333E JUMP JUMPDEST JUMPDEST SWAP3 SWAP2 POP POP JUMP JUMPDEST PUSH0 DUP2 SLOAD SWAP1 POP PUSH2 0x3ECA DUP2 PUSH2 0x36C2 JUMP JUMPDEST SWAP1 POP SWAP2 SWAP1 POP JUMP JUMPDEST DUP2 DUP2 SUB PUSH2 0x3EDF JUMPI POP POP PUSH2 0x3FB4 JUMP JUMPDEST PUSH2 0x3EE8 DUP3 PUSH2 0x3EBC JUMP JUMPDEST PUSH8 0xFFFFFFFFFFFFFFFF DUP2 GT ISZERO PUSH2 0x3F01 JUMPI PUSH2 0x3F00 PUSH2 0x2CB9 JUMP JUMPDEST JUMPDEST PUSH2 0x3F0B DUP3 SLOAD PUSH2 0x36C2 JUMP JUMPDEST PUSH2 0x3F16 DUP3 DUP3 DUP6 PUSH2 0x3A8E JUMP JUMPDEST PUSH0 PUSH1 0x1F DUP4 GT PUSH1 0x1 DUP2 EQ PUSH2 0x3F43 JUMPI PUSH0 DUP5 ISZERO PUSH2 0x3F31 JUMPI DUP3 DUP8 ADD SLOAD SWAP1 POP JUMPDEST PUSH2 0x3F3B DUP6 DUP3 PUSH2 0x3AFC JUMP JUMPDEST DUP7 SSTORE POP PUSH2 0x3FAD JUMP JUMPDEST PUSH1 0x1F NOT DUP5 AND PUSH2 0x3F51 DUP8 PUSH2 0x36F2 JUMP JUMPDEST SWAP7 POP PUSH2 0x3F5C DUP7 PUSH2 0x36F2 JUMP JUMPDEST PUSH0 JUMPDEST DUP3 DUP2 LT ISZERO PUSH2 0x3F83 JUMPI DUP5 DUP10 ADD SLOAD DUP3 SSTORE PUSH1 0x1 DUP3 ADD SWAP2 POP PUSH1 0x1 DUP6 ADD SWAP5 POP PUSH1 0x20 DUP2 ADD SWAP1 POP PUSH2 0x3F5E JUMP JUMPDEST DUP7 DUP4 LT ISZERO PUSH2 0x3FA0 JUMPI DUP5 DUP10 ADD SLOAD PUSH2 0x3F9C PUSH1 0x1F DUP10 AND DUP3 PUSH2 0x3AE0 JUMP JUMPDEST DUP4 SSTORE POP JUMPDEST PUSH1 0x1 PUSH1 0x2 DUP9 MUL ADD DUP9 SSTORE POP POP POP JUMPDEST POP POP POP POP POP POP JUMPDEST JUMP JUMPDEST PUSH32 0x4E487B7100000000000000000000000000000000000000000000000000000000 PUSH0 MSTORE PUSH1 0x31 PUSH1 0x4 MSTORE PUSH1 0x24 PUSH0 REVERT JUMPDEST PUSH32 0x4E487B7100000000000000000000000000000000000000000000000000000000 PUSH0 MSTORE PUSH1 0x21 PUSH1 0x4 MSTORE PUSH1 0x24 PUSH0 REVERT JUMPDEST PUSH0 PUSH8 0xFFFFFFFFFFFFFFFF DUP3 AND SWAP1 POP SWAP2 SWAP1 POP JUMP JUMPDEST PUSH2 0x402C DUP2 PUSH2 0x4010 JUMP JUMPDEST DUP3 MSTORE POP POP JUMP JUMPDEST PUSH0 DUP3 DUP3 MSTORE PUSH1 0x20 DUP3 ADD SWAP1 POP SWAP3 SWAP2 POP POP JUMP JUMPDEST PUSH0 PUSH2 0x404C DUP3 PUSH2 0x3C8E JUMP JUMPDEST PUSH2 0x4056 DUP2 DUP6 PUSH2 0x4032 JUMP JUMPDEST SWAP4 POP PUSH2 0x4066 DUP2 DUP6 PUSH1 0x20 DUP7 ADD PUSH2 0x31DD JUMP JUMPDEST PUSH2 0x406F DUP2 PUSH2 0x2CA9 JUMP JUMPDEST DUP5 ADD SWAP2 POP POP SWAP3 SWAP2 POP POP JUMP JUMPDEST PUSH0 PUSH2 0xFFFF DUP3 AND SWAP1 POP SWAP2 SWAP1 POP JUMP JUMPDEST PUSH2 0x4090 DUP2 PUSH2 0x407A JUMP JUMPDEST DUP3 MSTORE POP POP JUMP JUMPDEST PUSH0 PUSH4 0xFFFFFFFF DUP3 AND SWAP1 POP SWAP2 SWAP1 POP JUMP JUMPDEST PUSH2 0x40AE DUP2 PUSH2 0x4096 JUMP JUMPDEST DUP3 MSTORE POP POP JUMP JUMPDEST PUSH2 0x40BD DUP2 PUSH2 0x2E53 JUMP JUMPDEST DUP3 MSTORE POP POP JUMP JUMPDEST PUSH0 PUSH1 0xA0 DUP3 ADD SWAP1 POP PUSH2 0x40D6 PUSH0 DUP4 ADD DUP9 PUSH2 0x4023 JUMP JUMPDEST DUP2 DUP2 SUB PUSH1 0x20 DUP4 ADD MSTORE PUSH2 0x40E8 DUP2 DUP8 PUSH2 0x4042 JUMP JUMPDEST SWAP1 POP PUSH2 0x40F7 PUSH1 0x40 DUP4 ADD DUP7 PUSH2 0x4087 JUMP JUMPDEST PUSH2 0x4104 PUSH1 0x60 DUP4 ADD DUP6 PUSH2 0x40A5 JUMP JUMPDEST PUSH2 0x4111 PUSH1 0x80 DUP4 ADD DUP5 PUSH2 0x40B4 JUMP JUMPDEST SWAP7 SWAP6 POP POP POP POP POP POP JUMP JUMPDEST PUSH0 DUP2 MLOAD SWAP1 POP PUSH2 0x4129 DUP2 PUSH2 0x2E5C JUMP JUMPDEST SWAP3 SWAP2 POP POP JUMP JUMPDEST PUSH0 PUSH1 0x20 DUP3 DUP5 SUB SLT ISZERO PUSH2 0x4144 JUMPI PUSH2 0x4143 PUSH2 0x2C99 JUMP JUMPDEST JUMPDEST PUSH0 PUSH2 0x4151 DUP5 DUP3 DUP6 ADD PUSH2 0x411B JUMP JUMPDEST SWAP2 POP POP SWAP3 SWAP2 POP POP JUMP JUMPDEST PUSH0 PUSH2 0x4165 DUP3 DUP15 PUSH2 0x35AE JUMP JUMPDEST SWAP2 POP PUSH2 0x4171 DUP3 DUP14 PUSH2 0x35AE JUMP JUMPDEST SWAP2 POP PUSH2 0x417D DUP3 DUP13 PUSH2 0x35AE JUMP JUMPDEST SWAP2 POP PUSH2 0x4189 DUP3 DUP12 PUSH2 0x35AE JUMP JUMPDEST SWAP2 POP PUSH2 0x4195 DUP3 DUP11 PUSH2 0x35AE JUMP JUMPDEST SWAP2 POP PUSH2 0x41A1 DUP3 DUP10 PUSH2 0x35AE JUMP JUMPDEST SWAP2 POP PUSH2 0x41AD DUP3 DUP9 PUSH2 0x35AE JUMP JUMPDEST SWAP2 POP PUSH2 0x41B9 DUP3 DUP8 PUSH2 0x35AE JUMP JUMPDEST SWAP2 POP PUSH2 0x41C5 DUP3 DUP7 PUSH2 0x35AE JUMP JUMPDEST SWAP2 POP PUSH2 0x41D1 DUP3 DUP6 PUSH2 0x35AE JUMP JUMPDEST SWAP2 POP PUSH2 0x41DD DUP3 DUP5 PUSH2 0x35AE JUMP JUMPDEST SWAP2 POP DUP2 SWAP1 POP SWAP13 SWAP12 POP POP POP POP POP POP POP POP POP POP POP POP JUMP JUMPDEST PUSH0 PUSH1 0xFF DUP3 AND SWAP1 POP SWAP2 SWAP1 POP JUMP JUMPDEST PUSH0 PUSH2 0x4208 DUP3 PUSH2 0x41F2 JUMP JUMPDEST SWAP2 POP PUSH0 DUP3 SUB PUSH2 0x421A JUMPI PUSH2 0x4219 PUSH2 0x333E JUMP JUMPDEST JUMPDEST PUSH1 0x1 DUP3 SUB SWAP1 POP SWAP2 SWAP1 POP JUMP JUMPDEST PUSH0 PUSH2 0x422F DUP3 PUSH2 0x41F2 JUMP JUMPDEST SWAP2 POP PUSH2 0x423A DUP4 PUSH2 0x41F2 JUMP JUMPDEST SWAP3 POP DUP3 DUP3 SUB SWAP1 POP PUSH1 0xFF DUP2 GT ISZERO PUSH2 0x4253 JUMPI PUSH2 0x4252 PUSH2 0x333E JUMP JUMPDEST JUMPDEST SWAP3 SWAP2 POP POP JUMP JUMPDEST PUSH0 PUSH2 0x4263 DUP3 PUSH2 0x41F2 JUMP JUMPDEST SWAP2 POP PUSH2 0x426E DUP4 PUSH2 0x41F2 JUMP JUMPDEST SWAP3 POP DUP3 DUP3 MUL PUSH2 0x427C DUP2 PUSH2 0x41F2 JUMP JUMPDEST SWAP2 POP DUP1 DUP3 EQ PUSH2 0x428E JUMPI PUSH2 0x428D PUSH2 0x333E JUMP JUMPDEST JUMPDEST POP SWAP3 SWAP2 POP POP JUMP JUMPDEST PUSH32 0x4E487B7100000000000000000000000000000000000000000000000000000000 PUSH0 MSTORE PUSH1 0x12 PUSH1 0x4 MSTORE PUSH1 0x24 PUSH0 REVERT JUMPDEST PUSH0 PUSH2 0x42CC DUP3 PUSH2 0x2FAC JUMP JUMPDEST SWAP2 POP PUSH2 0x42D7 DUP4 PUSH2 0x2FAC JUMP JUMPDEST SWAP3 POP DUP3 PUSH2 0x42E7 JUMPI PUSH2 0x42E6 PUSH2 0x4295 JUMP JUMPDEST JUMPDEST DUP3 DUP3 MOD SWAP1 POP SWAP3 SWAP2 POP POP JUMP JUMPDEST PUSH0 PUSH1 0x20 DUP3 ADD SWAP1 POP PUSH2 0x4305 PUSH0 DUP4 ADD DUP5 PUSH2 0x3223 JUMP JUMPDEST SWAP3 SWAP2 POP POP JUMP JUMPDEST PUSH0 DUP2 PUSH1 0x1 SHR SWAP1 POP SWAP2 SWAP1 POP JUMP JUMPDEST PUSH0 DUP1 DUP3 SWAP2 POP DUP4 SWAP1 POP JUMPDEST PUSH1 0x1 DUP6 GT ISZERO PUSH2 0x4360 JUMPI DUP1 DUP7 DIV DUP2 GT ISZERO PUSH2 0x433C JUMPI PUSH2 0x433B PUSH2 0x333E JUMP JUMPDEST JUMPDEST PUSH1 0x1 DUP6 AND ISZERO PUSH2 0x434B JUMPI DUP1 DUP3 MUL SWAP2 POP JUMPDEST DUP1 DUP2 MUL SWAP1 POP PUSH2 0x4359 DUP6 PUSH2 0x430B JUMP JUMPDEST SWAP5 POP PUSH2 0x4320 JUMP JUMPDEST SWAP5 POP SWAP5 SWAP3 POP POP POP JUMP JUMPDEST PUSH0 DUP3 PUSH2 0x4378 JUMPI PUSH1 0x1 SWAP1 POP PUSH2 0x4433 JUMP JUMPDEST DUP2 PUSH2 0x4385 JUMPI PUSH0 SWAP1 POP PUSH2 0x4433 JUMP JUMPDEST DUP2 PUSH1 0x1 DUP2 EQ PUSH2 0x439B JUMPI PUSH1 0x2 DUP2 EQ PUSH2 0x43A5 JUMPI PUSH2 0x43D4 JUMP JUMPDEST PUSH1 0x1 SWAP2 POP POP PUSH2 0x4433 JUMP JUMPDEST PUSH1 0xFF DUP5 GT ISZERO PUSH2 0x43B7 JUMPI PUSH2 0x43B6 PUSH2 0x333E JUMP JUMPDEST JUMPDEST DUP4 PUSH1 0x2 EXP SWAP2 POP DUP5 DUP3 GT ISZERO PUSH2 0x43CE JUMPI PUSH2 0x43CD PUSH2 0x333E JUMP JUMPDEST JUMPDEST POP PUSH2 0x4433 JUMP JUMPDEST POP PUSH1 0x20 DUP4 LT PUSH2 0x133 DUP4 LT AND PUSH1 0x4E DUP5 LT PUSH1 0xB DUP5 LT AND OR ISZERO PUSH2 0x4409 JUMPI DUP3 DUP3 EXP SWAP1 POP DUP4 DUP2 GT ISZERO PUSH2 0x4404 JUMPI PUSH2 0x4403 PUSH2 0x333E JUMP JUMPDEST JUMPDEST PUSH2 0x4433 JUMP JUMPDEST PUSH2 0x4416 DUP5 DUP5 DUP5 PUSH1 0x1 PUSH2 0x4317 JUMP JUMPDEST SWAP3 POP SWAP1 POP DUP2 DUP5 DIV DUP2 GT ISZERO PUSH2 0x442D JUMPI PUSH2 0x442C PUSH2 0x333E JUMP JUMPDEST JUMPDEST DUP2 DUP2 MUL SWAP1 POP JUMPDEST SWAP4 SWAP3 POP POP POP JUMP JUMPDEST PUSH0 PUSH2 0x4444 DUP3 PUSH2 0x2FAC JUMP JUMPDEST SWAP2 POP PUSH2 0x444F DUP4 PUSH2 0x2FAC JUMP JUMPDEST SWAP3 POP PUSH2 0x447C PUSH32 0xFFFFFFFFFFFFFFFFFFFFFFFFFFFFFFFFFFFFFFFFFFFFFFFFFFFFFFFFFFFFFFFF DUP5 DUP5 PUSH2 0x4369 JUMP JUMPDEST SWAP1 POP SWAP3 SWAP2 POP POP JUMP INVALID PUSH4 0x6F6E7374 KECCAK256 PUSH2 0x7069 MSTORE PUSH6 0x73706F6E7365 KECCAK256 RETURNDATASIZE KECCAK256 PUSH2 0x7761 PUSH10 0x742046756E6374696F6E PUSH20 0x2E6D616B654874747052657175657374287BA264 PUSH10 0x706673582212208B8BE7 EXTCODEHASH PUSH22 0xB2BF68F873AB65ED0696A0D5295268C01375F05432F0 0xEA CALLER PUSH25 0x139564736F6C634300081A0033000000000000000000000000 "
		},
		"gasEstimates": {
			"creation": {
				"codeDepositCost": "3529400",
				"executionCost": "infinite",
				"totalCost": "infinite"
			},
			"external": {
				"cancelaContratoComprador(string,string)": "infinite",
				"cancelaContratoVendedor(string,string)": "infinite",
				"contratosArras(uint256)": "infinite",
				"enviarArrasComprador(string,string)": "infinite",
				"handleOracleFulfillment(bytes32,bytes,bytes)": "infinite",
				"iniciarCompra(string,string,string,string,uint256,uint256)": "infinite",
				"owner()": "2505",
				"pagarValorTotalComprador(string,string)": "infinite",
				"transfer(address,uint256)": "infinite",
				"verificaContrato(string,string)": "infinite"
			},
			"internal": {
				"encontraContrato(string memory,string memory)": "infinite",
				"fulfillRequest(bytes32,bytes memory,bytes memory)": "infinite",
				"removeContrato(uint256)": "infinite",
				"validaCpf(string memory)": "infinite"
			}
		},
		"methodIdentifiers": {
			"cancelaContratoComprador(string,string)": "bd2449b5",
			"cancelaContratoVendedor(string,string)": "bc6c50de",
			"contratosArras(uint256)": "b58be5df",
			"enviarArrasComprador(string,string)": "50b88846",
			"handleOracleFulfillment(bytes32,bytes,bytes)": "0ca76175",
			"iniciarCompra(string,string,string,string,uint256,uint256)": "61d839bd",
			"owner()": "8da5cb5b",
			"pagarValorTotalComprador(string,string)": "02b28c5a",
			"transfer(address,uint256)": "a9059cbb",
			"verificaContrato(string,string)": "1befbf39"
		}
	},
	"abi": [
		{
			"inputs": [
				{
					"internalType": "uint64",
					"name": "_subscriptionId",
					"type": "uint64"
				}
			],
			"stateMutability": "nonpayable",
			"type": "constructor"
		},
		{
			"inputs": [],
			"name": "EmptySource",
			"type": "error"
		},
		{
			"inputs": [],
			"name": "NoInlineSecrets",
			"type": "error"
		},
		{
			"inputs": [],
			"name": "OnlyRouterCanFulfill",
			"type": "error"
		},
		{
			"anonymous": false,
			"inputs": [
				{
					"indexed": true,
					"internalType": "bytes32",
					"name": "id",
					"type": "bytes32"
				}
			],
			"name": "RequestFulfilled",
			"type": "event"
		},
		{
			"anonymous": false,
			"inputs": [
				{
					"indexed": true,
					"internalType": "bytes32",
					"name": "id",
					"type": "bytes32"
				}
			],
			"name": "RequestSent",
			"type": "event"
		},
		{
			"anonymous": false,
			"inputs": [
				{
					"indexed": false,
					"internalType": "string",
					"name": "log",
					"type": "string"
				}
			],
			"name": "Response",
			"type": "event"
		},
		{
			"inputs": [
				{
					"internalType": "string",
					"name": "_renavam",
					"type": "string"
				},
				{
					"internalType": "string",
					"name": "_placa",
					"type": "string"
				}
			],
			"name": "cancelaContratoComprador",
			"outputs": [],
			"stateMutability": "payable",
			"type": "function"
		},
		{
			"inputs": [
				{
					"internalType": "string",
					"name": "_renavam",
					"type": "string"
				},
				{
					"internalType": "string",
					"name": "_placa",
					"type": "string"
				}
			],
			"name": "cancelaContratoVendedor",
			"outputs": [],
			"stateMutability": "payable",
			"type": "function"
		},
		{
			"inputs": [
				{
					"internalType": "uint256",
					"name": "",
					"type": "uint256"
				}
			],
			"name": "contratosArras",
			"outputs": [
				{
					"internalType": "string",
					"name": "renavam",
					"type": "string"
				},
				{
					"internalType": "string",
					"name": "placa",
					"type": "string"
				},
				{
					"internalType": "address",
					"name": "carteiraComprador",
					"type": "address"
				},
				{
					"internalType": "address",
					"name": "carteiraVendedor",
					"type": "address"
				},
				{
					"internalType": "string",
					"name": "cpfComprador",
					"type": "string"
				},
				{
					"internalType": "string",
					"name": "cpfVendedor",
					"type": "string"
				},
				{
					"internalType": "uint256",
					"name": "valorArras",
					"type": "uint256"
				},
				{
					"internalType": "uint256",
					"name": "valorTotal",
					"type": "uint256"
				},
				{
					"internalType": "uint256",
					"name": "dataInicial",
					"type": "uint256"
				},
				{
					"internalType": "uint256",
					"name": "prazoDias",
					"type": "uint256"
				},
				{
					"internalType": "bool",
					"name": "pago",
					"type": "bool"
				}
			],
			"stateMutability": "view",
			"type": "function"
		},
		{
			"inputs": [
				{
					"internalType": "string",
					"name": "_renavam",
					"type": "string"
				},
				{
					"internalType": "string",
					"name": "_placa",
					"type": "string"
				}
			],
			"name": "enviarArrasComprador",
			"outputs": [],
			"stateMutability": "payable",
			"type": "function"
		},
		{
			"inputs": [
				{
					"internalType": "bytes32",
					"name": "requestId",
					"type": "bytes32"
				},
				{
					"internalType": "bytes",
					"name": "response",
					"type": "bytes"
				},
				{
					"internalType": "bytes",
					"name": "err",
					"type": "bytes"
				}
			],
			"name": "handleOracleFulfillment",
			"outputs": [],
			"stateMutability": "nonpayable",
			"type": "function"
		},
		{
			"inputs": [
				{
					"internalType": "string",
					"name": "_renavam",
					"type": "string"
				},
				{
					"internalType": "string",
					"name": "_placa",
					"type": "string"
				},
				{
					"internalType": "string",
					"name": "_cpfComprador",
					"type": "string"
				},
				{
					"internalType": "string",
					"name": "_cpfVendedor",
					"type": "string"
				},
				{
					"internalType": "uint256",
					"name": "_valorTotal",
					"type": "uint256"
				},
				{
					"internalType": "uint256",
					"name": "_prazoDias",
					"type": "uint256"
				}
			],
			"name": "iniciarCompra",
			"outputs": [],
			"stateMutability": "payable",
			"type": "function"
		},
		{
			"inputs": [],
			"name": "owner",
			"outputs": [
				{
					"internalType": "address",
					"name": "",
					"type": "address"
				}
			],
			"stateMutability": "view",
			"type": "function"
		},
		{
			"inputs": [
				{
					"internalType": "string",
					"name": "_renavam",
					"type": "string"
				},
				{
					"internalType": "string",
					"name": "_placa",
					"type": "string"
				}
			],
			"name": "pagarValorTotalComprador",
			"outputs": [],
			"stateMutability": "payable",
			"type": "function"
		},
		{
			"inputs": [
				{
					"internalType": "address",
					"name": "_to",
					"type": "address"
				},
				{
					"internalType": "uint256",
					"name": "amount",
					"type": "uint256"
				}
			],
			"name": "transfer",
			"outputs": [],
			"stateMutability": "payable",
			"type": "function"
		},
		{
			"inputs": [
				{
					"internalType": "string",
					"name": "_renavam",
					"type": "string"
				},
				{
					"internalType": "string",
					"name": "_placa",
					"type": "string"
				}
			],
			"name": "verificaContrato",
			"outputs": [],
			"stateMutability": "nonpayable",
			"type": "function"
		}
	]
}