{
	"data": {
		"bytecode": {
			"linkReferences": {},
			"object": "60a060405273b83e47c2bc239b3bf370bc41e1459a34b41238d060015f6101000a81548173ffffffffffffffffffffffffffffffffffffffff021916908373ffffffffffffffffffffffffffffffffffffffff1602179055507f66756e2d657468657265756d2d7365706f6c69612d31000000000000000000005f1b600255620493e060035f6101000a81548163ffffffff021916908363ffffffff160217905550604051806101c001604052806101848152602001612f046101849139600590816100cb91906103f8565b503480156100d7575f80fd5b5060405161308838038061308883398181016040528101906100f99190610508565b60015f9054906101000a900473ffffffffffffffffffffffffffffffffffffffff168073ffffffffffffffffffffffffffffffffffffffff1660808173ffffffffffffffffffffffffffffffffffffffff168152505050335f806101000a81548173ffffffffffffffffffffffffffffffffffffffff021916908373ffffffffffffffffffffffffffffffffffffffff16021790555080600360046101000a81548167ffffffffffffffff021916908367ffffffffffffffff16021790555050610533565b5f81519050919050565b7f4e487b71000000000000000000000000000000000000000000000000000000005f52604160045260245ffd5b7f4e487b71000000000000000000000000000000000000000000000000000000005f52602260045260245ffd5b5f600282049050600182168061023957607f821691505b60208210810361024c5761024b6101f5565b5b50919050565b5f819050815f5260205f209050919050565b5f6020601f8301049050919050565b5f82821b905092915050565b5f600883026102ae7fffffffffffffffffffffffffffffffffffffffffffffffffffffffffffffffff82610273565b6102b88683610273565b95508019841693508086168417925050509392505050565b5f819050919050565b5f819050919050565b5f6102fc6102f76102f2846102d0565b6102d9565b6102d0565b9050919050565b5f819050919050565b610315836102e2565b61032961032182610303565b84845461027f565b825550505050565b5f90565b61033d610331565b61034881848461030c565b505050565b5b8181101561036b576103605f82610335565b60018101905061034e565b5050565b601f8211156103b05761038181610252565b61038a84610264565b81016020851015610399578190505b6103ad6103a585610264565b83018261034d565b50505b505050565b5f82821c905092915050565b5f6103d05f19846008026103b5565b1980831691505092915050565b5f6103e883836103c1565b9150826002028217905092915050565b610401826101be565b67ffffffffffffffff81111561041a576104196101c8565b5b6104248254610222565b61042f82828561036f565b5f60209050601f831160018114610460575f841561044e578287015190505b61045885826103dd565b8655506104bf565b601f19841661046e86610252565b5f5b8281101561049557848901518255600182019150602085019450602081019050610470565b868310156104b257848901516104ae601f8916826103c1565b8355505b6001600288020188555050505b505050505050565b5f80fd5b5f67ffffffffffffffff82169050919050565b6104e7816104cb565b81146104f1575f80fd5b50565b5f81519050610502816104de565b92915050565b5f6020828403121561051d5761051c6104c7565b5b5f61052a848285016104f4565b91505092915050565b6080516129b961054b5f395f61023101526129b95ff3fe60806040526004361061009b575f3560e01c80638da5cb5b116100635780638da5cb5b14610143578063a4ff00e21461016d578063a9059cbb14610195578063b58be5df146101b1578063e0fc94b0146101f7578063edc509af146102135761009b565b80630ca761751461009f5780631d6d5b6e146100c75780634188b719146100e357806368892bf41461010b57806383adc04314610127575b5f80fd5b3480156100aa575f80fd5b506100c560048036038101906100c09190611c3d565b61022f565b005b6100e160048036038101906100dc9190611d9a565b6102f1565b005b3480156100ee575f80fd5b5061010960048036038101906101049190611e27565b6104a7565b005b61012560048036038101906101209190611d9a565b6107a2565b005b610141600480360381019061013c9190611d9a565b610815565b005b34801561014e575f80fd5b50610157610909565b6040516101649190611e91565b60405180910390f35b348015610178575f80fd5b50610193600480360381019061018e9190611d9a565b61092c565b005b6101af60048036038101906101aa9190611ed4565b610ca2565b005b3480156101bc575f80fd5b506101d760048036038101906101d29190611e27565b610da8565b6040516101ee9b9a99989796959493929190611faa565b60405180910390f35b610211600480360381019061020c919061209e565b610ff6565b005b61022d60048036038101906102289190611d9a565b61125e565b005b7f000000000000000000000000000000000000000000000000000000000000000073ffffffffffffffffffffffffffffffffffffffff163373ffffffffffffffffffffffffffffffffffffffff16146102b4576040517fc6829f8300000000000000000000000000000000000000000000000000000000815260040160405180910390fd5b6102bf83838361148d565b827f85e1543bf2f84fe80c6badbce3648c8539ad1df4d2b3d822938ca0538be727e660405160405180910390a2505050565b5f6102fc8383611492565b90503373ffffffffffffffffffffffffffffffffffffffff16600482815481106103295761032861217b565b5b905f5260205f2090600b02016002015f9054906101000a900473ffffffffffffffffffffffffffffffffffffffff1673ffffffffffffffffffffffffffffffffffffffff1614610377575f80fd5b5f60026004838154811061038e5761038d61217b565b5b905f5260205f2090600b0201600601546103a891906121d5565b90505f80600484815481106103c0576103bf61217b565b5b905f5260205f2090600b02016003015f9054906101000a900473ffffffffffffffffffffffffffffffffffffffff1673ffffffffffffffffffffffffffffffffffffffff168360405161041290612243565b5f6040518083038185875af1925050503d805f811461044c576040519150601f19603f3d011682016040523d82523d5f602084013e610451565b606091505b509150915081610496576040517f08c379a000000000000000000000000000000000000000000000000000000000815260040161048d906122a1565b60405180910390fd5b61049f846104a7565b505050505050565b60048054905081106104b7575f80fd5b5f8190505b60016004805490506104ce91906122bf565b8110156106ba5760046001826104e491906122f2565b815481106104f5576104f461217b565b5b905f5260205f2090600b0201600482815481106105155761051461217b565b5b905f5260205f2090600b02015f82015f9054906101000a900461ffff16815f015f6101000a81548161ffff021916908361ffff160217905550600182018160010190816105629190612534565b50600282015f9054906101000a900473ffffffffffffffffffffffffffffffffffffffff16816002015f6101000a81548173ffffffffffffffffffffffffffffffffffffffff021916908373ffffffffffffffffffffffffffffffffffffffff160217905550600382015f9054906101000a900473ffffffffffffffffffffffffffffffffffffffff16816003015f6101000a81548173ffffffffffffffffffffffffffffffffffffffff021916908373ffffffffffffffffffffffffffffffffffffffff160217905550600482018160040190816106419190612534565b50600582018160050190816106569190612534565b5060068201548160060155600782015481600701556008820154816008015560098201548160090155600a82015f9054906101000a900460ff1681600a015f6101000a81548160ff02191690831515021790555090505080806001019150506104bc565b5060048054806106cd576106cc612619565b5b600190038181905f5260205f2090600b02015f8082015f6101000a81549061ffff0219169055600182015f61070291906119e1565b600282015f6101000a81549073ffffffffffffffffffffffffffffffffffffffff0219169055600382015f6101000a81549073ffffffffffffffffffffffffffffffffffffffff0219169055600482015f61075d91906119e1565b600582015f61076c91906119e1565b600682015f9055600782015f9055600882015f9055600982015f9055600a82015f6101000a81549060ff02191690555050905550565b5f6107ad8383611492565b905033600482815481106107c4576107c361217b565b5b905f5260205f2090600b02016002015f6101000a81548173ffffffffffffffffffffffffffffffffffffffff021916908373ffffffffffffffffffffffffffffffffffffffff160217905550505050565b5f6108208383611492565b90503373ffffffffffffffffffffffffffffffffffffffff166004828154811061084d5761084c61217b565b5b905f5260205f2090600b02016002015f9054906101000a900473ffffffffffffffffffffffffffffffffffffffff1673ffffffffffffffffffffffffffffffffffffffff161461089b575f80fd5b34600482815481106108b0576108af61217b565b5b905f5260205f2090600b020160070154146108c9575f80fd5b6001600482815481106108df576108de61217b565b5b905f5260205f2090600b0201600a015f6101000a81548160ff021916908315150217905550505050565b5f8054906101000a900473ffffffffffffffffffffffffffffffffffffffff1681565b5f6109378383611492565b90505f73ffffffffffffffffffffffffffffffffffffffff16600482815481106109645761096361217b565b5b905f5260205f2090600b02016002015f9054906101000a900473ffffffffffffffffffffffffffffffffffffffff1673ffffffffffffffffffffffffffffffffffffffff16141580156109e757504262015180600483815481106109cb576109ca61217b565b5b905f5260205f2090600b0201600801546109e591906122f2565b105b15610b0c575f8060048381548110610a0257610a0161217b565b5b905f5260205f2090600b02016002015f9054906101000a900473ffffffffffffffffffffffffffffffffffffffff1673ffffffffffffffffffffffffffffffffffffffff1660048481548110610a5b57610a5a61217b565b5b905f5260205f2090600b020160060154604051610a7790612243565b5f6040518083038185875af1925050503d805f8114610ab1576040519150601f19603f3d011682016040523d82523d5f602084013e610ab6565b606091505b509150915081610afb576040517f08c379a0000000000000000000000000000000000000000000000000000000008152600401610af2906122a1565b60405180910390fd5b610b04836104a7565b505050610c9e565b4260048281548110610b2157610b2061217b565b5b905f5260205f2090600b020160090154108015610b6b575060048181548110610b4d57610b4c61217b565b5b905f5260205f2090600b0201600a015f9054906101000a900460ff16155b15610c9c575f600260048381548110610b8757610b8661217b565b5b905f5260205f2090600b020160060154610ba191906121d5565b90505f8060048481548110610bb957610bb861217b565b5b905f5260205f2090600b02016003015f9054906101000a900473ffffffffffffffffffffffffffffffffffffffff1673ffffffffffffffffffffffffffffffffffffffff1683604051610c0b90612243565b5f6040518083038185875af1925050503d805f8114610c45576040519150601f19603f3d011682016040523d82523d5f602084013e610c4a565b606091505b509150915081610c8f576040517f08c379a0000000000000000000000000000000000000000000000000000000008152600401610c86906122a1565b60405180910390fd5b610c98846104a7565b5050505b505b5050565b5f8054906101000a900473ffffffffffffffffffffffffffffffffffffffff1673ffffffffffffffffffffffffffffffffffffffff163373ffffffffffffffffffffffffffffffffffffffff1614610cf8575f80fd5b5f808373ffffffffffffffffffffffffffffffffffffffff1683604051610d1e90612243565b5f6040518083038185875af1925050503d805f8114610d58576040519150601f19603f3d011682016040523d82523d5f602084013e610d5d565b606091505b509150915081610da2576040517f08c379a0000000000000000000000000000000000000000000000000000000008152600401610d99906122a1565b60405180910390fd5b50505050565b60048181548110610db7575f80fd5b905f5260205f2090600b02015f91509050805f015f9054906101000a900461ffff1690806001018054610de990612352565b80601f0160208091040260200160405190810160405280929190818152602001828054610e1590612352565b8015610e605780601f10610e3757610100808354040283529160200191610e60565b820191905f5260205f20905b815481529060010190602001808311610e4357829003601f168201915b505050505090806002015f9054906101000a900473ffffffffffffffffffffffffffffffffffffffff1690806003015f9054906101000a900473ffffffffffffffffffffffffffffffffffffffff1690806004018054610ebf90612352565b80601f0160208091040260200160405190810160405280929190818152602001828054610eeb90612352565b8015610f365780601f10610f0d57610100808354040283529160200191610f36565b820191905f5260205f20905b815481529060010190602001808311610f1957829003601f168201915b505050505090806005018054610f4b90612352565b80601f0160208091040260200160405190810160405280929190818152602001828054610f7790612352565b8015610fc25780601f10610f9957610100808354040283529160200191610fc2565b820191905f5260205f20905b815481529060010190602001808311610fa557829003601f168201915b50505050509080600601549080600701549080600801549080600901549080600a015f9054906101000a900460ff1690508b565b610fff8461155a565b611007575f80fd5b6110108361155a565b611018575f80fd5b611020611a1e565b86815f019061ffff16908161ffff168152505085816020018190525033816060019073ffffffffffffffffffffffffffffffffffffffff16908173ffffffffffffffffffffffffffffffffffffffff1681525050848160800181905250838160a00181905250348160c0018181525050828160e00181815250505f81610140019015159081151581525050603c806018846110bb9190612646565b6110c59190612646565b6110cf9190612646565b60ff16426110dd91906122f2565b816101200181815250504281610100018181525050600481908060018154018082558091505060019003905f5260205f2090600b02015f909190919091505f820151815f015f6101000a81548161ffff021916908361ffff16021790555060208201518160010190816111509190612682565b506040820151816002015f6101000a81548173ffffffffffffffffffffffffffffffffffffffff021916908373ffffffffffffffffffffffffffffffffffffffff1602179055506060820151816003015f6101000a81548173ffffffffffffffffffffffffffffffffffffffff021916908373ffffffffffffffffffffffffffffffffffffffff16021790555060808201518160040190816111f29190612682565b5060a08201518160050190816112089190612682565b5060c0820151816006015560e082015181600701556101008201518160080155610120820151816009015561014082015181600a015f6101000a81548160ff021916908315150217905550505050505050505050565b5f6112698383611492565b90503373ffffffffffffffffffffffffffffffffffffffff16600482815481106112965761129561217b565b5b905f5260205f2090600b02016003015f9054906101000a900473ffffffffffffffffffffffffffffffffffffffff1673ffffffffffffffffffffffffffffffffffffffff16146112e4575f80fd5b5f73ffffffffffffffffffffffffffffffffffffffff166004828154811061130f5761130e61217b565b5b905f5260205f2090600b02016002015f9054906101000a900473ffffffffffffffffffffffffffffffffffffffff1673ffffffffffffffffffffffffffffffffffffffff160361135d575f80fd5b5f6002600483815481106113745761137361217b565b5b905f5260205f2090600b02016006015461138e91906121d5565b90505f80600484815481106113a6576113a561217b565b5b905f5260205f2090600b02016002015f9054906101000a900473ffffffffffffffffffffffffffffffffffffffff1673ffffffffffffffffffffffffffffffffffffffff16836040516113f890612243565b5f6040518083038185875af1925050503d805f8114611432576040519150601f19603f3d011682016040523d82523d5f602084013e611437565b606091505b50915091508161147c576040517f08c379a0000000000000000000000000000000000000000000000000000000008152600401611473906122a1565b60405180910390fd5b611485846104a7565b505050505050565b505050565b5f805f90505f5b600480549050811015611545578461ffff16600482815481106114bf576114be61217b565b5b905f5260205f2090600b02015f015f9054906101000a900461ffff1661ffff1614801561152957508380519060200120600482815481106115035761150261217b565b5b905f5260205f2090600b020160010160405161151f91906127e3565b6040518091039020145b15611538578092505050611554565b8080600101915050611499565b508061154f575f80fd5b5f9150505b92915050565b5f80829050600b815114611571575f9150506117c1565b5f5b600a8160ff1610156115f5575f61158c8260ff166117c6565b90505f8182838485868788898a8b6040516020016115b49b9a99989796959493929190612833565b604051602081830303815290604052905080805190602001208480519060200120036115e6575f9450505050506117c1565b50508080600101915050611573565b505f80600a90505f5b60098160ff16101561166e578180611615906128cb565b92506030858360ff168151811061162f5761162e61217b565b5b602001015160f81c60f81b60f81c61164791906128f2565b6116519190612646565b60ff168361165f91906122f2565b925080806001019150506115fe565b505f600b8361167d9190612953565b9050600281106116995780600b61169491906122bf565b61169b565b5f5b9050806030856009815181106116b4576116b361217b565b5b602001015160f81c60f81b60f81c6116cc91906128f2565b60ff16146116e0575f9450505050506117c1565b5f9250600b91505f5b600a8160ff161015611759578280611700906128cb565b93506030868360ff168151811061171a5761171961217b565b5b602001015160f81c60f81b60f81c61173291906128f2565b61173c9190612646565b60ff168461174a91906122f2565b935080806001019150506116e9565b50600b836117679190612953565b9050600281106117835780600b61177e91906122bf565b611785565b5f5b905080603085600a8151811061179e5761179d61217b565b5b602001015160f81c60f81b60f81c6117b691906128f2565b60ff16149450505050505b919050565b60605f60016117d484611890565b0190505f8167ffffffffffffffff8111156117f2576117f1611b19565b5b6040519080825280601f01601f1916602001820160405280156118245781602001600182028036833780820191505090505b5090505f82602001820190505b600115611885578080600190039150507f3031323334353637383961626364656600000000000000000000000000000000600a86061a8153600a858161187a57611879612926565b5b0494505f8503611831575b819350505050919050565b5f805f90507a184f03e93ff9f4daa797ed6e38ed64bf6a1f01000000000000000083106118ec577a184f03e93ff9f4daa797ed6e38ed64bf6a1f01000000000000000083816118e2576118e1612926565b5b0492506040810190505b6d04ee2d6d415b85acef81000000008310611929576d04ee2d6d415b85acef8100000000838161191f5761191e612926565b5b0492506020810190505b662386f26fc10000831061195857662386f26fc10000838161194e5761194d612926565b5b0492506010810190505b6305f5e1008310611981576305f5e100838161197757611976612926565b5b0492506008810190505b61271083106119a657612710838161199c5761199b612926565b5b0492506004810190505b606483106119c957606483816119bf576119be612926565b5b0492506002810190505b600a83106119d8576001810190505b80915050919050565b5080546119ed90612352565b5f825580601f106119fe5750611a1b565b601f0160209004905f5260205f2090810190611a1a9190611aa2565b5b50565b6040518061016001604052805f61ffff168152602001606081526020015f73ffffffffffffffffffffffffffffffffffffffff1681526020015f73ffffffffffffffffffffffffffffffffffffffff16815260200160608152602001606081526020015f81526020015f81526020015f81526020015f81526020015f151581525090565b5b80821115611ab9575f815f905550600101611aa3565b5090565b5f604051905090565b5f80fd5b5f80fd5b5f819050919050565b611ae081611ace565b8114611aea575f80fd5b50565b5f81359050611afb81611ad7565b92915050565b5f80fd5b5f80fd5b5f601f19601f8301169050919050565b7f4e487b71000000000000000000000000000000000000000000000000000000005f52604160045260245ffd5b611b4f82611b09565b810181811067ffffffffffffffff82111715611b6e57611b6d611b19565b5b80604052505050565b5f611b80611abd565b9050611b8c8282611b46565b919050565b5f67ffffffffffffffff821115611bab57611baa611b19565b5b611bb482611b09565b9050602081019050919050565b828183375f83830152505050565b5f611be1611bdc84611b91565b611b77565b905082815260208101848484011115611bfd57611bfc611b05565b5b611c08848285611bc1565b509392505050565b5f82601f830112611c2457611c23611b01565b5b8135611c34848260208601611bcf565b91505092915050565b5f805f60608486031215611c5457611c53611ac6565b5b5f611c6186828701611aed565b935050602084013567ffffffffffffffff811115611c8257611c81611aca565b5b611c8e86828701611c10565b925050604084013567ffffffffffffffff811115611caf57611cae611aca565b5b611cbb86828701611c10565b9150509250925092565b5f61ffff82169050919050565b611cdb81611cc5565b8114611ce5575f80fd5b50565b5f81359050611cf681611cd2565b92915050565b5f67ffffffffffffffff821115611d1657611d15611b19565b5b611d1f82611b09565b9050602081019050919050565b5f611d3e611d3984611cfc565b611b77565b905082815260208101848484011115611d5a57611d59611b05565b5b611d65848285611bc1565b509392505050565b5f82601f830112611d8157611d80611b01565b5b8135611d91848260208601611d2c565b91505092915050565b5f8060408385031215611db057611daf611ac6565b5b5f611dbd85828601611ce8565b925050602083013567ffffffffffffffff811115611dde57611ddd611aca565b5b611dea85828601611d6d565b9150509250929050565b5f819050919050565b611e0681611df4565b8114611e10575f80fd5b50565b5f81359050611e2181611dfd565b92915050565b5f60208284031215611e3c57611e3b611ac6565b5b5f611e4984828501611e13565b91505092915050565b5f73ffffffffffffffffffffffffffffffffffffffff82169050919050565b5f611e7b82611e52565b9050919050565b611e8b81611e71565b82525050565b5f602082019050611ea45f830184611e82565b92915050565b611eb381611e71565b8114611ebd575f80fd5b50565b5f81359050611ece81611eaa565b92915050565b5f8060408385031215611eea57611ee9611ac6565b5b5f611ef785828601611ec0565b9250506020611f0885828601611e13565b9150509250929050565b611f1b81611cc5565b82525050565b5f81519050919050565b5f82825260208201905092915050565b8281835e5f83830152505050565b5f611f5382611f21565b611f5d8185611f2b565b9350611f6d818560208601611f3b565b611f7681611b09565b840191505092915050565b611f8a81611df4565b82525050565b5f8115159050919050565b611fa481611f90565b82525050565b5f61016082019050611fbe5f83018e611f12565b8181036020830152611fd0818d611f49565b9050611fdf604083018c611e82565b611fec606083018b611e82565b8181036080830152611ffe818a611f49565b905081810360a08301526120128189611f49565b905061202160c0830188611f81565b61202e60e0830187611f81565b61203c610100830186611f81565b61204a610120830185611f81565b612058610140830184611f9b565b9c9b505050505050505050505050565b5f60ff82169050919050565b61207d81612068565b8114612087575f80fd5b50565b5f8135905061209881612074565b92915050565b5f805f805f8060c087890312156120b8576120b7611ac6565b5b5f6120c589828a01611ce8565b965050602087013567ffffffffffffffff8111156120e6576120e5611aca565b5b6120f289828a01611d6d565b955050604087013567ffffffffffffffff81111561211357612112611aca565b5b61211f89828a01611d6d565b945050606087013567ffffffffffffffff8111156121405761213f611aca565b5b61214c89828a01611d6d565b935050608061215d89828a01611e13565b92505060a061216e89828a0161208a565b9150509295509295509295565b7f4e487b71000000000000000000000000000000000000000000000000000000005f52603260045260245ffd5b7f4e487b71000000000000000000000000000000000000000000000000000000005f52601160045260245ffd5b5f6121df82611df4565b91506121ea83611df4565b92508282026121f881611df4565b9150828204841483151761220f5761220e6121a8565b5b5092915050565b5f81905092915050565b50565b5f61222e5f83612216565b915061223982612220565b5f82019050919050565b5f61224d82612223565b9150819050919050565b7f4661696c656420746f2073656e642045746865720000000000000000000000005f82015250565b5f61228b601483611f2b565b915061229682612257565b602082019050919050565b5f6020820190508181035f8301526122b88161227f565b9050919050565b5f6122c982611df4565b91506122d483611df4565b92508282039050818111156122ec576122eb6121a8565b5b92915050565b5f6122fc82611df4565b915061230783611df4565b925082820190508082111561231f5761231e6121a8565b5b92915050565b7f4e487b71000000000000000000000000000000000000000000000000000000005f52602260045260245ffd5b5f600282049050600182168061236957607f821691505b60208210810361237c5761237b612325565b5b50919050565b5f8154905061239081612352565b9050919050565b5f819050815f5260205f209050919050565b5f6020601f8301049050919050565b5f82821b905092915050565b5f600883026123f37fffffffffffffffffffffffffffffffffffffffffffffffffffffffffffffffff826123b8565b6123fd86836123b8565b95508019841693508086168417925050509392505050565b5f819050919050565b5f61243861243361242e84611df4565b612415565b611df4565b9050919050565b5f819050919050565b6124518361241e565b61246561245d8261243f565b8484546123c4565b825550505050565b5f90565b61247961246d565b612484818484612448565b505050565b5b818110156124a75761249c5f82612471565b60018101905061248a565b5050565b601f8211156124ec576124bd81612397565b6124c6846123a9565b810160208510156124d5578190505b6124e96124e1856123a9565b830182612489565b50505b505050565b5f82821c905092915050565b5f61250c5f19846008026124f1565b1980831691505092915050565b5f61252483836124fd565b9150826002028217905092915050565b818103612542575050612617565b61254b82612382565b67ffffffffffffffff81111561256457612563611b19565b5b61256e8254612352565b6125798282856124ab565b5f601f8311600181146125a6575f8415612594578287015490505b61259e8582612519565b865550612610565b601f1984166125b487612397565b96506125bf86612397565b5f5b828110156125e6578489015482556001820191506001850194506020810190506125c1565b8683101561260357848901546125ff601f8916826124fd565b8355505b6001600288020188555050505b5050505050505b565b7f4e487b71000000000000000000000000000000000000000000000000000000005f52603160045260245ffd5b5f61265082612068565b915061265b83612068565b925082820261266981612068565b915080821461267b5761267a6121a8565b5b5092915050565b61268b82611f21565b67ffffffffffffffff8111156126a4576126a3611b19565b5b6126ae8254612352565b6126b98282856124ab565b5f60209050601f8311600181146126ea575f84156126d8578287015190505b6126e28582612519565b865550612749565b601f1984166126f886612397565b5f5b8281101561271f578489015182556001820191506020850194506020810190506126fa565b8683101561273c5784890151612738601f8916826124fd565b8355505b6001600288020188555050505b505050505050565b5f819050815f5260205f209050919050565b5f815461276f81612352565b6127798186612216565b9450600182165f811461279357600181146127a8576127da565b60ff19831686528115158202860193506127da565b6127b185612751565b5f5b838110156127d2578154818901526001820191506020810190506127b3565b838801955050505b50505092915050565b5f6127ee8284612763565b915081905092915050565b5f81905092915050565b5f61280d82611f21565b61281781856127f9565b9350612827818560208601611f3b565b80840191505092915050565b5f61283e828e612803565b915061284a828d612803565b9150612856828c612803565b9150612862828b612803565b915061286e828a612803565b915061287a8289612803565b91506128868288612803565b91506128928287612803565b915061289e8286612803565b91506128aa8285612803565b91506128b68284612803565b91508190509c9b505050505050505050505050565b5f6128d582612068565b91505f82036128e7576128e66121a8565b5b600182039050919050565b5f6128fc82612068565b915061290783612068565b9250828203905060ff8111156129205761291f6121a8565b5b92915050565b7f4e487b71000000000000000000000000000000000000000000000000000000005f52601260045260245ffd5b5f61295d82611df4565b915061296883611df4565b92508261297857612977612926565b5b82820690509291505056fea2646970667358221220ab7e9bdfa38433b01136a66fddc73a1688e3e74526b9700850d3048acc340e1c64736f6c634300081a0033636f6e737420637066203d20617267735b305d3b636f6e737420706c616361203d20617267735b315d3b636f6e73742072656e6176616d203d20617267735b325d3b636f6e737420617069526573706f6e7365203d2061776169742046756e6374696f6e732e6d616b654874747052657175657374287b202075726c3a206068747470733a2f2f6170692e7269636172646f6775696d61726165732e6465762f76312f76656963756c6f732f70726f70726965746172696f2f6370662f247b6370667d2f706c6163612f247b706c6163617d2f72656e6176616d2f247b72656e6176616d7d607d2969662028617069526573706f6e73652e6572726f722920202072657475726e2046756e6374696f6e732e656e636f646555696e7432353628353030293b636f6e7374207b2064617461207d203d20617069526573706f6e73653b72657475726e2046756e6374696f6e732e656e636f646555696e7432353628646174612e72656e6176616d20213d3d206e756c6c203f20323030203a20323034293b",
			"opcodes": "PUSH1 0xA0 PUSH1 0x40 MSTORE PUSH20 0xB83E47C2BC239B3BF370BC41E1459A34B41238D0 PUSH1 0x1 PUSH0 PUSH2 0x100 EXP DUP2 SLOAD DUP2 PUSH20 0xFFFFFFFFFFFFFFFFFFFFFFFFFFFFFFFFFFFFFFFF MUL NOT AND SWAP1 DUP4 PUSH20 0xFFFFFFFFFFFFFFFFFFFFFFFFFFFFFFFFFFFFFFFF AND MUL OR SWAP1 SSTORE POP PUSH32 0x66756E2D657468657265756D2D7365706F6C69612D3100000000000000000000 PUSH0 SHL PUSH1 0x2 SSTORE PUSH3 0x493E0 PUSH1 0x3 PUSH0 PUSH2 0x100 EXP DUP2 SLOAD DUP2 PUSH4 0xFFFFFFFF MUL NOT AND SWAP1 DUP4 PUSH4 0xFFFFFFFF AND MUL OR SWAP1 SSTORE POP PUSH1 0x40 MLOAD DUP1 PUSH2 0x1C0 ADD PUSH1 0x40 MSTORE DUP1 PUSH2 0x184 DUP2 MSTORE PUSH1 0x20 ADD PUSH2 0x2F04 PUSH2 0x184 SWAP2 CODECOPY PUSH1 0x5 SWAP1 DUP2 PUSH2 0xCB SWAP2 SWAP1 PUSH2 0x3F8 JUMP JUMPDEST POP CALLVALUE DUP1 ISZERO PUSH2 0xD7 JUMPI PUSH0 DUP1 REVERT JUMPDEST POP PUSH1 0x40 MLOAD PUSH2 0x3088 CODESIZE SUB DUP1 PUSH2 0x3088 DUP4 CODECOPY DUP2 DUP2 ADD PUSH1 0x40 MSTORE DUP2 ADD SWAP1 PUSH2 0xF9 SWAP2 SWAP1 PUSH2 0x508 JUMP JUMPDEST PUSH1 0x1 PUSH0 SWAP1 SLOAD SWAP1 PUSH2 0x100 EXP SWAP1 DIV PUSH20 0xFFFFFFFFFFFFFFFFFFFFFFFFFFFFFFFFFFFFFFFF AND DUP1 PUSH20 0xFFFFFFFFFFFFFFFFFFFFFFFFFFFFFFFFFFFFFFFF AND PUSH1 0x80 DUP2 PUSH20 0xFFFFFFFFFFFFFFFFFFFFFFFFFFFFFFFFFFFFFFFF AND DUP2 MSTORE POP POP POP CALLER PUSH0 DUP1 PUSH2 0x100 EXP DUP2 SLOAD DUP2 PUSH20 0xFFFFFFFFFFFFFFFFFFFFFFFFFFFFFFFFFFFFFFFF MUL NOT AND SWAP1 DUP4 PUSH20 0xFFFFFFFFFFFFFFFFFFFFFFFFFFFFFFFFFFFFFFFF AND MUL OR SWAP1 SSTORE POP DUP1 PUSH1 0x3 PUSH1 0x4 PUSH2 0x100 EXP DUP2 SLOAD DUP2 PUSH8 0xFFFFFFFFFFFFFFFF MUL NOT AND SWAP1 DUP4 PUSH8 0xFFFFFFFFFFFFFFFF AND MUL OR SWAP1 SSTORE POP POP PUSH2 0x533 JUMP JUMPDEST PUSH0 DUP2 MLOAD SWAP1 POP SWAP2 SWAP1 POP JUMP JUMPDEST PUSH32 0x4E487B7100000000000000000000000000000000000000000000000000000000 PUSH0 MSTORE PUSH1 0x41 PUSH1 0x4 MSTORE PUSH1 0x24 PUSH0 REVERT JUMPDEST PUSH32 0x4E487B7100000000000000000000000000000000000000000000000000000000 PUSH0 MSTORE PUSH1 0x22 PUSH1 0x4 MSTORE PUSH1 0x24 PUSH0 REVERT JUMPDEST PUSH0 PUSH1 0x2 DUP3 DIV SWAP1 POP PUSH1 0x1 DUP3 AND DUP1 PUSH2 0x239 JUMPI PUSH1 0x7F DUP3 AND SWAP2 POP JUMPDEST PUSH1 0x20 DUP3 LT DUP2 SUB PUSH2 0x24C JUMPI PUSH2 0x24B PUSH2 0x1F5 JUMP JUMPDEST JUMPDEST POP SWAP2 SWAP1 POP JUMP JUMPDEST PUSH0 DUP2 SWAP1 POP DUP2 PUSH0 MSTORE PUSH1 0x20 PUSH0 KECCAK256 SWAP1 POP SWAP2 SWAP1 POP JUMP JUMPDEST PUSH0 PUSH1 0x20 PUSH1 0x1F DUP4 ADD DIV SWAP1 POP SWAP2 SWAP1 POP JUMP JUMPDEST PUSH0 DUP3 DUP3 SHL SWAP1 POP SWAP3 SWAP2 POP POP JUMP JUMPDEST PUSH0 PUSH1 0x8 DUP4 MUL PUSH2 0x2AE PUSH32 0xFFFFFFFFFFFFFFFFFFFFFFFFFFFFFFFFFFFFFFFFFFFFFFFFFFFFFFFFFFFFFFFF DUP3 PUSH2 0x273 JUMP JUMPDEST PUSH2 0x2B8 DUP7 DUP4 PUSH2 0x273 JUMP JUMPDEST SWAP6 POP DUP1 NOT DUP5 AND SWAP4 POP DUP1 DUP7 AND DUP5 OR SWAP3 POP POP POP SWAP4 SWAP3 POP POP POP JUMP JUMPDEST PUSH0 DUP2 SWAP1 POP SWAP2 SWAP1 POP JUMP JUMPDEST PUSH0 DUP2 SWAP1 POP SWAP2 SWAP1 POP JUMP JUMPDEST PUSH0 PUSH2 0x2FC PUSH2 0x2F7 PUSH2 0x2F2 DUP5 PUSH2 0x2D0 JUMP JUMPDEST PUSH2 0x2D9 JUMP JUMPDEST PUSH2 0x2D0 JUMP JUMPDEST SWAP1 POP SWAP2 SWAP1 POP JUMP JUMPDEST PUSH0 DUP2 SWAP1 POP SWAP2 SWAP1 POP JUMP JUMPDEST PUSH2 0x315 DUP4 PUSH2 0x2E2 JUMP JUMPDEST PUSH2 0x329 PUSH2 0x321 DUP3 PUSH2 0x303 JUMP JUMPDEST DUP5 DUP5 SLOAD PUSH2 0x27F JUMP JUMPDEST DUP3 SSTORE POP POP POP POP JUMP JUMPDEST PUSH0 SWAP1 JUMP JUMPDEST PUSH2 0x33D PUSH2 0x331 JUMP JUMPDEST PUSH2 0x348 DUP2 DUP5 DUP5 PUSH2 0x30C JUMP JUMPDEST POP POP POP JUMP JUMPDEST JUMPDEST DUP2 DUP2 LT ISZERO PUSH2 0x36B JUMPI PUSH2 0x360 PUSH0 DUP3 PUSH2 0x335 JUMP JUMPDEST PUSH1 0x1 DUP2 ADD SWAP1 POP PUSH2 0x34E JUMP JUMPDEST POP POP JUMP JUMPDEST PUSH1 0x1F DUP3 GT ISZERO PUSH2 0x3B0 JUMPI PUSH2 0x381 DUP2 PUSH2 0x252 JUMP JUMPDEST PUSH2 0x38A DUP5 PUSH2 0x264 JUMP JUMPDEST DUP2 ADD PUSH1 0x20 DUP6 LT ISZERO PUSH2 0x399 JUMPI DUP2 SWAP1 POP JUMPDEST PUSH2 0x3AD PUSH2 0x3A5 DUP6 PUSH2 0x264 JUMP JUMPDEST DUP4 ADD DUP3 PUSH2 0x34D JUMP JUMPDEST POP POP JUMPDEST POP POP POP JUMP JUMPDEST PUSH0 DUP3 DUP3 SHR SWAP1 POP SWAP3 SWAP2 POP POP JUMP JUMPDEST PUSH0 PUSH2 0x3D0 PUSH0 NOT DUP5 PUSH1 0x8 MUL PUSH2 0x3B5 JUMP JUMPDEST NOT DUP1 DUP4 AND SWAP2 POP POP SWAP3 SWAP2 POP POP JUMP JUMPDEST PUSH0 PUSH2 0x3E8 DUP4 DUP4 PUSH2 0x3C1 JUMP JUMPDEST SWAP2 POP DUP3 PUSH1 0x2 MUL DUP3 OR SWAP1 POP SWAP3 SWAP2 POP POP JUMP JUMPDEST PUSH2 0x401 DUP3 PUSH2 0x1BE JUMP JUMPDEST PUSH8 0xFFFFFFFFFFFFFFFF DUP2 GT ISZERO PUSH2 0x41A JUMPI PUSH2 0x419 PUSH2 0x1C8 JUMP JUMPDEST JUMPDEST PUSH2 0x424 DUP3 SLOAD PUSH2 0x222 JUMP JUMPDEST PUSH2 0x42F DUP3 DUP3 DUP6 PUSH2 0x36F JUMP JUMPDEST PUSH0 PUSH1 0x20 SWAP1 POP PUSH1 0x1F DUP4 GT PUSH1 0x1 DUP2 EQ PUSH2 0x460 JUMPI PUSH0 DUP5 ISZERO PUSH2 0x44E JUMPI DUP3 DUP8 ADD MLOAD SWAP1 POP JUMPDEST PUSH2 0x458 DUP6 DUP3 PUSH2 0x3DD JUMP JUMPDEST DUP7 SSTORE POP PUSH2 0x4BF JUMP JUMPDEST PUSH1 0x1F NOT DUP5 AND PUSH2 0x46E DUP7 PUSH2 0x252 JUMP JUMPDEST PUSH0 JUMPDEST DUP3 DUP2 LT ISZERO PUSH2 0x495 JUMPI DUP5 DUP10 ADD MLOAD DUP3 SSTORE PUSH1 0x1 DUP3 ADD SWAP2 POP PUSH1 0x20 DUP6 ADD SWAP5 POP PUSH1 0x20 DUP2 ADD SWAP1 POP PUSH2 0x470 JUMP JUMPDEST DUP7 DUP4 LT ISZERO PUSH2 0x4B2 JUMPI DUP5 DUP10 ADD MLOAD PUSH2 0x4AE PUSH1 0x1F DUP10 AND DUP3 PUSH2 0x3C1 JUMP JUMPDEST DUP4 SSTORE POP JUMPDEST PUSH1 0x1 PUSH1 0x2 DUP9 MUL ADD DUP9 SSTORE POP POP POP JUMPDEST POP POP POP POP POP POP JUMP JUMPDEST PUSH0 DUP1 REVERT JUMPDEST PUSH0 PUSH8 0xFFFFFFFFFFFFFFFF DUP3 AND SWAP1 POP SWAP2 SWAP1 POP JUMP JUMPDEST PUSH2 0x4E7 DUP2 PUSH2 0x4CB JUMP JUMPDEST DUP2 EQ PUSH2 0x4F1 JUMPI PUSH0 DUP1 REVERT JUMPDEST POP JUMP JUMPDEST PUSH0 DUP2 MLOAD SWAP1 POP PUSH2 0x502 DUP2 PUSH2 0x4DE JUMP JUMPDEST SWAP3 SWAP2 POP POP JUMP JUMPDEST PUSH0 PUSH1 0x20 DUP3 DUP5 SUB SLT ISZERO PUSH2 0x51D JUMPI PUSH2 0x51C PUSH2 0x4C7 JUMP JUMPDEST JUMPDEST PUSH0 PUSH2 0x52A DUP5 DUP3 DUP6 ADD PUSH2 0x4F4 JUMP JUMPDEST SWAP2 POP POP SWAP3 SWAP2 POP POP JUMP JUMPDEST PUSH1 0x80 MLOAD PUSH2 0x29B9 PUSH2 0x54B PUSH0 CODECOPY PUSH0 PUSH2 0x231 ADD MSTORE PUSH2 0x29B9 PUSH0 RETURN INVALID PUSH1 0x80 PUSH1 0x40 MSTORE PUSH1 0x4 CALLDATASIZE LT PUSH2 0x9B JUMPI PUSH0 CALLDATALOAD PUSH1 0xE0 SHR DUP1 PUSH4 0x8DA5CB5B GT PUSH2 0x63 JUMPI DUP1 PUSH4 0x8DA5CB5B EQ PUSH2 0x143 JUMPI DUP1 PUSH4 0xA4FF00E2 EQ PUSH2 0x16D JUMPI DUP1 PUSH4 0xA9059CBB EQ PUSH2 0x195 JUMPI DUP1 PUSH4 0xB58BE5DF EQ PUSH2 0x1B1 JUMPI DUP1 PUSH4 0xE0FC94B0 EQ PUSH2 0x1F7 JUMPI DUP1 PUSH4 0xEDC509AF EQ PUSH2 0x213 JUMPI PUSH2 0x9B JUMP JUMPDEST DUP1 PUSH4 0xCA76175 EQ PUSH2 0x9F JUMPI DUP1 PUSH4 0x1D6D5B6E EQ PUSH2 0xC7 JUMPI DUP1 PUSH4 0x4188B719 EQ PUSH2 0xE3 JUMPI DUP1 PUSH4 0x68892BF4 EQ PUSH2 0x10B JUMPI DUP1 PUSH4 0x83ADC043 EQ PUSH2 0x127 JUMPI JUMPDEST PUSH0 DUP1 REVERT JUMPDEST CALLVALUE DUP1 ISZERO PUSH2 0xAA JUMPI PUSH0 DUP1 REVERT JUMPDEST POP PUSH2 0xC5 PUSH1 0x4 DUP1 CALLDATASIZE SUB DUP2 ADD SWAP1 PUSH2 0xC0 SWAP2 SWAP1 PUSH2 0x1C3D JUMP JUMPDEST PUSH2 0x22F JUMP JUMPDEST STOP JUMPDEST PUSH2 0xE1 PUSH1 0x4 DUP1 CALLDATASIZE SUB DUP2 ADD SWAP1 PUSH2 0xDC SWAP2 SWAP1 PUSH2 0x1D9A JUMP JUMPDEST PUSH2 0x2F1 JUMP JUMPDEST STOP JUMPDEST CALLVALUE DUP1 ISZERO PUSH2 0xEE JUMPI PUSH0 DUP1 REVERT JUMPDEST POP PUSH2 0x109 PUSH1 0x4 DUP1 CALLDATASIZE SUB DUP2 ADD SWAP1 PUSH2 0x104 SWAP2 SWAP1 PUSH2 0x1E27 JUMP JUMPDEST PUSH2 0x4A7 JUMP JUMPDEST STOP JUMPDEST PUSH2 0x125 PUSH1 0x4 DUP1 CALLDATASIZE SUB DUP2 ADD SWAP1 PUSH2 0x120 SWAP2 SWAP1 PUSH2 0x1D9A JUMP JUMPDEST PUSH2 0x7A2 JUMP JUMPDEST STOP JUMPDEST PUSH2 0x141 PUSH1 0x4 DUP1 CALLDATASIZE SUB DUP2 ADD SWAP1 PUSH2 0x13C SWAP2 SWAP1 PUSH2 0x1D9A JUMP JUMPDEST PUSH2 0x815 JUMP JUMPDEST STOP JUMPDEST CALLVALUE DUP1 ISZERO PUSH2 0x14E JUMPI PUSH0 DUP1 REVERT JUMPDEST POP PUSH2 0x157 PUSH2 0x909 JUMP JUMPDEST PUSH1 0x40 MLOAD PUSH2 0x164 SWAP2 SWAP1 PUSH2 0x1E91 JUMP JUMPDEST PUSH1 0x40 MLOAD DUP1 SWAP2 SUB SWAP1 RETURN JUMPDEST CALLVALUE DUP1 ISZERO PUSH2 0x178 JUMPI PUSH0 DUP1 REVERT JUMPDEST POP PUSH2 0x193 PUSH1 0x4 DUP1 CALLDATASIZE SUB DUP2 ADD SWAP1 PUSH2 0x18E SWAP2 SWAP1 PUSH2 0x1D9A JUMP JUMPDEST PUSH2 0x92C JUMP JUMPDEST STOP JUMPDEST PUSH2 0x1AF PUSH1 0x4 DUP1 CALLDATASIZE SUB DUP2 ADD SWAP1 PUSH2 0x1AA SWAP2 SWAP1 PUSH2 0x1ED4 JUMP JUMPDEST PUSH2 0xCA2 JUMP JUMPDEST STOP JUMPDEST CALLVALUE DUP1 ISZERO PUSH2 0x1BC JUMPI PUSH0 DUP1 REVERT JUMPDEST POP PUSH2 0x1D7 PUSH1 0x4 DUP1 CALLDATASIZE SUB DUP2 ADD SWAP1 PUSH2 0x1D2 SWAP2 SWAP1 PUSH2 0x1E27 JUMP JUMPDEST PUSH2 0xDA8 JUMP JUMPDEST PUSH1 0x40 MLOAD PUSH2 0x1EE SWAP12 SWAP11 SWAP10 SWAP9 SWAP8 SWAP7 SWAP6 SWAP5 SWAP4 SWAP3 SWAP2 SWAP1 PUSH2 0x1FAA JUMP JUMPDEST PUSH1 0x40 MLOAD DUP1 SWAP2 SUB SWAP1 RETURN JUMPDEST PUSH2 0x211 PUSH1 0x4 DUP1 CALLDATASIZE SUB DUP2 ADD SWAP1 PUSH2 0x20C SWAP2 SWAP1 PUSH2 0x209E JUMP JUMPDEST PUSH2 0xFF6 JUMP JUMPDEST STOP JUMPDEST PUSH2 0x22D PUSH1 0x4 DUP1 CALLDATASIZE SUB DUP2 ADD SWAP1 PUSH2 0x228 SWAP2 SWAP1 PUSH2 0x1D9A JUMP JUMPDEST PUSH2 0x125E JUMP JUMPDEST STOP JUMPDEST PUSH32 0x0 PUSH20 0xFFFFFFFFFFFFFFFFFFFFFFFFFFFFFFFFFFFFFFFF AND CALLER PUSH20 0xFFFFFFFFFFFFFFFFFFFFFFFFFFFFFFFFFFFFFFFF AND EQ PUSH2 0x2B4 JUMPI PUSH1 0x40 MLOAD PUSH32 0xC6829F8300000000000000000000000000000000000000000000000000000000 DUP2 MSTORE PUSH1 0x4 ADD PUSH1 0x40 MLOAD DUP1 SWAP2 SUB SWAP1 REVERT JUMPDEST PUSH2 0x2BF DUP4 DUP4 DUP4 PUSH2 0x148D JUMP JUMPDEST DUP3 PUSH32 0x85E1543BF2F84FE80C6BADBCE3648C8539AD1DF4D2B3D822938CA0538BE727E6 PUSH1 0x40 MLOAD PUSH1 0x40 MLOAD DUP1 SWAP2 SUB SWAP1 LOG2 POP POP POP JUMP JUMPDEST PUSH0 PUSH2 0x2FC DUP4 DUP4 PUSH2 0x1492 JUMP JUMPDEST SWAP1 POP CALLER PUSH20 0xFFFFFFFFFFFFFFFFFFFFFFFFFFFFFFFFFFFFFFFF AND PUSH1 0x4 DUP3 DUP2 SLOAD DUP2 LT PUSH2 0x329 JUMPI PUSH2 0x328 PUSH2 0x217B JUMP JUMPDEST JUMPDEST SWAP1 PUSH0 MSTORE PUSH1 0x20 PUSH0 KECCAK256 SWAP1 PUSH1 0xB MUL ADD PUSH1 0x2 ADD PUSH0 SWAP1 SLOAD SWAP1 PUSH2 0x100 EXP SWAP1 DIV PUSH20 0xFFFFFFFFFFFFFFFFFFFFFFFFFFFFFFFFFFFFFFFF AND PUSH20 0xFFFFFFFFFFFFFFFFFFFFFFFFFFFFFFFFFFFFFFFF AND EQ PUSH2 0x377 JUMPI PUSH0 DUP1 REVERT JUMPDEST PUSH0 PUSH1 0x2 PUSH1 0x4 DUP4 DUP2 SLOAD DUP2 LT PUSH2 0x38E JUMPI PUSH2 0x38D PUSH2 0x217B JUMP JUMPDEST JUMPDEST SWAP1 PUSH0 MSTORE PUSH1 0x20 PUSH0 KECCAK256 SWAP1 PUSH1 0xB MUL ADD PUSH1 0x6 ADD SLOAD PUSH2 0x3A8 SWAP2 SWAP1 PUSH2 0x21D5 JUMP JUMPDEST SWAP1 POP PUSH0 DUP1 PUSH1 0x4 DUP5 DUP2 SLOAD DUP2 LT PUSH2 0x3C0 JUMPI PUSH2 0x3BF PUSH2 0x217B JUMP JUMPDEST JUMPDEST SWAP1 PUSH0 MSTORE PUSH1 0x20 PUSH0 KECCAK256 SWAP1 PUSH1 0xB MUL ADD PUSH1 0x3 ADD PUSH0 SWAP1 SLOAD SWAP1 PUSH2 0x100 EXP SWAP1 DIV PUSH20 0xFFFFFFFFFFFFFFFFFFFFFFFFFFFFFFFFFFFFFFFF AND PUSH20 0xFFFFFFFFFFFFFFFFFFFFFFFFFFFFFFFFFFFFFFFF AND DUP4 PUSH1 0x40 MLOAD PUSH2 0x412 SWAP1 PUSH2 0x2243 JUMP JUMPDEST PUSH0 PUSH1 0x40 MLOAD DUP1 DUP4 SUB DUP2 DUP6 DUP8 GAS CALL SWAP3 POP POP POP RETURNDATASIZE DUP1 PUSH0 DUP2 EQ PUSH2 0x44C JUMPI PUSH1 0x40 MLOAD SWAP2 POP PUSH1 0x1F NOT PUSH1 0x3F RETURNDATASIZE ADD AND DUP3 ADD PUSH1 0x40 MSTORE RETURNDATASIZE DUP3 MSTORE RETURNDATASIZE PUSH0 PUSH1 0x20 DUP5 ADD RETURNDATACOPY PUSH2 0x451 JUMP JUMPDEST PUSH1 0x60 SWAP2 POP JUMPDEST POP SWAP2 POP SWAP2 POP DUP2 PUSH2 0x496 JUMPI PUSH1 0x40 MLOAD PUSH32 0x8C379A000000000000000000000000000000000000000000000000000000000 DUP2 MSTORE PUSH1 0x4 ADD PUSH2 0x48D SWAP1 PUSH2 0x22A1 JUMP JUMPDEST PUSH1 0x40 MLOAD DUP1 SWAP2 SUB SWAP1 REVERT JUMPDEST PUSH2 0x49F DUP5 PUSH2 0x4A7 JUMP JUMPDEST POP POP POP POP POP POP JUMP JUMPDEST PUSH1 0x4 DUP1 SLOAD SWAP1 POP DUP2 LT PUSH2 0x4B7 JUMPI PUSH0 DUP1 REVERT JUMPDEST PUSH0 DUP2 SWAP1 POP JUMPDEST PUSH1 0x1 PUSH1 0x4 DUP1 SLOAD SWAP1 POP PUSH2 0x4CE SWAP2 SWAP1 PUSH2 0x22BF JUMP JUMPDEST DUP2 LT ISZERO PUSH2 0x6BA JUMPI PUSH1 0x4 PUSH1 0x1 DUP3 PUSH2 0x4E4 SWAP2 SWAP1 PUSH2 0x22F2 JUMP JUMPDEST DUP2 SLOAD DUP2 LT PUSH2 0x4F5 JUMPI PUSH2 0x4F4 PUSH2 0x217B JUMP JUMPDEST JUMPDEST SWAP1 PUSH0 MSTORE PUSH1 0x20 PUSH0 KECCAK256 SWAP1 PUSH1 0xB MUL ADD PUSH1 0x4 DUP3 DUP2 SLOAD DUP2 LT PUSH2 0x515 JUMPI PUSH2 0x514 PUSH2 0x217B JUMP JUMPDEST JUMPDEST SWAP1 PUSH0 MSTORE PUSH1 0x20 PUSH0 KECCAK256 SWAP1 PUSH1 0xB MUL ADD PUSH0 DUP3 ADD PUSH0 SWAP1 SLOAD SWAP1 PUSH2 0x100 EXP SWAP1 DIV PUSH2 0xFFFF AND DUP2 PUSH0 ADD PUSH0 PUSH2 0x100 EXP DUP2 SLOAD DUP2 PUSH2 0xFFFF MUL NOT AND SWAP1 DUP4 PUSH2 0xFFFF AND MUL OR SWAP1 SSTORE POP PUSH1 0x1 DUP3 ADD DUP2 PUSH1 0x1 ADD SWAP1 DUP2 PUSH2 0x562 SWAP2 SWAP1 PUSH2 0x2534 JUMP JUMPDEST POP PUSH1 0x2 DUP3 ADD PUSH0 SWAP1 SLOAD SWAP1 PUSH2 0x100 EXP SWAP1 DIV PUSH20 0xFFFFFFFFFFFFFFFFFFFFFFFFFFFFFFFFFFFFFFFF AND DUP2 PUSH1 0x2 ADD PUSH0 PUSH2 0x100 EXP DUP2 SLOAD DUP2 PUSH20 0xFFFFFFFFFFFFFFFFFFFFFFFFFFFFFFFFFFFFFFFF MUL NOT AND SWAP1 DUP4 PUSH20 0xFFFFFFFFFFFFFFFFFFFFFFFFFFFFFFFFFFFFFFFF AND MUL OR SWAP1 SSTORE POP PUSH1 0x3 DUP3 ADD PUSH0 SWAP1 SLOAD SWAP1 PUSH2 0x100 EXP SWAP1 DIV PUSH20 0xFFFFFFFFFFFFFFFFFFFFFFFFFFFFFFFFFFFFFFFF AND DUP2 PUSH1 0x3 ADD PUSH0 PUSH2 0x100 EXP DUP2 SLOAD DUP2 PUSH20 0xFFFFFFFFFFFFFFFFFFFFFFFFFFFFFFFFFFFFFFFF MUL NOT AND SWAP1 DUP4 PUSH20 0xFFFFFFFFFFFFFFFFFFFFFFFFFFFFFFFFFFFFFFFF AND MUL OR SWAP1 SSTORE POP PUSH1 0x4 DUP3 ADD DUP2 PUSH1 0x4 ADD SWAP1 DUP2 PUSH2 0x641 SWAP2 SWAP1 PUSH2 0x2534 JUMP JUMPDEST POP PUSH1 0x5 DUP3 ADD DUP2 PUSH1 0x5 ADD SWAP1 DUP2 PUSH2 0x656 SWAP2 SWAP1 PUSH2 0x2534 JUMP JUMPDEST POP PUSH1 0x6 DUP3 ADD SLOAD DUP2 PUSH1 0x6 ADD SSTORE PUSH1 0x7 DUP3 ADD SLOAD DUP2 PUSH1 0x7 ADD SSTORE PUSH1 0x8 DUP3 ADD SLOAD DUP2 PUSH1 0x8 ADD SSTORE PUSH1 0x9 DUP3 ADD SLOAD DUP2 PUSH1 0x9 ADD SSTORE PUSH1 0xA DUP3 ADD PUSH0 SWAP1 SLOAD SWAP1 PUSH2 0x100 EXP SWAP1 DIV PUSH1 0xFF AND DUP2 PUSH1 0xA ADD PUSH0 PUSH2 0x100 EXP DUP2 SLOAD DUP2 PUSH1 0xFF MUL NOT AND SWAP1 DUP4 ISZERO ISZERO MUL OR SWAP1 SSTORE POP SWAP1 POP POP DUP1 DUP1 PUSH1 0x1 ADD SWAP2 POP POP PUSH2 0x4BC JUMP JUMPDEST POP PUSH1 0x4 DUP1 SLOAD DUP1 PUSH2 0x6CD JUMPI PUSH2 0x6CC PUSH2 0x2619 JUMP JUMPDEST JUMPDEST PUSH1 0x1 SWAP1 SUB DUP2 DUP2 SWAP1 PUSH0 MSTORE PUSH1 0x20 PUSH0 KECCAK256 SWAP1 PUSH1 0xB MUL ADD PUSH0 DUP1 DUP3 ADD PUSH0 PUSH2 0x100 EXP DUP2 SLOAD SWAP1 PUSH2 0xFFFF MUL NOT AND SWAP1 SSTORE PUSH1 0x1 DUP3 ADD PUSH0 PUSH2 0x702 SWAP2 SWAP1 PUSH2 0x19E1 JUMP JUMPDEST PUSH1 0x2 DUP3 ADD PUSH0 PUSH2 0x100 EXP DUP2 SLOAD SWAP1 PUSH20 0xFFFFFFFFFFFFFFFFFFFFFFFFFFFFFFFFFFFFFFFF MUL NOT AND SWAP1 SSTORE PUSH1 0x3 DUP3 ADD PUSH0 PUSH2 0x100 EXP DUP2 SLOAD SWAP1 PUSH20 0xFFFFFFFFFFFFFFFFFFFFFFFFFFFFFFFFFFFFFFFF MUL NOT AND SWAP1 SSTORE PUSH1 0x4 DUP3 ADD PUSH0 PUSH2 0x75D SWAP2 SWAP1 PUSH2 0x19E1 JUMP JUMPDEST PUSH1 0x5 DUP3 ADD PUSH0 PUSH2 0x76C SWAP2 SWAP1 PUSH2 0x19E1 JUMP JUMPDEST PUSH1 0x6 DUP3 ADD PUSH0 SWAP1 SSTORE PUSH1 0x7 DUP3 ADD PUSH0 SWAP1 SSTORE PUSH1 0x8 DUP3 ADD PUSH0 SWAP1 SSTORE PUSH1 0x9 DUP3 ADD PUSH0 SWAP1 SSTORE PUSH1 0xA DUP3 ADD PUSH0 PUSH2 0x100 EXP DUP2 SLOAD SWAP1 PUSH1 0xFF MUL NOT AND SWAP1 SSTORE POP POP SWAP1 SSTORE POP JUMP JUMPDEST PUSH0 PUSH2 0x7AD DUP4 DUP4 PUSH2 0x1492 JUMP JUMPDEST SWAP1 POP CALLER PUSH1 0x4 DUP3 DUP2 SLOAD DUP2 LT PUSH2 0x7C4 JUMPI PUSH2 0x7C3 PUSH2 0x217B JUMP JUMPDEST JUMPDEST SWAP1 PUSH0 MSTORE PUSH1 0x20 PUSH0 KECCAK256 SWAP1 PUSH1 0xB MUL ADD PUSH1 0x2 ADD PUSH0 PUSH2 0x100 EXP DUP2 SLOAD DUP2 PUSH20 0xFFFFFFFFFFFFFFFFFFFFFFFFFFFFFFFFFFFFFFFF MUL NOT AND SWAP1 DUP4 PUSH20 0xFFFFFFFFFFFFFFFFFFFFFFFFFFFFFFFFFFFFFFFF AND MUL OR SWAP1 SSTORE POP POP POP POP JUMP JUMPDEST PUSH0 PUSH2 0x820 DUP4 DUP4 PUSH2 0x1492 JUMP JUMPDEST SWAP1 POP CALLER PUSH20 0xFFFFFFFFFFFFFFFFFFFFFFFFFFFFFFFFFFFFFFFF AND PUSH1 0x4 DUP3 DUP2 SLOAD DUP2 LT PUSH2 0x84D JUMPI PUSH2 0x84C PUSH2 0x217B JUMP JUMPDEST JUMPDEST SWAP1 PUSH0 MSTORE PUSH1 0x20 PUSH0 KECCAK256 SWAP1 PUSH1 0xB MUL ADD PUSH1 0x2 ADD PUSH0 SWAP1 SLOAD SWAP1 PUSH2 0x100 EXP SWAP1 DIV PUSH20 0xFFFFFFFFFFFFFFFFFFFFFFFFFFFFFFFFFFFFFFFF AND PUSH20 0xFFFFFFFFFFFFFFFFFFFFFFFFFFFFFFFFFFFFFFFF AND EQ PUSH2 0x89B JUMPI PUSH0 DUP1 REVERT JUMPDEST CALLVALUE PUSH1 0x4 DUP3 DUP2 SLOAD DUP2 LT PUSH2 0x8B0 JUMPI PUSH2 0x8AF PUSH2 0x217B JUMP JUMPDEST JUMPDEST SWAP1 PUSH0 MSTORE PUSH1 0x20 PUSH0 KECCAK256 SWAP1 PUSH1 0xB MUL ADD PUSH1 0x7 ADD SLOAD EQ PUSH2 0x8C9 JUMPI PUSH0 DUP1 REVERT JUMPDEST PUSH1 0x1 PUSH1 0x4 DUP3 DUP2 SLOAD DUP2 LT PUSH2 0x8DF JUMPI PUSH2 0x8DE PUSH2 0x217B JUMP JUMPDEST JUMPDEST SWAP1 PUSH0 MSTORE PUSH1 0x20 PUSH0 KECCAK256 SWAP1 PUSH1 0xB MUL ADD PUSH1 0xA ADD PUSH0 PUSH2 0x100 EXP DUP2 SLOAD DUP2 PUSH1 0xFF MUL NOT AND SWAP1 DUP4 ISZERO ISZERO MUL OR SWAP1 SSTORE POP POP POP POP JUMP JUMPDEST PUSH0 DUP1 SLOAD SWAP1 PUSH2 0x100 EXP SWAP1 DIV PUSH20 0xFFFFFFFFFFFFFFFFFFFFFFFFFFFFFFFFFFFFFFFF AND DUP2 JUMP JUMPDEST PUSH0 PUSH2 0x937 DUP4 DUP4 PUSH2 0x1492 JUMP JUMPDEST SWAP1 POP PUSH0 PUSH20 0xFFFFFFFFFFFFFFFFFFFFFFFFFFFFFFFFFFFFFFFF AND PUSH1 0x4 DUP3 DUP2 SLOAD DUP2 LT PUSH2 0x964 JUMPI PUSH2 0x963 PUSH2 0x217B JUMP JUMPDEST JUMPDEST SWAP1 PUSH0 MSTORE PUSH1 0x20 PUSH0 KECCAK256 SWAP1 PUSH1 0xB MUL ADD PUSH1 0x2 ADD PUSH0 SWAP1 SLOAD SWAP1 PUSH2 0x100 EXP SWAP1 DIV PUSH20 0xFFFFFFFFFFFFFFFFFFFFFFFFFFFFFFFFFFFFFFFF AND PUSH20 0xFFFFFFFFFFFFFFFFFFFFFFFFFFFFFFFFFFFFFFFF AND EQ ISZERO DUP1 ISZERO PUSH2 0x9E7 JUMPI POP TIMESTAMP PUSH3 0x15180 PUSH1 0x4 DUP4 DUP2 SLOAD DUP2 LT PUSH2 0x9CB JUMPI PUSH2 0x9CA PUSH2 0x217B JUMP JUMPDEST JUMPDEST SWAP1 PUSH0 MSTORE PUSH1 0x20 PUSH0 KECCAK256 SWAP1 PUSH1 0xB MUL ADD PUSH1 0x8 ADD SLOAD PUSH2 0x9E5 SWAP2 SWAP1 PUSH2 0x22F2 JUMP JUMPDEST LT JUMPDEST ISZERO PUSH2 0xB0C JUMPI PUSH0 DUP1 PUSH1 0x4 DUP4 DUP2 SLOAD DUP2 LT PUSH2 0xA02 JUMPI PUSH2 0xA01 PUSH2 0x217B JUMP JUMPDEST JUMPDEST SWAP1 PUSH0 MSTORE PUSH1 0x20 PUSH0 KECCAK256 SWAP1 PUSH1 0xB MUL ADD PUSH1 0x2 ADD PUSH0 SWAP1 SLOAD SWAP1 PUSH2 0x100 EXP SWAP1 DIV PUSH20 0xFFFFFFFFFFFFFFFFFFFFFFFFFFFFFFFFFFFFFFFF AND PUSH20 0xFFFFFFFFFFFFFFFFFFFFFFFFFFFFFFFFFFFFFFFF AND PUSH1 0x4 DUP5 DUP2 SLOAD DUP2 LT PUSH2 0xA5B JUMPI PUSH2 0xA5A PUSH2 0x217B JUMP JUMPDEST JUMPDEST SWAP1 PUSH0 MSTORE PUSH1 0x20 PUSH0 KECCAK256 SWAP1 PUSH1 0xB MUL ADD PUSH1 0x6 ADD SLOAD PUSH1 0x40 MLOAD PUSH2 0xA77 SWAP1 PUSH2 0x2243 JUMP JUMPDEST PUSH0 PUSH1 0x40 MLOAD DUP1 DUP4 SUB DUP2 DUP6 DUP8 GAS CALL SWAP3 POP POP POP RETURNDATASIZE DUP1 PUSH0 DUP2 EQ PUSH2 0xAB1 JUMPI PUSH1 0x40 MLOAD SWAP2 POP PUSH1 0x1F NOT PUSH1 0x3F RETURNDATASIZE ADD AND DUP3 ADD PUSH1 0x40 MSTORE RETURNDATASIZE DUP3 MSTORE RETURNDATASIZE PUSH0 PUSH1 0x20 DUP5 ADD RETURNDATACOPY PUSH2 0xAB6 JUMP JUMPDEST PUSH1 0x60 SWAP2 POP JUMPDEST POP SWAP2 POP SWAP2 POP DUP2 PUSH2 0xAFB JUMPI PUSH1 0x40 MLOAD PUSH32 0x8C379A000000000000000000000000000000000000000000000000000000000 DUP2 MSTORE PUSH1 0x4 ADD PUSH2 0xAF2 SWAP1 PUSH2 0x22A1 JUMP JUMPDEST PUSH1 0x40 MLOAD DUP1 SWAP2 SUB SWAP1 REVERT JUMPDEST PUSH2 0xB04 DUP4 PUSH2 0x4A7 JUMP JUMPDEST POP POP POP PUSH2 0xC9E JUMP JUMPDEST TIMESTAMP PUSH1 0x4 DUP3 DUP2 SLOAD DUP2 LT PUSH2 0xB21 JUMPI PUSH2 0xB20 PUSH2 0x217B JUMP JUMPDEST JUMPDEST SWAP1 PUSH0 MSTORE PUSH1 0x20 PUSH0 KECCAK256 SWAP1 PUSH1 0xB MUL ADD PUSH1 0x9 ADD SLOAD LT DUP1 ISZERO PUSH2 0xB6B JUMPI POP PUSH1 0x4 DUP2 DUP2 SLOAD DUP2 LT PUSH2 0xB4D JUMPI PUSH2 0xB4C PUSH2 0x217B JUMP JUMPDEST JUMPDEST SWAP1 PUSH0 MSTORE PUSH1 0x20 PUSH0 KECCAK256 SWAP1 PUSH1 0xB MUL ADD PUSH1 0xA ADD PUSH0 SWAP1 SLOAD SWAP1 PUSH2 0x100 EXP SWAP1 DIV PUSH1 0xFF AND ISZERO JUMPDEST ISZERO PUSH2 0xC9C JUMPI PUSH0 PUSH1 0x2 PUSH1 0x4 DUP4 DUP2 SLOAD DUP2 LT PUSH2 0xB87 JUMPI PUSH2 0xB86 PUSH2 0x217B JUMP JUMPDEST JUMPDEST SWAP1 PUSH0 MSTORE PUSH1 0x20 PUSH0 KECCAK256 SWAP1 PUSH1 0xB MUL ADD PUSH1 0x6 ADD SLOAD PUSH2 0xBA1 SWAP2 SWAP1 PUSH2 0x21D5 JUMP JUMPDEST SWAP1 POP PUSH0 DUP1 PUSH1 0x4 DUP5 DUP2 SLOAD DUP2 LT PUSH2 0xBB9 JUMPI PUSH2 0xBB8 PUSH2 0x217B JUMP JUMPDEST JUMPDEST SWAP1 PUSH0 MSTORE PUSH1 0x20 PUSH0 KECCAK256 SWAP1 PUSH1 0xB MUL ADD PUSH1 0x3 ADD PUSH0 SWAP1 SLOAD SWAP1 PUSH2 0x100 EXP SWAP1 DIV PUSH20 0xFFFFFFFFFFFFFFFFFFFFFFFFFFFFFFFFFFFFFFFF AND PUSH20 0xFFFFFFFFFFFFFFFFFFFFFFFFFFFFFFFFFFFFFFFF AND DUP4 PUSH1 0x40 MLOAD PUSH2 0xC0B SWAP1 PUSH2 0x2243 JUMP JUMPDEST PUSH0 PUSH1 0x40 MLOAD DUP1 DUP4 SUB DUP2 DUP6 DUP8 GAS CALL SWAP3 POP POP POP RETURNDATASIZE DUP1 PUSH0 DUP2 EQ PUSH2 0xC45 JUMPI PUSH1 0x40 MLOAD SWAP2 POP PUSH1 0x1F NOT PUSH1 0x3F RETURNDATASIZE ADD AND DUP3 ADD PUSH1 0x40 MSTORE RETURNDATASIZE DUP3 MSTORE RETURNDATASIZE PUSH0 PUSH1 0x20 DUP5 ADD RETURNDATACOPY PUSH2 0xC4A JUMP JUMPDEST PUSH1 0x60 SWAP2 POP JUMPDEST POP SWAP2 POP SWAP2 POP DUP2 PUSH2 0xC8F JUMPI PUSH1 0x40 MLOAD PUSH32 0x8C379A000000000000000000000000000000000000000000000000000000000 DUP2 MSTORE PUSH1 0x4 ADD PUSH2 0xC86 SWAP1 PUSH2 0x22A1 JUMP JUMPDEST PUSH1 0x40 MLOAD DUP1 SWAP2 SUB SWAP1 REVERT JUMPDEST PUSH2 0xC98 DUP5 PUSH2 0x4A7 JUMP JUMPDEST POP POP POP JUMPDEST POP JUMPDEST POP POP JUMP JUMPDEST PUSH0 DUP1 SLOAD SWAP1 PUSH2 0x100 EXP SWAP1 DIV PUSH20 0xFFFFFFFFFFFFFFFFFFFFFFFFFFFFFFFFFFFFFFFF AND PUSH20 0xFFFFFFFFFFFFFFFFFFFFFFFFFFFFFFFFFFFFFFFF AND CALLER PUSH20 0xFFFFFFFFFFFFFFFFFFFFFFFFFFFFFFFFFFFFFFFF AND EQ PUSH2 0xCF8 JUMPI PUSH0 DUP1 REVERT JUMPDEST PUSH0 DUP1 DUP4 PUSH20 0xFFFFFFFFFFFFFFFFFFFFFFFFFFFFFFFFFFFFFFFF AND DUP4 PUSH1 0x40 MLOAD PUSH2 0xD1E SWAP1 PUSH2 0x2243 JUMP JUMPDEST PUSH0 PUSH1 0x40 MLOAD DUP1 DUP4 SUB DUP2 DUP6 DUP8 GAS CALL SWAP3 POP POP POP RETURNDATASIZE DUP1 PUSH0 DUP2 EQ PUSH2 0xD58 JUMPI PUSH1 0x40 MLOAD SWAP2 POP PUSH1 0x1F NOT PUSH1 0x3F RETURNDATASIZE ADD AND DUP3 ADD PUSH1 0x40 MSTORE RETURNDATASIZE DUP3 MSTORE RETURNDATASIZE PUSH0 PUSH1 0x20 DUP5 ADD RETURNDATACOPY PUSH2 0xD5D JUMP JUMPDEST PUSH1 0x60 SWAP2 POP JUMPDEST POP SWAP2 POP SWAP2 POP DUP2 PUSH2 0xDA2 JUMPI PUSH1 0x40 MLOAD PUSH32 0x8C379A000000000000000000000000000000000000000000000000000000000 DUP2 MSTORE PUSH1 0x4 ADD PUSH2 0xD99 SWAP1 PUSH2 0x22A1 JUMP JUMPDEST PUSH1 0x40 MLOAD DUP1 SWAP2 SUB SWAP1 REVERT JUMPDEST POP POP POP POP JUMP JUMPDEST PUSH1 0x4 DUP2 DUP2 SLOAD DUP2 LT PUSH2 0xDB7 JUMPI PUSH0 DUP1 REVERT JUMPDEST SWAP1 PUSH0 MSTORE PUSH1 0x20 PUSH0 KECCAK256 SWAP1 PUSH1 0xB MUL ADD PUSH0 SWAP2 POP SWAP1 POP DUP1 PUSH0 ADD PUSH0 SWAP1 SLOAD SWAP1 PUSH2 0x100 EXP SWAP1 DIV PUSH2 0xFFFF AND SWAP1 DUP1 PUSH1 0x1 ADD DUP1 SLOAD PUSH2 0xDE9 SWAP1 PUSH2 0x2352 JUMP JUMPDEST DUP1 PUSH1 0x1F ADD PUSH1 0x20 DUP1 SWAP2 DIV MUL PUSH1 0x20 ADD PUSH1 0x40 MLOAD SWAP1 DUP2 ADD PUSH1 0x40 MSTORE DUP1 SWAP3 SWAP2 SWAP1 DUP2 DUP2 MSTORE PUSH1 0x20 ADD DUP3 DUP1 SLOAD PUSH2 0xE15 SWAP1 PUSH2 0x2352 JUMP JUMPDEST DUP1 ISZERO PUSH2 0xE60 JUMPI DUP1 PUSH1 0x1F LT PUSH2 0xE37 JUMPI PUSH2 0x100 DUP1 DUP4 SLOAD DIV MUL DUP4 MSTORE SWAP2 PUSH1 0x20 ADD SWAP2 PUSH2 0xE60 JUMP JUMPDEST DUP3 ADD SWAP2 SWAP1 PUSH0 MSTORE PUSH1 0x20 PUSH0 KECCAK256 SWAP1 JUMPDEST DUP2 SLOAD DUP2 MSTORE SWAP1 PUSH1 0x1 ADD SWAP1 PUSH1 0x20 ADD DUP1 DUP4 GT PUSH2 0xE43 JUMPI DUP3 SWAP1 SUB PUSH1 0x1F AND DUP3 ADD SWAP2 JUMPDEST POP POP POP POP POP SWAP1 DUP1 PUSH1 0x2 ADD PUSH0 SWAP1 SLOAD SWAP1 PUSH2 0x100 EXP SWAP1 DIV PUSH20 0xFFFFFFFFFFFFFFFFFFFFFFFFFFFFFFFFFFFFFFFF AND SWAP1 DUP1 PUSH1 0x3 ADD PUSH0 SWAP1 SLOAD SWAP1 PUSH2 0x100 EXP SWAP1 DIV PUSH20 0xFFFFFFFFFFFFFFFFFFFFFFFFFFFFFFFFFFFFFFFF AND SWAP1 DUP1 PUSH1 0x4 ADD DUP1 SLOAD PUSH2 0xEBF SWAP1 PUSH2 0x2352 JUMP JUMPDEST DUP1 PUSH1 0x1F ADD PUSH1 0x20 DUP1 SWAP2 DIV MUL PUSH1 0x20 ADD PUSH1 0x40 MLOAD SWAP1 DUP2 ADD PUSH1 0x40 MSTORE DUP1 SWAP3 SWAP2 SWAP1 DUP2 DUP2 MSTORE PUSH1 0x20 ADD DUP3 DUP1 SLOAD PUSH2 0xEEB SWAP1 PUSH2 0x2352 JUMP JUMPDEST DUP1 ISZERO PUSH2 0xF36 JUMPI DUP1 PUSH1 0x1F LT PUSH2 0xF0D JUMPI PUSH2 0x100 DUP1 DUP4 SLOAD DIV MUL DUP4 MSTORE SWAP2 PUSH1 0x20 ADD SWAP2 PUSH2 0xF36 JUMP JUMPDEST DUP3 ADD SWAP2 SWAP1 PUSH0 MSTORE PUSH1 0x20 PUSH0 KECCAK256 SWAP1 JUMPDEST DUP2 SLOAD DUP2 MSTORE SWAP1 PUSH1 0x1 ADD SWAP1 PUSH1 0x20 ADD DUP1 DUP4 GT PUSH2 0xF19 JUMPI DUP3 SWAP1 SUB PUSH1 0x1F AND DUP3 ADD SWAP2 JUMPDEST POP POP POP POP POP SWAP1 DUP1 PUSH1 0x5 ADD DUP1 SLOAD PUSH2 0xF4B SWAP1 PUSH2 0x2352 JUMP JUMPDEST DUP1 PUSH1 0x1F ADD PUSH1 0x20 DUP1 SWAP2 DIV MUL PUSH1 0x20 ADD PUSH1 0x40 MLOAD SWAP1 DUP2 ADD PUSH1 0x40 MSTORE DUP1 SWAP3 SWAP2 SWAP1 DUP2 DUP2 MSTORE PUSH1 0x20 ADD DUP3 DUP1 SLOAD PUSH2 0xF77 SWAP1 PUSH2 0x2352 JUMP JUMPDEST DUP1 ISZERO PUSH2 0xFC2 JUMPI DUP1 PUSH1 0x1F LT PUSH2 0xF99 JUMPI PUSH2 0x100 DUP1 DUP4 SLOAD DIV MUL DUP4 MSTORE SWAP2 PUSH1 0x20 ADD SWAP2 PUSH2 0xFC2 JUMP JUMPDEST DUP3 ADD SWAP2 SWAP1 PUSH0 MSTORE PUSH1 0x20 PUSH0 KECCAK256 SWAP1 JUMPDEST DUP2 SLOAD DUP2 MSTORE SWAP1 PUSH1 0x1 ADD SWAP1 PUSH1 0x20 ADD DUP1 DUP4 GT PUSH2 0xFA5 JUMPI DUP3 SWAP1 SUB PUSH1 0x1F AND DUP3 ADD SWAP2 JUMPDEST POP POP POP POP POP SWAP1 DUP1 PUSH1 0x6 ADD SLOAD SWAP1 DUP1 PUSH1 0x7 ADD SLOAD SWAP1 DUP1 PUSH1 0x8 ADD SLOAD SWAP1 DUP1 PUSH1 0x9 ADD SLOAD SWAP1 DUP1 PUSH1 0xA ADD PUSH0 SWAP1 SLOAD SWAP1 PUSH2 0x100 EXP SWAP1 DIV PUSH1 0xFF AND SWAP1 POP DUP12 JUMP JUMPDEST PUSH2 0xFFF DUP5 PUSH2 0x155A JUMP JUMPDEST PUSH2 0x1007 JUMPI PUSH0 DUP1 REVERT JUMPDEST PUSH2 0x1010 DUP4 PUSH2 0x155A JUMP JUMPDEST PUSH2 0x1018 JUMPI PUSH0 DUP1 REVERT JUMPDEST PUSH2 0x1020 PUSH2 0x1A1E JUMP JUMPDEST DUP7 DUP2 PUSH0 ADD SWAP1 PUSH2 0xFFFF AND SWAP1 DUP2 PUSH2 0xFFFF AND DUP2 MSTORE POP POP DUP6 DUP2 PUSH1 0x20 ADD DUP2 SWAP1 MSTORE POP CALLER DUP2 PUSH1 0x60 ADD SWAP1 PUSH20 0xFFFFFFFFFFFFFFFFFFFFFFFFFFFFFFFFFFFFFFFF AND SWAP1 DUP2 PUSH20 0xFFFFFFFFFFFFFFFFFFFFFFFFFFFFFFFFFFFFFFFF AND DUP2 MSTORE POP POP DUP5 DUP2 PUSH1 0x80 ADD DUP2 SWAP1 MSTORE POP DUP4 DUP2 PUSH1 0xA0 ADD DUP2 SWAP1 MSTORE POP CALLVALUE DUP2 PUSH1 0xC0 ADD DUP2 DUP2 MSTORE POP POP DUP3 DUP2 PUSH1 0xE0 ADD DUP2 DUP2 MSTORE POP POP PUSH0 DUP2 PUSH2 0x140 ADD SWAP1 ISZERO ISZERO SWAP1 DUP2 ISZERO ISZERO DUP2 MSTORE POP POP PUSH1 0x3C DUP1 PUSH1 0x18 DUP5 PUSH2 0x10BB SWAP2 SWAP1 PUSH2 0x2646 JUMP JUMPDEST PUSH2 0x10C5 SWAP2 SWAP1 PUSH2 0x2646 JUMP JUMPDEST PUSH2 0x10CF SWAP2 SWAP1 PUSH2 0x2646 JUMP JUMPDEST PUSH1 0xFF AND TIMESTAMP PUSH2 0x10DD SWAP2 SWAP1 PUSH2 0x22F2 JUMP JUMPDEST DUP2 PUSH2 0x120 ADD DUP2 DUP2 MSTORE POP POP TIMESTAMP DUP2 PUSH2 0x100 ADD DUP2 DUP2 MSTORE POP POP PUSH1 0x4 DUP2 SWAP1 DUP1 PUSH1 0x1 DUP2 SLOAD ADD DUP1 DUP3 SSTORE DUP1 SWAP2 POP POP PUSH1 0x1 SWAP1 SUB SWAP1 PUSH0 MSTORE PUSH1 0x20 PUSH0 KECCAK256 SWAP1 PUSH1 0xB MUL ADD PUSH0 SWAP1 SWAP2 SWAP1 SWAP2 SWAP1 SWAP2 POP PUSH0 DUP3 ADD MLOAD DUP2 PUSH0 ADD PUSH0 PUSH2 0x100 EXP DUP2 SLOAD DUP2 PUSH2 0xFFFF MUL NOT AND SWAP1 DUP4 PUSH2 0xFFFF AND MUL OR SWAP1 SSTORE POP PUSH1 0x20 DUP3 ADD MLOAD DUP2 PUSH1 0x1 ADD SWAP1 DUP2 PUSH2 0x1150 SWAP2 SWAP1 PUSH2 0x2682 JUMP JUMPDEST POP PUSH1 0x40 DUP3 ADD MLOAD DUP2 PUSH1 0x2 ADD PUSH0 PUSH2 0x100 EXP DUP2 SLOAD DUP2 PUSH20 0xFFFFFFFFFFFFFFFFFFFFFFFFFFFFFFFFFFFFFFFF MUL NOT AND SWAP1 DUP4 PUSH20 0xFFFFFFFFFFFFFFFFFFFFFFFFFFFFFFFFFFFFFFFF AND MUL OR SWAP1 SSTORE POP PUSH1 0x60 DUP3 ADD MLOAD DUP2 PUSH1 0x3 ADD PUSH0 PUSH2 0x100 EXP DUP2 SLOAD DUP2 PUSH20 0xFFFFFFFFFFFFFFFFFFFFFFFFFFFFFFFFFFFFFFFF MUL NOT AND SWAP1 DUP4 PUSH20 0xFFFFFFFFFFFFFFFFFFFFFFFFFFFFFFFFFFFFFFFF AND MUL OR SWAP1 SSTORE POP PUSH1 0x80 DUP3 ADD MLOAD DUP2 PUSH1 0x4 ADD SWAP1 DUP2 PUSH2 0x11F2 SWAP2 SWAP1 PUSH2 0x2682 JUMP JUMPDEST POP PUSH1 0xA0 DUP3 ADD MLOAD DUP2 PUSH1 0x5 ADD SWAP1 DUP2 PUSH2 0x1208 SWAP2 SWAP1 PUSH2 0x2682 JUMP JUMPDEST POP PUSH1 0xC0 DUP3 ADD MLOAD DUP2 PUSH1 0x6 ADD SSTORE PUSH1 0xE0 DUP3 ADD MLOAD DUP2 PUSH1 0x7 ADD SSTORE PUSH2 0x100 DUP3 ADD MLOAD DUP2 PUSH1 0x8 ADD SSTORE PUSH2 0x120 DUP3 ADD MLOAD DUP2 PUSH1 0x9 ADD SSTORE PUSH2 0x140 DUP3 ADD MLOAD DUP2 PUSH1 0xA ADD PUSH0 PUSH2 0x100 EXP DUP2 SLOAD DUP2 PUSH1 0xFF MUL NOT AND SWAP1 DUP4 ISZERO ISZERO MUL OR SWAP1 SSTORE POP POP POP POP POP POP POP POP POP POP JUMP JUMPDEST PUSH0 PUSH2 0x1269 DUP4 DUP4 PUSH2 0x1492 JUMP JUMPDEST SWAP1 POP CALLER PUSH20 0xFFFFFFFFFFFFFFFFFFFFFFFFFFFFFFFFFFFFFFFF AND PUSH1 0x4 DUP3 DUP2 SLOAD DUP2 LT PUSH2 0x1296 JUMPI PUSH2 0x1295 PUSH2 0x217B JUMP JUMPDEST JUMPDEST SWAP1 PUSH0 MSTORE PUSH1 0x20 PUSH0 KECCAK256 SWAP1 PUSH1 0xB MUL ADD PUSH1 0x3 ADD PUSH0 SWAP1 SLOAD SWAP1 PUSH2 0x100 EXP SWAP1 DIV PUSH20 0xFFFFFFFFFFFFFFFFFFFFFFFFFFFFFFFFFFFFFFFF AND PUSH20 0xFFFFFFFFFFFFFFFFFFFFFFFFFFFFFFFFFFFFFFFF AND EQ PUSH2 0x12E4 JUMPI PUSH0 DUP1 REVERT JUMPDEST PUSH0 PUSH20 0xFFFFFFFFFFFFFFFFFFFFFFFFFFFFFFFFFFFFFFFF AND PUSH1 0x4 DUP3 DUP2 SLOAD DUP2 LT PUSH2 0x130F JUMPI PUSH2 0x130E PUSH2 0x217B JUMP JUMPDEST JUMPDEST SWAP1 PUSH0 MSTORE PUSH1 0x20 PUSH0 KECCAK256 SWAP1 PUSH1 0xB MUL ADD PUSH1 0x2 ADD PUSH0 SWAP1 SLOAD SWAP1 PUSH2 0x100 EXP SWAP1 DIV PUSH20 0xFFFFFFFFFFFFFFFFFFFFFFFFFFFFFFFFFFFFFFFF AND PUSH20 0xFFFFFFFFFFFFFFFFFFFFFFFFFFFFFFFFFFFFFFFF AND SUB PUSH2 0x135D JUMPI PUSH0 DUP1 REVERT JUMPDEST PUSH0 PUSH1 0x2 PUSH1 0x4 DUP4 DUP2 SLOAD DUP2 LT PUSH2 0x1374 JUMPI PUSH2 0x1373 PUSH2 0x217B JUMP JUMPDEST JUMPDEST SWAP1 PUSH0 MSTORE PUSH1 0x20 PUSH0 KECCAK256 SWAP1 PUSH1 0xB MUL ADD PUSH1 0x6 ADD SLOAD PUSH2 0x138E SWAP2 SWAP1 PUSH2 0x21D5 JUMP JUMPDEST SWAP1 POP PUSH0 DUP1 PUSH1 0x4 DUP5 DUP2 SLOAD DUP2 LT PUSH2 0x13A6 JUMPI PUSH2 0x13A5 PUSH2 0x217B JUMP JUMPDEST JUMPDEST SWAP1 PUSH0 MSTORE PUSH1 0x20 PUSH0 KECCAK256 SWAP1 PUSH1 0xB MUL ADD PUSH1 0x2 ADD PUSH0 SWAP1 SLOAD SWAP1 PUSH2 0x100 EXP SWAP1 DIV PUSH20 0xFFFFFFFFFFFFFFFFFFFFFFFFFFFFFFFFFFFFFFFF AND PUSH20 0xFFFFFFFFFFFFFFFFFFFFFFFFFFFFFFFFFFFFFFFF AND DUP4 PUSH1 0x40 MLOAD PUSH2 0x13F8 SWAP1 PUSH2 0x2243 JUMP JUMPDEST PUSH0 PUSH1 0x40 MLOAD DUP1 DUP4 SUB DUP2 DUP6 DUP8 GAS CALL SWAP3 POP POP POP RETURNDATASIZE DUP1 PUSH0 DUP2 EQ PUSH2 0x1432 JUMPI PUSH1 0x40 MLOAD SWAP2 POP PUSH1 0x1F NOT PUSH1 0x3F RETURNDATASIZE ADD AND DUP3 ADD PUSH1 0x40 MSTORE RETURNDATASIZE DUP3 MSTORE RETURNDATASIZE PUSH0 PUSH1 0x20 DUP5 ADD RETURNDATACOPY PUSH2 0x1437 JUMP JUMPDEST PUSH1 0x60 SWAP2 POP JUMPDEST POP SWAP2 POP SWAP2 POP DUP2 PUSH2 0x147C JUMPI PUSH1 0x40 MLOAD PUSH32 0x8C379A000000000000000000000000000000000000000000000000000000000 DUP2 MSTORE PUSH1 0x4 ADD PUSH2 0x1473 SWAP1 PUSH2 0x22A1 JUMP JUMPDEST PUSH1 0x40 MLOAD DUP1 SWAP2 SUB SWAP1 REVERT JUMPDEST PUSH2 0x1485 DUP5 PUSH2 0x4A7 JUMP JUMPDEST POP POP POP POP POP POP JUMP JUMPDEST POP POP POP JUMP JUMPDEST PUSH0 DUP1 PUSH0 SWAP1 POP PUSH0 JUMPDEST PUSH1 0x4 DUP1 SLOAD SWAP1 POP DUP2 LT ISZERO PUSH2 0x1545 JUMPI DUP5 PUSH2 0xFFFF AND PUSH1 0x4 DUP3 DUP2 SLOAD DUP2 LT PUSH2 0x14BF JUMPI PUSH2 0x14BE PUSH2 0x217B JUMP JUMPDEST JUMPDEST SWAP1 PUSH0 MSTORE PUSH1 0x20 PUSH0 KECCAK256 SWAP1 PUSH1 0xB MUL ADD PUSH0 ADD PUSH0 SWAP1 SLOAD SWAP1 PUSH2 0x100 EXP SWAP1 DIV PUSH2 0xFFFF AND PUSH2 0xFFFF AND EQ DUP1 ISZERO PUSH2 0x1529 JUMPI POP DUP4 DUP1 MLOAD SWAP1 PUSH1 0x20 ADD KECCAK256 PUSH1 0x4 DUP3 DUP2 SLOAD DUP2 LT PUSH2 0x1503 JUMPI PUSH2 0x1502 PUSH2 0x217B JUMP JUMPDEST JUMPDEST SWAP1 PUSH0 MSTORE PUSH1 0x20 PUSH0 KECCAK256 SWAP1 PUSH1 0xB MUL ADD PUSH1 0x1 ADD PUSH1 0x40 MLOAD PUSH2 0x151F SWAP2 SWAP1 PUSH2 0x27E3 JUMP JUMPDEST PUSH1 0x40 MLOAD DUP1 SWAP2 SUB SWAP1 KECCAK256 EQ JUMPDEST ISZERO PUSH2 0x1538 JUMPI DUP1 SWAP3 POP POP POP PUSH2 0x1554 JUMP JUMPDEST DUP1 DUP1 PUSH1 0x1 ADD SWAP2 POP POP PUSH2 0x1499 JUMP JUMPDEST POP DUP1 PUSH2 0x154F JUMPI PUSH0 DUP1 REVERT JUMPDEST PUSH0 SWAP2 POP POP JUMPDEST SWAP3 SWAP2 POP POP JUMP JUMPDEST PUSH0 DUP1 DUP3 SWAP1 POP PUSH1 0xB DUP2 MLOAD EQ PUSH2 0x1571 JUMPI PUSH0 SWAP2 POP POP PUSH2 0x17C1 JUMP JUMPDEST PUSH0 JUMPDEST PUSH1 0xA DUP2 PUSH1 0xFF AND LT ISZERO PUSH2 0x15F5 JUMPI PUSH0 PUSH2 0x158C DUP3 PUSH1 0xFF AND PUSH2 0x17C6 JUMP JUMPDEST SWAP1 POP PUSH0 DUP2 DUP3 DUP4 DUP5 DUP6 DUP7 DUP8 DUP9 DUP10 DUP11 DUP12 PUSH1 0x40 MLOAD PUSH1 0x20 ADD PUSH2 0x15B4 SWAP12 SWAP11 SWAP10 SWAP9 SWAP8 SWAP7 SWAP6 SWAP5 SWAP4 SWAP3 SWAP2 SWAP1 PUSH2 0x2833 JUMP JUMPDEST PUSH1 0x40 MLOAD PUSH1 0x20 DUP2 DUP4 SUB SUB DUP2 MSTORE SWAP1 PUSH1 0x40 MSTORE SWAP1 POP DUP1 DUP1 MLOAD SWAP1 PUSH1 0x20 ADD KECCAK256 DUP5 DUP1 MLOAD SWAP1 PUSH1 0x20 ADD KECCAK256 SUB PUSH2 0x15E6 JUMPI PUSH0 SWAP5 POP POP POP POP POP PUSH2 0x17C1 JUMP JUMPDEST POP POP DUP1 DUP1 PUSH1 0x1 ADD SWAP2 POP POP PUSH2 0x1573 JUMP JUMPDEST POP PUSH0 DUP1 PUSH1 0xA SWAP1 POP PUSH0 JUMPDEST PUSH1 0x9 DUP2 PUSH1 0xFF AND LT ISZERO PUSH2 0x166E JUMPI DUP2 DUP1 PUSH2 0x1615 SWAP1 PUSH2 0x28CB JUMP JUMPDEST SWAP3 POP PUSH1 0x30 DUP6 DUP4 PUSH1 0xFF AND DUP2 MLOAD DUP2 LT PUSH2 0x162F JUMPI PUSH2 0x162E PUSH2 0x217B JUMP JUMPDEST JUMPDEST PUSH1 0x20 ADD ADD MLOAD PUSH1 0xF8 SHR PUSH1 0xF8 SHL PUSH1 0xF8 SHR PUSH2 0x1647 SWAP2 SWAP1 PUSH2 0x28F2 JUMP JUMPDEST PUSH2 0x1651 SWAP2 SWAP1 PUSH2 0x2646 JUMP JUMPDEST PUSH1 0xFF AND DUP4 PUSH2 0x165F SWAP2 SWAP1 PUSH2 0x22F2 JUMP JUMPDEST SWAP3 POP DUP1 DUP1 PUSH1 0x1 ADD SWAP2 POP POP PUSH2 0x15FE JUMP JUMPDEST POP PUSH0 PUSH1 0xB DUP4 PUSH2 0x167D SWAP2 SWAP1 PUSH2 0x2953 JUMP JUMPDEST SWAP1 POP PUSH1 0x2 DUP2 LT PUSH2 0x1699 JUMPI DUP1 PUSH1 0xB PUSH2 0x1694 SWAP2 SWAP1 PUSH2 0x22BF JUMP JUMPDEST PUSH2 0x169B JUMP JUMPDEST PUSH0 JUMPDEST SWAP1 POP DUP1 PUSH1 0x30 DUP6 PUSH1 0x9 DUP2 MLOAD DUP2 LT PUSH2 0x16B4 JUMPI PUSH2 0x16B3 PUSH2 0x217B JUMP JUMPDEST JUMPDEST PUSH1 0x20 ADD ADD MLOAD PUSH1 0xF8 SHR PUSH1 0xF8 SHL PUSH1 0xF8 SHR PUSH2 0x16CC SWAP2 SWAP1 PUSH2 0x28F2 JUMP JUMPDEST PUSH1 0xFF AND EQ PUSH2 0x16E0 JUMPI PUSH0 SWAP5 POP POP POP POP POP PUSH2 0x17C1 JUMP JUMPDEST PUSH0 SWAP3 POP PUSH1 0xB SWAP2 POP PUSH0 JUMPDEST PUSH1 0xA DUP2 PUSH1 0xFF AND LT ISZERO PUSH2 0x1759 JUMPI DUP3 DUP1 PUSH2 0x1700 SWAP1 PUSH2 0x28CB JUMP JUMPDEST SWAP4 POP PUSH1 0x30 DUP7 DUP4 PUSH1 0xFF AND DUP2 MLOAD DUP2 LT PUSH2 0x171A JUMPI PUSH2 0x1719 PUSH2 0x217B JUMP JUMPDEST JUMPDEST PUSH1 0x20 ADD ADD MLOAD PUSH1 0xF8 SHR PUSH1 0xF8 SHL PUSH1 0xF8 SHR PUSH2 0x1732 SWAP2 SWAP1 PUSH2 0x28F2 JUMP JUMPDEST PUSH2 0x173C SWAP2 SWAP1 PUSH2 0x2646 JUMP JUMPDEST PUSH1 0xFF AND DUP5 PUSH2 0x174A SWAP2 SWAP1 PUSH2 0x22F2 JUMP JUMPDEST SWAP4 POP DUP1 DUP1 PUSH1 0x1 ADD SWAP2 POP POP PUSH2 0x16E9 JUMP JUMPDEST POP PUSH1 0xB DUP4 PUSH2 0x1767 SWAP2 SWAP1 PUSH2 0x2953 JUMP JUMPDEST SWAP1 POP PUSH1 0x2 DUP2 LT PUSH2 0x1783 JUMPI DUP1 PUSH1 0xB PUSH2 0x177E SWAP2 SWAP1 PUSH2 0x22BF JUMP JUMPDEST PUSH2 0x1785 JUMP JUMPDEST PUSH0 JUMPDEST SWAP1 POP DUP1 PUSH1 0x30 DUP6 PUSH1 0xA DUP2 MLOAD DUP2 LT PUSH2 0x179E JUMPI PUSH2 0x179D PUSH2 0x217B JUMP JUMPDEST JUMPDEST PUSH1 0x20 ADD ADD MLOAD PUSH1 0xF8 SHR PUSH1 0xF8 SHL PUSH1 0xF8 SHR PUSH2 0x17B6 SWAP2 SWAP1 PUSH2 0x28F2 JUMP JUMPDEST PUSH1 0xFF AND EQ SWAP5 POP POP POP POP POP JUMPDEST SWAP2 SWAP1 POP JUMP JUMPDEST PUSH1 0x60 PUSH0 PUSH1 0x1 PUSH2 0x17D4 DUP5 PUSH2 0x1890 JUMP JUMPDEST ADD SWAP1 POP PUSH0 DUP2 PUSH8 0xFFFFFFFFFFFFFFFF DUP2 GT ISZERO PUSH2 0x17F2 JUMPI PUSH2 0x17F1 PUSH2 0x1B19 JUMP JUMPDEST JUMPDEST PUSH1 0x40 MLOAD SWAP1 DUP1 DUP3 MSTORE DUP1 PUSH1 0x1F ADD PUSH1 0x1F NOT AND PUSH1 0x20 ADD DUP3 ADD PUSH1 0x40 MSTORE DUP1 ISZERO PUSH2 0x1824 JUMPI DUP2 PUSH1 0x20 ADD PUSH1 0x1 DUP3 MUL DUP1 CALLDATASIZE DUP4 CALLDATACOPY DUP1 DUP3 ADD SWAP2 POP POP SWAP1 POP JUMPDEST POP SWAP1 POP PUSH0 DUP3 PUSH1 0x20 ADD DUP3 ADD SWAP1 POP JUMPDEST PUSH1 0x1 ISZERO PUSH2 0x1885 JUMPI DUP1 DUP1 PUSH1 0x1 SWAP1 SUB SWAP2 POP POP PUSH32 0x3031323334353637383961626364656600000000000000000000000000000000 PUSH1 0xA DUP7 MOD BYTE DUP2 MSTORE8 PUSH1 0xA DUP6 DUP2 PUSH2 0x187A JUMPI PUSH2 0x1879 PUSH2 0x2926 JUMP JUMPDEST JUMPDEST DIV SWAP5 POP PUSH0 DUP6 SUB PUSH2 0x1831 JUMPI JUMPDEST DUP2 SWAP4 POP POP POP POP SWAP2 SWAP1 POP JUMP JUMPDEST PUSH0 DUP1 PUSH0 SWAP1 POP PUSH27 0x184F03E93FF9F4DAA797ED6E38ED64BF6A1F010000000000000000 DUP4 LT PUSH2 0x18EC JUMPI PUSH27 0x184F03E93FF9F4DAA797ED6E38ED64BF6A1F010000000000000000 DUP4 DUP2 PUSH2 0x18E2 JUMPI PUSH2 0x18E1 PUSH2 0x2926 JUMP JUMPDEST JUMPDEST DIV SWAP3 POP PUSH1 0x40 DUP2 ADD SWAP1 POP JUMPDEST PUSH14 0x4EE2D6D415B85ACEF8100000000 DUP4 LT PUSH2 0x1929 JUMPI PUSH14 0x4EE2D6D415B85ACEF8100000000 DUP4 DUP2 PUSH2 0x191F JUMPI PUSH2 0x191E PUSH2 0x2926 JUMP JUMPDEST JUMPDEST DIV SWAP3 POP PUSH1 0x20 DUP2 ADD SWAP1 POP JUMPDEST PUSH7 0x2386F26FC10000 DUP4 LT PUSH2 0x1958 JUMPI PUSH7 0x2386F26FC10000 DUP4 DUP2 PUSH2 0x194E JUMPI PUSH2 0x194D PUSH2 0x2926 JUMP JUMPDEST JUMPDEST DIV SWAP3 POP PUSH1 0x10 DUP2 ADD SWAP1 POP JUMPDEST PUSH4 0x5F5E100 DUP4 LT PUSH2 0x1981 JUMPI PUSH4 0x5F5E100 DUP4 DUP2 PUSH2 0x1977 JUMPI PUSH2 0x1976 PUSH2 0x2926 JUMP JUMPDEST JUMPDEST DIV SWAP3 POP PUSH1 0x8 DUP2 ADD SWAP1 POP JUMPDEST PUSH2 0x2710 DUP4 LT PUSH2 0x19A6 JUMPI PUSH2 0x2710 DUP4 DUP2 PUSH2 0x199C JUMPI PUSH2 0x199B PUSH2 0x2926 JUMP JUMPDEST JUMPDEST DIV SWAP3 POP PUSH1 0x4 DUP2 ADD SWAP1 POP JUMPDEST PUSH1 0x64 DUP4 LT PUSH2 0x19C9 JUMPI PUSH1 0x64 DUP4 DUP2 PUSH2 0x19BF JUMPI PUSH2 0x19BE PUSH2 0x2926 JUMP JUMPDEST JUMPDEST DIV SWAP3 POP PUSH1 0x2 DUP2 ADD SWAP1 POP JUMPDEST PUSH1 0xA DUP4 LT PUSH2 0x19D8 JUMPI PUSH1 0x1 DUP2 ADD SWAP1 POP JUMPDEST DUP1 SWAP2 POP POP SWAP2 SWAP1 POP JUMP JUMPDEST POP DUP1 SLOAD PUSH2 0x19ED SWAP1 PUSH2 0x2352 JUMP JUMPDEST PUSH0 DUP3 SSTORE DUP1 PUSH1 0x1F LT PUSH2 0x19FE JUMPI POP PUSH2 0x1A1B JUMP JUMPDEST PUSH1 0x1F ADD PUSH1 0x20 SWAP1 DIV SWAP1 PUSH0 MSTORE PUSH1 0x20 PUSH0 KECCAK256 SWAP1 DUP2 ADD SWAP1 PUSH2 0x1A1A SWAP2 SWAP1 PUSH2 0x1AA2 JUMP JUMPDEST JUMPDEST POP JUMP JUMPDEST PUSH1 0x40 MLOAD DUP1 PUSH2 0x160 ADD PUSH1 0x40 MSTORE DUP1 PUSH0 PUSH2 0xFFFF AND DUP2 MSTORE PUSH1 0x20 ADD PUSH1 0x60 DUP2 MSTORE PUSH1 0x20 ADD PUSH0 PUSH20 0xFFFFFFFFFFFFFFFFFFFFFFFFFFFFFFFFFFFFFFFF AND DUP2 MSTORE PUSH1 0x20 ADD PUSH0 PUSH20 0xFFFFFFFFFFFFFFFFFFFFFFFFFFFFFFFFFFFFFFFF AND DUP2 MSTORE PUSH1 0x20 ADD PUSH1 0x60 DUP2 MSTORE PUSH1 0x20 ADD PUSH1 0x60 DUP2 MSTORE PUSH1 0x20 ADD PUSH0 DUP2 MSTORE PUSH1 0x20 ADD PUSH0 DUP2 MSTORE PUSH1 0x20 ADD PUSH0 DUP2 MSTORE PUSH1 0x20 ADD PUSH0 DUP2 MSTORE PUSH1 0x20 ADD PUSH0 ISZERO ISZERO DUP2 MSTORE POP SWAP1 JUMP JUMPDEST JUMPDEST DUP1 DUP3 GT ISZERO PUSH2 0x1AB9 JUMPI PUSH0 DUP2 PUSH0 SWAP1 SSTORE POP PUSH1 0x1 ADD PUSH2 0x1AA3 JUMP JUMPDEST POP SWAP1 JUMP JUMPDEST PUSH0 PUSH1 0x40 MLOAD SWAP1 POP SWAP1 JUMP JUMPDEST PUSH0 DUP1 REVERT JUMPDEST PUSH0 DUP1 REVERT JUMPDEST PUSH0 DUP2 SWAP1 POP SWAP2 SWAP1 POP JUMP JUMPDEST PUSH2 0x1AE0 DUP2 PUSH2 0x1ACE JUMP JUMPDEST DUP2 EQ PUSH2 0x1AEA JUMPI PUSH0 DUP1 REVERT JUMPDEST POP JUMP JUMPDEST PUSH0 DUP2 CALLDATALOAD SWAP1 POP PUSH2 0x1AFB DUP2 PUSH2 0x1AD7 JUMP JUMPDEST SWAP3 SWAP2 POP POP JUMP JUMPDEST PUSH0 DUP1 REVERT JUMPDEST PUSH0 DUP1 REVERT JUMPDEST PUSH0 PUSH1 0x1F NOT PUSH1 0x1F DUP4 ADD AND SWAP1 POP SWAP2 SWAP1 POP JUMP JUMPDEST PUSH32 0x4E487B7100000000000000000000000000000000000000000000000000000000 PUSH0 MSTORE PUSH1 0x41 PUSH1 0x4 MSTORE PUSH1 0x24 PUSH0 REVERT JUMPDEST PUSH2 0x1B4F DUP3 PUSH2 0x1B09 JUMP JUMPDEST DUP2 ADD DUP2 DUP2 LT PUSH8 0xFFFFFFFFFFFFFFFF DUP3 GT OR ISZERO PUSH2 0x1B6E JUMPI PUSH2 0x1B6D PUSH2 0x1B19 JUMP JUMPDEST JUMPDEST DUP1 PUSH1 0x40 MSTORE POP POP POP JUMP JUMPDEST PUSH0 PUSH2 0x1B80 PUSH2 0x1ABD JUMP JUMPDEST SWAP1 POP PUSH2 0x1B8C DUP3 DUP3 PUSH2 0x1B46 JUMP JUMPDEST SWAP2 SWAP1 POP JUMP JUMPDEST PUSH0 PUSH8 0xFFFFFFFFFFFFFFFF DUP3 GT ISZERO PUSH2 0x1BAB JUMPI PUSH2 0x1BAA PUSH2 0x1B19 JUMP JUMPDEST JUMPDEST PUSH2 0x1BB4 DUP3 PUSH2 0x1B09 JUMP JUMPDEST SWAP1 POP PUSH1 0x20 DUP2 ADD SWAP1 POP SWAP2 SWAP1 POP JUMP JUMPDEST DUP3 DUP2 DUP4 CALLDATACOPY PUSH0 DUP4 DUP4 ADD MSTORE POP POP POP JUMP JUMPDEST PUSH0 PUSH2 0x1BE1 PUSH2 0x1BDC DUP5 PUSH2 0x1B91 JUMP JUMPDEST PUSH2 0x1B77 JUMP JUMPDEST SWAP1 POP DUP3 DUP2 MSTORE PUSH1 0x20 DUP2 ADD DUP5 DUP5 DUP5 ADD GT ISZERO PUSH2 0x1BFD JUMPI PUSH2 0x1BFC PUSH2 0x1B05 JUMP JUMPDEST JUMPDEST PUSH2 0x1C08 DUP5 DUP3 DUP6 PUSH2 0x1BC1 JUMP JUMPDEST POP SWAP4 SWAP3 POP POP POP JUMP JUMPDEST PUSH0 DUP3 PUSH1 0x1F DUP4 ADD SLT PUSH2 0x1C24 JUMPI PUSH2 0x1C23 PUSH2 0x1B01 JUMP JUMPDEST JUMPDEST DUP2 CALLDATALOAD PUSH2 0x1C34 DUP5 DUP3 PUSH1 0x20 DUP7 ADD PUSH2 0x1BCF JUMP JUMPDEST SWAP2 POP POP SWAP3 SWAP2 POP POP JUMP JUMPDEST PUSH0 DUP1 PUSH0 PUSH1 0x60 DUP5 DUP7 SUB SLT ISZERO PUSH2 0x1C54 JUMPI PUSH2 0x1C53 PUSH2 0x1AC6 JUMP JUMPDEST JUMPDEST PUSH0 PUSH2 0x1C61 DUP7 DUP3 DUP8 ADD PUSH2 0x1AED JUMP JUMPDEST SWAP4 POP POP PUSH1 0x20 DUP5 ADD CALLDATALOAD PUSH8 0xFFFFFFFFFFFFFFFF DUP2 GT ISZERO PUSH2 0x1C82 JUMPI PUSH2 0x1C81 PUSH2 0x1ACA JUMP JUMPDEST JUMPDEST PUSH2 0x1C8E DUP7 DUP3 DUP8 ADD PUSH2 0x1C10 JUMP JUMPDEST SWAP3 POP POP PUSH1 0x40 DUP5 ADD CALLDATALOAD PUSH8 0xFFFFFFFFFFFFFFFF DUP2 GT ISZERO PUSH2 0x1CAF JUMPI PUSH2 0x1CAE PUSH2 0x1ACA JUMP JUMPDEST JUMPDEST PUSH2 0x1CBB DUP7 DUP3 DUP8 ADD PUSH2 0x1C10 JUMP JUMPDEST SWAP2 POP POP SWAP3 POP SWAP3 POP SWAP3 JUMP JUMPDEST PUSH0 PUSH2 0xFFFF DUP3 AND SWAP1 POP SWAP2 SWAP1 POP JUMP JUMPDEST PUSH2 0x1CDB DUP2 PUSH2 0x1CC5 JUMP JUMPDEST DUP2 EQ PUSH2 0x1CE5 JUMPI PUSH0 DUP1 REVERT JUMPDEST POP JUMP JUMPDEST PUSH0 DUP2 CALLDATALOAD SWAP1 POP PUSH2 0x1CF6 DUP2 PUSH2 0x1CD2 JUMP JUMPDEST SWAP3 SWAP2 POP POP JUMP JUMPDEST PUSH0 PUSH8 0xFFFFFFFFFFFFFFFF DUP3 GT ISZERO PUSH2 0x1D16 JUMPI PUSH2 0x1D15 PUSH2 0x1B19 JUMP JUMPDEST JUMPDEST PUSH2 0x1D1F DUP3 PUSH2 0x1B09 JUMP JUMPDEST SWAP1 POP PUSH1 0x20 DUP2 ADD SWAP1 POP SWAP2 SWAP1 POP JUMP JUMPDEST PUSH0 PUSH2 0x1D3E PUSH2 0x1D39 DUP5 PUSH2 0x1CFC JUMP JUMPDEST PUSH2 0x1B77 JUMP JUMPDEST SWAP1 POP DUP3 DUP2 MSTORE PUSH1 0x20 DUP2 ADD DUP5 DUP5 DUP5 ADD GT ISZERO PUSH2 0x1D5A JUMPI PUSH2 0x1D59 PUSH2 0x1B05 JUMP JUMPDEST JUMPDEST PUSH2 0x1D65 DUP5 DUP3 DUP6 PUSH2 0x1BC1 JUMP JUMPDEST POP SWAP4 SWAP3 POP POP POP JUMP JUMPDEST PUSH0 DUP3 PUSH1 0x1F DUP4 ADD SLT PUSH2 0x1D81 JUMPI PUSH2 0x1D80 PUSH2 0x1B01 JUMP JUMPDEST JUMPDEST DUP2 CALLDATALOAD PUSH2 0x1D91 DUP5 DUP3 PUSH1 0x20 DUP7 ADD PUSH2 0x1D2C JUMP JUMPDEST SWAP2 POP POP SWAP3 SWAP2 POP POP JUMP JUMPDEST PUSH0 DUP1 PUSH1 0x40 DUP4 DUP6 SUB SLT ISZERO PUSH2 0x1DB0 JUMPI PUSH2 0x1DAF PUSH2 0x1AC6 JUMP JUMPDEST JUMPDEST PUSH0 PUSH2 0x1DBD DUP6 DUP3 DUP7 ADD PUSH2 0x1CE8 JUMP JUMPDEST SWAP3 POP POP PUSH1 0x20 DUP4 ADD CALLDATALOAD PUSH8 0xFFFFFFFFFFFFFFFF DUP2 GT ISZERO PUSH2 0x1DDE JUMPI PUSH2 0x1DDD PUSH2 0x1ACA JUMP JUMPDEST JUMPDEST PUSH2 0x1DEA DUP6 DUP3 DUP7 ADD PUSH2 0x1D6D JUMP JUMPDEST SWAP2 POP POP SWAP3 POP SWAP3 SWAP1 POP JUMP JUMPDEST PUSH0 DUP2 SWAP1 POP SWAP2 SWAP1 POP JUMP JUMPDEST PUSH2 0x1E06 DUP2 PUSH2 0x1DF4 JUMP JUMPDEST DUP2 EQ PUSH2 0x1E10 JUMPI PUSH0 DUP1 REVERT JUMPDEST POP JUMP JUMPDEST PUSH0 DUP2 CALLDATALOAD SWAP1 POP PUSH2 0x1E21 DUP2 PUSH2 0x1DFD JUMP JUMPDEST SWAP3 SWAP2 POP POP JUMP JUMPDEST PUSH0 PUSH1 0x20 DUP3 DUP5 SUB SLT ISZERO PUSH2 0x1E3C JUMPI PUSH2 0x1E3B PUSH2 0x1AC6 JUMP JUMPDEST JUMPDEST PUSH0 PUSH2 0x1E49 DUP5 DUP3 DUP6 ADD PUSH2 0x1E13 JUMP JUMPDEST SWAP2 POP POP SWAP3 SWAP2 POP POP JUMP JUMPDEST PUSH0 PUSH20 0xFFFFFFFFFFFFFFFFFFFFFFFFFFFFFFFFFFFFFFFF DUP3 AND SWAP1 POP SWAP2 SWAP1 POP JUMP JUMPDEST PUSH0 PUSH2 0x1E7B DUP3 PUSH2 0x1E52 JUMP JUMPDEST SWAP1 POP SWAP2 SWAP1 POP JUMP JUMPDEST PUSH2 0x1E8B DUP2 PUSH2 0x1E71 JUMP JUMPDEST DUP3 MSTORE POP POP JUMP JUMPDEST PUSH0 PUSH1 0x20 DUP3 ADD SWAP1 POP PUSH2 0x1EA4 PUSH0 DUP4 ADD DUP5 PUSH2 0x1E82 JUMP JUMPDEST SWAP3 SWAP2 POP POP JUMP JUMPDEST PUSH2 0x1EB3 DUP2 PUSH2 0x1E71 JUMP JUMPDEST DUP2 EQ PUSH2 0x1EBD JUMPI PUSH0 DUP1 REVERT JUMPDEST POP JUMP JUMPDEST PUSH0 DUP2 CALLDATALOAD SWAP1 POP PUSH2 0x1ECE DUP2 PUSH2 0x1EAA JUMP JUMPDEST SWAP3 SWAP2 POP POP JUMP JUMPDEST PUSH0 DUP1 PUSH1 0x40 DUP4 DUP6 SUB SLT ISZERO PUSH2 0x1EEA JUMPI PUSH2 0x1EE9 PUSH2 0x1AC6 JUMP JUMPDEST JUMPDEST PUSH0 PUSH2 0x1EF7 DUP6 DUP3 DUP7 ADD PUSH2 0x1EC0 JUMP JUMPDEST SWAP3 POP POP PUSH1 0x20 PUSH2 0x1F08 DUP6 DUP3 DUP7 ADD PUSH2 0x1E13 JUMP JUMPDEST SWAP2 POP POP SWAP3 POP SWAP3 SWAP1 POP JUMP JUMPDEST PUSH2 0x1F1B DUP2 PUSH2 0x1CC5 JUMP JUMPDEST DUP3 MSTORE POP POP JUMP JUMPDEST PUSH0 DUP2 MLOAD SWAP1 POP SWAP2 SWAP1 POP JUMP JUMPDEST PUSH0 DUP3 DUP3 MSTORE PUSH1 0x20 DUP3 ADD SWAP1 POP SWAP3 SWAP2 POP POP JUMP JUMPDEST DUP3 DUP2 DUP4 MCOPY PUSH0 DUP4 DUP4 ADD MSTORE POP POP POP JUMP JUMPDEST PUSH0 PUSH2 0x1F53 DUP3 PUSH2 0x1F21 JUMP JUMPDEST PUSH2 0x1F5D DUP2 DUP6 PUSH2 0x1F2B JUMP JUMPDEST SWAP4 POP PUSH2 0x1F6D DUP2 DUP6 PUSH1 0x20 DUP7 ADD PUSH2 0x1F3B JUMP JUMPDEST PUSH2 0x1F76 DUP2 PUSH2 0x1B09 JUMP JUMPDEST DUP5 ADD SWAP2 POP POP SWAP3 SWAP2 POP POP JUMP JUMPDEST PUSH2 0x1F8A DUP2 PUSH2 0x1DF4 JUMP JUMPDEST DUP3 MSTORE POP POP JUMP JUMPDEST PUSH0 DUP2 ISZERO ISZERO SWAP1 POP SWAP2 SWAP1 POP JUMP JUMPDEST PUSH2 0x1FA4 DUP2 PUSH2 0x1F90 JUMP JUMPDEST DUP3 MSTORE POP POP JUMP JUMPDEST PUSH0 PUSH2 0x160 DUP3 ADD SWAP1 POP PUSH2 0x1FBE PUSH0 DUP4 ADD DUP15 PUSH2 0x1F12 JUMP JUMPDEST DUP2 DUP2 SUB PUSH1 0x20 DUP4 ADD MSTORE PUSH2 0x1FD0 DUP2 DUP14 PUSH2 0x1F49 JUMP JUMPDEST SWAP1 POP PUSH2 0x1FDF PUSH1 0x40 DUP4 ADD DUP13 PUSH2 0x1E82 JUMP JUMPDEST PUSH2 0x1FEC PUSH1 0x60 DUP4 ADD DUP12 PUSH2 0x1E82 JUMP JUMPDEST DUP2 DUP2 SUB PUSH1 0x80 DUP4 ADD MSTORE PUSH2 0x1FFE DUP2 DUP11 PUSH2 0x1F49 JUMP JUMPDEST SWAP1 POP DUP2 DUP2 SUB PUSH1 0xA0 DUP4 ADD MSTORE PUSH2 0x2012 DUP2 DUP10 PUSH2 0x1F49 JUMP JUMPDEST SWAP1 POP PUSH2 0x2021 PUSH1 0xC0 DUP4 ADD DUP9 PUSH2 0x1F81 JUMP JUMPDEST PUSH2 0x202E PUSH1 0xE0 DUP4 ADD DUP8 PUSH2 0x1F81 JUMP JUMPDEST PUSH2 0x203C PUSH2 0x100 DUP4 ADD DUP7 PUSH2 0x1F81 JUMP JUMPDEST PUSH2 0x204A PUSH2 0x120 DUP4 ADD DUP6 PUSH2 0x1F81 JUMP JUMPDEST PUSH2 0x2058 PUSH2 0x140 DUP4 ADD DUP5 PUSH2 0x1F9B JUMP JUMPDEST SWAP13 SWAP12 POP POP POP POP POP POP POP POP POP POP POP POP JUMP JUMPDEST PUSH0 PUSH1 0xFF DUP3 AND SWAP1 POP SWAP2 SWAP1 POP JUMP JUMPDEST PUSH2 0x207D DUP2 PUSH2 0x2068 JUMP JUMPDEST DUP2 EQ PUSH2 0x2087 JUMPI PUSH0 DUP1 REVERT JUMPDEST POP JUMP JUMPDEST PUSH0 DUP2 CALLDATALOAD SWAP1 POP PUSH2 0x2098 DUP2 PUSH2 0x2074 JUMP JUMPDEST SWAP3 SWAP2 POP POP JUMP JUMPDEST PUSH0 DUP1 PUSH0 DUP1 PUSH0 DUP1 PUSH1 0xC0 DUP8 DUP10 SUB SLT ISZERO PUSH2 0x20B8 JUMPI PUSH2 0x20B7 PUSH2 0x1AC6 JUMP JUMPDEST JUMPDEST PUSH0 PUSH2 0x20C5 DUP10 DUP3 DUP11 ADD PUSH2 0x1CE8 JUMP JUMPDEST SWAP7 POP POP PUSH1 0x20 DUP8 ADD CALLDATALOAD PUSH8 0xFFFFFFFFFFFFFFFF DUP2 GT ISZERO PUSH2 0x20E6 JUMPI PUSH2 0x20E5 PUSH2 0x1ACA JUMP JUMPDEST JUMPDEST PUSH2 0x20F2 DUP10 DUP3 DUP11 ADD PUSH2 0x1D6D JUMP JUMPDEST SWAP6 POP POP PUSH1 0x40 DUP8 ADD CALLDATALOAD PUSH8 0xFFFFFFFFFFFFFFFF DUP2 GT ISZERO PUSH2 0x2113 JUMPI PUSH2 0x2112 PUSH2 0x1ACA JUMP JUMPDEST JUMPDEST PUSH2 0x211F DUP10 DUP3 DUP11 ADD PUSH2 0x1D6D JUMP JUMPDEST SWAP5 POP POP PUSH1 0x60 DUP8 ADD CALLDATALOAD PUSH8 0xFFFFFFFFFFFFFFFF DUP2 GT ISZERO PUSH2 0x2140 JUMPI PUSH2 0x213F PUSH2 0x1ACA JUMP JUMPDEST JUMPDEST PUSH2 0x214C DUP10 DUP3 DUP11 ADD PUSH2 0x1D6D JUMP JUMPDEST SWAP4 POP POP PUSH1 0x80 PUSH2 0x215D DUP10 DUP3 DUP11 ADD PUSH2 0x1E13 JUMP JUMPDEST SWAP3 POP POP PUSH1 0xA0 PUSH2 0x216E DUP10 DUP3 DUP11 ADD PUSH2 0x208A JUMP JUMPDEST SWAP2 POP POP SWAP3 SWAP6 POP SWAP3 SWAP6 POP SWAP3 SWAP6 JUMP JUMPDEST PUSH32 0x4E487B7100000000000000000000000000000000000000000000000000000000 PUSH0 MSTORE PUSH1 0x32 PUSH1 0x4 MSTORE PUSH1 0x24 PUSH0 REVERT JUMPDEST PUSH32 0x4E487B7100000000000000000000000000000000000000000000000000000000 PUSH0 MSTORE PUSH1 0x11 PUSH1 0x4 MSTORE PUSH1 0x24 PUSH0 REVERT JUMPDEST PUSH0 PUSH2 0x21DF DUP3 PUSH2 0x1DF4 JUMP JUMPDEST SWAP2 POP PUSH2 0x21EA DUP4 PUSH2 0x1DF4 JUMP JUMPDEST SWAP3 POP DUP3 DUP3 MUL PUSH2 0x21F8 DUP2 PUSH2 0x1DF4 JUMP JUMPDEST SWAP2 POP DUP3 DUP3 DIV DUP5 EQ DUP4 ISZERO OR PUSH2 0x220F JUMPI PUSH2 0x220E PUSH2 0x21A8 JUMP JUMPDEST JUMPDEST POP SWAP3 SWAP2 POP POP JUMP JUMPDEST PUSH0 DUP2 SWAP1 POP SWAP3 SWAP2 POP POP JUMP JUMPDEST POP JUMP JUMPDEST PUSH0 PUSH2 0x222E PUSH0 DUP4 PUSH2 0x2216 JUMP JUMPDEST SWAP2 POP PUSH2 0x2239 DUP3 PUSH2 0x2220 JUMP JUMPDEST PUSH0 DUP3 ADD SWAP1 POP SWAP2 SWAP1 POP JUMP JUMPDEST PUSH0 PUSH2 0x224D DUP3 PUSH2 0x2223 JUMP JUMPDEST SWAP2 POP DUP2 SWAP1 POP SWAP2 SWAP1 POP JUMP JUMPDEST PUSH32 0x4661696C656420746F2073656E64204574686572000000000000000000000000 PUSH0 DUP3 ADD MSTORE POP JUMP JUMPDEST PUSH0 PUSH2 0x228B PUSH1 0x14 DUP4 PUSH2 0x1F2B JUMP JUMPDEST SWAP2 POP PUSH2 0x2296 DUP3 PUSH2 0x2257 JUMP JUMPDEST PUSH1 0x20 DUP3 ADD SWAP1 POP SWAP2 SWAP1 POP JUMP JUMPDEST PUSH0 PUSH1 0x20 DUP3 ADD SWAP1 POP DUP2 DUP2 SUB PUSH0 DUP4 ADD MSTORE PUSH2 0x22B8 DUP2 PUSH2 0x227F JUMP JUMPDEST SWAP1 POP SWAP2 SWAP1 POP JUMP JUMPDEST PUSH0 PUSH2 0x22C9 DUP3 PUSH2 0x1DF4 JUMP JUMPDEST SWAP2 POP PUSH2 0x22D4 DUP4 PUSH2 0x1DF4 JUMP JUMPDEST SWAP3 POP DUP3 DUP3 SUB SWAP1 POP DUP2 DUP2 GT ISZERO PUSH2 0x22EC JUMPI PUSH2 0x22EB PUSH2 0x21A8 JUMP JUMPDEST JUMPDEST SWAP3 SWAP2 POP POP JUMP JUMPDEST PUSH0 PUSH2 0x22FC DUP3 PUSH2 0x1DF4 JUMP JUMPDEST SWAP2 POP PUSH2 0x2307 DUP4 PUSH2 0x1DF4 JUMP JUMPDEST SWAP3 POP DUP3 DUP3 ADD SWAP1 POP DUP1 DUP3 GT ISZERO PUSH2 0x231F JUMPI PUSH2 0x231E PUSH2 0x21A8 JUMP JUMPDEST JUMPDEST SWAP3 SWAP2 POP POP JUMP JUMPDEST PUSH32 0x4E487B7100000000000000000000000000000000000000000000000000000000 PUSH0 MSTORE PUSH1 0x22 PUSH1 0x4 MSTORE PUSH1 0x24 PUSH0 REVERT JUMPDEST PUSH0 PUSH1 0x2 DUP3 DIV SWAP1 POP PUSH1 0x1 DUP3 AND DUP1 PUSH2 0x2369 JUMPI PUSH1 0x7F DUP3 AND SWAP2 POP JUMPDEST PUSH1 0x20 DUP3 LT DUP2 SUB PUSH2 0x237C JUMPI PUSH2 0x237B PUSH2 0x2325 JUMP JUMPDEST JUMPDEST POP SWAP2 SWAP1 POP JUMP JUMPDEST PUSH0 DUP2 SLOAD SWAP1 POP PUSH2 0x2390 DUP2 PUSH2 0x2352 JUMP JUMPDEST SWAP1 POP SWAP2 SWAP1 POP JUMP JUMPDEST PUSH0 DUP2 SWAP1 POP DUP2 PUSH0 MSTORE PUSH1 0x20 PUSH0 KECCAK256 SWAP1 POP SWAP2 SWAP1 POP JUMP JUMPDEST PUSH0 PUSH1 0x20 PUSH1 0x1F DUP4 ADD DIV SWAP1 POP SWAP2 SWAP1 POP JUMP JUMPDEST PUSH0 DUP3 DUP3 SHL SWAP1 POP SWAP3 SWAP2 POP POP JUMP JUMPDEST PUSH0 PUSH1 0x8 DUP4 MUL PUSH2 0x23F3 PUSH32 0xFFFFFFFFFFFFFFFFFFFFFFFFFFFFFFFFFFFFFFFFFFFFFFFFFFFFFFFFFFFFFFFF DUP3 PUSH2 0x23B8 JUMP JUMPDEST PUSH2 0x23FD DUP7 DUP4 PUSH2 0x23B8 JUMP JUMPDEST SWAP6 POP DUP1 NOT DUP5 AND SWAP4 POP DUP1 DUP7 AND DUP5 OR SWAP3 POP POP POP SWAP4 SWAP3 POP POP POP JUMP JUMPDEST PUSH0 DUP2 SWAP1 POP SWAP2 SWAP1 POP JUMP JUMPDEST PUSH0 PUSH2 0x2438 PUSH2 0x2433 PUSH2 0x242E DUP5 PUSH2 0x1DF4 JUMP JUMPDEST PUSH2 0x2415 JUMP JUMPDEST PUSH2 0x1DF4 JUMP JUMPDEST SWAP1 POP SWAP2 SWAP1 POP JUMP JUMPDEST PUSH0 DUP2 SWAP1 POP SWAP2 SWAP1 POP JUMP JUMPDEST PUSH2 0x2451 DUP4 PUSH2 0x241E JUMP JUMPDEST PUSH2 0x2465 PUSH2 0x245D DUP3 PUSH2 0x243F JUMP JUMPDEST DUP5 DUP5 SLOAD PUSH2 0x23C4 JUMP JUMPDEST DUP3 SSTORE POP POP POP POP JUMP JUMPDEST PUSH0 SWAP1 JUMP JUMPDEST PUSH2 0x2479 PUSH2 0x246D JUMP JUMPDEST PUSH2 0x2484 DUP2 DUP5 DUP5 PUSH2 0x2448 JUMP JUMPDEST POP POP POP JUMP JUMPDEST JUMPDEST DUP2 DUP2 LT ISZERO PUSH2 0x24A7 JUMPI PUSH2 0x249C PUSH0 DUP3 PUSH2 0x2471 JUMP JUMPDEST PUSH1 0x1 DUP2 ADD SWAP1 POP PUSH2 0x248A JUMP JUMPDEST POP POP JUMP JUMPDEST PUSH1 0x1F DUP3 GT ISZERO PUSH2 0x24EC JUMPI PUSH2 0x24BD DUP2 PUSH2 0x2397 JUMP JUMPDEST PUSH2 0x24C6 DUP5 PUSH2 0x23A9 JUMP JUMPDEST DUP2 ADD PUSH1 0x20 DUP6 LT ISZERO PUSH2 0x24D5 JUMPI DUP2 SWAP1 POP JUMPDEST PUSH2 0x24E9 PUSH2 0x24E1 DUP6 PUSH2 0x23A9 JUMP JUMPDEST DUP4 ADD DUP3 PUSH2 0x2489 JUMP JUMPDEST POP POP JUMPDEST POP POP POP JUMP JUMPDEST PUSH0 DUP3 DUP3 SHR SWAP1 POP SWAP3 SWAP2 POP POP JUMP JUMPDEST PUSH0 PUSH2 0x250C PUSH0 NOT DUP5 PUSH1 0x8 MUL PUSH2 0x24F1 JUMP JUMPDEST NOT DUP1 DUP4 AND SWAP2 POP POP SWAP3 SWAP2 POP POP JUMP JUMPDEST PUSH0 PUSH2 0x2524 DUP4 DUP4 PUSH2 0x24FD JUMP JUMPDEST SWAP2 POP DUP3 PUSH1 0x2 MUL DUP3 OR SWAP1 POP SWAP3 SWAP2 POP POP JUMP JUMPDEST DUP2 DUP2 SUB PUSH2 0x2542 JUMPI POP POP PUSH2 0x2617 JUMP JUMPDEST PUSH2 0x254B DUP3 PUSH2 0x2382 JUMP JUMPDEST PUSH8 0xFFFFFFFFFFFFFFFF DUP2 GT ISZERO PUSH2 0x2564 JUMPI PUSH2 0x2563 PUSH2 0x1B19 JUMP JUMPDEST JUMPDEST PUSH2 0x256E DUP3 SLOAD PUSH2 0x2352 JUMP JUMPDEST PUSH2 0x2579 DUP3 DUP3 DUP6 PUSH2 0x24AB JUMP JUMPDEST PUSH0 PUSH1 0x1F DUP4 GT PUSH1 0x1 DUP2 EQ PUSH2 0x25A6 JUMPI PUSH0 DUP5 ISZERO PUSH2 0x2594 JUMPI DUP3 DUP8 ADD SLOAD SWAP1 POP JUMPDEST PUSH2 0x259E DUP6 DUP3 PUSH2 0x2519 JUMP JUMPDEST DUP7 SSTORE POP PUSH2 0x2610 JUMP JUMPDEST PUSH1 0x1F NOT DUP5 AND PUSH2 0x25B4 DUP8 PUSH2 0x2397 JUMP JUMPDEST SWAP7 POP PUSH2 0x25BF DUP7 PUSH2 0x2397 JUMP JUMPDEST PUSH0 JUMPDEST DUP3 DUP2 LT ISZERO PUSH2 0x25E6 JUMPI DUP5 DUP10 ADD SLOAD DUP3 SSTORE PUSH1 0x1 DUP3 ADD SWAP2 POP PUSH1 0x1 DUP6 ADD SWAP5 POP PUSH1 0x20 DUP2 ADD SWAP1 POP PUSH2 0x25C1 JUMP JUMPDEST DUP7 DUP4 LT ISZERO PUSH2 0x2603 JUMPI DUP5 DUP10 ADD SLOAD PUSH2 0x25FF PUSH1 0x1F DUP10 AND DUP3 PUSH2 0x24FD JUMP JUMPDEST DUP4 SSTORE POP JUMPDEST PUSH1 0x1 PUSH1 0x2 DUP9 MUL ADD DUP9 SSTORE POP POP POP JUMPDEST POP POP POP POP POP POP JUMPDEST JUMP JUMPDEST PUSH32 0x4E487B7100000000000000000000000000000000000000000000000000000000 PUSH0 MSTORE PUSH1 0x31 PUSH1 0x4 MSTORE PUSH1 0x24 PUSH0 REVERT JUMPDEST PUSH0 PUSH2 0x2650 DUP3 PUSH2 0x2068 JUMP JUMPDEST SWAP2 POP PUSH2 0x265B DUP4 PUSH2 0x2068 JUMP JUMPDEST SWAP3 POP DUP3 DUP3 MUL PUSH2 0x2669 DUP2 PUSH2 0x2068 JUMP JUMPDEST SWAP2 POP DUP1 DUP3 EQ PUSH2 0x267B JUMPI PUSH2 0x267A PUSH2 0x21A8 JUMP JUMPDEST JUMPDEST POP SWAP3 SWAP2 POP POP JUMP JUMPDEST PUSH2 0x268B DUP3 PUSH2 0x1F21 JUMP JUMPDEST PUSH8 0xFFFFFFFFFFFFFFFF DUP2 GT ISZERO PUSH2 0x26A4 JUMPI PUSH2 0x26A3 PUSH2 0x1B19 JUMP JUMPDEST JUMPDEST PUSH2 0x26AE DUP3 SLOAD PUSH2 0x2352 JUMP JUMPDEST PUSH2 0x26B9 DUP3 DUP3 DUP6 PUSH2 0x24AB JUMP JUMPDEST PUSH0 PUSH1 0x20 SWAP1 POP PUSH1 0x1F DUP4 GT PUSH1 0x1 DUP2 EQ PUSH2 0x26EA JUMPI PUSH0 DUP5 ISZERO PUSH2 0x26D8 JUMPI DUP3 DUP8 ADD MLOAD SWAP1 POP JUMPDEST PUSH2 0x26E2 DUP6 DUP3 PUSH2 0x2519 JUMP JUMPDEST DUP7 SSTORE POP PUSH2 0x2749 JUMP JUMPDEST PUSH1 0x1F NOT DUP5 AND PUSH2 0x26F8 DUP7 PUSH2 0x2397 JUMP JUMPDEST PUSH0 JUMPDEST DUP3 DUP2 LT ISZERO PUSH2 0x271F JUMPI DUP5 DUP10 ADD MLOAD DUP3 SSTORE PUSH1 0x1 DUP3 ADD SWAP2 POP PUSH1 0x20 DUP6 ADD SWAP5 POP PUSH1 0x20 DUP2 ADD SWAP1 POP PUSH2 0x26FA JUMP JUMPDEST DUP7 DUP4 LT ISZERO PUSH2 0x273C JUMPI DUP5 DUP10 ADD MLOAD PUSH2 0x2738 PUSH1 0x1F DUP10 AND DUP3 PUSH2 0x24FD JUMP JUMPDEST DUP4 SSTORE POP JUMPDEST PUSH1 0x1 PUSH1 0x2 DUP9 MUL ADD DUP9 SSTORE POP POP POP JUMPDEST POP POP POP POP POP POP JUMP JUMPDEST PUSH0 DUP2 SWAP1 POP DUP2 PUSH0 MSTORE PUSH1 0x20 PUSH0 KECCAK256 SWAP1 POP SWAP2 SWAP1 POP JUMP JUMPDEST PUSH0 DUP2 SLOAD PUSH2 0x276F DUP2 PUSH2 0x2352 JUMP JUMPDEST PUSH2 0x2779 DUP2 DUP7 PUSH2 0x2216 JUMP JUMPDEST SWAP5 POP PUSH1 0x1 DUP3 AND PUSH0 DUP2 EQ PUSH2 0x2793 JUMPI PUSH1 0x1 DUP2 EQ PUSH2 0x27A8 JUMPI PUSH2 0x27DA JUMP JUMPDEST PUSH1 0xFF NOT DUP4 AND DUP7 MSTORE DUP2 ISZERO ISZERO DUP3 MUL DUP7 ADD SWAP4 POP PUSH2 0x27DA JUMP JUMPDEST PUSH2 0x27B1 DUP6 PUSH2 0x2751 JUMP JUMPDEST PUSH0 JUMPDEST DUP4 DUP2 LT ISZERO PUSH2 0x27D2 JUMPI DUP2 SLOAD DUP2 DUP10 ADD MSTORE PUSH1 0x1 DUP3 ADD SWAP2 POP PUSH1 0x20 DUP2 ADD SWAP1 POP PUSH2 0x27B3 JUMP JUMPDEST DUP4 DUP9 ADD SWAP6 POP POP POP JUMPDEST POP POP POP SWAP3 SWAP2 POP POP JUMP JUMPDEST PUSH0 PUSH2 0x27EE DUP3 DUP5 PUSH2 0x2763 JUMP JUMPDEST SWAP2 POP DUP2 SWAP1 POP SWAP3 SWAP2 POP POP JUMP JUMPDEST PUSH0 DUP2 SWAP1 POP SWAP3 SWAP2 POP POP JUMP JUMPDEST PUSH0 PUSH2 0x280D DUP3 PUSH2 0x1F21 JUMP JUMPDEST PUSH2 0x2817 DUP2 DUP6 PUSH2 0x27F9 JUMP JUMPDEST SWAP4 POP PUSH2 0x2827 DUP2 DUP6 PUSH1 0x20 DUP7 ADD PUSH2 0x1F3B JUMP JUMPDEST DUP1 DUP5 ADD SWAP2 POP POP SWAP3 SWAP2 POP POP JUMP JUMPDEST PUSH0 PUSH2 0x283E DUP3 DUP15 PUSH2 0x2803 JUMP JUMPDEST SWAP2 POP PUSH2 0x284A DUP3 DUP14 PUSH2 0x2803 JUMP JUMPDEST SWAP2 POP PUSH2 0x2856 DUP3 DUP13 PUSH2 0x2803 JUMP JUMPDEST SWAP2 POP PUSH2 0x2862 DUP3 DUP12 PUSH2 0x2803 JUMP JUMPDEST SWAP2 POP PUSH2 0x286E DUP3 DUP11 PUSH2 0x2803 JUMP JUMPDEST SWAP2 POP PUSH2 0x287A DUP3 DUP10 PUSH2 0x2803 JUMP JUMPDEST SWAP2 POP PUSH2 0x2886 DUP3 DUP9 PUSH2 0x2803 JUMP JUMPDEST SWAP2 POP PUSH2 0x2892 DUP3 DUP8 PUSH2 0x2803 JUMP JUMPDEST SWAP2 POP PUSH2 0x289E DUP3 DUP7 PUSH2 0x2803 JUMP JUMPDEST SWAP2 POP PUSH2 0x28AA DUP3 DUP6 PUSH2 0x2803 JUMP JUMPDEST SWAP2 POP PUSH2 0x28B6 DUP3 DUP5 PUSH2 0x2803 JUMP JUMPDEST SWAP2 POP DUP2 SWAP1 POP SWAP13 SWAP12 POP POP POP POP POP POP POP POP POP POP POP POP JUMP JUMPDEST PUSH0 PUSH2 0x28D5 DUP3 PUSH2 0x2068 JUMP JUMPDEST SWAP2 POP PUSH0 DUP3 SUB PUSH2 0x28E7 JUMPI PUSH2 0x28E6 PUSH2 0x21A8 JUMP JUMPDEST JUMPDEST PUSH1 0x1 DUP3 SUB SWAP1 POP SWAP2 SWAP1 POP JUMP JUMPDEST PUSH0 PUSH2 0x28FC DUP3 PUSH2 0x2068 JUMP JUMPDEST SWAP2 POP PUSH2 0x2907 DUP4 PUSH2 0x2068 JUMP JUMPDEST SWAP3 POP DUP3 DUP3 SUB SWAP1 POP PUSH1 0xFF DUP2 GT ISZERO PUSH2 0x2920 JUMPI PUSH2 0x291F PUSH2 0x21A8 JUMP JUMPDEST JUMPDEST SWAP3 SWAP2 POP POP JUMP JUMPDEST PUSH32 0x4E487B7100000000000000000000000000000000000000000000000000000000 PUSH0 MSTORE PUSH1 0x12 PUSH1 0x4 MSTORE PUSH1 0x24 PUSH0 REVERT JUMPDEST PUSH0 PUSH2 0x295D DUP3 PUSH2 0x1DF4 JUMP JUMPDEST SWAP2 POP PUSH2 0x2968 DUP4 PUSH2 0x1DF4 JUMP JUMPDEST SWAP3 POP DUP3 PUSH2 0x2978 JUMPI PUSH2 0x2977 PUSH2 0x2926 JUMP JUMPDEST JUMPDEST DUP3 DUP3 MOD SWAP1 POP SWAP3 SWAP2 POP POP JUMP INVALID LOG2 PUSH5 0x6970667358 0x22 SLT KECCAK256 0xAB PUSH31 0x9BDFA38433B01136A66FDDC73A1688E3E74526B9700850D3048ACC340E1C64 PUSH20 0x6F6C634300081A0033636F6E737420637066203D KECCAK256 PUSH2 0x7267 PUSH20 0x5B305D3B636F6E737420706C616361203D206172 PUSH8 0x735B315D3B636F6E PUSH20 0x742072656E6176616D203D20617267735B325D3B PUSH4 0x6F6E7374 KECCAK256 PUSH2 0x7069 MSTORE PUSH6 0x73706F6E7365 KECCAK256 RETURNDATASIZE KECCAK256 PUSH2 0x7761 PUSH10 0x742046756E6374696F6E PUSH20 0x2E6D616B654874747052657175657374287B2020 PUSH22 0x726C3A206068747470733A2F2F6170692E7269636172 PUSH5 0x6F6775696D PUSH2 0x7261 PUSH6 0x732E6465762F PUSH23 0x312F76656963756C6F732F70726F70726965746172696F 0x2F PUSH4 0x70662F24 PUSH28 0x6370667D2F706C6163612F247B706C6163617D2F72656E6176616D2F 0x24 PUSH28 0x72656E6176616D7D607D2969662028617069526573706F6E73652E65 PUSH19 0x726F722920202072657475726E2046756E6374 PUSH10 0x6F6E732E656E636F6465 SSTORE PUSH10 0x6E743235362835303029 EXTCODESIZE PUSH4 0x6F6E7374 KECCAK256 PUSH28 0x2064617461207D203D20617069526573706F6E73653B72657475726E KECCAK256 CHAINID PUSH22 0x6E6374696F6E732E656E636F646555696E7432353628 PUSH5 0x6174612E72 PUSH6 0x6E6176616D20 0x21 RETURNDATASIZE RETURNDATASIZE KECCAK256 PUSH15 0x756C6C203F20323030203A20323034 0x29 EXTCODESIZE "
		},
		"gasEstimates": {
			"creation": {
				"codeDepositCost": "2136200",
				"executionCost": "infinite",
				"totalCost": "infinite"
			},
			"external": {
				"cancelaContratoComprador(uint16,string)": "infinite",
				"cancelaContratoVendedor(uint16,string)": "infinite",
				"contratosArras(uint256)": "infinite",
				"enviarArrasComprador(uint16,string)": "infinite",
				"handleOracleFulfillment(bytes32,bytes,bytes)": "infinite",
				"iniciarCompra(uint16,string,string,string,uint256,uint8)": "infinite",
				"owner()": "2505",
				"pagarValorTotalComprador(uint16,string)": "infinite",
				"removeContrato(uint256)": "infinite",
				"transfer(address,uint256)": "infinite",
				"verificaContrato(uint16,string)": "infinite"
			},
			"internal": {
				"encontraContrato(uint16,string memory)": "infinite",
				"fulfillRequest(bytes32,bytes memory,bytes memory)": "15",
				"validaCpf(string memory)": "infinite"
			}
		},
		"methodIdentifiers": {
			"cancelaContratoComprador(uint16,string)": "1d6d5b6e",
			"cancelaContratoVendedor(uint16,string)": "edc509af",
			"contratosArras(uint256)": "b58be5df",
			"enviarArrasComprador(uint16,string)": "68892bf4",
			"handleOracleFulfillment(bytes32,bytes,bytes)": "0ca76175",
			"iniciarCompra(uint16,string,string,string,uint256,uint8)": "e0fc94b0",
			"owner()": "8da5cb5b",
			"pagarValorTotalComprador(uint16,string)": "83adc043",
			"removeContrato(uint256)": "4188b719",
			"transfer(address,uint256)": "a9059cbb",
			"verificaContrato(uint16,string)": "a4ff00e2"
		}
	},
	"abi": [
		{
			"inputs": [
				{
					"internalType": "uint64",
					"name": "_subscriptionId",
					"type": "uint64"
				}
			],
			"stateMutability": "nonpayable",
			"type": "constructor"
		},
		{
			"inputs": [],
			"name": "OnlyRouterCanFulfill",
			"type": "error"
		},
		{
			"anonymous": false,
			"inputs": [
				{
					"indexed": true,
					"internalType": "bytes32",
					"name": "id",
					"type": "bytes32"
				}
			],
			"name": "RequestFulfilled",
			"type": "event"
		},
		{
			"anonymous": false,
			"inputs": [
				{
					"indexed": true,
					"internalType": "bytes32",
					"name": "id",
					"type": "bytes32"
				}
			],
			"name": "RequestSent",
			"type": "event"
		},
		{
			"inputs": [
				{
					"internalType": "uint16",
					"name": "_renavam",
					"type": "uint16"
				},
				{
					"internalType": "string",
					"name": "_placa",
					"type": "string"
				}
			],
			"name": "cancelaContratoComprador",
			"outputs": [],
			"stateMutability": "payable",
			"type": "function"
		},
		{
			"inputs": [
				{
					"internalType": "uint16",
					"name": "_renavam",
					"type": "uint16"
				},
				{
					"internalType": "string",
					"name": "_placa",
					"type": "string"
				}
			],
			"name": "cancelaContratoVendedor",
			"outputs": [],
			"stateMutability": "payable",
			"type": "function"
		},
		{
			"inputs": [
				{
					"internalType": "uint256",
					"name": "",
					"type": "uint256"
				}
			],
			"name": "contratosArras",
			"outputs": [
				{
					"internalType": "uint16",
					"name": "renavam",
					"type": "uint16"
				},
				{
					"internalType": "string",
					"name": "placa",
					"type": "string"
				},
				{
					"internalType": "address",
					"name": "carteiraComprador",
					"type": "address"
				},
				{
					"internalType": "address",
					"name": "carteiraVendedor",
					"type": "address"
				},
				{
					"internalType": "string",
					"name": "cpfComprador",
					"type": "string"
				},
				{
					"internalType": "string",
					"name": "cpfVendedor",
					"type": "string"
				},
				{
					"internalType": "uint256",
					"name": "valorArras",
					"type": "uint256"
				},
				{
					"internalType": "uint256",
					"name": "valorTotal",
					"type": "uint256"
				},
				{
					"internalType": "uint256",
					"name": "dataInicial",
					"type": "uint256"
				},
				{
					"internalType": "uint256",
					"name": "prazoDias",
					"type": "uint256"
				},
				{
					"internalType": "bool",
					"name": "pago",
					"type": "bool"
				}
			],
			"stateMutability": "view",
			"type": "function"
		},
		{
			"inputs": [
				{
					"internalType": "uint16",
					"name": "_renavam",
					"type": "uint16"
				},
				{
					"internalType": "string",
					"name": "_placa",
					"type": "string"
				}
			],
			"name": "enviarArrasComprador",
			"outputs": [],
			"stateMutability": "payable",
			"type": "function"
		},
		{
			"inputs": [
				{
					"internalType": "bytes32",
					"name": "requestId",
					"type": "bytes32"
				},
				{
					"internalType": "bytes",
					"name": "response",
					"type": "bytes"
				},
				{
					"internalType": "bytes",
					"name": "err",
					"type": "bytes"
				}
			],
			"name": "handleOracleFulfillment",
			"outputs": [],
			"stateMutability": "nonpayable",
			"type": "function"
		},
		{
			"inputs": [
				{
					"internalType": "uint16",
					"name": "_renavam",
					"type": "uint16"
				},
				{
					"internalType": "string",
					"name": "_placa",
					"type": "string"
				},
				{
					"internalType": "string",
					"name": "_cpfComprador",
					"type": "string"
				},
				{
					"internalType": "string",
					"name": "_cpfVendedor",
					"type": "string"
				},
				{
					"internalType": "uint256",
					"name": "_valorTotal",
					"type": "uint256"
				},
				{
					"internalType": "uint8",
					"name": "_prazoDias",
					"type": "uint8"
				}
			],
			"name": "iniciarCompra",
			"outputs": [],
			"stateMutability": "payable",
			"type": "function"
		},
		{
			"inputs": [],
			"name": "owner",
			"outputs": [
				{
					"internalType": "address",
					"name": "",
					"type": "address"
				}
			],
			"stateMutability": "view",
			"type": "function"
		},
		{
			"inputs": [
				{
					"internalType": "uint16",
					"name": "_renavam",
					"type": "uint16"
				},
				{
					"internalType": "string",
					"name": "_placa",
					"type": "string"
				}
			],
			"name": "pagarValorTotalComprador",
			"outputs": [],
			"stateMutability": "payable",
			"type": "function"
		},
		{
			"inputs": [
				{
					"internalType": "uint256",
					"name": "_index",
					"type": "uint256"
				}
			],
			"name": "removeContrato",
			"outputs": [],
			"stateMutability": "nonpayable",
			"type": "function"
		},
		{
			"inputs": [
				{
					"internalType": "address",
					"name": "_to",
					"type": "address"
				},
				{
					"internalType": "uint256",
					"name": "amount",
					"type": "uint256"
				}
			],
			"name": "transfer",
			"outputs": [],
			"stateMutability": "payable",
			"type": "function"
		},
		{
			"inputs": [
				{
					"internalType": "uint16",
					"name": "_renavam",
					"type": "uint16"
				},
				{
					"internalType": "string",
					"name": "_placa",
					"type": "string"
				}
			],
			"name": "verificaContrato",
			"outputs": [],
			"stateMutability": "nonpayable",
			"type": "function"
		}
	]
}